{"abi":[{"inputs":[{"internalType":"uint256","name":"minimum","type":"uint256"},{"internalType":"address","name":"creator","type":"address"}],"stateMutability":"nonpayable","type":"constructor"},{"inputs":[{"internalType":"uint256","name":"index","type":"uint256"}],"name":"approveRequest","outputs":[],"stateMutability":"nonpayable","type":"function"},{"inputs":[{"internalType":"address","name":"","type":"address"}],"name":"approvers","outputs":[{"internalType":"bool","name":"","type":"bool"}],"stateMutability":"view","type":"function"},{"inputs":[],"name":"approversCount","outputs":[{"internalType":"uint256","name":"","type":"uint256"}],"stateMutability":"view","type":"function"},{"inputs":[],"name":"contribute","outputs":[],"stateMutability":"payable","type":"function"},{"inputs":[{"internalType":"string","name":"description","type":"string"},{"internalType":"uint256","name":"value","type":"uint256"},{"internalType":"address payable","name":"recipient","type":"address"}],"name":"createRequest","outputs":[],"stateMutability":"nonpayable","type":"function"},{"inputs":[{"internalType":"uint256","name":"index","type":"uint256"}],"name":"finalizeRequest","outputs":[],"stateMutability":"nonpayable","type":"function"},{"inputs":[],"name":"getRequestsCount","outputs":[{"internalType":"uint256","name":"","type":"uint256"}],"stateMutability":"view","type":"function"},{"inputs":[],"name":"getSummury","outputs":[{"internalType":"uint256","name":"","type":"uint256"},{"internalType":"uint256","name":"","type":"uint256"},{"internalType":"uint256","name":"","type":"uint256"},{"internalType":"uint256","name":"","type":"uint256"},{"internalType":"address","name":"","type":"address"}],"stateMutability":"view","type":"function"},{"inputs":[],"name":"manager","outputs":[{"internalType":"address","name":"","type":"address"}],"stateMutability":"view","type":"function"},{"inputs":[],"name":"minimumContribution","outputs":[{"internalType":"uint256","name":"","type":"uint256"}],"stateMutability":"view","type":"function"},{"inputs":[{"internalType":"uint256","name":"","type":"uint256"}],"name":"requests","outputs":[{"internalType":"string","name":"description","type":"string"},{"internalType":"uint256","name":"value","type":"uint256"},{"internalType":"address payable","name":"recipient","type":"address"},{"internalType":"bool","name":"complete","type":"bool"},{"internalType":"uint256","name":"approvalCount","type":"uint256"}],"stateMutability":"view","type":"function"}],"devdoc":{"kind":"dev","methods":{},"version":1},"evm":{"assembly":"    /* \"Campaign.sol\":446:2550  contract Campaign{... */\n  mstore(0x40, 0x80)\n    /* \"Campaign.sol\":930:1049  constructor(uint minimum, address creator) {... */\n  callvalue\n  dup1\n  iszero\n  tag_1\n  jumpi\n  0x00\n  dup1\n  revert\ntag_1:\n  pop\n  mload(0x40)\n  sub(codesize, bytecodeSize)\n  dup1\n  bytecodeSize\n  dup4\n  codecopy\n  dup2\n  dup2\n  add\n  0x40\n  mstore\n  dup2\n  add\n  swap1\n  tag_2\n  swap2\n  swap1\n  tag_3\n  jump\t// in\ntag_2:\n    /* \"Campaign.sol\":994:1001  creator */\n  dup1\n    /* \"Campaign.sol\":984:991  manager */\n  0x00\n  dup1\n    /* \"Campaign.sol\":984:1001  manager = creator */\n  0x0100\n  exp\n  dup2\n  sload\n  dup2\n  0xffffffffffffffffffffffffffffffffffffffff\n  mul\n  not\n  and\n  swap1\n  dup4\n  0xffffffffffffffffffffffffffffffffffffffff\n  and\n  mul\n  or\n  swap1\n  sstore\n  pop\n    /* \"Campaign.sol\":1034:1041  minimum */\n  dup2\n    /* \"Campaign.sol\":1012:1031  minimumContribution */\n  0x01\n    /* \"Campaign.sol\":1012:1041  minimumContribution = minimum */\n  dup2\n  swap1\n  sstore\n  pop\n    /* \"Campaign.sol\":930:1049  constructor(uint minimum, address creator) {... */\n  pop\n  pop\n    /* \"Campaign.sol\":446:2550  contract Campaign{... */\n  jump(tag_6)\n    /* \"#utility.yul\":88:205   */\ntag_8:\n    /* \"#utility.yul\":197:198   */\n  0x00\n    /* \"#utility.yul\":194:195   */\n  dup1\n    /* \"#utility.yul\":187:199   */\n  revert\n    /* \"#utility.yul\":334:411   */\ntag_10:\n    /* \"#utility.yul\":371:378   */\n  0x00\n    /* \"#utility.yul\":400:405   */\n  dup2\n    /* \"#utility.yul\":389:405   */\n  swap1\n  pop\n    /* \"#utility.yul\":334:411   */\n  swap2\n  swap1\n  pop\n  jump\t// out\n    /* \"#utility.yul\":417:539   */\ntag_11:\n    /* \"#utility.yul\":490:514   */\n  tag_23\n    /* \"#utility.yul\":508:513   */\n  dup2\n    /* \"#utility.yul\":490:514   */\n  tag_10\n  jump\t// in\ntag_23:\n    /* \"#utility.yul\":483:488   */\n  dup2\n    /* \"#utility.yul\":480:515   */\n  eq\n    /* \"#utility.yul\":470:533   */\n  tag_24\n  jumpi\n    /* \"#utility.yul\":529:530   */\n  0x00\n    /* \"#utility.yul\":526:527   */\n  dup1\n    /* \"#utility.yul\":519:531   */\n  revert\n    /* \"#utility.yul\":470:533   */\ntag_24:\n    /* \"#utility.yul\":417:539   */\n  pop\n  jump\t// out\n    /* \"#utility.yul\":545:688   */\ntag_12:\n    /* \"#utility.yul\":602:607   */\n  0x00\n    /* \"#utility.yul\":633:639   */\n  dup2\n    /* \"#utility.yul\":627:640   */\n  mload\n    /* \"#utility.yul\":618:640   */\n  swap1\n  pop\n    /* \"#utility.yul\":649:682   */\n  tag_26\n    /* \"#utility.yul\":676:681   */\n  dup2\n    /* \"#utility.yul\":649:682   */\n  tag_11\n  jump\t// in\ntag_26:\n    /* \"#utility.yul\":545:688   */\n  swap3\n  swap2\n  pop\n  pop\n  jump\t// out\n    /* \"#utility.yul\":694:820   */\ntag_13:\n    /* \"#utility.yul\":731:738   */\n  0x00\n    /* \"#utility.yul\":771:813   */\n  0xffffffffffffffffffffffffffffffffffffffff\n    /* \"#utility.yul\":764:769   */\n  dup3\n    /* \"#utility.yul\":760:814   */\n  and\n    /* \"#utility.yul\":749:814   */\n  swap1\n  pop\n    /* \"#utility.yul\":694:820   */\n  swap2\n  swap1\n  pop\n  jump\t// out\n    /* \"#utility.yul\":826:922   */\ntag_14:\n    /* \"#utility.yul\":863:870   */\n  0x00\n    /* \"#utility.yul\":892:916   */\n  tag_29\n    /* \"#utility.yul\":910:915   */\n  dup3\n    /* \"#utility.yul\":892:916   */\n  tag_13\n  jump\t// in\ntag_29:\n    /* \"#utility.yul\":881:916   */\n  swap1\n  pop\n    /* \"#utility.yul\":826:922   */\n  swap2\n  swap1\n  pop\n  jump\t// out\n    /* \"#utility.yul\":928:1050   */\ntag_15:\n    /* \"#utility.yul\":1001:1025   */\n  tag_31\n    /* \"#utility.yul\":1019:1024   */\n  dup2\n    /* \"#utility.yul\":1001:1025   */\n  tag_14\n  jump\t// in\ntag_31:\n    /* \"#utility.yul\":994:999   */\n  dup2\n    /* \"#utility.yul\":991:1026   */\n  eq\n    /* \"#utility.yul\":981:1044   */\n  tag_32\n  jumpi\n    /* \"#utility.yul\":1040:1041   */\n  0x00\n    /* \"#utility.yul\":1037:1038   */\n  dup1\n    /* \"#utility.yul\":1030:1042   */\n  revert\n    /* \"#utility.yul\":981:1044   */\ntag_32:\n    /* \"#utility.yul\":928:1050   */\n  pop\n  jump\t// out\n    /* \"#utility.yul\":1056:1199   */\ntag_16:\n    /* \"#utility.yul\":1113:1118   */\n  0x00\n    /* \"#utility.yul\":1144:1150   */\n  dup2\n    /* \"#utility.yul\":1138:1151   */\n  mload\n    /* \"#utility.yul\":1129:1151   */\n  swap1\n  pop\n    /* \"#utility.yul\":1160:1193   */\n  tag_34\n    /* \"#utility.yul\":1187:1192   */\n  dup2\n    /* \"#utility.yul\":1160:1193   */\n  tag_15\n  jump\t// in\ntag_34:\n    /* \"#utility.yul\":1056:1199   */\n  swap3\n  swap2\n  pop\n  pop\n  jump\t// out\n    /* \"#utility.yul\":1205:1712   */\ntag_3:\n    /* \"#utility.yul\":1284:1290   */\n  0x00\n    /* \"#utility.yul\":1292:1298   */\n  dup1\n    /* \"#utility.yul\":1341:1343   */\n  0x40\n    /* \"#utility.yul\":1329:1338   */\n  dup4\n    /* \"#utility.yul\":1320:1327   */\n  dup6\n    /* \"#utility.yul\":1316:1339   */\n  sub\n    /* \"#utility.yul\":1312:1344   */\n  slt\n    /* \"#utility.yul\":1309:1428   */\n  iszero\n  tag_36\n  jumpi\n    /* \"#utility.yul\":1347:1426   */\n  tag_37\n  tag_8\n  jump\t// in\ntag_37:\n    /* \"#utility.yul\":1309:1428   */\ntag_36:\n    /* \"#utility.yul\":1467:1468   */\n  0x00\n    /* \"#utility.yul\":1492:1556   */\n  tag_38\n    /* \"#utility.yul\":1548:1555   */\n  dup6\n    /* \"#utility.yul\":1539:1545   */\n  dup3\n    /* \"#utility.yul\":1528:1537   */\n  dup7\n    /* \"#utility.yul\":1524:1546   */\n  add\n    /* \"#utility.yul\":1492:1556   */\n  tag_12\n  jump\t// in\ntag_38:\n    /* \"#utility.yul\":1482:1556   */\n  swap3\n  pop\n    /* \"#utility.yul\":1438:1566   */\n  pop\n    /* \"#utility.yul\":1605:1607   */\n  0x20\n    /* \"#utility.yul\":1631:1695   */\n  tag_39\n    /* \"#utility.yul\":1687:1694   */\n  dup6\n    /* \"#utility.yul\":1678:1684   */\n  dup3\n    /* \"#utility.yul\":1667:1676   */\n  dup7\n    /* \"#utility.yul\":1663:1685   */\n  add\n    /* \"#utility.yul\":1631:1695   */\n  tag_16\n  jump\t// in\ntag_39:\n    /* \"#utility.yul\":1621:1695   */\n  swap2\n  pop\n    /* \"#utility.yul\":1576:1705   */\n  pop\n    /* \"#utility.yul\":1205:1712   */\n  swap3\n  pop\n  swap3\n  swap1\n  pop\n  jump\t// out\n    /* \"Campaign.sol\":446:2550  contract Campaign{... */\ntag_6:\n  dataSize(sub_0)\n  dup1\n  dataOffset(sub_0)\n  0x00\n  codecopy\n  0x00\n  return\nstop\n\nsub_0: assembly {\n        /* \"Campaign.sol\":446:2550  contract Campaign{... */\n      mstore(0x40, 0x80)\n      jumpi(tag_1, lt(calldatasize, 0x04))\n      shr(0xe0, calldataload(0x00))\n      dup1\n      0x81d12c58\n      gt\n      tag_13\n      jumpi\n      dup1\n      0x81d12c58\n      eq\n      tag_7\n      jumpi\n      dup1\n      0x82fde093\n      eq\n      tag_8\n      jumpi\n      dup1\n      0x8a9cfd55\n      eq\n      tag_9\n      jumpi\n      dup1\n      0x937e09b1\n      eq\n      tag_10\n      jumpi\n      dup1\n      0xd7bb99ba\n      eq\n      tag_11\n      jumpi\n      dup1\n      0xd7d1bbdb\n      eq\n      tag_12\n      jumpi\n      jump(tag_1)\n    tag_13:\n      dup1\n      0x03441006\n      eq\n      tag_2\n      jumpi\n      dup1\n      0x0a144391\n      eq\n      tag_3\n      jumpi\n      dup1\n      0x3410452a\n      eq\n      tag_4\n      jumpi\n      dup1\n      0x481c6a75\n      eq\n      tag_5\n      jumpi\n      dup1\n      0x60719773\n      eq\n      tag_6\n      jumpi\n    tag_1:\n      0x00\n      dup1\n      revert\n        /* \"Campaign.sol\":1915:2179  function finalizeRequest(uint index) public restricted {... */\n    tag_2:\n      callvalue\n      dup1\n      iszero\n      tag_14\n      jumpi\n      0x00\n      dup1\n      revert\n    tag_14:\n      pop\n      tag_15\n      0x04\n      dup1\n      calldatasize\n      sub\n      dup2\n      add\n      swap1\n      tag_16\n      swap2\n      swap1\n      tag_17\n      jump\t// in\n    tag_16:\n      tag_18\n      jump\t// in\n    tag_15:\n      stop\n        /* \"Campaign.sol\":757:798  mapping(address => bool) public approvers */\n    tag_3:\n      callvalue\n      dup1\n      iszero\n      tag_19\n      jumpi\n      0x00\n      dup1\n      revert\n    tag_19:\n      pop\n      tag_20\n      0x04\n      dup1\n      calldatasize\n      sub\n      dup2\n      add\n      swap1\n      tag_21\n      swap2\n      swap1\n      tag_22\n      jump\t// in\n    tag_21:\n      tag_23\n      jump\t// in\n    tag_20:\n      mload(0x40)\n      tag_24\n      swap2\n      swap1\n      tag_25\n      jump\t// in\n    tag_24:\n      mload(0x40)\n      dup1\n      swap2\n      sub\n      swap1\n      return\n        /* \"Campaign.sol\":2457:2547  function getRequestsCount() public view returns (uint){... */\n    tag_4:\n      callvalue\n      dup1\n      iszero\n      tag_26\n      jumpi\n      0x00\n      dup1\n      revert\n    tag_26:\n      pop\n      tag_27\n      tag_28\n      jump\t// in\n    tag_27:\n      mload(0x40)\n      tag_29\n      swap2\n      swap1\n      tag_30\n      jump\t// in\n    tag_29:\n      mload(0x40)\n      dup1\n      swap2\n      sub\n      swap1\n      return\n        /* \"Campaign.sol\":690:712  address public manager */\n    tag_5:\n      callvalue\n      dup1\n      iszero\n      tag_31\n      jumpi\n      0x00\n      dup1\n      revert\n    tag_31:\n      pop\n      tag_32\n      tag_33\n      jump\t// in\n    tag_32:\n      mload(0x40)\n      tag_34\n      swap2\n      swap1\n      tag_35\n      jump\t// in\n    tag_34:\n      mload(0x40)\n      dup1\n      swap2\n      sub\n      swap1\n      return\n        /* \"Campaign.sol\":2191:2449  function getSummury() public view returns (uint, uint, uint, uint, address){... */\n    tag_6:\n      callvalue\n      dup1\n      iszero\n      tag_36\n      jumpi\n      0x00\n      dup1\n      revert\n    tag_36:\n      pop\n      tag_37\n      tag_38\n      jump\t// in\n    tag_37:\n      mload(0x40)\n      tag_39\n      swap6\n      swap5\n      swap4\n      swap3\n      swap2\n      swap1\n      tag_40\n      jump\t// in\n    tag_39:\n      mload(0x40)\n      dup1\n      swap2\n      sub\n      swap1\n      return\n        /* \"Campaign.sol\":1250:1290  mapping(uint => Request) public requests */\n    tag_7:\n      callvalue\n      dup1\n      iszero\n      tag_41\n      jumpi\n      0x00\n      dup1\n      revert\n    tag_41:\n      pop\n      tag_42\n      0x04\n      dup1\n      calldatasize\n      sub\n      dup2\n      add\n      swap1\n      tag_43\n      swap2\n      swap1\n      tag_17\n      jump\t// in\n    tag_43:\n      tag_44\n      jump\t// in\n    tag_42:\n      mload(0x40)\n      tag_45\n      swap6\n      swap5\n      swap4\n      swap3\n      swap2\n      swap1\n      tag_46\n      jump\t// in\n    tag_45:\n      mload(0x40)\n      dup1\n      swap2\n      sub\n      swap1\n      return\n        /* \"Campaign.sol\":805:831  uint public approversCount */\n    tag_8:\n      callvalue\n      dup1\n      iszero\n      tag_47\n      jumpi\n      0x00\n      dup1\n      revert\n    tag_47:\n      pop\n      tag_48\n      tag_49\n      jump\t// in\n    tag_48:\n      mload(0x40)\n      tag_50\n      swap2\n      swap1\n      tag_30\n      jump\t// in\n    tag_50:\n      mload(0x40)\n      dup1\n      swap2\n      sub\n      swap1\n      return\n        /* \"Campaign.sol\":1299:1644  function createRequest(string memory description, uint value, address payable recipient) public restricted {... */\n    tag_9:\n      callvalue\n      dup1\n      iszero\n      tag_51\n      jumpi\n      0x00\n      dup1\n      revert\n    tag_51:\n      pop\n      tag_52\n      0x04\n      dup1\n      calldatasize\n      sub\n      dup2\n      add\n      swap1\n      tag_53\n      swap2\n      swap1\n      tag_54\n      jump\t// in\n    tag_53:\n      tag_55\n      jump\t// in\n    tag_52:\n      stop\n        /* \"Campaign.sol\":719:750  uint public minimumContribution */\n    tag_10:\n      callvalue\n      dup1\n      iszero\n      tag_56\n      jumpi\n      0x00\n      dup1\n      revert\n    tag_56:\n      pop\n      tag_57\n      tag_58\n      jump\t// in\n    tag_57:\n      mload(0x40)\n      tag_59\n      swap2\n      swap1\n      tag_30\n      jump\t// in\n    tag_59:\n      mload(0x40)\n      dup1\n      swap2\n      sub\n      swap1\n      return\n        /* \"Campaign.sol\":1057:1220  function contribute() public  payable {... */\n    tag_11:\n      tag_60\n      tag_61\n      jump\t// in\n    tag_60:\n      stop\n        /* \"Campaign.sol\":1652:1907  function approveRequest(uint index) public {... */\n    tag_12:\n      callvalue\n      dup1\n      iszero\n      tag_62\n      jumpi\n      0x00\n      dup1\n      revert\n    tag_62:\n      pop\n      tag_63\n      0x04\n      dup1\n      calldatasize\n      sub\n      dup2\n      add\n      swap1\n      tag_64\n      swap2\n      swap1\n      tag_17\n      jump\t// in\n    tag_64:\n      tag_65\n      jump\t// in\n    tag_63:\n      stop\n        /* \"Campaign.sol\":1915:2179  function finalizeRequest(uint index) public restricted {... */\n    tag_18:\n        /* \"Campaign.sol\":894:901  manager */\n      0x00\n      dup1\n      sload\n      swap1\n      0x0100\n      exp\n      swap1\n      div\n      0xffffffffffffffffffffffffffffffffffffffff\n      and\n        /* \"Campaign.sol\":880:901  msg.sender == manager */\n      0xffffffffffffffffffffffffffffffffffffffff\n      and\n        /* \"Campaign.sol\":880:890  msg.sender */\n      caller\n        /* \"Campaign.sol\":880:901  msg.sender == manager */\n      0xffffffffffffffffffffffffffffffffffffffff\n      and\n      eq\n        /* \"Campaign.sol\":872:902  require(msg.sender == manager) */\n      tag_67\n      jumpi\n      0x00\n      dup1\n      revert\n    tag_67:\n        /* \"Campaign.sol\":1981:1998  Request storage r */\n      0x00\n        /* \"Campaign.sol\":2001:2009  requests */\n      0x05\n        /* \"Campaign.sol\":2001:2016  requests[index] */\n      0x00\n        /* \"Campaign.sol\":2010:2015  index */\n      dup4\n        /* \"Campaign.sol\":2001:2016  requests[index] */\n      dup2\n      mstore\n      0x20\n      add\n      swap1\n      dup2\n      mstore\n      0x20\n      add\n      0x00\n      keccak256\n        /* \"Campaign.sol\":1981:2016  Request storage r = requests[index] */\n      swap1\n      pop\n        /* \"Campaign.sol\":2069:2070  2 */\n      0x02\n        /* \"Campaign.sol\":2054:2068  approversCount */\n      sload(0x03)\n        /* \"Campaign.sol\":2054:2070  approversCount/2 */\n      tag_69\n      swap2\n      swap1\n      tag_70\n      jump\t// in\n    tag_69:\n        /* \"Campaign.sol\":2035:2036  r */\n      dup2\n        /* \"Campaign.sol\":2035:2050  r.approvalCount */\n      0x03\n      add\n      sload\n        /* \"Campaign.sol\":2035:2071  r.approvalCount > (approversCount/2) */\n      gt\n        /* \"Campaign.sol\":2027:2072  require(r.approvalCount > (approversCount/2)) */\n      tag_71\n      jumpi\n      0x00\n      dup1\n      revert\n    tag_71:\n        /* \"Campaign.sol\":2092:2093  r */\n      dup1\n        /* \"Campaign.sol\":2092:2102  r.complete */\n      0x02\n      add\n      0x14\n      swap1\n      sload\n      swap1\n      0x0100\n      exp\n      swap1\n      div\n      0xff\n      and\n        /* \"Campaign.sol\":2091:2102  !r.complete */\n      iszero\n        /* \"Campaign.sol\":2083:2103  require(!r.complete) */\n      tag_72\n      jumpi\n      0x00\n      dup1\n      revert\n    tag_72:\n        /* \"Campaign.sol\":2114:2115  r */\n      dup1\n        /* \"Campaign.sol\":2114:2125  r.recipient */\n      0x02\n      add\n      0x00\n      swap1\n      sload\n      swap1\n      0x0100\n      exp\n      swap1\n      div\n      0xffffffffffffffffffffffffffffffffffffffff\n      and\n        /* \"Campaign.sol\":2114:2134  r.recipient.transfer */\n      0xffffffffffffffffffffffffffffffffffffffff\n      and\n        /* \"Campaign.sol\":2114:2143  r.recipient.transfer(r.value) */\n      0x08fc\n        /* \"Campaign.sol\":2135:2136  r */\n      dup3\n        /* \"Campaign.sol\":2135:2142  r.value */\n      0x01\n      add\n      sload\n        /* \"Campaign.sol\":2114:2143  r.recipient.transfer(r.value) */\n      swap1\n      dup2\n      iszero\n      mul\n      swap1\n      mload(0x40)\n      0x00\n      mload(0x40)\n      dup1\n      dup4\n      sub\n      dup2\n      dup6\n      dup9\n      dup9\n      call\n      swap4\n      pop\n      pop\n      pop\n      pop\n      iszero\n      dup1\n      iszero\n      tag_74\n      jumpi\n      returndatasize\n      0x00\n      dup1\n      returndatacopy\n      revert(0x00, returndatasize)\n    tag_74:\n      pop\n        /* \"Campaign.sol\":2167:2171  true */\n      0x01\n        /* \"Campaign.sol\":2154:2155  r */\n      dup2\n        /* \"Campaign.sol\":2154:2164  r.complete */\n      0x02\n      add\n      0x14\n        /* \"Campaign.sol\":2154:2171  r.complete = true */\n      0x0100\n      exp\n      dup2\n      sload\n      dup2\n      0xff\n      mul\n      not\n      and\n      swap1\n      dup4\n      iszero\n      iszero\n      mul\n      or\n      swap1\n      sstore\n      pop\n        /* \"Campaign.sol\":1970:2179  {... */\n      pop\n        /* \"Campaign.sol\":1915:2179  function finalizeRequest(uint index) public restricted {... */\n      pop\n      jump\t// out\n        /* \"Campaign.sol\":757:798  mapping(address => bool) public approvers */\n    tag_23:\n      mstore(0x20, 0x02)\n      dup1\n      0x00\n      mstore\n      keccak256(0x00, 0x40)\n      0x00\n      swap2\n      pop\n      sload\n      swap1\n      0x0100\n      exp\n      swap1\n      div\n      0xff\n      and\n      dup2\n      jump\t// out\n        /* \"Campaign.sol\":2457:2547  function getRequestsCount() public view returns (uint){... */\n    tag_28:\n        /* \"Campaign.sol\":2506:2510  uint */\n      0x00\n        /* \"Campaign.sol\":2529:2539  numRequest */\n      sload(0x04)\n        /* \"Campaign.sol\":2522:2539  return numRequest */\n      swap1\n      pop\n        /* \"Campaign.sol\":2457:2547  function getRequestsCount() public view returns (uint){... */\n      swap1\n      jump\t// out\n        /* \"Campaign.sol\":690:712  address public manager */\n    tag_33:\n      0x00\n      dup1\n      sload\n      swap1\n      0x0100\n      exp\n      swap1\n      div\n      0xffffffffffffffffffffffffffffffffffffffff\n      and\n      dup2\n      jump\t// out\n        /* \"Campaign.sol\":2191:2449  function getSummury() public view returns (uint, uint, uint, uint, address){... */\n    tag_38:\n        /* \"Campaign.sol\":2234:2238  uint */\n      0x00\n        /* \"Campaign.sol\":2240:2244  uint */\n      dup1\n        /* \"Campaign.sol\":2246:2250  uint */\n      0x00\n        /* \"Campaign.sol\":2252:2256  uint */\n      dup1\n        /* \"Campaign.sol\":2258:2265  address */\n      0x00\n        /* \"Campaign.sol\":2299:2318  minimumContribution */\n      sload(0x01)\n        /* \"Campaign.sol\":2333:2354  address(this).balance */\n      selfbalance\n        /* \"Campaign.sol\":2369:2379  numRequest */\n      sload(0x04)\n        /* \"Campaign.sol\":2394:2408  approversCount */\n      sload(0x03)\n        /* \"Campaign.sol\":2423:2430  manager */\n      0x00\n      dup1\n      sload\n      swap1\n      0x0100\n      exp\n      swap1\n      div\n      0xffffffffffffffffffffffffffffffffffffffff\n      and\n        /* \"Campaign.sol\":2277:2441  return (... */\n      swap5\n      pop\n      swap5\n      pop\n      swap5\n      pop\n      swap5\n      pop\n      swap5\n      pop\n        /* \"Campaign.sol\":2191:2449  function getSummury() public view returns (uint, uint, uint, uint, address){... */\n      swap1\n      swap2\n      swap3\n      swap4\n      swap5\n      jump\t// out\n        /* \"Campaign.sol\":1250:1290  mapping(uint => Request) public requests */\n    tag_44:\n      mstore(0x20, 0x05)\n      dup1\n      0x00\n      mstore\n      keccak256(0x00, 0x40)\n      0x00\n      swap2\n      pop\n      swap1\n      pop\n      dup1\n      0x00\n      add\n      dup1\n      sload\n      tag_77\n      swap1\n      tag_78\n      jump\t// in\n    tag_77:\n      dup1\n      0x1f\n      add\n      0x20\n      dup1\n      swap2\n      div\n      mul\n      0x20\n      add\n      mload(0x40)\n      swap1\n      dup2\n      add\n      0x40\n      mstore\n      dup1\n      swap3\n      swap2\n      swap1\n      dup2\n      dup2\n      mstore\n      0x20\n      add\n      dup3\n      dup1\n      sload\n      tag_79\n      swap1\n      tag_78\n      jump\t// in\n    tag_79:\n      dup1\n      iszero\n      tag_80\n      jumpi\n      dup1\n      0x1f\n      lt\n      tag_81\n      jumpi\n      0x0100\n      dup1\n      dup4\n      sload\n      div\n      mul\n      dup4\n      mstore\n      swap2\n      0x20\n      add\n      swap2\n      jump(tag_80)\n    tag_81:\n      dup3\n      add\n      swap2\n      swap1\n      0x00\n      mstore\n      keccak256(0x00, 0x20)\n      swap1\n    tag_82:\n      dup2\n      sload\n      dup2\n      mstore\n      swap1\n      0x01\n      add\n      swap1\n      0x20\n      add\n      dup1\n      dup4\n      gt\n      tag_82\n      jumpi\n      dup3\n      swap1\n      sub\n      0x1f\n      and\n      dup3\n      add\n      swap2\n    tag_80:\n      pop\n      pop\n      pop\n      pop\n      pop\n      swap1\n      dup1\n      0x01\n      add\n      sload\n      swap1\n      dup1\n      0x02\n      add\n      0x00\n      swap1\n      sload\n      swap1\n      0x0100\n      exp\n      swap1\n      div\n      0xffffffffffffffffffffffffffffffffffffffff\n      and\n      swap1\n      dup1\n      0x02\n      add\n      0x14\n      swap1\n      sload\n      swap1\n      0x0100\n      exp\n      swap1\n      div\n      0xff\n      and\n      swap1\n      dup1\n      0x03\n      add\n      sload\n      swap1\n      pop\n      dup6\n      jump\t// out\n        /* \"Campaign.sol\":805:831  uint public approversCount */\n    tag_49:\n      sload(0x03)\n      dup2\n      jump\t// out\n        /* \"Campaign.sol\":1299:1644  function createRequest(string memory description, uint value, address payable recipient) public restricted {... */\n    tag_55:\n        /* \"Campaign.sol\":894:901  manager */\n      0x00\n      dup1\n      sload\n      swap1\n      0x0100\n      exp\n      swap1\n      div\n      0xffffffffffffffffffffffffffffffffffffffff\n      and\n        /* \"Campaign.sol\":880:901  msg.sender == manager */\n      0xffffffffffffffffffffffffffffffffffffffff\n      and\n        /* \"Campaign.sol\":880:890  msg.sender */\n      caller\n        /* \"Campaign.sol\":880:901  msg.sender == manager */\n      0xffffffffffffffffffffffffffffffffffffffff\n      and\n      eq\n        /* \"Campaign.sol\":872:902  require(msg.sender == manager) */\n      tag_84\n      jumpi\n      0x00\n      dup1\n      revert\n    tag_84:\n        /* \"Campaign.sol\":1417:1434  Request storage r */\n      0x00\n        /* \"Campaign.sol\":1437:1445  requests */\n      0x05\n        /* \"Campaign.sol\":1437:1459  requests[numRequest++] */\n      0x00\n        /* \"Campaign.sol\":1446:1456  numRequest */\n      0x04\n      0x00\n        /* \"Campaign.sol\":1446:1458  numRequest++ */\n      dup2\n      sload\n      dup1\n      swap3\n      swap2\n      swap1\n      tag_86\n      swap1\n      tag_87\n      jump\t// in\n    tag_86:\n      swap2\n      swap1\n      pop\n      sstore\n        /* \"Campaign.sol\":1437:1459  requests[numRequest++] */\n      dup2\n      mstore\n      0x20\n      add\n      swap1\n      dup2\n      mstore\n      0x20\n      add\n      0x00\n      keccak256\n        /* \"Campaign.sol\":1417:1459  Request storage r = requests[numRequest++] */\n      swap1\n      pop\n        /* \"Campaign.sol\":1490:1501  description */\n      dup4\n        /* \"Campaign.sol\":1474:1475  r */\n      dup2\n        /* \"Campaign.sol\":1474:1487  r.description */\n      0x00\n      add\n        /* \"Campaign.sol\":1474:1501  r.description = description */\n      swap1\n      dup2\n      tag_88\n      swap2\n      swap1\n      tag_89\n      jump\t// in\n    tag_88:\n      pop\n        /* \"Campaign.sol\":1526:1531  value */\n      dup3\n        /* \"Campaign.sol\":1516:1517  r */\n      dup2\n        /* \"Campaign.sol\":1516:1523  r.value */\n      0x01\n      add\n        /* \"Campaign.sol\":1516:1531  r.value = value */\n      dup2\n      swap1\n      sstore\n      pop\n        /* \"Campaign.sol\":1560:1569  recipient */\n      dup2\n        /* \"Campaign.sol\":1546:1547  r */\n      dup2\n        /* \"Campaign.sol\":1546:1557  r.recipient */\n      0x02\n      add\n      0x00\n        /* \"Campaign.sol\":1546:1569  r.recipient = recipient */\n      0x0100\n      exp\n      dup2\n      sload\n      dup2\n      0xffffffffffffffffffffffffffffffffffffffff\n      mul\n      not\n      and\n      swap1\n      dup4\n      0xffffffffffffffffffffffffffffffffffffffff\n      and\n      mul\n      or\n      swap1\n      sstore\n      pop\n        /* \"Campaign.sol\":1597:1602  false */\n      0x00\n        /* \"Campaign.sol\":1584:1585  r */\n      dup2\n        /* \"Campaign.sol\":1584:1594  r.complete */\n      0x02\n      add\n      0x14\n        /* \"Campaign.sol\":1584:1602  r.complete = false */\n      0x0100\n      exp\n      dup2\n      sload\n      dup2\n      0xff\n      mul\n      not\n      and\n      swap1\n      dup4\n      iszero\n      iszero\n      mul\n      or\n      swap1\n      sstore\n      pop\n        /* \"Campaign.sol\":1635:1636  0 */\n      0x00\n        /* \"Campaign.sol\":1617:1618  r */\n      dup2\n        /* \"Campaign.sol\":1617:1632  r.approvalCount */\n      0x03\n      add\n        /* \"Campaign.sol\":1617:1636  r.approvalCount = 0 */\n      dup2\n      swap1\n      sstore\n      pop\n        /* \"Campaign.sol\":1406:1644  {... */\n      pop\n        /* \"Campaign.sol\":1299:1644  function createRequest(string memory description, uint value, address payable recipient) public restricted {... */\n      pop\n      pop\n      pop\n      jump\t// out\n        /* \"Campaign.sol\":719:750  uint public minimumContribution */\n    tag_58:\n      sload(0x01)\n      dup2\n      jump\t// out\n        /* \"Campaign.sol\":1057:1220  function contribute() public  payable {... */\n    tag_61:\n        /* \"Campaign.sol\":1126:1145  minimumContribution */\n      sload(0x01)\n        /* \"Campaign.sol\":1114:1123  msg.value */\n      callvalue\n        /* \"Campaign.sol\":1114:1145  msg.value > minimumContribution */\n      gt\n        /* \"Campaign.sol\":1106:1146  require(msg.value > minimumContribution) */\n      tag_91\n      jumpi\n      0x00\n      dup1\n      revert\n    tag_91:\n        /* \"Campaign.sol\":1181:1185  true */\n      0x01\n        /* \"Campaign.sol\":1157:1166  approvers */\n      0x02\n        /* \"Campaign.sol\":1157:1178  approvers[msg.sender] */\n      0x00\n        /* \"Campaign.sol\":1167:1177  msg.sender */\n      caller\n        /* \"Campaign.sol\":1157:1178  approvers[msg.sender] */\n      0xffffffffffffffffffffffffffffffffffffffff\n      and\n      0xffffffffffffffffffffffffffffffffffffffff\n      and\n      dup2\n      mstore\n      0x20\n      add\n      swap1\n      dup2\n      mstore\n      0x20\n      add\n      0x00\n      keccak256\n      0x00\n        /* \"Campaign.sol\":1157:1185  approvers[msg.sender] = true */\n      0x0100\n      exp\n      dup2\n      sload\n      dup2\n      0xff\n      mul\n      not\n      and\n      swap1\n      dup4\n      iszero\n      iszero\n      mul\n      or\n      swap1\n      sstore\n      pop\n        /* \"Campaign.sol\":1196:1210  approversCount */\n      0x03\n      0x00\n        /* \"Campaign.sol\":1196:1212  approversCount++ */\n      dup2\n      sload\n      dup1\n      swap3\n      swap2\n      swap1\n      tag_92\n      swap1\n      tag_87\n      jump\t// in\n    tag_92:\n      swap2\n      swap1\n      pop\n      sstore\n      pop\n        /* \"Campaign.sol\":1057:1220  function contribute() public  payable {... */\n      jump\t// out\n        /* \"Campaign.sol\":1652:1907  function approveRequest(uint index) public {... */\n    tag_65:\n        /* \"Campaign.sol\":1706:1723  Request storage r */\n      0x00\n        /* \"Campaign.sol\":1726:1734  requests */\n      0x05\n        /* \"Campaign.sol\":1726:1741  requests[index] */\n      0x00\n        /* \"Campaign.sol\":1735:1740  index */\n      dup4\n        /* \"Campaign.sol\":1726:1741  requests[index] */\n      dup2\n      mstore\n      0x20\n      add\n      swap1\n      dup2\n      mstore\n      0x20\n      add\n      0x00\n      keccak256\n        /* \"Campaign.sol\":1706:1741  Request storage r = requests[index] */\n      swap1\n      pop\n        /* \"Campaign.sol\":1762:1771  approvers */\n      0x02\n        /* \"Campaign.sol\":1762:1783  approvers[msg.sender] */\n      0x00\n        /* \"Campaign.sol\":1772:1782  msg.sender */\n      caller\n        /* \"Campaign.sol\":1762:1783  approvers[msg.sender] */\n      0xffffffffffffffffffffffffffffffffffffffff\n      and\n      0xffffffffffffffffffffffffffffffffffffffff\n      and\n      dup2\n      mstore\n      0x20\n      add\n      swap1\n      dup2\n      mstore\n      0x20\n      add\n      0x00\n      keccak256\n      0x00\n      swap1\n      sload\n      swap1\n      0x0100\n      exp\n      swap1\n      div\n      0xff\n      and\n        /* \"Campaign.sol\":1754:1784  require(approvers[msg.sender]) */\n      tag_94\n      jumpi\n      0x00\n      dup1\n      revert\n    tag_94:\n        /* \"Campaign.sol\":1804:1805  r */\n      dup1\n        /* \"Campaign.sol\":1804:1815  r.approvals */\n      0x04\n      add\n        /* \"Campaign.sol\":1804:1827  r.approvals[msg.sender] */\n      0x00\n        /* \"Campaign.sol\":1816:1826  msg.sender */\n      caller\n        /* \"Campaign.sol\":1804:1827  r.approvals[msg.sender] */\n      0xffffffffffffffffffffffffffffffffffffffff\n      and\n      0xffffffffffffffffffffffffffffffffffffffff\n      and\n      dup2\n      mstore\n      0x20\n      add\n      swap1\n      dup2\n      mstore\n      0x20\n      add\n      0x00\n      keccak256\n      0x00\n      swap1\n      sload\n      swap1\n      0x0100\n      exp\n      swap1\n      div\n      0xff\n      and\n        /* \"Campaign.sol\":1803:1827  !r.approvals[msg.sender] */\n      iszero\n        /* \"Campaign.sol\":1795:1828  require(!r.approvals[msg.sender]) */\n      tag_95\n      jumpi\n      0x00\n      dup1\n      revert\n    tag_95:\n        /* \"Campaign.sol\":1867:1871  true */\n      0x01\n        /* \"Campaign.sol\":1841:1842  r */\n      dup2\n        /* \"Campaign.sol\":1841:1852  r.approvals */\n      0x04\n      add\n        /* \"Campaign.sol\":1841:1864  r.approvals[msg.sender] */\n      0x00\n        /* \"Campaign.sol\":1853:1863  msg.sender */\n      caller\n        /* \"Campaign.sol\":1841:1864  r.approvals[msg.sender] */\n      0xffffffffffffffffffffffffffffffffffffffff\n      and\n      0xffffffffffffffffffffffffffffffffffffffff\n      and\n      dup2\n      mstore\n      0x20\n      add\n      swap1\n      dup2\n      mstore\n      0x20\n      add\n      0x00\n      keccak256\n      0x00\n        /* \"Campaign.sol\":1841:1871  r.approvals[msg.sender] = true */\n      0x0100\n      exp\n      dup2\n      sload\n      dup2\n      0xff\n      mul\n      not\n      and\n      swap1\n      dup4\n      iszero\n      iszero\n      mul\n      or\n      swap1\n      sstore\n      pop\n        /* \"Campaign.sol\":1882:1883  r */\n      dup1\n        /* \"Campaign.sol\":1882:1897  r.approvalCount */\n      0x03\n      add\n      0x00\n        /* \"Campaign.sol\":1882:1899  r.approvalCount++ */\n      dup2\n      sload\n      dup1\n      swap3\n      swap2\n      swap1\n      tag_96\n      swap1\n      tag_87\n      jump\t// in\n    tag_96:\n      swap2\n      swap1\n      pop\n      sstore\n      pop\n        /* \"Campaign.sol\":1695:1907  {... */\n      pop\n        /* \"Campaign.sol\":1652:1907  function approveRequest(uint index) public {... */\n      pop\n      jump\t// out\n        /* \"#utility.yul\":7:82   */\n    tag_97:\n        /* \"#utility.yul\":40:46   */\n      0x00\n        /* \"#utility.yul\":73:75   */\n      0x40\n        /* \"#utility.yul\":67:76   */\n      mload\n        /* \"#utility.yul\":57:76   */\n      swap1\n      pop\n        /* \"#utility.yul\":7:82   */\n      swap1\n      jump\t// out\n        /* \"#utility.yul\":88:205   */\n    tag_98:\n        /* \"#utility.yul\":197:198   */\n      0x00\n        /* \"#utility.yul\":194:195   */\n      dup1\n        /* \"#utility.yul\":187:199   */\n      revert\n        /* \"#utility.yul\":211:328   */\n    tag_99:\n        /* \"#utility.yul\":320:321   */\n      0x00\n        /* \"#utility.yul\":317:318   */\n      dup1\n        /* \"#utility.yul\":310:322   */\n      revert\n        /* \"#utility.yul\":334:411   */\n    tag_100:\n        /* \"#utility.yul\":371:378   */\n      0x00\n        /* \"#utility.yul\":400:405   */\n      dup2\n        /* \"#utility.yul\":389:405   */\n      swap1\n      pop\n        /* \"#utility.yul\":334:411   */\n      swap2\n      swap1\n      pop\n      jump\t// out\n        /* \"#utility.yul\":417:539   */\n    tag_101:\n        /* \"#utility.yul\":490:514   */\n      tag_153\n        /* \"#utility.yul\":508:513   */\n      dup2\n        /* \"#utility.yul\":490:514   */\n      tag_100\n      jump\t// in\n    tag_153:\n        /* \"#utility.yul\":483:488   */\n      dup2\n        /* \"#utility.yul\":480:515   */\n      eq\n        /* \"#utility.yul\":470:533   */\n      tag_154\n      jumpi\n        /* \"#utility.yul\":529:530   */\n      0x00\n        /* \"#utility.yul\":526:527   */\n      dup1\n        /* \"#utility.yul\":519:531   */\n      revert\n        /* \"#utility.yul\":470:533   */\n    tag_154:\n        /* \"#utility.yul\":417:539   */\n      pop\n      jump\t// out\n        /* \"#utility.yul\":545:684   */\n    tag_102:\n        /* \"#utility.yul\":591:596   */\n      0x00\n        /* \"#utility.yul\":629:635   */\n      dup2\n        /* \"#utility.yul\":616:636   */\n      calldataload\n        /* \"#utility.yul\":607:636   */\n      swap1\n      pop\n        /* \"#utility.yul\":645:678   */\n      tag_156\n        /* \"#utility.yul\":672:677   */\n      dup2\n        /* \"#utility.yul\":645:678   */\n      tag_101\n      jump\t// in\n    tag_156:\n        /* \"#utility.yul\":545:684   */\n      swap3\n      swap2\n      pop\n      pop\n      jump\t// out\n        /* \"#utility.yul\":690:1019   */\n    tag_17:\n        /* \"#utility.yul\":749:755   */\n      0x00\n        /* \"#utility.yul\":798:800   */\n      0x20\n        /* \"#utility.yul\":786:795   */\n      dup3\n        /* \"#utility.yul\":777:784   */\n      dup5\n        /* \"#utility.yul\":773:796   */\n      sub\n        /* \"#utility.yul\":769:801   */\n      slt\n        /* \"#utility.yul\":766:885   */\n      iszero\n      tag_158\n      jumpi\n        /* \"#utility.yul\":804:883   */\n      tag_159\n      tag_98\n      jump\t// in\n    tag_159:\n        /* \"#utility.yul\":766:885   */\n    tag_158:\n        /* \"#utility.yul\":924:925   */\n      0x00\n        /* \"#utility.yul\":949:1002   */\n      tag_160\n        /* \"#utility.yul\":994:1001   */\n      dup5\n        /* \"#utility.yul\":985:991   */\n      dup3\n        /* \"#utility.yul\":974:983   */\n      dup6\n        /* \"#utility.yul\":970:992   */\n      add\n        /* \"#utility.yul\":949:1002   */\n      tag_102\n      jump\t// in\n    tag_160:\n        /* \"#utility.yul\":939:1002   */\n      swap2\n      pop\n        /* \"#utility.yul\":895:1012   */\n      pop\n        /* \"#utility.yul\":690:1019   */\n      swap3\n      swap2\n      pop\n      pop\n      jump\t// out\n        /* \"#utility.yul\":1025:1151   */\n    tag_103:\n        /* \"#utility.yul\":1062:1069   */\n      0x00\n        /* \"#utility.yul\":1102:1144   */\n      0xffffffffffffffffffffffffffffffffffffffff\n        /* \"#utility.yul\":1095:1100   */\n      dup3\n        /* \"#utility.yul\":1091:1145   */\n      and\n        /* \"#utility.yul\":1080:1145   */\n      swap1\n      pop\n        /* \"#utility.yul\":1025:1151   */\n      swap2\n      swap1\n      pop\n      jump\t// out\n        /* \"#utility.yul\":1157:1253   */\n    tag_104:\n        /* \"#utility.yul\":1194:1201   */\n      0x00\n        /* \"#utility.yul\":1223:1247   */\n      tag_163\n        /* \"#utility.yul\":1241:1246   */\n      dup3\n        /* \"#utility.yul\":1223:1247   */\n      tag_103\n      jump\t// in\n    tag_163:\n        /* \"#utility.yul\":1212:1247   */\n      swap1\n      pop\n        /* \"#utility.yul\":1157:1253   */\n      swap2\n      swap1\n      pop\n      jump\t// out\n        /* \"#utility.yul\":1259:1381   */\n    tag_105:\n        /* \"#utility.yul\":1332:1356   */\n      tag_165\n        /* \"#utility.yul\":1350:1355   */\n      dup2\n        /* \"#utility.yul\":1332:1356   */\n      tag_104\n      jump\t// in\n    tag_165:\n        /* \"#utility.yul\":1325:1330   */\n      dup2\n        /* \"#utility.yul\":1322:1357   */\n      eq\n        /* \"#utility.yul\":1312:1375   */\n      tag_166\n      jumpi\n        /* \"#utility.yul\":1371:1372   */\n      0x00\n        /* \"#utility.yul\":1368:1369   */\n      dup1\n        /* \"#utility.yul\":1361:1373   */\n      revert\n        /* \"#utility.yul\":1312:1375   */\n    tag_166:\n        /* \"#utility.yul\":1259:1381   */\n      pop\n      jump\t// out\n        /* \"#utility.yul\":1387:1526   */\n    tag_106:\n        /* \"#utility.yul\":1433:1438   */\n      0x00\n        /* \"#utility.yul\":1471:1477   */\n      dup2\n        /* \"#utility.yul\":1458:1478   */\n      calldataload\n        /* \"#utility.yul\":1449:1478   */\n      swap1\n      pop\n        /* \"#utility.yul\":1487:1520   */\n      tag_168\n        /* \"#utility.yul\":1514:1519   */\n      dup2\n        /* \"#utility.yul\":1487:1520   */\n      tag_105\n      jump\t// in\n    tag_168:\n        /* \"#utility.yul\":1387:1526   */\n      swap3\n      swap2\n      pop\n      pop\n      jump\t// out\n        /* \"#utility.yul\":1532:1861   */\n    tag_22:\n        /* \"#utility.yul\":1591:1597   */\n      0x00\n        /* \"#utility.yul\":1640:1642   */\n      0x20\n        /* \"#utility.yul\":1628:1637   */\n      dup3\n        /* \"#utility.yul\":1619:1626   */\n      dup5\n        /* \"#utility.yul\":1615:1638   */\n      sub\n        /* \"#utility.yul\":1611:1643   */\n      slt\n        /* \"#utility.yul\":1608:1727   */\n      iszero\n      tag_170\n      jumpi\n        /* \"#utility.yul\":1646:1725   */\n      tag_171\n      tag_98\n      jump\t// in\n    tag_171:\n        /* \"#utility.yul\":1608:1727   */\n    tag_170:\n        /* \"#utility.yul\":1766:1767   */\n      0x00\n        /* \"#utility.yul\":1791:1844   */\n      tag_172\n        /* \"#utility.yul\":1836:1843   */\n      dup5\n        /* \"#utility.yul\":1827:1833   */\n      dup3\n        /* \"#utility.yul\":1816:1825   */\n      dup6\n        /* \"#utility.yul\":1812:1834   */\n      add\n        /* \"#utility.yul\":1791:1844   */\n      tag_106\n      jump\t// in\n    tag_172:\n        /* \"#utility.yul\":1781:1844   */\n      swap2\n      pop\n        /* \"#utility.yul\":1737:1854   */\n      pop\n        /* \"#utility.yul\":1532:1861   */\n      swap3\n      swap2\n      pop\n      pop\n      jump\t// out\n        /* \"#utility.yul\":1867:1957   */\n    tag_107:\n        /* \"#utility.yul\":1901:1908   */\n      0x00\n        /* \"#utility.yul\":1944:1949   */\n      dup2\n        /* \"#utility.yul\":1937:1950   */\n      iszero\n        /* \"#utility.yul\":1930:1951   */\n      iszero\n        /* \"#utility.yul\":1919:1951   */\n      swap1\n      pop\n        /* \"#utility.yul\":1867:1957   */\n      swap2\n      swap1\n      pop\n      jump\t// out\n        /* \"#utility.yul\":1963:2072   */\n    tag_108:\n        /* \"#utility.yul\":2044:2065   */\n      tag_175\n        /* \"#utility.yul\":2059:2064   */\n      dup2\n        /* \"#utility.yul\":2044:2065   */\n      tag_107\n      jump\t// in\n    tag_175:\n        /* \"#utility.yul\":2039:2042   */\n      dup3\n        /* \"#utility.yul\":2032:2066   */\n      mstore\n        /* \"#utility.yul\":1963:2072   */\n      pop\n      pop\n      jump\t// out\n        /* \"#utility.yul\":2078:2288   */\n    tag_25:\n        /* \"#utility.yul\":2165:2169   */\n      0x00\n        /* \"#utility.yul\":2203:2205   */\n      0x20\n        /* \"#utility.yul\":2192:2201   */\n      dup3\n        /* \"#utility.yul\":2188:2206   */\n      add\n        /* \"#utility.yul\":2180:2206   */\n      swap1\n      pop\n        /* \"#utility.yul\":2216:2281   */\n      tag_177\n        /* \"#utility.yul\":2278:2279   */\n      0x00\n        /* \"#utility.yul\":2267:2276   */\n      dup4\n        /* \"#utility.yul\":2263:2280   */\n      add\n        /* \"#utility.yul\":2254:2260   */\n      dup5\n        /* \"#utility.yul\":2216:2281   */\n      tag_108\n      jump\t// in\n    tag_177:\n        /* \"#utility.yul\":2078:2288   */\n      swap3\n      swap2\n      pop\n      pop\n      jump\t// out\n        /* \"#utility.yul\":2294:2412   */\n    tag_109:\n        /* \"#utility.yul\":2381:2405   */\n      tag_179\n        /* \"#utility.yul\":2399:2404   */\n      dup2\n        /* \"#utility.yul\":2381:2405   */\n      tag_100\n      jump\t// in\n    tag_179:\n        /* \"#utility.yul\":2376:2379   */\n      dup3\n        /* \"#utility.yul\":2369:2406   */\n      mstore\n        /* \"#utility.yul\":2294:2412   */\n      pop\n      pop\n      jump\t// out\n        /* \"#utility.yul\":2418:2640   */\n    tag_30:\n        /* \"#utility.yul\":2511:2515   */\n      0x00\n        /* \"#utility.yul\":2549:2551   */\n      0x20\n        /* \"#utility.yul\":2538:2547   */\n      dup3\n        /* \"#utility.yul\":2534:2552   */\n      add\n        /* \"#utility.yul\":2526:2552   */\n      swap1\n      pop\n        /* \"#utility.yul\":2562:2633   */\n      tag_181\n        /* \"#utility.yul\":2630:2631   */\n      0x00\n        /* \"#utility.yul\":2619:2628   */\n      dup4\n        /* \"#utility.yul\":2615:2632   */\n      add\n        /* \"#utility.yul\":2606:2612   */\n      dup5\n        /* \"#utility.yul\":2562:2633   */\n      tag_109\n      jump\t// in\n    tag_181:\n        /* \"#utility.yul\":2418:2640   */\n      swap3\n      swap2\n      pop\n      pop\n      jump\t// out\n        /* \"#utility.yul\":2646:2764   */\n    tag_110:\n        /* \"#utility.yul\":2733:2757   */\n      tag_183\n        /* \"#utility.yul\":2751:2756   */\n      dup2\n        /* \"#utility.yul\":2733:2757   */\n      tag_104\n      jump\t// in\n    tag_183:\n        /* \"#utility.yul\":2728:2731   */\n      dup3\n        /* \"#utility.yul\":2721:2758   */\n      mstore\n        /* \"#utility.yul\":2646:2764   */\n      pop\n      pop\n      jump\t// out\n        /* \"#utility.yul\":2770:2992   */\n    tag_35:\n        /* \"#utility.yul\":2863:2867   */\n      0x00\n        /* \"#utility.yul\":2901:2903   */\n      0x20\n        /* \"#utility.yul\":2890:2899   */\n      dup3\n        /* \"#utility.yul\":2886:2904   */\n      add\n        /* \"#utility.yul\":2878:2904   */\n      swap1\n      pop\n        /* \"#utility.yul\":2914:2985   */\n      tag_185\n        /* \"#utility.yul\":2982:2983   */\n      0x00\n        /* \"#utility.yul\":2971:2980   */\n      dup4\n        /* \"#utility.yul\":2967:2984   */\n      add\n        /* \"#utility.yul\":2958:2964   */\n      dup5\n        /* \"#utility.yul\":2914:2985   */\n      tag_110\n      jump\t// in\n    tag_185:\n        /* \"#utility.yul\":2770:2992   */\n      swap3\n      swap2\n      pop\n      pop\n      jump\t// out\n        /* \"#utility.yul\":2998:3662   */\n    tag_40:\n        /* \"#utility.yul\":3203:3207   */\n      0x00\n        /* \"#utility.yul\":3241:3244   */\n      0xa0\n        /* \"#utility.yul\":3230:3239   */\n      dup3\n        /* \"#utility.yul\":3226:3245   */\n      add\n        /* \"#utility.yul\":3218:3245   */\n      swap1\n      pop\n        /* \"#utility.yul\":3255:3326   */\n      tag_187\n        /* \"#utility.yul\":3323:3324   */\n      0x00\n        /* \"#utility.yul\":3312:3321   */\n      dup4\n        /* \"#utility.yul\":3308:3325   */\n      add\n        /* \"#utility.yul\":3299:3305   */\n      dup9\n        /* \"#utility.yul\":3255:3326   */\n      tag_109\n      jump\t// in\n    tag_187:\n        /* \"#utility.yul\":3336:3408   */\n      tag_188\n        /* \"#utility.yul\":3404:3406   */\n      0x20\n        /* \"#utility.yul\":3393:3402   */\n      dup4\n        /* \"#utility.yul\":3389:3407   */\n      add\n        /* \"#utility.yul\":3380:3386   */\n      dup8\n        /* \"#utility.yul\":3336:3408   */\n      tag_109\n      jump\t// in\n    tag_188:\n        /* \"#utility.yul\":3418:3490   */\n      tag_189\n        /* \"#utility.yul\":3486:3488   */\n      0x40\n        /* \"#utility.yul\":3475:3484   */\n      dup4\n        /* \"#utility.yul\":3471:3489   */\n      add\n        /* \"#utility.yul\":3462:3468   */\n      dup7\n        /* \"#utility.yul\":3418:3490   */\n      tag_109\n      jump\t// in\n    tag_189:\n        /* \"#utility.yul\":3500:3572   */\n      tag_190\n        /* \"#utility.yul\":3568:3570   */\n      0x60\n        /* \"#utility.yul\":3557:3566   */\n      dup4\n        /* \"#utility.yul\":3553:3571   */\n      add\n        /* \"#utility.yul\":3544:3550   */\n      dup6\n        /* \"#utility.yul\":3500:3572   */\n      tag_109\n      jump\t// in\n    tag_190:\n        /* \"#utility.yul\":3582:3655   */\n      tag_191\n        /* \"#utility.yul\":3650:3653   */\n      0x80\n        /* \"#utility.yul\":3639:3648   */\n      dup4\n        /* \"#utility.yul\":3635:3654   */\n      add\n        /* \"#utility.yul\":3626:3632   */\n      dup5\n        /* \"#utility.yul\":3582:3655   */\n      tag_110\n      jump\t// in\n    tag_191:\n        /* \"#utility.yul\":2998:3662   */\n      swap7\n      swap6\n      pop\n      pop\n      pop\n      pop\n      pop\n      pop\n      jump\t// out\n        /* \"#utility.yul\":3668:3767   */\n    tag_111:\n        /* \"#utility.yul\":3720:3726   */\n      0x00\n        /* \"#utility.yul\":3754:3759   */\n      dup2\n        /* \"#utility.yul\":3748:3760   */\n      mload\n        /* \"#utility.yul\":3738:3760   */\n      swap1\n      pop\n        /* \"#utility.yul\":3668:3767   */\n      swap2\n      swap1\n      pop\n      jump\t// out\n        /* \"#utility.yul\":3773:3942   */\n    tag_112:\n        /* \"#utility.yul\":3857:3868   */\n      0x00\n        /* \"#utility.yul\":3891:3897   */\n      dup3\n        /* \"#utility.yul\":3886:3889   */\n      dup3\n        /* \"#utility.yul\":3879:3898   */\n      mstore\n        /* \"#utility.yul\":3931:3935   */\n      0x20\n        /* \"#utility.yul\":3926:3929   */\n      dup3\n        /* \"#utility.yul\":3922:3936   */\n      add\n        /* \"#utility.yul\":3907:3936   */\n      swap1\n      pop\n        /* \"#utility.yul\":3773:3942   */\n      swap3\n      swap2\n      pop\n      pop\n      jump\t// out\n        /* \"#utility.yul\":3948:4194   */\n    tag_113:\n        /* \"#utility.yul\":4029:4030   */\n      0x00\n        /* \"#utility.yul\":4039:4152   */\n    tag_195:\n        /* \"#utility.yul\":4053:4059   */\n      dup4\n        /* \"#utility.yul\":4050:4051   */\n      dup2\n        /* \"#utility.yul\":4047:4060   */\n      lt\n        /* \"#utility.yul\":4039:4152   */\n      iszero\n      tag_197\n      jumpi\n        /* \"#utility.yul\":4138:4139   */\n      dup1\n        /* \"#utility.yul\":4133:4136   */\n      dup3\n        /* \"#utility.yul\":4129:4140   */\n      add\n        /* \"#utility.yul\":4123:4141   */\n      mload\n        /* \"#utility.yul\":4119:4120   */\n      dup2\n        /* \"#utility.yul\":4114:4117   */\n      dup5\n        /* \"#utility.yul\":4110:4121   */\n      add\n        /* \"#utility.yul\":4103:4142   */\n      mstore\n        /* \"#utility.yul\":4075:4077   */\n      0x20\n        /* \"#utility.yul\":4072:4073   */\n      dup2\n        /* \"#utility.yul\":4068:4078   */\n      add\n        /* \"#utility.yul\":4063:4078   */\n      swap1\n      pop\n        /* \"#utility.yul\":4039:4152   */\n      jump(tag_195)\n    tag_197:\n        /* \"#utility.yul\":4186:4187   */\n      0x00\n        /* \"#utility.yul\":4177:4183   */\n      dup5\n        /* \"#utility.yul\":4172:4175   */\n      dup5\n        /* \"#utility.yul\":4168:4184   */\n      add\n        /* \"#utility.yul\":4161:4188   */\n      mstore\n        /* \"#utility.yul\":4010:4194   */\n      pop\n        /* \"#utility.yul\":3948:4194   */\n      pop\n      pop\n      pop\n      jump\t// out\n        /* \"#utility.yul\":4200:4302   */\n    tag_114:\n        /* \"#utility.yul\":4241:4247   */\n      0x00\n        /* \"#utility.yul\":4292:4294   */\n      0x1f\n        /* \"#utility.yul\":4288:4295   */\n      not\n        /* \"#utility.yul\":4283:4285   */\n      0x1f\n        /* \"#utility.yul\":4276:4281   */\n      dup4\n        /* \"#utility.yul\":4272:4286   */\n      add\n        /* \"#utility.yul\":4268:4296   */\n      and\n        /* \"#utility.yul\":4258:4296   */\n      swap1\n      pop\n        /* \"#utility.yul\":4200:4302   */\n      swap2\n      swap1\n      pop\n      jump\t// out\n        /* \"#utility.yul\":4308:4685   */\n    tag_115:\n        /* \"#utility.yul\":4396:4399   */\n      0x00\n        /* \"#utility.yul\":4424:4463   */\n      tag_200\n        /* \"#utility.yul\":4457:4462   */\n      dup3\n        /* \"#utility.yul\":4424:4463   */\n      tag_111\n      jump\t// in\n    tag_200:\n        /* \"#utility.yul\":4479:4550   */\n      tag_201\n        /* \"#utility.yul\":4543:4549   */\n      dup2\n        /* \"#utility.yul\":4538:4541   */\n      dup6\n        /* \"#utility.yul\":4479:4550   */\n      tag_112\n      jump\t// in\n    tag_201:\n        /* \"#utility.yul\":4472:4550   */\n      swap4\n      pop\n        /* \"#utility.yul\":4559:4624   */\n      tag_202\n        /* \"#utility.yul\":4617:4623   */\n      dup2\n        /* \"#utility.yul\":4612:4615   */\n      dup6\n        /* \"#utility.yul\":4605:4609   */\n      0x20\n        /* \"#utility.yul\":4598:4603   */\n      dup7\n        /* \"#utility.yul\":4594:4610   */\n      add\n        /* \"#utility.yul\":4559:4624   */\n      tag_113\n      jump\t// in\n    tag_202:\n        /* \"#utility.yul\":4649:4678   */\n      tag_203\n        /* \"#utility.yul\":4671:4677   */\n      dup2\n        /* \"#utility.yul\":4649:4678   */\n      tag_114\n      jump\t// in\n    tag_203:\n        /* \"#utility.yul\":4644:4647   */\n      dup5\n        /* \"#utility.yul\":4640:4679   */\n      add\n        /* \"#utility.yul\":4633:4679   */\n      swap2\n      pop\n        /* \"#utility.yul\":4400:4685   */\n      pop\n        /* \"#utility.yul\":4308:4685   */\n      swap3\n      swap2\n      pop\n      pop\n      jump\t// out\n        /* \"#utility.yul\":4691:4795   */\n    tag_116:\n        /* \"#utility.yul\":4736:4743   */\n      0x00\n        /* \"#utility.yul\":4765:4789   */\n      tag_205\n        /* \"#utility.yul\":4783:4788   */\n      dup3\n        /* \"#utility.yul\":4765:4789   */\n      tag_103\n      jump\t// in\n    tag_205:\n        /* \"#utility.yul\":4754:4789   */\n      swap1\n      pop\n        /* \"#utility.yul\":4691:4795   */\n      swap2\n      swap1\n      pop\n      jump\t// out\n        /* \"#utility.yul\":4801:4943   */\n    tag_117:\n        /* \"#utility.yul\":4904:4936   */\n      tag_207\n        /* \"#utility.yul\":4930:4935   */\n      dup2\n        /* \"#utility.yul\":4904:4936   */\n      tag_116\n      jump\t// in\n    tag_207:\n        /* \"#utility.yul\":4899:4902   */\n      dup3\n        /* \"#utility.yul\":4892:4937   */\n      mstore\n        /* \"#utility.yul\":4801:4943   */\n      pop\n      pop\n      jump\t// out\n        /* \"#utility.yul\":4949:5724   */\n    tag_46:\n        /* \"#utility.yul\":5184:5188   */\n      0x00\n        /* \"#utility.yul\":5222:5225   */\n      0xa0\n        /* \"#utility.yul\":5211:5220   */\n      dup3\n        /* \"#utility.yul\":5207:5226   */\n      add\n        /* \"#utility.yul\":5199:5226   */\n      swap1\n      pop\n        /* \"#utility.yul\":5272:5281   */\n      dup2\n        /* \"#utility.yul\":5266:5270   */\n      dup2\n        /* \"#utility.yul\":5262:5282   */\n      sub\n        /* \"#utility.yul\":5258:5259   */\n      0x00\n        /* \"#utility.yul\":5247:5256   */\n      dup4\n        /* \"#utility.yul\":5243:5260   */\n      add\n        /* \"#utility.yul\":5236:5283   */\n      mstore\n        /* \"#utility.yul\":5300:5378   */\n      tag_209\n        /* \"#utility.yul\":5373:5377   */\n      dup2\n        /* \"#utility.yul\":5364:5370   */\n      dup9\n        /* \"#utility.yul\":5300:5378   */\n      tag_115\n      jump\t// in\n    tag_209:\n        /* \"#utility.yul\":5292:5378   */\n      swap1\n      pop\n        /* \"#utility.yul\":5388:5460   */\n      tag_210\n        /* \"#utility.yul\":5456:5458   */\n      0x20\n        /* \"#utility.yul\":5445:5454   */\n      dup4\n        /* \"#utility.yul\":5441:5459   */\n      add\n        /* \"#utility.yul\":5432:5438   */\n      dup8\n        /* \"#utility.yul\":5388:5460   */\n      tag_109\n      jump\t// in\n    tag_210:\n        /* \"#utility.yul\":5470:5558   */\n      tag_211\n        /* \"#utility.yul\":5554:5556   */\n      0x40\n        /* \"#utility.yul\":5543:5552   */\n      dup4\n        /* \"#utility.yul\":5539:5557   */\n      add\n        /* \"#utility.yul\":5530:5536   */\n      dup7\n        /* \"#utility.yul\":5470:5558   */\n      tag_117\n      jump\t// in\n    tag_211:\n        /* \"#utility.yul\":5568:5634   */\n      tag_212\n        /* \"#utility.yul\":5630:5632   */\n      0x60\n        /* \"#utility.yul\":5619:5628   */\n      dup4\n        /* \"#utility.yul\":5615:5633   */\n      add\n        /* \"#utility.yul\":5606:5612   */\n      dup6\n        /* \"#utility.yul\":5568:5634   */\n      tag_108\n      jump\t// in\n    tag_212:\n        /* \"#utility.yul\":5644:5717   */\n      tag_213\n        /* \"#utility.yul\":5712:5715   */\n      0x80\n        /* \"#utility.yul\":5701:5710   */\n      dup4\n        /* \"#utility.yul\":5697:5716   */\n      add\n        /* \"#utility.yul\":5688:5694   */\n      dup5\n        /* \"#utility.yul\":5644:5717   */\n      tag_109\n      jump\t// in\n    tag_213:\n        /* \"#utility.yul\":4949:5724   */\n      swap7\n      swap6\n      pop\n      pop\n      pop\n      pop\n      pop\n      pop\n      jump\t// out\n        /* \"#utility.yul\":5730:5847   */\n    tag_118:\n        /* \"#utility.yul\":5839:5840   */\n      0x00\n        /* \"#utility.yul\":5836:5837   */\n      dup1\n        /* \"#utility.yul\":5829:5841   */\n      revert\n        /* \"#utility.yul\":5853:5970   */\n    tag_119:\n        /* \"#utility.yul\":5962:5963   */\n      0x00\n        /* \"#utility.yul\":5959:5960   */\n      dup1\n        /* \"#utility.yul\":5952:5964   */\n      revert\n        /* \"#utility.yul\":5976:6156   */\n    tag_120:\n        /* \"#utility.yul\":6024:6101   */\n      0x4e487b7100000000000000000000000000000000000000000000000000000000\n        /* \"#utility.yul\":6021:6022   */\n      0x00\n        /* \"#utility.yul\":6014:6102   */\n      mstore\n        /* \"#utility.yul\":6121:6125   */\n      0x41\n        /* \"#utility.yul\":6118:6119   */\n      0x04\n        /* \"#utility.yul\":6111:6126   */\n      mstore\n        /* \"#utility.yul\":6145:6149   */\n      0x24\n        /* \"#utility.yul\":6142:6143   */\n      0x00\n        /* \"#utility.yul\":6135:6150   */\n      revert\n        /* \"#utility.yul\":6162:6443   */\n    tag_121:\n        /* \"#utility.yul\":6245:6272   */\n      tag_218\n        /* \"#utility.yul\":6267:6271   */\n      dup3\n        /* \"#utility.yul\":6245:6272   */\n      tag_114\n      jump\t// in\n    tag_218:\n        /* \"#utility.yul\":6237:6243   */\n      dup2\n        /* \"#utility.yul\":6233:6273   */\n      add\n        /* \"#utility.yul\":6375:6381   */\n      dup2\n        /* \"#utility.yul\":6363:6373   */\n      dup2\n        /* \"#utility.yul\":6360:6382   */\n      lt\n        /* \"#utility.yul\":6339:6357   */\n      0xffffffffffffffff\n        /* \"#utility.yul\":6327:6337   */\n      dup3\n        /* \"#utility.yul\":6324:6358   */\n      gt\n        /* \"#utility.yul\":6321:6383   */\n      or\n        /* \"#utility.yul\":6318:6406   */\n      iszero\n      tag_219\n      jumpi\n        /* \"#utility.yul\":6386:6404   */\n      tag_220\n      tag_120\n      jump\t// in\n    tag_220:\n        /* \"#utility.yul\":6318:6406   */\n    tag_219:\n        /* \"#utility.yul\":6426:6436   */\n      dup1\n        /* \"#utility.yul\":6422:6424   */\n      0x40\n        /* \"#utility.yul\":6415:6437   */\n      mstore\n        /* \"#utility.yul\":6205:6443   */\n      pop\n        /* \"#utility.yul\":6162:6443   */\n      pop\n      pop\n      jump\t// out\n        /* \"#utility.yul\":6449:6578   */\n    tag_122:\n        /* \"#utility.yul\":6483:6489   */\n      0x00\n        /* \"#utility.yul\":6510:6530   */\n      tag_222\n      tag_97\n      jump\t// in\n    tag_222:\n        /* \"#utility.yul\":6500:6530   */\n      swap1\n      pop\n        /* \"#utility.yul\":6539:6572   */\n      tag_223\n        /* \"#utility.yul\":6567:6571   */\n      dup3\n        /* \"#utility.yul\":6559:6565   */\n      dup3\n        /* \"#utility.yul\":6539:6572   */\n      tag_121\n      jump\t// in\n    tag_223:\n        /* \"#utility.yul\":6449:6578   */\n      swap2\n      swap1\n      pop\n      jump\t// out\n        /* \"#utility.yul\":6584:6892   */\n    tag_123:\n        /* \"#utility.yul\":6646:6650   */\n      0x00\n        /* \"#utility.yul\":6736:6754   */\n      0xffffffffffffffff\n        /* \"#utility.yul\":6728:6734   */\n      dup3\n        /* \"#utility.yul\":6725:6755   */\n      gt\n        /* \"#utility.yul\":6722:6778   */\n      iszero\n      tag_225\n      jumpi\n        /* \"#utility.yul\":6758:6776   */\n      tag_226\n      tag_120\n      jump\t// in\n    tag_226:\n        /* \"#utility.yul\":6722:6778   */\n    tag_225:\n        /* \"#utility.yul\":6796:6825   */\n      tag_227\n        /* \"#utility.yul\":6818:6824   */\n      dup3\n        /* \"#utility.yul\":6796:6825   */\n      tag_114\n      jump\t// in\n    tag_227:\n        /* \"#utility.yul\":6788:6825   */\n      swap1\n      pop\n        /* \"#utility.yul\":6880:6884   */\n      0x20\n        /* \"#utility.yul\":6874:6878   */\n      dup2\n        /* \"#utility.yul\":6870:6885   */\n      add\n        /* \"#utility.yul\":6862:6885   */\n      swap1\n      pop\n        /* \"#utility.yul\":6584:6892   */\n      swap2\n      swap1\n      pop\n      jump\t// out\n        /* \"#utility.yul\":6898:7044   */\n    tag_124:\n        /* \"#utility.yul\":6995:7001   */\n      dup3\n        /* \"#utility.yul\":6990:6993   */\n      dup2\n        /* \"#utility.yul\":6985:6988   */\n      dup4\n        /* \"#utility.yul\":6972:7002   */\n      calldatacopy\n        /* \"#utility.yul\":7036:7037   */\n      0x00\n        /* \"#utility.yul\":7027:7033   */\n      dup4\n        /* \"#utility.yul\":7022:7025   */\n      dup4\n        /* \"#utility.yul\":7018:7034   */\n      add\n        /* \"#utility.yul\":7011:7038   */\n      mstore\n        /* \"#utility.yul\":6898:7044   */\n      pop\n      pop\n      pop\n      jump\t// out\n        /* \"#utility.yul\":7050:7475   */\n    tag_125:\n        /* \"#utility.yul\":7128:7133   */\n      0x00\n        /* \"#utility.yul\":7153:7219   */\n      tag_230\n        /* \"#utility.yul\":7169:7218   */\n      tag_231\n        /* \"#utility.yul\":7211:7217   */\n      dup5\n        /* \"#utility.yul\":7169:7218   */\n      tag_123\n      jump\t// in\n    tag_231:\n        /* \"#utility.yul\":7153:7219   */\n      tag_122\n      jump\t// in\n    tag_230:\n        /* \"#utility.yul\":7144:7219   */\n      swap1\n      pop\n        /* \"#utility.yul\":7242:7248   */\n      dup3\n        /* \"#utility.yul\":7235:7240   */\n      dup2\n        /* \"#utility.yul\":7228:7249   */\n      mstore\n        /* \"#utility.yul\":7280:7284   */\n      0x20\n        /* \"#utility.yul\":7273:7278   */\n      dup2\n        /* \"#utility.yul\":7269:7285   */\n      add\n        /* \"#utility.yul\":7318:7321   */\n      dup5\n        /* \"#utility.yul\":7309:7315   */\n      dup5\n        /* \"#utility.yul\":7304:7307   */\n      dup5\n        /* \"#utility.yul\":7300:7316   */\n      add\n        /* \"#utility.yul\":7297:7322   */\n      gt\n        /* \"#utility.yul\":7294:7406   */\n      iszero\n      tag_232\n      jumpi\n        /* \"#utility.yul\":7325:7404   */\n      tag_233\n      tag_119\n      jump\t// in\n    tag_233:\n        /* \"#utility.yul\":7294:7406   */\n    tag_232:\n        /* \"#utility.yul\":7415:7469   */\n      tag_234\n        /* \"#utility.yul\":7462:7468   */\n      dup5\n        /* \"#utility.yul\":7457:7460   */\n      dup3\n        /* \"#utility.yul\":7452:7455   */\n      dup6\n        /* \"#utility.yul\":7415:7469   */\n      tag_124\n      jump\t// in\n    tag_234:\n        /* \"#utility.yul\":7134:7475   */\n      pop\n        /* \"#utility.yul\":7050:7475   */\n      swap4\n      swap3\n      pop\n      pop\n      pop\n      jump\t// out\n        /* \"#utility.yul\":7495:7835   */\n    tag_126:\n        /* \"#utility.yul\":7551:7556   */\n      0x00\n        /* \"#utility.yul\":7600:7603   */\n      dup3\n        /* \"#utility.yul\":7593:7597   */\n      0x1f\n        /* \"#utility.yul\":7585:7591   */\n      dup4\n        /* \"#utility.yul\":7581:7598   */\n      add\n        /* \"#utility.yul\":7577:7604   */\n      slt\n        /* \"#utility.yul\":7567:7689   */\n      tag_236\n      jumpi\n        /* \"#utility.yul\":7608:7687   */\n      tag_237\n      tag_118\n      jump\t// in\n    tag_237:\n        /* \"#utility.yul\":7567:7689   */\n    tag_236:\n        /* \"#utility.yul\":7725:7731   */\n      dup2\n        /* \"#utility.yul\":7712:7732   */\n      calldataload\n        /* \"#utility.yul\":7750:7829   */\n      tag_238\n        /* \"#utility.yul\":7825:7828   */\n      dup5\n        /* \"#utility.yul\":7817:7823   */\n      dup3\n        /* \"#utility.yul\":7810:7814   */\n      0x20\n        /* \"#utility.yul\":7802:7808   */\n      dup7\n        /* \"#utility.yul\":7798:7815   */\n      add\n        /* \"#utility.yul\":7750:7829   */\n      tag_125\n      jump\t// in\n    tag_238:\n        /* \"#utility.yul\":7741:7829   */\n      swap2\n      pop\n        /* \"#utility.yul\":7557:7835   */\n      pop\n        /* \"#utility.yul\":7495:7835   */\n      swap3\n      swap2\n      pop\n      pop\n      jump\t// out\n        /* \"#utility.yul\":7841:7979   */\n    tag_127:\n        /* \"#utility.yul\":7922:7954   */\n      tag_240\n        /* \"#utility.yul\":7948:7953   */\n      dup2\n        /* \"#utility.yul\":7922:7954   */\n      tag_116\n      jump\t// in\n    tag_240:\n        /* \"#utility.yul\":7915:7920   */\n      dup2\n        /* \"#utility.yul\":7912:7955   */\n      eq\n        /* \"#utility.yul\":7902:7973   */\n      tag_241\n      jumpi\n        /* \"#utility.yul\":7969:7970   */\n      0x00\n        /* \"#utility.yul\":7966:7967   */\n      dup1\n        /* \"#utility.yul\":7959:7971   */\n      revert\n        /* \"#utility.yul\":7902:7973   */\n    tag_241:\n        /* \"#utility.yul\":7841:7979   */\n      pop\n      jump\t// out\n        /* \"#utility.yul\":7985:8140   */\n    tag_128:\n        /* \"#utility.yul\":8039:8044   */\n      0x00\n        /* \"#utility.yul\":8077:8083   */\n      dup2\n        /* \"#utility.yul\":8064:8084   */\n      calldataload\n        /* \"#utility.yul\":8055:8084   */\n      swap1\n      pop\n        /* \"#utility.yul\":8093:8134   */\n      tag_243\n        /* \"#utility.yul\":8128:8133   */\n      dup2\n        /* \"#utility.yul\":8093:8134   */\n      tag_127\n      jump\t// in\n    tag_243:\n        /* \"#utility.yul\":7985:8140   */\n      swap3\n      swap2\n      pop\n      pop\n      jump\t// out\n        /* \"#utility.yul\":8146:8961   */\n    tag_54:\n        /* \"#utility.yul\":8241:8247   */\n      0x00\n        /* \"#utility.yul\":8249:8255   */\n      dup1\n        /* \"#utility.yul\":8257:8263   */\n      0x00\n        /* \"#utility.yul\":8306:8308   */\n      0x60\n        /* \"#utility.yul\":8294:8303   */\n      dup5\n        /* \"#utility.yul\":8285:8292   */\n      dup7\n        /* \"#utility.yul\":8281:8304   */\n      sub\n        /* \"#utility.yul\":8277:8309   */\n      slt\n        /* \"#utility.yul\":8274:8393   */\n      iszero\n      tag_245\n      jumpi\n        /* \"#utility.yul\":8312:8391   */\n      tag_246\n      tag_98\n      jump\t// in\n    tag_246:\n        /* \"#utility.yul\":8274:8393   */\n    tag_245:\n        /* \"#utility.yul\":8460:8461   */\n      0x00\n        /* \"#utility.yul\":8449:8458   */\n      dup5\n        /* \"#utility.yul\":8445:8462   */\n      add\n        /* \"#utility.yul\":8432:8463   */\n      calldataload\n        /* \"#utility.yul\":8490:8508   */\n      0xffffffffffffffff\n        /* \"#utility.yul\":8482:8488   */\n      dup2\n        /* \"#utility.yul\":8479:8509   */\n      gt\n        /* \"#utility.yul\":8476:8593   */\n      iszero\n      tag_247\n      jumpi\n        /* \"#utility.yul\":8512:8591   */\n      tag_248\n      tag_99\n      jump\t// in\n    tag_248:\n        /* \"#utility.yul\":8476:8593   */\n    tag_247:\n        /* \"#utility.yul\":8617:8680   */\n      tag_249\n        /* \"#utility.yul\":8672:8679   */\n      dup7\n        /* \"#utility.yul\":8663:8669   */\n      dup3\n        /* \"#utility.yul\":8652:8661   */\n      dup8\n        /* \"#utility.yul\":8648:8670   */\n      add\n        /* \"#utility.yul\":8617:8680   */\n      tag_126\n      jump\t// in\n    tag_249:\n        /* \"#utility.yul\":8607:8680   */\n      swap4\n      pop\n        /* \"#utility.yul\":8403:8690   */\n      pop\n        /* \"#utility.yul\":8729:8731   */\n      0x20\n        /* \"#utility.yul\":8755:8808   */\n      tag_250\n        /* \"#utility.yul\":8800:8807   */\n      dup7\n        /* \"#utility.yul\":8791:8797   */\n      dup3\n        /* \"#utility.yul\":8780:8789   */\n      dup8\n        /* \"#utility.yul\":8776:8798   */\n      add\n        /* \"#utility.yul\":8755:8808   */\n      tag_102\n      jump\t// in\n    tag_250:\n        /* \"#utility.yul\":8745:8808   */\n      swap3\n      pop\n        /* \"#utility.yul\":8700:8818   */\n      pop\n        /* \"#utility.yul\":8857:8859   */\n      0x40\n        /* \"#utility.yul\":8883:8944   */\n      tag_251\n        /* \"#utility.yul\":8936:8943   */\n      dup7\n        /* \"#utility.yul\":8927:8933   */\n      dup3\n        /* \"#utility.yul\":8916:8925   */\n      dup8\n        /* \"#utility.yul\":8912:8934   */\n      add\n        /* \"#utility.yul\":8883:8944   */\n      tag_128\n      jump\t// in\n    tag_251:\n        /* \"#utility.yul\":8873:8944   */\n      swap2\n      pop\n        /* \"#utility.yul\":8828:8954   */\n      pop\n        /* \"#utility.yul\":8146:8961   */\n      swap3\n      pop\n      swap3\n      pop\n      swap3\n      jump\t// out\n        /* \"#utility.yul\":8967:9147   */\n    tag_129:\n        /* \"#utility.yul\":9015:9092   */\n      0x4e487b7100000000000000000000000000000000000000000000000000000000\n        /* \"#utility.yul\":9012:9013   */\n      0x00\n        /* \"#utility.yul\":9005:9093   */\n      mstore\n        /* \"#utility.yul\":9112:9116   */\n      0x12\n        /* \"#utility.yul\":9109:9110   */\n      0x04\n        /* \"#utility.yul\":9102:9117   */\n      mstore\n        /* \"#utility.yul\":9136:9140   */\n      0x24\n        /* \"#utility.yul\":9133:9134   */\n      0x00\n        /* \"#utility.yul\":9126:9141   */\n      revert\n        /* \"#utility.yul\":9153:9333   */\n    tag_130:\n        /* \"#utility.yul\":9201:9278   */\n      0x4e487b7100000000000000000000000000000000000000000000000000000000\n        /* \"#utility.yul\":9198:9199   */\n      0x00\n        /* \"#utility.yul\":9191:9279   */\n      mstore\n        /* \"#utility.yul\":9298:9302   */\n      0x11\n        /* \"#utility.yul\":9295:9296   */\n      0x04\n        /* \"#utility.yul\":9288:9303   */\n      mstore\n        /* \"#utility.yul\":9322:9326   */\n      0x24\n        /* \"#utility.yul\":9319:9320   */\n      0x00\n        /* \"#utility.yul\":9312:9327   */\n      revert\n        /* \"#utility.yul\":9339:9524   */\n    tag_70:\n        /* \"#utility.yul\":9379:9380   */\n      0x00\n        /* \"#utility.yul\":9396:9416   */\n      tag_255\n        /* \"#utility.yul\":9414:9415   */\n      dup3\n        /* \"#utility.yul\":9396:9416   */\n      tag_100\n      jump\t// in\n    tag_255:\n        /* \"#utility.yul\":9391:9416   */\n      swap2\n      pop\n        /* \"#utility.yul\":9430:9450   */\n      tag_256\n        /* \"#utility.yul\":9448:9449   */\n      dup4\n        /* \"#utility.yul\":9430:9450   */\n      tag_100\n      jump\t// in\n    tag_256:\n        /* \"#utility.yul\":9425:9450   */\n      swap3\n      pop\n        /* \"#utility.yul\":9469:9470   */\n      dup3\n        /* \"#utility.yul\":9459:9494   */\n      tag_257\n      jumpi\n        /* \"#utility.yul\":9474:9492   */\n      tag_258\n      tag_129\n      jump\t// in\n    tag_258:\n        /* \"#utility.yul\":9459:9494   */\n    tag_257:\n        /* \"#utility.yul\":9516:9517   */\n      dup3\n        /* \"#utility.yul\":9513:9514   */\n      dup3\n        /* \"#utility.yul\":9509:9518   */\n      div\n        /* \"#utility.yul\":9504:9518   */\n      swap1\n      pop\n        /* \"#utility.yul\":9339:9524   */\n      swap3\n      swap2\n      pop\n      pop\n      jump\t// out\n        /* \"#utility.yul\":9530:9710   */\n    tag_131:\n        /* \"#utility.yul\":9578:9655   */\n      0x4e487b7100000000000000000000000000000000000000000000000000000000\n        /* \"#utility.yul\":9575:9576   */\n      0x00\n        /* \"#utility.yul\":9568:9656   */\n      mstore\n        /* \"#utility.yul\":9675:9679   */\n      0x22\n        /* \"#utility.yul\":9672:9673   */\n      0x04\n        /* \"#utility.yul\":9665:9680   */\n      mstore\n        /* \"#utility.yul\":9699:9703   */\n      0x24\n        /* \"#utility.yul\":9696:9697   */\n      0x00\n        /* \"#utility.yul\":9689:9704   */\n      revert\n        /* \"#utility.yul\":9716:10036   */\n    tag_78:\n        /* \"#utility.yul\":9760:9766   */\n      0x00\n        /* \"#utility.yul\":9797:9798   */\n      0x02\n        /* \"#utility.yul\":9791:9795   */\n      dup3\n        /* \"#utility.yul\":9787:9799   */\n      div\n        /* \"#utility.yul\":9777:9799   */\n      swap1\n      pop\n        /* \"#utility.yul\":9844:9845   */\n      0x01\n        /* \"#utility.yul\":9838:9842   */\n      dup3\n        /* \"#utility.yul\":9834:9846   */\n      and\n        /* \"#utility.yul\":9865:9883   */\n      dup1\n        /* \"#utility.yul\":9855:9936   */\n      tag_261\n      jumpi\n        /* \"#utility.yul\":9921:9925   */\n      0x7f\n        /* \"#utility.yul\":9913:9919   */\n      dup3\n        /* \"#utility.yul\":9909:9926   */\n      and\n        /* \"#utility.yul\":9899:9926   */\n      swap2\n      pop\n        /* \"#utility.yul\":9855:9936   */\n    tag_261:\n        /* \"#utility.yul\":9983:9985   */\n      0x20\n        /* \"#utility.yul\":9975:9981   */\n      dup3\n        /* \"#utility.yul\":9972:9986   */\n      lt\n        /* \"#utility.yul\":9952:9970   */\n      dup2\n        /* \"#utility.yul\":9949:9987   */\n      sub\n        /* \"#utility.yul\":9946:10030   */\n      tag_262\n      jumpi\n        /* \"#utility.yul\":10002:10020   */\n      tag_263\n      tag_131\n      jump\t// in\n    tag_263:\n        /* \"#utility.yul\":9946:10030   */\n    tag_262:\n        /* \"#utility.yul\":9767:10036   */\n      pop\n        /* \"#utility.yul\":9716:10036   */\n      swap2\n      swap1\n      pop\n      jump\t// out\n        /* \"#utility.yul\":10042:10275   */\n    tag_87:\n        /* \"#utility.yul\":10081:10084   */\n      0x00\n        /* \"#utility.yul\":10104:10128   */\n      tag_265\n        /* \"#utility.yul\":10122:10127   */\n      dup3\n        /* \"#utility.yul\":10104:10128   */\n      tag_100\n      jump\t// in\n    tag_265:\n        /* \"#utility.yul\":10095:10128   */\n      swap2\n      pop\n        /* \"#utility.yul\":10150:10216   */\n      0xffffffffffffffffffffffffffffffffffffffffffffffffffffffffffffffff\n        /* \"#utility.yul\":10143:10148   */\n      dup3\n        /* \"#utility.yul\":10140:10217   */\n      sub\n        /* \"#utility.yul\":10137:10240   */\n      tag_266\n      jumpi\n        /* \"#utility.yul\":10220:10238   */\n      tag_267\n      tag_130\n      jump\t// in\n    tag_267:\n        /* \"#utility.yul\":10137:10240   */\n    tag_266:\n        /* \"#utility.yul\":10267:10268   */\n      0x01\n        /* \"#utility.yul\":10260:10265   */\n      dup3\n        /* \"#utility.yul\":10256:10269   */\n      add\n        /* \"#utility.yul\":10249:10269   */\n      swap1\n      pop\n        /* \"#utility.yul\":10042:10275   */\n      swap2\n      swap1\n      pop\n      jump\t// out\n        /* \"#utility.yul\":10281:10422   */\n    tag_132:\n        /* \"#utility.yul\":10330:10334   */\n      0x00\n        /* \"#utility.yul\":10353:10356   */\n      dup2\n        /* \"#utility.yul\":10345:10356   */\n      swap1\n      pop\n        /* \"#utility.yul\":10376:10379   */\n      dup2\n        /* \"#utility.yul\":10373:10374   */\n      0x00\n        /* \"#utility.yul\":10366:10380   */\n      mstore\n        /* \"#utility.yul\":10410:10414   */\n      0x20\n        /* \"#utility.yul\":10407:10408   */\n      0x00\n        /* \"#utility.yul\":10397:10415   */\n      keccak256\n        /* \"#utility.yul\":10389:10415   */\n      swap1\n      pop\n        /* \"#utility.yul\":10281:10422   */\n      swap2\n      swap1\n      pop\n      jump\t// out\n        /* \"#utility.yul\":10428:10521   */\n    tag_133:\n        /* \"#utility.yul\":10465:10471   */\n      0x00\n        /* \"#utility.yul\":10512:10514   */\n      0x20\n        /* \"#utility.yul\":10507:10509   */\n      0x1f\n        /* \"#utility.yul\":10500:10505   */\n      dup4\n        /* \"#utility.yul\":10496:10510   */\n      add\n        /* \"#utility.yul\":10492:10515   */\n      div\n        /* \"#utility.yul\":10482:10515   */\n      swap1\n      pop\n        /* \"#utility.yul\":10428:10521   */\n      swap2\n      swap1\n      pop\n      jump\t// out\n        /* \"#utility.yul\":10527:10634   */\n    tag_134:\n        /* \"#utility.yul\":10571:10579   */\n      0x00\n        /* \"#utility.yul\":10621:10626   */\n      dup3\n        /* \"#utility.yul\":10615:10619   */\n      dup3\n        /* \"#utility.yul\":10611:10627   */\n      shl\n        /* \"#utility.yul\":10590:10627   */\n      swap1\n      pop\n        /* \"#utility.yul\":10527:10634   */\n      swap3\n      swap2\n      pop\n      pop\n      jump\t// out\n        /* \"#utility.yul\":10640:11033   */\n    tag_135:\n        /* \"#utility.yul\":10709:10715   */\n      0x00\n        /* \"#utility.yul\":10759:10760   */\n      0x08\n        /* \"#utility.yul\":10747:10757   */\n      dup4\n        /* \"#utility.yul\":10743:10761   */\n      mul\n        /* \"#utility.yul\":10782:10879   */\n      tag_272\n        /* \"#utility.yul\":10812:10878   */\n      0xffffffffffffffffffffffffffffffffffffffffffffffffffffffffffffffff\n        /* \"#utility.yul\":10801:10810   */\n      dup3\n        /* \"#utility.yul\":10782:10879   */\n      tag_134\n      jump\t// in\n    tag_272:\n        /* \"#utility.yul\":10900:10939   */\n      tag_273\n        /* \"#utility.yul\":10930:10938   */\n      dup7\n        /* \"#utility.yul\":10919:10928   */\n      dup4\n        /* \"#utility.yul\":10900:10939   */\n      tag_134\n      jump\t// in\n    tag_273:\n        /* \"#utility.yul\":10888:10939   */\n      swap6\n      pop\n        /* \"#utility.yul\":10972:10976   */\n      dup1\n        /* \"#utility.yul\":10968:10977   */\n      not\n        /* \"#utility.yul\":10961:10966   */\n      dup5\n        /* \"#utility.yul\":10957:10978   */\n      and\n        /* \"#utility.yul\":10948:10978   */\n      swap4\n      pop\n        /* \"#utility.yul\":11021:11025   */\n      dup1\n        /* \"#utility.yul\":11011:11019   */\n      dup7\n        /* \"#utility.yul\":11007:11026   */\n      and\n        /* \"#utility.yul\":11000:11005   */\n      dup5\n        /* \"#utility.yul\":10997:11027   */\n      or\n        /* \"#utility.yul\":10987:11027   */\n      swap3\n      pop\n        /* \"#utility.yul\":10716:11033   */\n      pop\n      pop\n        /* \"#utility.yul\":10640:11033   */\n      swap4\n      swap3\n      pop\n      pop\n      pop\n      jump\t// out\n        /* \"#utility.yul\":11039:11099   */\n    tag_136:\n        /* \"#utility.yul\":11067:11070   */\n      0x00\n        /* \"#utility.yul\":11088:11093   */\n      dup2\n        /* \"#utility.yul\":11081:11093   */\n      swap1\n      pop\n        /* \"#utility.yul\":11039:11099   */\n      swap2\n      swap1\n      pop\n      jump\t// out\n        /* \"#utility.yul\":11105:11247   */\n    tag_137:\n        /* \"#utility.yul\":11155:11164   */\n      0x00\n        /* \"#utility.yul\":11188:11241   */\n      tag_276\n        /* \"#utility.yul\":11206:11240   */\n      tag_277\n        /* \"#utility.yul\":11215:11239   */\n      tag_278\n        /* \"#utility.yul\":11233:11238   */\n      dup5\n        /* \"#utility.yul\":11215:11239   */\n      tag_100\n      jump\t// in\n    tag_278:\n        /* \"#utility.yul\":11206:11240   */\n      tag_136\n      jump\t// in\n    tag_277:\n        /* \"#utility.yul\":11188:11241   */\n      tag_100\n      jump\t// in\n    tag_276:\n        /* \"#utility.yul\":11175:11241   */\n      swap1\n      pop\n        /* \"#utility.yul\":11105:11247   */\n      swap2\n      swap1\n      pop\n      jump\t// out\n        /* \"#utility.yul\":11253:11328   */\n    tag_138:\n        /* \"#utility.yul\":11296:11299   */\n      0x00\n        /* \"#utility.yul\":11317:11322   */\n      dup2\n        /* \"#utility.yul\":11310:11322   */\n      swap1\n      pop\n        /* \"#utility.yul\":11253:11328   */\n      swap2\n      swap1\n      pop\n      jump\t// out\n        /* \"#utility.yul\":11334:11603   */\n    tag_139:\n        /* \"#utility.yul\":11444:11483   */\n      tag_281\n        /* \"#utility.yul\":11475:11482   */\n      dup4\n        /* \"#utility.yul\":11444:11483   */\n      tag_137\n      jump\t// in\n    tag_281:\n        /* \"#utility.yul\":11505:11596   */\n      tag_282\n        /* \"#utility.yul\":11554:11595   */\n      tag_283\n        /* \"#utility.yul\":11578:11594   */\n      dup3\n        /* \"#utility.yul\":11554:11595   */\n      tag_138\n      jump\t// in\n    tag_283:\n        /* \"#utility.yul\":11546:11552   */\n      dup5\n        /* \"#utility.yul\":11539:11543   */\n      dup5\n        /* \"#utility.yul\":11533:11544   */\n      sload\n        /* \"#utility.yul\":11505:11596   */\n      tag_135\n      jump\t// in\n    tag_282:\n        /* \"#utility.yul\":11499:11503   */\n      dup3\n        /* \"#utility.yul\":11492:11597   */\n      sstore\n        /* \"#utility.yul\":11410:11603   */\n      pop\n        /* \"#utility.yul\":11334:11603   */\n      pop\n      pop\n      pop\n      jump\t// out\n        /* \"#utility.yul\":11609:11682   */\n    tag_140:\n        /* \"#utility.yul\":11654:11657   */\n      0x00\n        /* \"#utility.yul\":11609:11682   */\n      swap1\n      jump\t// out\n        /* \"#utility.yul\":11688:11877   */\n    tag_141:\n        /* \"#utility.yul\":11765:11797   */\n      tag_286\n      tag_140\n      jump\t// in\n    tag_286:\n        /* \"#utility.yul\":11806:11871   */\n      tag_287\n        /* \"#utility.yul\":11864:11870   */\n      dup2\n        /* \"#utility.yul\":11856:11862   */\n      dup5\n        /* \"#utility.yul\":11850:11854   */\n      dup5\n        /* \"#utility.yul\":11806:11871   */\n      tag_139\n      jump\t// in\n    tag_287:\n        /* \"#utility.yul\":11741:11877   */\n      pop\n        /* \"#utility.yul\":11688:11877   */\n      pop\n      pop\n      jump\t// out\n        /* \"#utility.yul\":11883:12069   */\n    tag_142:\n        /* \"#utility.yul\":11943:12063   */\n    tag_289:\n        /* \"#utility.yul\":11960:11963   */\n      dup2\n        /* \"#utility.yul\":11953:11958   */\n      dup2\n        /* \"#utility.yul\":11950:11964   */\n      lt\n        /* \"#utility.yul\":11943:12063   */\n      iszero\n      tag_291\n      jumpi\n        /* \"#utility.yul\":12014:12053   */\n      tag_292\n        /* \"#utility.yul\":12051:12052   */\n      0x00\n        /* \"#utility.yul\":12044:12049   */\n      dup3\n        /* \"#utility.yul\":12014:12053   */\n      tag_141\n      jump\t// in\n    tag_292:\n        /* \"#utility.yul\":11987:11988   */\n      0x01\n        /* \"#utility.yul\":11980:11985   */\n      dup2\n        /* \"#utility.yul\":11976:11989   */\n      add\n        /* \"#utility.yul\":11967:11989   */\n      swap1\n      pop\n        /* \"#utility.yul\":11943:12063   */\n      jump(tag_289)\n    tag_291:\n        /* \"#utility.yul\":11883:12069   */\n      pop\n      pop\n      jump\t// out\n        /* \"#utility.yul\":12075:12618   */\n    tag_143:\n        /* \"#utility.yul\":12176:12178   */\n      0x1f\n        /* \"#utility.yul\":12171:12174   */\n      dup3\n        /* \"#utility.yul\":12168:12179   */\n      gt\n        /* \"#utility.yul\":12165:12611   */\n      iszero\n      tag_294\n      jumpi\n        /* \"#utility.yul\":12210:12248   */\n      tag_295\n        /* \"#utility.yul\":12242:12247   */\n      dup2\n        /* \"#utility.yul\":12210:12248   */\n      tag_132\n      jump\t// in\n    tag_295:\n        /* \"#utility.yul\":12294:12323   */\n      tag_296\n        /* \"#utility.yul\":12312:12322   */\n      dup5\n        /* \"#utility.yul\":12294:12323   */\n      tag_133\n      jump\t// in\n    tag_296:\n        /* \"#utility.yul\":12284:12292   */\n      dup2\n        /* \"#utility.yul\":12280:12324   */\n      add\n        /* \"#utility.yul\":12477:12479   */\n      0x20\n        /* \"#utility.yul\":12465:12475   */\n      dup6\n        /* \"#utility.yul\":12462:12480   */\n      lt\n        /* \"#utility.yul\":12459:12508   */\n      iszero\n      tag_297\n      jumpi\n        /* \"#utility.yul\":12498:12506   */\n      dup2\n        /* \"#utility.yul\":12483:12506   */\n      swap1\n      pop\n        /* \"#utility.yul\":12459:12508   */\n    tag_297:\n        /* \"#utility.yul\":12521:12601   */\n      tag_298\n        /* \"#utility.yul\":12577:12599   */\n      tag_299\n        /* \"#utility.yul\":12595:12598   */\n      dup6\n        /* \"#utility.yul\":12577:12599   */\n      tag_133\n      jump\t// in\n    tag_299:\n        /* \"#utility.yul\":12567:12575   */\n      dup4\n        /* \"#utility.yul\":12563:12600   */\n      add\n        /* \"#utility.yul\":12550:12561   */\n      dup3\n        /* \"#utility.yul\":12521:12601   */\n      tag_142\n      jump\t// in\n    tag_298:\n        /* \"#utility.yul\":12180:12611   */\n      pop\n      pop\n        /* \"#utility.yul\":12165:12611   */\n    tag_294:\n        /* \"#utility.yul\":12075:12618   */\n      pop\n      pop\n      pop\n      jump\t// out\n        /* \"#utility.yul\":12624:12741   */\n    tag_144:\n        /* \"#utility.yul\":12678:12686   */\n      0x00\n        /* \"#utility.yul\":12728:12733   */\n      dup3\n        /* \"#utility.yul\":12722:12726   */\n      dup3\n        /* \"#utility.yul\":12718:12734   */\n      shr\n        /* \"#utility.yul\":12697:12734   */\n      swap1\n      pop\n        /* \"#utility.yul\":12624:12741   */\n      swap3\n      swap2\n      pop\n      pop\n      jump\t// out\n        /* \"#utility.yul\":12747:12916   */\n    tag_145:\n        /* \"#utility.yul\":12791:12797   */\n      0x00\n        /* \"#utility.yul\":12824:12875   */\n      tag_302\n        /* \"#utility.yul\":12872:12873   */\n      0x00\n        /* \"#utility.yul\":12868:12874   */\n      not\n        /* \"#utility.yul\":12860:12865   */\n      dup5\n        /* \"#utility.yul\":12857:12858   */\n      0x08\n        /* \"#utility.yul\":12853:12866   */\n      mul\n        /* \"#utility.yul\":12824:12875   */\n      tag_144\n      jump\t// in\n    tag_302:\n        /* \"#utility.yul\":12820:12876   */\n      not\n        /* \"#utility.yul\":12905:12909   */\n      dup1\n        /* \"#utility.yul\":12899:12903   */\n      dup4\n        /* \"#utility.yul\":12895:12910   */\n      and\n        /* \"#utility.yul\":12885:12910   */\n      swap2\n      pop\n        /* \"#utility.yul\":12798:12916   */\n      pop\n        /* \"#utility.yul\":12747:12916   */\n      swap3\n      swap2\n      pop\n      pop\n      jump\t// out\n        /* \"#utility.yul\":12921:13216   */\n    tag_146:\n        /* \"#utility.yul\":12997:13001   */\n      0x00\n        /* \"#utility.yul\":13143:13172   */\n      tag_304\n        /* \"#utility.yul\":13168:13171   */\n      dup4\n        /* \"#utility.yul\":13162:13166   */\n      dup4\n        /* \"#utility.yul\":13143:13172   */\n      tag_145\n      jump\t// in\n    tag_304:\n        /* \"#utility.yul\":13135:13172   */\n      swap2\n      pop\n        /* \"#utility.yul\":13205:13208   */\n      dup3\n        /* \"#utility.yul\":13202:13203   */\n      0x02\n        /* \"#utility.yul\":13198:13209   */\n      mul\n        /* \"#utility.yul\":13192:13196   */\n      dup3\n        /* \"#utility.yul\":13189:13210   */\n      or\n        /* \"#utility.yul\":13181:13210   */\n      swap1\n      pop\n        /* \"#utility.yul\":12921:13216   */\n      swap3\n      swap2\n      pop\n      pop\n      jump\t// out\n        /* \"#utility.yul\":13221:14616   */\n    tag_89:\n        /* \"#utility.yul\":13338:13375   */\n      tag_306\n        /* \"#utility.yul\":13371:13374   */\n      dup3\n        /* \"#utility.yul\":13338:13375   */\n      tag_111\n      jump\t// in\n    tag_306:\n        /* \"#utility.yul\":13440:13458   */\n      0xffffffffffffffff\n        /* \"#utility.yul\":13432:13438   */\n      dup2\n        /* \"#utility.yul\":13429:13459   */\n      gt\n        /* \"#utility.yul\":13426:13482   */\n      iszero\n      tag_307\n      jumpi\n        /* \"#utility.yul\":13462:13480   */\n      tag_308\n      tag_120\n      jump\t// in\n    tag_308:\n        /* \"#utility.yul\":13426:13482   */\n    tag_307:\n        /* \"#utility.yul\":13506:13544   */\n      tag_309\n        /* \"#utility.yul\":13538:13542   */\n      dup3\n        /* \"#utility.yul\":13532:13543   */\n      sload\n        /* \"#utility.yul\":13506:13544   */\n      tag_78\n      jump\t// in\n    tag_309:\n        /* \"#utility.yul\":13591:13658   */\n      tag_310\n        /* \"#utility.yul\":13651:13657   */\n      dup3\n        /* \"#utility.yul\":13643:13649   */\n      dup3\n        /* \"#utility.yul\":13637:13641   */\n      dup6\n        /* \"#utility.yul\":13591:13658   */\n      tag_143\n      jump\t// in\n    tag_310:\n        /* \"#utility.yul\":13685:13686   */\n      0x00\n        /* \"#utility.yul\":13709:13713   */\n      0x20\n        /* \"#utility.yul\":13696:13713   */\n      swap1\n      pop\n        /* \"#utility.yul\":13741:13743   */\n      0x1f\n        /* \"#utility.yul\":13733:13739   */\n      dup4\n        /* \"#utility.yul\":13730:13744   */\n      gt\n        /* \"#utility.yul\":13758:13759   */\n      0x01\n        /* \"#utility.yul\":13753:14371   */\n      dup2\n      eq\n      tag_312\n      jumpi\n        /* \"#utility.yul\":14415:14416   */\n      0x00\n        /* \"#utility.yul\":14432:14438   */\n      dup5\n        /* \"#utility.yul\":14429:14506   */\n      iszero\n      tag_313\n      jumpi\n        /* \"#utility.yul\":14481:14490   */\n      dup3\n        /* \"#utility.yul\":14476:14479   */\n      dup8\n        /* \"#utility.yul\":14472:14491   */\n      add\n        /* \"#utility.yul\":14466:14492   */\n      mload\n        /* \"#utility.yul\":14457:14492   */\n      swap1\n      pop\n        /* \"#utility.yul\":14429:14506   */\n    tag_313:\n        /* \"#utility.yul\":14532:14599   */\n      tag_314\n        /* \"#utility.yul\":14592:14598   */\n      dup6\n        /* \"#utility.yul\":14585:14590   */\n      dup3\n        /* \"#utility.yul\":14532:14599   */\n      tag_146\n      jump\t// in\n    tag_314:\n        /* \"#utility.yul\":14526:14530   */\n      dup7\n        /* \"#utility.yul\":14519:14600   */\n      sstore\n        /* \"#utility.yul\":14388:14610   */\n      pop\n        /* \"#utility.yul\":13723:14610   */\n      jump(tag_311)\n        /* \"#utility.yul\":13753:14371   */\n    tag_312:\n        /* \"#utility.yul\":13805:13809   */\n      0x1f\n        /* \"#utility.yul\":13801:13810   */\n      not\n        /* \"#utility.yul\":13793:13799   */\n      dup5\n        /* \"#utility.yul\":13789:13811   */\n      and\n        /* \"#utility.yul\":13839:13876   */\n      tag_315\n        /* \"#utility.yul\":13871:13875   */\n      dup7\n        /* \"#utility.yul\":13839:13876   */\n      tag_132\n      jump\t// in\n    tag_315:\n        /* \"#utility.yul\":13898:13899   */\n      0x00\n        /* \"#utility.yul\":13912:14120   */\n    tag_316:\n        /* \"#utility.yul\":13926:13933   */\n      dup3\n        /* \"#utility.yul\":13923:13924   */\n      dup2\n        /* \"#utility.yul\":13920:13934   */\n      lt\n        /* \"#utility.yul\":13912:14120   */\n      iszero\n      tag_318\n      jumpi\n        /* \"#utility.yul\":14005:14014   */\n      dup5\n        /* \"#utility.yul\":14000:14003   */\n      dup10\n        /* \"#utility.yul\":13996:14015   */\n      add\n        /* \"#utility.yul\":13990:14016   */\n      mload\n        /* \"#utility.yul\":13982:13988   */\n      dup3\n        /* \"#utility.yul\":13975:14017   */\n      sstore\n        /* \"#utility.yul\":14056:14057   */\n      0x01\n        /* \"#utility.yul\":14048:14054   */\n      dup3\n        /* \"#utility.yul\":14044:14058   */\n      add\n        /* \"#utility.yul\":14034:14058   */\n      swap2\n      pop\n        /* \"#utility.yul\":14103:14105   */\n      0x20\n        /* \"#utility.yul\":14092:14101   */\n      dup6\n        /* \"#utility.yul\":14088:14106   */\n      add\n        /* \"#utility.yul\":14075:14106   */\n      swap5\n      pop\n        /* \"#utility.yul\":13949:13953   */\n      0x20\n        /* \"#utility.yul\":13946:13947   */\n      dup2\n        /* \"#utility.yul\":13942:13954   */\n      add\n        /* \"#utility.yul\":13937:13954   */\n      swap1\n      pop\n        /* \"#utility.yul\":13912:14120   */\n      jump(tag_316)\n    tag_318:\n        /* \"#utility.yul\":14148:14154   */\n      dup7\n        /* \"#utility.yul\":14139:14146   */\n      dup4\n        /* \"#utility.yul\":14136:14155   */\n      lt\n        /* \"#utility.yul\":14133:14312   */\n      iszero\n      tag_319\n      jumpi\n        /* \"#utility.yul\":14206:14215   */\n      dup5\n        /* \"#utility.yul\":14201:14204   */\n      dup10\n        /* \"#utility.yul\":14197:14216   */\n      add\n        /* \"#utility.yul\":14191:14217   */\n      mload\n        /* \"#utility.yul\":14249:14297   */\n      tag_320\n        /* \"#utility.yul\":14291:14295   */\n      0x1f\n        /* \"#utility.yul\":14283:14289   */\n      dup10\n        /* \"#utility.yul\":14279:14296   */\n      and\n        /* \"#utility.yul\":14268:14277   */\n      dup3\n        /* \"#utility.yul\":14249:14297   */\n      tag_145\n      jump\t// in\n    tag_320:\n        /* \"#utility.yul\":14241:14247   */\n      dup4\n        /* \"#utility.yul\":14234:14298   */\n      sstore\n        /* \"#utility.yul\":14156:14312   */\n      pop\n        /* \"#utility.yul\":14133:14312   */\n    tag_319:\n        /* \"#utility.yul\":14358:14359   */\n      0x01\n        /* \"#utility.yul\":14354:14355   */\n      0x02\n        /* \"#utility.yul\":14346:14352   */\n      dup9\n        /* \"#utility.yul\":14342:14356   */\n      mul\n        /* \"#utility.yul\":14338:14360   */\n      add\n        /* \"#utility.yul\":14332:14336   */\n      dup9\n        /* \"#utility.yul\":14325:14361   */\n      sstore\n        /* \"#utility.yul\":13760:14371   */\n      pop\n      pop\n      pop\n        /* \"#utility.yul\":13723:14610   */\n    tag_311:\n      pop\n        /* \"#utility.yul\":13313:14616   */\n      pop\n      pop\n      pop\n        /* \"#utility.yul\":13221:14616   */\n      pop\n      pop\n      jump\t// out\n\n    auxdata: 0xa26469706673582212208b5a0124231e462f7763de160494491acb55726394f67dcee987ef42ac5fa97064736f6c63430008120033\n}\n","bytecode":{"linkReferences":{},"object":"60806040523480156200001157600080fd5b50604051620012363803806200123683398181016040528101906200003791906200012b565b806000806101000a81548173ffffffffffffffffffffffffffffffffffffffff021916908373ffffffffffffffffffffffffffffffffffffffff16021790555081600181905550505062000172565b600080fd5b6000819050919050565b620000a0816200008b565b8114620000ac57600080fd5b50565b600081519050620000c08162000095565b92915050565b600073ffffffffffffffffffffffffffffffffffffffff82169050919050565b6000620000f382620000c6565b9050919050565b6200010581620000e6565b81146200011157600080fd5b50565b6000815190506200012581620000fa565b92915050565b6000806040838503121562000145576200014462000086565b5b60006200015585828601620000af565b9250506020620001688582860162000114565b9150509250929050565b6110b480620001826000396000f3fe60806040526004361061009c5760003560e01c806381d12c581161006457806381d12c581461018c57806382fde093146101cd5780638a9cfd55146101f8578063937e09b114610221578063d7bb99ba1461024c578063d7d1bbdb146102565761009c565b806303441006146100a15780630a144391146100ca5780633410452a14610107578063481c6a7514610132578063607197731461015d575b600080fd5b3480156100ad57600080fd5b506100c860048036038101906100c39190610859565b61027f565b005b3480156100d657600080fd5b506100f160048036038101906100ec91906108e4565b6103b8565b6040516100fe919061092c565b60405180910390f35b34801561011357600080fd5b5061011c6103d8565b6040516101299190610956565b60405180910390f35b34801561013e57600080fd5b506101476103e2565b6040516101549190610980565b60405180910390f35b34801561016957600080fd5b50610172610406565b60405161018395949392919061099b565b60405180910390f35b34801561019857600080fd5b506101b360048036038101906101ae9190610859565b61044a565b6040516101c4959493929190610a9f565b60405180910390f35b3480156101d957600080fd5b506101e2610535565b6040516101ef9190610956565b60405180910390f35b34801561020457600080fd5b5061021f600480360381019061021a9190610c5a565b61053b565b005b34801561022d57600080fd5b5061023661064b565b6040516102439190610956565b60405180910390f35b610254610651565b005b34801561026257600080fd5b5061027d60048036038101906102789190610859565b6106d1565b005b60008054906101000a900473ffffffffffffffffffffffffffffffffffffffff1673ffffffffffffffffffffffffffffffffffffffff163373ffffffffffffffffffffffffffffffffffffffff16146102d757600080fd5b600060056000838152602001908152602001600020905060026003546102fd9190610d27565b81600301541161030c57600080fd5b8060020160149054906101000a900460ff161561032857600080fd5b8060020160009054906101000a900473ffffffffffffffffffffffffffffffffffffffff1673ffffffffffffffffffffffffffffffffffffffff166108fc82600101549081150290604051600060405180830381858888f19350505050158015610396573d6000803e3d6000fd5b5060018160020160146101000a81548160ff0219169083151502179055505050565b60026020528060005260406000206000915054906101000a900460ff1681565b6000600454905090565b60008054906101000a900473ffffffffffffffffffffffffffffffffffffffff1681565b60008060008060006001544760045460035460008054906101000a900473ffffffffffffffffffffffffffffffffffffffff16945094509450945094509091929394565b600560205280600052604060002060009150905080600001805461046d90610d87565b80601f016020809104026020016040519081016040528092919081815260200182805461049990610d87565b80156104e65780601f106104bb576101008083540402835291602001916104e6565b820191906000526020600020905b8154815290600101906020018083116104c957829003601f168201915b5050505050908060010154908060020160009054906101000a900473ffffffffffffffffffffffffffffffffffffffff16908060020160149054906101000a900460ff16908060030154905085565b60035481565b60008054906101000a900473ffffffffffffffffffffffffffffffffffffffff1673ffffffffffffffffffffffffffffffffffffffff163373ffffffffffffffffffffffffffffffffffffffff161461059357600080fd5b600060056000600460008154809291906105ac90610db8565b9190505581526020019081526020016000209050838160000190816105d19190610fac565b50828160010181905550818160020160006101000a81548173ffffffffffffffffffffffffffffffffffffffff021916908373ffffffffffffffffffffffffffffffffffffffff16021790555060008160020160146101000a81548160ff0219169083151502179055506000816003018190555050505050565b60015481565b600154341161065f57600080fd5b6001600260003373ffffffffffffffffffffffffffffffffffffffff1673ffffffffffffffffffffffffffffffffffffffff16815260200190815260200160002060006101000a81548160ff021916908315150217905550600360008154809291906106ca90610db8565b9190505550565b6000600560008381526020019081526020016000209050600260003373ffffffffffffffffffffffffffffffffffffffff1673ffffffffffffffffffffffffffffffffffffffff16815260200190815260200160002060009054906101000a900460ff1661073e57600080fd5b8060040160003373ffffffffffffffffffffffffffffffffffffffff1673ffffffffffffffffffffffffffffffffffffffff16815260200190815260200160002060009054906101000a900460ff161561079757600080fd5b60018160040160003373ffffffffffffffffffffffffffffffffffffffff1673ffffffffffffffffffffffffffffffffffffffff16815260200190815260200160002060006101000a81548160ff02191690831515021790555080600301600081548092919061080690610db8565b91905055505050565b6000604051905090565b600080fd5b600080fd5b6000819050919050565b61083681610823565b811461084157600080fd5b50565b6000813590506108538161082d565b92915050565b60006020828403121561086f5761086e610819565b5b600061087d84828501610844565b91505092915050565b600073ffffffffffffffffffffffffffffffffffffffff82169050919050565b60006108b182610886565b9050919050565b6108c1816108a6565b81146108cc57600080fd5b50565b6000813590506108de816108b8565b92915050565b6000602082840312156108fa576108f9610819565b5b6000610908848285016108cf565b91505092915050565b60008115159050919050565b61092681610911565b82525050565b6000602082019050610941600083018461091d565b92915050565b61095081610823565b82525050565b600060208201905061096b6000830184610947565b92915050565b61097a816108a6565b82525050565b60006020820190506109956000830184610971565b92915050565b600060a0820190506109b06000830188610947565b6109bd6020830187610947565b6109ca6040830186610947565b6109d76060830185610947565b6109e46080830184610971565b9695505050505050565b600081519050919050565b600082825260208201905092915050565b60005b83811015610a28578082015181840152602081019050610a0d565b60008484015250505050565b6000601f19601f8301169050919050565b6000610a50826109ee565b610a5a81856109f9565b9350610a6a818560208601610a0a565b610a7381610a34565b840191505092915050565b6000610a8982610886565b9050919050565b610a9981610a7e565b82525050565b600060a0820190508181036000830152610ab98188610a45565b9050610ac86020830187610947565b610ad56040830186610a90565b610ae2606083018561091d565b610aef6080830184610947565b9695505050505050565b600080fd5b600080fd5b7f4e487b7100000000000000000000000000000000000000000000000000000000600052604160045260246000fd5b610b3b82610a34565b810181811067ffffffffffffffff82111715610b5a57610b59610b03565b5b80604052505050565b6000610b6d61080f565b9050610b798282610b32565b919050565b600067ffffffffffffffff821115610b9957610b98610b03565b5b610ba282610a34565b9050602081019050919050565b82818337600083830152505050565b6000610bd1610bcc84610b7e565b610b63565b905082815260208101848484011115610bed57610bec610afe565b5b610bf8848285610baf565b509392505050565b600082601f830112610c1557610c14610af9565b5b8135610c25848260208601610bbe565b91505092915050565b610c3781610a7e565b8114610c4257600080fd5b50565b600081359050610c5481610c2e565b92915050565b600080600060608486031215610c7357610c72610819565b5b600084013567ffffffffffffffff811115610c9157610c9061081e565b5b610c9d86828701610c00565b9350506020610cae86828701610844565b9250506040610cbf86828701610c45565b9150509250925092565b7f4e487b7100000000000000000000000000000000000000000000000000000000600052601260045260246000fd5b7f4e487b7100000000000000000000000000000000000000000000000000000000600052601160045260246000fd5b6000610d3282610823565b9150610d3d83610823565b925082610d4d57610d4c610cc9565b5b828204905092915050565b7f4e487b7100000000000000000000000000000000000000000000000000000000600052602260045260246000fd5b60006002820490506001821680610d9f57607f821691505b602082108103610db257610db1610d58565b5b50919050565b6000610dc382610823565b91507fffffffffffffffffffffffffffffffffffffffffffffffffffffffffffffffff8203610df557610df4610cf8565b5b600182019050919050565b60008190508160005260206000209050919050565b60006020601f8301049050919050565b600082821b905092915050565b600060088302610e627fffffffffffffffffffffffffffffffffffffffffffffffffffffffffffffffff82610e25565b610e6c8683610e25565b95508019841693508086168417925050509392505050565b6000819050919050565b6000610ea9610ea4610e9f84610823565b610e84565b610823565b9050919050565b6000819050919050565b610ec383610e8e565b610ed7610ecf82610eb0565b848454610e32565b825550505050565b600090565b610eec610edf565b610ef7818484610eba565b505050565b5b81811015610f1b57610f10600082610ee4565b600181019050610efd565b5050565b601f821115610f6057610f3181610e00565b610f3a84610e15565b81016020851015610f49578190505b610f5d610f5585610e15565b830182610efc565b50505b505050565b600082821c905092915050565b6000610f8360001984600802610f65565b1980831691505092915050565b6000610f9c8383610f72565b9150826002028217905092915050565b610fb5826109ee565b67ffffffffffffffff811115610fce57610fcd610b03565b5b610fd88254610d87565b610fe3828285610f1f565b600060209050601f8311600181146110165760008415611004578287015190505b61100e8582610f90565b865550611076565b601f19841661102486610e00565b60005b8281101561104c57848901518255600182019150602085019450602081019050611027565b868310156110695784890151611065601f891682610f72565b8355505b6001600288020188555050505b50505050505056fea26469706673582212208b5a0124231e462f7763de160494491acb55726394f67dcee987ef42ac5fa97064736f6c63430008120033","opcodes":"PUSH1 0x80 PUSH1 0x40 MSTORE CALLVALUE DUP1 ISZERO PUSH3 0x11 JUMPI PUSH1 0x0 DUP1 REVERT JUMPDEST POP PUSH1 0x40 MLOAD PUSH3 0x1236 CODESIZE SUB DUP1 PUSH3 0x1236 DUP4 CODECOPY DUP2 DUP2 ADD PUSH1 0x40 MSTORE DUP2 ADD SWAP1 PUSH3 0x37 SWAP2 SWAP1 PUSH3 0x12B JUMP JUMPDEST DUP1 PUSH1 0x0 DUP1 PUSH2 0x100 EXP DUP2 SLOAD DUP2 PUSH20 0xFFFFFFFFFFFFFFFFFFFFFFFFFFFFFFFFFFFFFFFF MUL NOT AND SWAP1 DUP4 PUSH20 0xFFFFFFFFFFFFFFFFFFFFFFFFFFFFFFFFFFFFFFFF AND MUL OR SWAP1 SSTORE POP DUP2 PUSH1 0x1 DUP2 SWAP1 SSTORE POP POP POP PUSH3 0x172 JUMP JUMPDEST PUSH1 0x0 DUP1 REVERT JUMPDEST PUSH1 0x0 DUP2 SWAP1 POP SWAP2 SWAP1 POP JUMP JUMPDEST PUSH3 0xA0 DUP2 PUSH3 0x8B JUMP JUMPDEST DUP2 EQ PUSH3 0xAC JUMPI PUSH1 0x0 DUP1 REVERT JUMPDEST POP JUMP JUMPDEST PUSH1 0x0 DUP2 MLOAD SWAP1 POP PUSH3 0xC0 DUP2 PUSH3 0x95 JUMP JUMPDEST SWAP3 SWAP2 POP POP JUMP JUMPDEST PUSH1 0x0 PUSH20 0xFFFFFFFFFFFFFFFFFFFFFFFFFFFFFFFFFFFFFFFF DUP3 AND SWAP1 POP SWAP2 SWAP1 POP JUMP JUMPDEST PUSH1 0x0 PUSH3 0xF3 DUP3 PUSH3 0xC6 JUMP JUMPDEST SWAP1 POP SWAP2 SWAP1 POP JUMP JUMPDEST PUSH3 0x105 DUP2 PUSH3 0xE6 JUMP JUMPDEST DUP2 EQ PUSH3 0x111 JUMPI PUSH1 0x0 DUP1 REVERT JUMPDEST POP JUMP JUMPDEST PUSH1 0x0 DUP2 MLOAD SWAP1 POP PUSH3 0x125 DUP2 PUSH3 0xFA JUMP JUMPDEST SWAP3 SWAP2 POP POP JUMP JUMPDEST PUSH1 0x0 DUP1 PUSH1 0x40 DUP4 DUP6 SUB SLT ISZERO PUSH3 0x145 JUMPI PUSH3 0x144 PUSH3 0x86 JUMP JUMPDEST JUMPDEST PUSH1 0x0 PUSH3 0x155 DUP6 DUP3 DUP7 ADD PUSH3 0xAF JUMP JUMPDEST SWAP3 POP POP PUSH1 0x20 PUSH3 0x168 DUP6 DUP3 DUP7 ADD PUSH3 0x114 JUMP JUMPDEST SWAP2 POP POP SWAP3 POP SWAP3 SWAP1 POP JUMP JUMPDEST PUSH2 0x10B4 DUP1 PUSH3 0x182 PUSH1 0x0 CODECOPY PUSH1 0x0 RETURN INVALID PUSH1 0x80 PUSH1 0x40 MSTORE PUSH1 0x4 CALLDATASIZE LT PUSH2 0x9C JUMPI PUSH1 0x0 CALLDATALOAD PUSH1 0xE0 SHR DUP1 PUSH4 0x81D12C58 GT PUSH2 0x64 JUMPI DUP1 PUSH4 0x81D12C58 EQ PUSH2 0x18C JUMPI DUP1 PUSH4 0x82FDE093 EQ PUSH2 0x1CD JUMPI DUP1 PUSH4 0x8A9CFD55 EQ PUSH2 0x1F8 JUMPI DUP1 PUSH4 0x937E09B1 EQ PUSH2 0x221 JUMPI DUP1 PUSH4 0xD7BB99BA EQ PUSH2 0x24C JUMPI DUP1 PUSH4 0xD7D1BBDB EQ PUSH2 0x256 JUMPI PUSH2 0x9C JUMP JUMPDEST DUP1 PUSH4 0x3441006 EQ PUSH2 0xA1 JUMPI DUP1 PUSH4 0xA144391 EQ PUSH2 0xCA JUMPI DUP1 PUSH4 0x3410452A EQ PUSH2 0x107 JUMPI DUP1 PUSH4 0x481C6A75 EQ PUSH2 0x132 JUMPI DUP1 PUSH4 0x60719773 EQ PUSH2 0x15D JUMPI JUMPDEST PUSH1 0x0 DUP1 REVERT JUMPDEST CALLVALUE DUP1 ISZERO PUSH2 0xAD JUMPI PUSH1 0x0 DUP1 REVERT JUMPDEST POP PUSH2 0xC8 PUSH1 0x4 DUP1 CALLDATASIZE SUB DUP2 ADD SWAP1 PUSH2 0xC3 SWAP2 SWAP1 PUSH2 0x859 JUMP JUMPDEST PUSH2 0x27F JUMP JUMPDEST STOP JUMPDEST CALLVALUE DUP1 ISZERO PUSH2 0xD6 JUMPI PUSH1 0x0 DUP1 REVERT JUMPDEST POP PUSH2 0xF1 PUSH1 0x4 DUP1 CALLDATASIZE SUB DUP2 ADD SWAP1 PUSH2 0xEC SWAP2 SWAP1 PUSH2 0x8E4 JUMP JUMPDEST PUSH2 0x3B8 JUMP JUMPDEST PUSH1 0x40 MLOAD PUSH2 0xFE SWAP2 SWAP1 PUSH2 0x92C JUMP JUMPDEST PUSH1 0x40 MLOAD DUP1 SWAP2 SUB SWAP1 RETURN JUMPDEST CALLVALUE DUP1 ISZERO PUSH2 0x113 JUMPI PUSH1 0x0 DUP1 REVERT JUMPDEST POP PUSH2 0x11C PUSH2 0x3D8 JUMP JUMPDEST PUSH1 0x40 MLOAD PUSH2 0x129 SWAP2 SWAP1 PUSH2 0x956 JUMP JUMPDEST PUSH1 0x40 MLOAD DUP1 SWAP2 SUB SWAP1 RETURN JUMPDEST CALLVALUE DUP1 ISZERO PUSH2 0x13E JUMPI PUSH1 0x0 DUP1 REVERT JUMPDEST POP PUSH2 0x147 PUSH2 0x3E2 JUMP JUMPDEST PUSH1 0x40 MLOAD PUSH2 0x154 SWAP2 SWAP1 PUSH2 0x980 JUMP JUMPDEST PUSH1 0x40 MLOAD DUP1 SWAP2 SUB SWAP1 RETURN JUMPDEST CALLVALUE DUP1 ISZERO PUSH2 0x169 JUMPI PUSH1 0x0 DUP1 REVERT JUMPDEST POP PUSH2 0x172 PUSH2 0x406 JUMP JUMPDEST PUSH1 0x40 MLOAD PUSH2 0x183 SWAP6 SWAP5 SWAP4 SWAP3 SWAP2 SWAP1 PUSH2 0x99B JUMP JUMPDEST PUSH1 0x40 MLOAD DUP1 SWAP2 SUB SWAP1 RETURN JUMPDEST CALLVALUE DUP1 ISZERO PUSH2 0x198 JUMPI PUSH1 0x0 DUP1 REVERT JUMPDEST POP PUSH2 0x1B3 PUSH1 0x4 DUP1 CALLDATASIZE SUB DUP2 ADD SWAP1 PUSH2 0x1AE SWAP2 SWAP1 PUSH2 0x859 JUMP JUMPDEST PUSH2 0x44A JUMP JUMPDEST PUSH1 0x40 MLOAD PUSH2 0x1C4 SWAP6 SWAP5 SWAP4 SWAP3 SWAP2 SWAP1 PUSH2 0xA9F JUMP JUMPDEST PUSH1 0x40 MLOAD DUP1 SWAP2 SUB SWAP1 RETURN JUMPDEST CALLVALUE DUP1 ISZERO PUSH2 0x1D9 JUMPI PUSH1 0x0 DUP1 REVERT JUMPDEST POP PUSH2 0x1E2 PUSH2 0x535 JUMP JUMPDEST PUSH1 0x40 MLOAD PUSH2 0x1EF SWAP2 SWAP1 PUSH2 0x956 JUMP JUMPDEST PUSH1 0x40 MLOAD DUP1 SWAP2 SUB SWAP1 RETURN JUMPDEST CALLVALUE DUP1 ISZERO PUSH2 0x204 JUMPI PUSH1 0x0 DUP1 REVERT JUMPDEST POP PUSH2 0x21F PUSH1 0x4 DUP1 CALLDATASIZE SUB DUP2 ADD SWAP1 PUSH2 0x21A SWAP2 SWAP1 PUSH2 0xC5A JUMP JUMPDEST PUSH2 0x53B JUMP JUMPDEST STOP JUMPDEST CALLVALUE DUP1 ISZERO PUSH2 0x22D JUMPI PUSH1 0x0 DUP1 REVERT JUMPDEST POP PUSH2 0x236 PUSH2 0x64B JUMP JUMPDEST PUSH1 0x40 MLOAD PUSH2 0x243 SWAP2 SWAP1 PUSH2 0x956 JUMP JUMPDEST PUSH1 0x40 MLOAD DUP1 SWAP2 SUB SWAP1 RETURN JUMPDEST PUSH2 0x254 PUSH2 0x651 JUMP JUMPDEST STOP JUMPDEST CALLVALUE DUP1 ISZERO PUSH2 0x262 JUMPI PUSH1 0x0 DUP1 REVERT JUMPDEST POP PUSH2 0x27D PUSH1 0x4 DUP1 CALLDATASIZE SUB DUP2 ADD SWAP1 PUSH2 0x278 SWAP2 SWAP1 PUSH2 0x859 JUMP JUMPDEST PUSH2 0x6D1 JUMP JUMPDEST STOP JUMPDEST PUSH1 0x0 DUP1 SLOAD SWAP1 PUSH2 0x100 EXP SWAP1 DIV PUSH20 0xFFFFFFFFFFFFFFFFFFFFFFFFFFFFFFFFFFFFFFFF AND PUSH20 0xFFFFFFFFFFFFFFFFFFFFFFFFFFFFFFFFFFFFFFFF AND CALLER PUSH20 0xFFFFFFFFFFFFFFFFFFFFFFFFFFFFFFFFFFFFFFFF AND EQ PUSH2 0x2D7 JUMPI PUSH1 0x0 DUP1 REVERT JUMPDEST PUSH1 0x0 PUSH1 0x5 PUSH1 0x0 DUP4 DUP2 MSTORE PUSH1 0x20 ADD SWAP1 DUP2 MSTORE PUSH1 0x20 ADD PUSH1 0x0 KECCAK256 SWAP1 POP PUSH1 0x2 PUSH1 0x3 SLOAD PUSH2 0x2FD SWAP2 SWAP1 PUSH2 0xD27 JUMP JUMPDEST DUP2 PUSH1 0x3 ADD SLOAD GT PUSH2 0x30C JUMPI PUSH1 0x0 DUP1 REVERT JUMPDEST DUP1 PUSH1 0x2 ADD PUSH1 0x14 SWAP1 SLOAD SWAP1 PUSH2 0x100 EXP SWAP1 DIV PUSH1 0xFF AND ISZERO PUSH2 0x328 JUMPI PUSH1 0x0 DUP1 REVERT JUMPDEST DUP1 PUSH1 0x2 ADD PUSH1 0x0 SWAP1 SLOAD SWAP1 PUSH2 0x100 EXP SWAP1 DIV PUSH20 0xFFFFFFFFFFFFFFFFFFFFFFFFFFFFFFFFFFFFFFFF AND PUSH20 0xFFFFFFFFFFFFFFFFFFFFFFFFFFFFFFFFFFFFFFFF AND PUSH2 0x8FC DUP3 PUSH1 0x1 ADD SLOAD SWAP1 DUP2 ISZERO MUL SWAP1 PUSH1 0x40 MLOAD PUSH1 0x0 PUSH1 0x40 MLOAD DUP1 DUP4 SUB DUP2 DUP6 DUP9 DUP9 CALL SWAP4 POP POP POP POP ISZERO DUP1 ISZERO PUSH2 0x396 JUMPI RETURNDATASIZE PUSH1 0x0 DUP1 RETURNDATACOPY RETURNDATASIZE PUSH1 0x0 REVERT JUMPDEST POP PUSH1 0x1 DUP2 PUSH1 0x2 ADD PUSH1 0x14 PUSH2 0x100 EXP DUP2 SLOAD DUP2 PUSH1 0xFF MUL NOT AND SWAP1 DUP4 ISZERO ISZERO MUL OR SWAP1 SSTORE POP POP POP JUMP JUMPDEST PUSH1 0x2 PUSH1 0x20 MSTORE DUP1 PUSH1 0x0 MSTORE PUSH1 0x40 PUSH1 0x0 KECCAK256 PUSH1 0x0 SWAP2 POP SLOAD SWAP1 PUSH2 0x100 EXP SWAP1 DIV PUSH1 0xFF AND DUP2 JUMP JUMPDEST PUSH1 0x0 PUSH1 0x4 SLOAD SWAP1 POP SWAP1 JUMP JUMPDEST PUSH1 0x0 DUP1 SLOAD SWAP1 PUSH2 0x100 EXP SWAP1 DIV PUSH20 0xFFFFFFFFFFFFFFFFFFFFFFFFFFFFFFFFFFFFFFFF AND DUP2 JUMP JUMPDEST PUSH1 0x0 DUP1 PUSH1 0x0 DUP1 PUSH1 0x0 PUSH1 0x1 SLOAD SELFBALANCE PUSH1 0x4 SLOAD PUSH1 0x3 SLOAD PUSH1 0x0 DUP1 SLOAD SWAP1 PUSH2 0x100 EXP SWAP1 DIV PUSH20 0xFFFFFFFFFFFFFFFFFFFFFFFFFFFFFFFFFFFFFFFF AND SWAP5 POP SWAP5 POP SWAP5 POP SWAP5 POP SWAP5 POP SWAP1 SWAP2 SWAP3 SWAP4 SWAP5 JUMP JUMPDEST PUSH1 0x5 PUSH1 0x20 MSTORE DUP1 PUSH1 0x0 MSTORE PUSH1 0x40 PUSH1 0x0 KECCAK256 PUSH1 0x0 SWAP2 POP SWAP1 POP DUP1 PUSH1 0x0 ADD DUP1 SLOAD PUSH2 0x46D SWAP1 PUSH2 0xD87 JUMP JUMPDEST DUP1 PUSH1 0x1F ADD PUSH1 0x20 DUP1 SWAP2 DIV MUL PUSH1 0x20 ADD PUSH1 0x40 MLOAD SWAP1 DUP2 ADD PUSH1 0x40 MSTORE DUP1 SWAP3 SWAP2 SWAP1 DUP2 DUP2 MSTORE PUSH1 0x20 ADD DUP3 DUP1 SLOAD PUSH2 0x499 SWAP1 PUSH2 0xD87 JUMP JUMPDEST DUP1 ISZERO PUSH2 0x4E6 JUMPI DUP1 PUSH1 0x1F LT PUSH2 0x4BB JUMPI PUSH2 0x100 DUP1 DUP4 SLOAD DIV MUL DUP4 MSTORE SWAP2 PUSH1 0x20 ADD SWAP2 PUSH2 0x4E6 JUMP JUMPDEST DUP3 ADD SWAP2 SWAP1 PUSH1 0x0 MSTORE PUSH1 0x20 PUSH1 0x0 KECCAK256 SWAP1 JUMPDEST DUP2 SLOAD DUP2 MSTORE SWAP1 PUSH1 0x1 ADD SWAP1 PUSH1 0x20 ADD DUP1 DUP4 GT PUSH2 0x4C9 JUMPI DUP3 SWAP1 SUB PUSH1 0x1F AND DUP3 ADD SWAP2 JUMPDEST POP POP POP POP POP SWAP1 DUP1 PUSH1 0x1 ADD SLOAD SWAP1 DUP1 PUSH1 0x2 ADD PUSH1 0x0 SWAP1 SLOAD SWAP1 PUSH2 0x100 EXP SWAP1 DIV PUSH20 0xFFFFFFFFFFFFFFFFFFFFFFFFFFFFFFFFFFFFFFFF AND SWAP1 DUP1 PUSH1 0x2 ADD PUSH1 0x14 SWAP1 SLOAD SWAP1 PUSH2 0x100 EXP SWAP1 DIV PUSH1 0xFF AND SWAP1 DUP1 PUSH1 0x3 ADD SLOAD SWAP1 POP DUP6 JUMP JUMPDEST PUSH1 0x3 SLOAD DUP2 JUMP JUMPDEST PUSH1 0x0 DUP1 SLOAD SWAP1 PUSH2 0x100 EXP SWAP1 DIV PUSH20 0xFFFFFFFFFFFFFFFFFFFFFFFFFFFFFFFFFFFFFFFF AND PUSH20 0xFFFFFFFFFFFFFFFFFFFFFFFFFFFFFFFFFFFFFFFF AND CALLER PUSH20 0xFFFFFFFFFFFFFFFFFFFFFFFFFFFFFFFFFFFFFFFF AND EQ PUSH2 0x593 JUMPI PUSH1 0x0 DUP1 REVERT JUMPDEST PUSH1 0x0 PUSH1 0x5 PUSH1 0x0 PUSH1 0x4 PUSH1 0x0 DUP2 SLOAD DUP1 SWAP3 SWAP2 SWAP1 PUSH2 0x5AC SWAP1 PUSH2 0xDB8 JUMP JUMPDEST SWAP2 SWAP1 POP SSTORE DUP2 MSTORE PUSH1 0x20 ADD SWAP1 DUP2 MSTORE PUSH1 0x20 ADD PUSH1 0x0 KECCAK256 SWAP1 POP DUP4 DUP2 PUSH1 0x0 ADD SWAP1 DUP2 PUSH2 0x5D1 SWAP2 SWAP1 PUSH2 0xFAC JUMP JUMPDEST POP DUP3 DUP2 PUSH1 0x1 ADD DUP2 SWAP1 SSTORE POP DUP2 DUP2 PUSH1 0x2 ADD PUSH1 0x0 PUSH2 0x100 EXP DUP2 SLOAD DUP2 PUSH20 0xFFFFFFFFFFFFFFFFFFFFFFFFFFFFFFFFFFFFFFFF MUL NOT AND SWAP1 DUP4 PUSH20 0xFFFFFFFFFFFFFFFFFFFFFFFFFFFFFFFFFFFFFFFF AND MUL OR SWAP1 SSTORE POP PUSH1 0x0 DUP2 PUSH1 0x2 ADD PUSH1 0x14 PUSH2 0x100 EXP DUP2 SLOAD DUP2 PUSH1 0xFF MUL NOT AND SWAP1 DUP4 ISZERO ISZERO MUL OR SWAP1 SSTORE POP PUSH1 0x0 DUP2 PUSH1 0x3 ADD DUP2 SWAP1 SSTORE POP POP POP POP POP JUMP JUMPDEST PUSH1 0x1 SLOAD DUP2 JUMP JUMPDEST PUSH1 0x1 SLOAD CALLVALUE GT PUSH2 0x65F JUMPI PUSH1 0x0 DUP1 REVERT JUMPDEST PUSH1 0x1 PUSH1 0x2 PUSH1 0x0 CALLER PUSH20 0xFFFFFFFFFFFFFFFFFFFFFFFFFFFFFFFFFFFFFFFF AND PUSH20 0xFFFFFFFFFFFFFFFFFFFFFFFFFFFFFFFFFFFFFFFF AND DUP2 MSTORE PUSH1 0x20 ADD SWAP1 DUP2 MSTORE PUSH1 0x20 ADD PUSH1 0x0 KECCAK256 PUSH1 0x0 PUSH2 0x100 EXP DUP2 SLOAD DUP2 PUSH1 0xFF MUL NOT AND SWAP1 DUP4 ISZERO ISZERO MUL OR SWAP1 SSTORE POP PUSH1 0x3 PUSH1 0x0 DUP2 SLOAD DUP1 SWAP3 SWAP2 SWAP1 PUSH2 0x6CA SWAP1 PUSH2 0xDB8 JUMP JUMPDEST SWAP2 SWAP1 POP SSTORE POP JUMP JUMPDEST PUSH1 0x0 PUSH1 0x5 PUSH1 0x0 DUP4 DUP2 MSTORE PUSH1 0x20 ADD SWAP1 DUP2 MSTORE PUSH1 0x20 ADD PUSH1 0x0 KECCAK256 SWAP1 POP PUSH1 0x2 PUSH1 0x0 CALLER PUSH20 0xFFFFFFFFFFFFFFFFFFFFFFFFFFFFFFFFFFFFFFFF AND PUSH20 0xFFFFFFFFFFFFFFFFFFFFFFFFFFFFFFFFFFFFFFFF AND DUP2 MSTORE PUSH1 0x20 ADD SWAP1 DUP2 MSTORE PUSH1 0x20 ADD PUSH1 0x0 KECCAK256 PUSH1 0x0 SWAP1 SLOAD SWAP1 PUSH2 0x100 EXP SWAP1 DIV PUSH1 0xFF AND PUSH2 0x73E JUMPI PUSH1 0x0 DUP1 REVERT JUMPDEST DUP1 PUSH1 0x4 ADD PUSH1 0x0 CALLER PUSH20 0xFFFFFFFFFFFFFFFFFFFFFFFFFFFFFFFFFFFFFFFF AND PUSH20 0xFFFFFFFFFFFFFFFFFFFFFFFFFFFFFFFFFFFFFFFF AND DUP2 MSTORE PUSH1 0x20 ADD SWAP1 DUP2 MSTORE PUSH1 0x20 ADD PUSH1 0x0 KECCAK256 PUSH1 0x0 SWAP1 SLOAD SWAP1 PUSH2 0x100 EXP SWAP1 DIV PUSH1 0xFF AND ISZERO PUSH2 0x797 JUMPI PUSH1 0x0 DUP1 REVERT JUMPDEST PUSH1 0x1 DUP2 PUSH1 0x4 ADD PUSH1 0x0 CALLER PUSH20 0xFFFFFFFFFFFFFFFFFFFFFFFFFFFFFFFFFFFFFFFF AND PUSH20 0xFFFFFFFFFFFFFFFFFFFFFFFFFFFFFFFFFFFFFFFF AND DUP2 MSTORE PUSH1 0x20 ADD SWAP1 DUP2 MSTORE PUSH1 0x20 ADD PUSH1 0x0 KECCAK256 PUSH1 0x0 PUSH2 0x100 EXP DUP2 SLOAD DUP2 PUSH1 0xFF MUL NOT AND SWAP1 DUP4 ISZERO ISZERO MUL OR SWAP1 SSTORE POP DUP1 PUSH1 0x3 ADD PUSH1 0x0 DUP2 SLOAD DUP1 SWAP3 SWAP2 SWAP1 PUSH2 0x806 SWAP1 PUSH2 0xDB8 JUMP JUMPDEST SWAP2 SWAP1 POP SSTORE POP POP POP JUMP JUMPDEST PUSH1 0x0 PUSH1 0x40 MLOAD SWAP1 POP SWAP1 JUMP JUMPDEST PUSH1 0x0 DUP1 REVERT JUMPDEST PUSH1 0x0 DUP1 REVERT JUMPDEST PUSH1 0x0 DUP2 SWAP1 POP SWAP2 SWAP1 POP JUMP JUMPDEST PUSH2 0x836 DUP2 PUSH2 0x823 JUMP JUMPDEST DUP2 EQ PUSH2 0x841 JUMPI PUSH1 0x0 DUP1 REVERT JUMPDEST POP JUMP JUMPDEST PUSH1 0x0 DUP2 CALLDATALOAD SWAP1 POP PUSH2 0x853 DUP2 PUSH2 0x82D JUMP JUMPDEST SWAP3 SWAP2 POP POP JUMP JUMPDEST PUSH1 0x0 PUSH1 0x20 DUP3 DUP5 SUB SLT ISZERO PUSH2 0x86F JUMPI PUSH2 0x86E PUSH2 0x819 JUMP JUMPDEST JUMPDEST PUSH1 0x0 PUSH2 0x87D DUP5 DUP3 DUP6 ADD PUSH2 0x844 JUMP JUMPDEST SWAP2 POP POP SWAP3 SWAP2 POP POP JUMP JUMPDEST PUSH1 0x0 PUSH20 0xFFFFFFFFFFFFFFFFFFFFFFFFFFFFFFFFFFFFFFFF DUP3 AND SWAP1 POP SWAP2 SWAP1 POP JUMP JUMPDEST PUSH1 0x0 PUSH2 0x8B1 DUP3 PUSH2 0x886 JUMP JUMPDEST SWAP1 POP SWAP2 SWAP1 POP JUMP JUMPDEST PUSH2 0x8C1 DUP2 PUSH2 0x8A6 JUMP JUMPDEST DUP2 EQ PUSH2 0x8CC JUMPI PUSH1 0x0 DUP1 REVERT JUMPDEST POP JUMP JUMPDEST PUSH1 0x0 DUP2 CALLDATALOAD SWAP1 POP PUSH2 0x8DE DUP2 PUSH2 0x8B8 JUMP JUMPDEST SWAP3 SWAP2 POP POP JUMP JUMPDEST PUSH1 0x0 PUSH1 0x20 DUP3 DUP5 SUB SLT ISZERO PUSH2 0x8FA JUMPI PUSH2 0x8F9 PUSH2 0x819 JUMP JUMPDEST JUMPDEST PUSH1 0x0 PUSH2 0x908 DUP5 DUP3 DUP6 ADD PUSH2 0x8CF JUMP JUMPDEST SWAP2 POP POP SWAP3 SWAP2 POP POP JUMP JUMPDEST PUSH1 0x0 DUP2 ISZERO ISZERO SWAP1 POP SWAP2 SWAP1 POP JUMP JUMPDEST PUSH2 0x926 DUP2 PUSH2 0x911 JUMP JUMPDEST DUP3 MSTORE POP POP JUMP JUMPDEST PUSH1 0x0 PUSH1 0x20 DUP3 ADD SWAP1 POP PUSH2 0x941 PUSH1 0x0 DUP4 ADD DUP5 PUSH2 0x91D JUMP JUMPDEST SWAP3 SWAP2 POP POP JUMP JUMPDEST PUSH2 0x950 DUP2 PUSH2 0x823 JUMP JUMPDEST DUP3 MSTORE POP POP JUMP JUMPDEST PUSH1 0x0 PUSH1 0x20 DUP3 ADD SWAP1 POP PUSH2 0x96B PUSH1 0x0 DUP4 ADD DUP5 PUSH2 0x947 JUMP JUMPDEST SWAP3 SWAP2 POP POP JUMP JUMPDEST PUSH2 0x97A DUP2 PUSH2 0x8A6 JUMP JUMPDEST DUP3 MSTORE POP POP JUMP JUMPDEST PUSH1 0x0 PUSH1 0x20 DUP3 ADD SWAP1 POP PUSH2 0x995 PUSH1 0x0 DUP4 ADD DUP5 PUSH2 0x971 JUMP JUMPDEST SWAP3 SWAP2 POP POP JUMP JUMPDEST PUSH1 0x0 PUSH1 0xA0 DUP3 ADD SWAP1 POP PUSH2 0x9B0 PUSH1 0x0 DUP4 ADD DUP9 PUSH2 0x947 JUMP JUMPDEST PUSH2 0x9BD PUSH1 0x20 DUP4 ADD DUP8 PUSH2 0x947 JUMP JUMPDEST PUSH2 0x9CA PUSH1 0x40 DUP4 ADD DUP7 PUSH2 0x947 JUMP JUMPDEST PUSH2 0x9D7 PUSH1 0x60 DUP4 ADD DUP6 PUSH2 0x947 JUMP JUMPDEST PUSH2 0x9E4 PUSH1 0x80 DUP4 ADD DUP5 PUSH2 0x971 JUMP JUMPDEST SWAP7 SWAP6 POP POP POP POP POP POP JUMP JUMPDEST PUSH1 0x0 DUP2 MLOAD SWAP1 POP SWAP2 SWAP1 POP JUMP JUMPDEST PUSH1 0x0 DUP3 DUP3 MSTORE PUSH1 0x20 DUP3 ADD SWAP1 POP SWAP3 SWAP2 POP POP JUMP JUMPDEST PUSH1 0x0 JUMPDEST DUP4 DUP2 LT ISZERO PUSH2 0xA28 JUMPI DUP1 DUP3 ADD MLOAD DUP2 DUP5 ADD MSTORE PUSH1 0x20 DUP2 ADD SWAP1 POP PUSH2 0xA0D JUMP JUMPDEST PUSH1 0x0 DUP5 DUP5 ADD MSTORE POP POP POP POP JUMP JUMPDEST PUSH1 0x0 PUSH1 0x1F NOT PUSH1 0x1F DUP4 ADD AND SWAP1 POP SWAP2 SWAP1 POP JUMP JUMPDEST PUSH1 0x0 PUSH2 0xA50 DUP3 PUSH2 0x9EE JUMP JUMPDEST PUSH2 0xA5A DUP2 DUP6 PUSH2 0x9F9 JUMP JUMPDEST SWAP4 POP PUSH2 0xA6A DUP2 DUP6 PUSH1 0x20 DUP7 ADD PUSH2 0xA0A JUMP JUMPDEST PUSH2 0xA73 DUP2 PUSH2 0xA34 JUMP JUMPDEST DUP5 ADD SWAP2 POP POP SWAP3 SWAP2 POP POP JUMP JUMPDEST PUSH1 0x0 PUSH2 0xA89 DUP3 PUSH2 0x886 JUMP JUMPDEST SWAP1 POP SWAP2 SWAP1 POP JUMP JUMPDEST PUSH2 0xA99 DUP2 PUSH2 0xA7E JUMP JUMPDEST DUP3 MSTORE POP POP JUMP JUMPDEST PUSH1 0x0 PUSH1 0xA0 DUP3 ADD SWAP1 POP DUP2 DUP2 SUB PUSH1 0x0 DUP4 ADD MSTORE PUSH2 0xAB9 DUP2 DUP9 PUSH2 0xA45 JUMP JUMPDEST SWAP1 POP PUSH2 0xAC8 PUSH1 0x20 DUP4 ADD DUP8 PUSH2 0x947 JUMP JUMPDEST PUSH2 0xAD5 PUSH1 0x40 DUP4 ADD DUP7 PUSH2 0xA90 JUMP JUMPDEST PUSH2 0xAE2 PUSH1 0x60 DUP4 ADD DUP6 PUSH2 0x91D JUMP JUMPDEST PUSH2 0xAEF PUSH1 0x80 DUP4 ADD DUP5 PUSH2 0x947 JUMP JUMPDEST SWAP7 SWAP6 POP POP POP POP POP POP JUMP JUMPDEST PUSH1 0x0 DUP1 REVERT JUMPDEST PUSH1 0x0 DUP1 REVERT JUMPDEST PUSH32 0x4E487B7100000000000000000000000000000000000000000000000000000000 PUSH1 0x0 MSTORE PUSH1 0x41 PUSH1 0x4 MSTORE PUSH1 0x24 PUSH1 0x0 REVERT JUMPDEST PUSH2 0xB3B DUP3 PUSH2 0xA34 JUMP JUMPDEST DUP2 ADD DUP2 DUP2 LT PUSH8 0xFFFFFFFFFFFFFFFF DUP3 GT OR ISZERO PUSH2 0xB5A JUMPI PUSH2 0xB59 PUSH2 0xB03 JUMP JUMPDEST JUMPDEST DUP1 PUSH1 0x40 MSTORE POP POP POP JUMP JUMPDEST PUSH1 0x0 PUSH2 0xB6D PUSH2 0x80F JUMP JUMPDEST SWAP1 POP PUSH2 0xB79 DUP3 DUP3 PUSH2 0xB32 JUMP JUMPDEST SWAP2 SWAP1 POP JUMP JUMPDEST PUSH1 0x0 PUSH8 0xFFFFFFFFFFFFFFFF DUP3 GT ISZERO PUSH2 0xB99 JUMPI PUSH2 0xB98 PUSH2 0xB03 JUMP JUMPDEST JUMPDEST PUSH2 0xBA2 DUP3 PUSH2 0xA34 JUMP JUMPDEST SWAP1 POP PUSH1 0x20 DUP2 ADD SWAP1 POP SWAP2 SWAP1 POP JUMP JUMPDEST DUP3 DUP2 DUP4 CALLDATACOPY PUSH1 0x0 DUP4 DUP4 ADD MSTORE POP POP POP JUMP JUMPDEST PUSH1 0x0 PUSH2 0xBD1 PUSH2 0xBCC DUP5 PUSH2 0xB7E JUMP JUMPDEST PUSH2 0xB63 JUMP JUMPDEST SWAP1 POP DUP3 DUP2 MSTORE PUSH1 0x20 DUP2 ADD DUP5 DUP5 DUP5 ADD GT ISZERO PUSH2 0xBED JUMPI PUSH2 0xBEC PUSH2 0xAFE JUMP JUMPDEST JUMPDEST PUSH2 0xBF8 DUP5 DUP3 DUP6 PUSH2 0xBAF JUMP JUMPDEST POP SWAP4 SWAP3 POP POP POP JUMP JUMPDEST PUSH1 0x0 DUP3 PUSH1 0x1F DUP4 ADD SLT PUSH2 0xC15 JUMPI PUSH2 0xC14 PUSH2 0xAF9 JUMP JUMPDEST JUMPDEST DUP2 CALLDATALOAD PUSH2 0xC25 DUP5 DUP3 PUSH1 0x20 DUP7 ADD PUSH2 0xBBE JUMP JUMPDEST SWAP2 POP POP SWAP3 SWAP2 POP POP JUMP JUMPDEST PUSH2 0xC37 DUP2 PUSH2 0xA7E JUMP JUMPDEST DUP2 EQ PUSH2 0xC42 JUMPI PUSH1 0x0 DUP1 REVERT JUMPDEST POP JUMP JUMPDEST PUSH1 0x0 DUP2 CALLDATALOAD SWAP1 POP PUSH2 0xC54 DUP2 PUSH2 0xC2E JUMP JUMPDEST SWAP3 SWAP2 POP POP JUMP JUMPDEST PUSH1 0x0 DUP1 PUSH1 0x0 PUSH1 0x60 DUP5 DUP7 SUB SLT ISZERO PUSH2 0xC73 JUMPI PUSH2 0xC72 PUSH2 0x819 JUMP JUMPDEST JUMPDEST PUSH1 0x0 DUP5 ADD CALLDATALOAD PUSH8 0xFFFFFFFFFFFFFFFF DUP2 GT ISZERO PUSH2 0xC91 JUMPI PUSH2 0xC90 PUSH2 0x81E JUMP JUMPDEST JUMPDEST PUSH2 0xC9D DUP7 DUP3 DUP8 ADD PUSH2 0xC00 JUMP JUMPDEST SWAP4 POP POP PUSH1 0x20 PUSH2 0xCAE DUP7 DUP3 DUP8 ADD PUSH2 0x844 JUMP JUMPDEST SWAP3 POP POP PUSH1 0x40 PUSH2 0xCBF DUP7 DUP3 DUP8 ADD PUSH2 0xC45 JUMP JUMPDEST SWAP2 POP POP SWAP3 POP SWAP3 POP SWAP3 JUMP JUMPDEST PUSH32 0x4E487B7100000000000000000000000000000000000000000000000000000000 PUSH1 0x0 MSTORE PUSH1 0x12 PUSH1 0x4 MSTORE PUSH1 0x24 PUSH1 0x0 REVERT JUMPDEST PUSH32 0x4E487B7100000000000000000000000000000000000000000000000000000000 PUSH1 0x0 MSTORE PUSH1 0x11 PUSH1 0x4 MSTORE PUSH1 0x24 PUSH1 0x0 REVERT JUMPDEST PUSH1 0x0 PUSH2 0xD32 DUP3 PUSH2 0x823 JUMP JUMPDEST SWAP2 POP PUSH2 0xD3D DUP4 PUSH2 0x823 JUMP JUMPDEST SWAP3 POP DUP3 PUSH2 0xD4D JUMPI PUSH2 0xD4C PUSH2 0xCC9 JUMP JUMPDEST JUMPDEST DUP3 DUP3 DIV SWAP1 POP SWAP3 SWAP2 POP POP JUMP JUMPDEST PUSH32 0x4E487B7100000000000000000000000000000000000000000000000000000000 PUSH1 0x0 MSTORE PUSH1 0x22 PUSH1 0x4 MSTORE PUSH1 0x24 PUSH1 0x0 REVERT JUMPDEST PUSH1 0x0 PUSH1 0x2 DUP3 DIV SWAP1 POP PUSH1 0x1 DUP3 AND DUP1 PUSH2 0xD9F JUMPI PUSH1 0x7F DUP3 AND SWAP2 POP JUMPDEST PUSH1 0x20 DUP3 LT DUP2 SUB PUSH2 0xDB2 JUMPI PUSH2 0xDB1 PUSH2 0xD58 JUMP JUMPDEST JUMPDEST POP SWAP2 SWAP1 POP JUMP JUMPDEST PUSH1 0x0 PUSH2 0xDC3 DUP3 PUSH2 0x823 JUMP JUMPDEST SWAP2 POP PUSH32 0xFFFFFFFFFFFFFFFFFFFFFFFFFFFFFFFFFFFFFFFFFFFFFFFFFFFFFFFFFFFFFFFF DUP3 SUB PUSH2 0xDF5 JUMPI PUSH2 0xDF4 PUSH2 0xCF8 JUMP JUMPDEST JUMPDEST PUSH1 0x1 DUP3 ADD SWAP1 POP SWAP2 SWAP1 POP JUMP JUMPDEST PUSH1 0x0 DUP2 SWAP1 POP DUP2 PUSH1 0x0 MSTORE PUSH1 0x20 PUSH1 0x0 KECCAK256 SWAP1 POP SWAP2 SWAP1 POP JUMP JUMPDEST PUSH1 0x0 PUSH1 0x20 PUSH1 0x1F DUP4 ADD DIV SWAP1 POP SWAP2 SWAP1 POP JUMP JUMPDEST PUSH1 0x0 DUP3 DUP3 SHL SWAP1 POP SWAP3 SWAP2 POP POP JUMP JUMPDEST PUSH1 0x0 PUSH1 0x8 DUP4 MUL PUSH2 0xE62 PUSH32 0xFFFFFFFFFFFFFFFFFFFFFFFFFFFFFFFFFFFFFFFFFFFFFFFFFFFFFFFFFFFFFFFF DUP3 PUSH2 0xE25 JUMP JUMPDEST PUSH2 0xE6C DUP7 DUP4 PUSH2 0xE25 JUMP JUMPDEST SWAP6 POP DUP1 NOT DUP5 AND SWAP4 POP DUP1 DUP7 AND DUP5 OR SWAP3 POP POP POP SWAP4 SWAP3 POP POP POP JUMP JUMPDEST PUSH1 0x0 DUP2 SWAP1 POP SWAP2 SWAP1 POP JUMP JUMPDEST PUSH1 0x0 PUSH2 0xEA9 PUSH2 0xEA4 PUSH2 0xE9F DUP5 PUSH2 0x823 JUMP JUMPDEST PUSH2 0xE84 JUMP JUMPDEST PUSH2 0x823 JUMP JUMPDEST SWAP1 POP SWAP2 SWAP1 POP JUMP JUMPDEST PUSH1 0x0 DUP2 SWAP1 POP SWAP2 SWAP1 POP JUMP JUMPDEST PUSH2 0xEC3 DUP4 PUSH2 0xE8E JUMP JUMPDEST PUSH2 0xED7 PUSH2 0xECF DUP3 PUSH2 0xEB0 JUMP JUMPDEST DUP5 DUP5 SLOAD PUSH2 0xE32 JUMP JUMPDEST DUP3 SSTORE POP POP POP POP JUMP JUMPDEST PUSH1 0x0 SWAP1 JUMP JUMPDEST PUSH2 0xEEC PUSH2 0xEDF JUMP JUMPDEST PUSH2 0xEF7 DUP2 DUP5 DUP5 PUSH2 0xEBA JUMP JUMPDEST POP POP POP JUMP JUMPDEST JUMPDEST DUP2 DUP2 LT ISZERO PUSH2 0xF1B JUMPI PUSH2 0xF10 PUSH1 0x0 DUP3 PUSH2 0xEE4 JUMP JUMPDEST PUSH1 0x1 DUP2 ADD SWAP1 POP PUSH2 0xEFD JUMP JUMPDEST POP POP JUMP JUMPDEST PUSH1 0x1F DUP3 GT ISZERO PUSH2 0xF60 JUMPI PUSH2 0xF31 DUP2 PUSH2 0xE00 JUMP JUMPDEST PUSH2 0xF3A DUP5 PUSH2 0xE15 JUMP JUMPDEST DUP2 ADD PUSH1 0x20 DUP6 LT ISZERO PUSH2 0xF49 JUMPI DUP2 SWAP1 POP JUMPDEST PUSH2 0xF5D PUSH2 0xF55 DUP6 PUSH2 0xE15 JUMP JUMPDEST DUP4 ADD DUP3 PUSH2 0xEFC JUMP JUMPDEST POP POP JUMPDEST POP POP POP JUMP JUMPDEST PUSH1 0x0 DUP3 DUP3 SHR SWAP1 POP SWAP3 SWAP2 POP POP JUMP JUMPDEST PUSH1 0x0 PUSH2 0xF83 PUSH1 0x0 NOT DUP5 PUSH1 0x8 MUL PUSH2 0xF65 JUMP JUMPDEST NOT DUP1 DUP4 AND SWAP2 POP POP SWAP3 SWAP2 POP POP JUMP JUMPDEST PUSH1 0x0 PUSH2 0xF9C DUP4 DUP4 PUSH2 0xF72 JUMP JUMPDEST SWAP2 POP DUP3 PUSH1 0x2 MUL DUP3 OR SWAP1 POP SWAP3 SWAP2 POP POP JUMP JUMPDEST PUSH2 0xFB5 DUP3 PUSH2 0x9EE JUMP JUMPDEST PUSH8 0xFFFFFFFFFFFFFFFF DUP2 GT ISZERO PUSH2 0xFCE JUMPI PUSH2 0xFCD PUSH2 0xB03 JUMP JUMPDEST JUMPDEST PUSH2 0xFD8 DUP3 SLOAD PUSH2 0xD87 JUMP JUMPDEST PUSH2 0xFE3 DUP3 DUP3 DUP6 PUSH2 0xF1F JUMP JUMPDEST PUSH1 0x0 PUSH1 0x20 SWAP1 POP PUSH1 0x1F DUP4 GT PUSH1 0x1 DUP2 EQ PUSH2 0x1016 JUMPI PUSH1 0x0 DUP5 ISZERO PUSH2 0x1004 JUMPI DUP3 DUP8 ADD MLOAD SWAP1 POP JUMPDEST PUSH2 0x100E DUP6 DUP3 PUSH2 0xF90 JUMP JUMPDEST DUP7 SSTORE POP PUSH2 0x1076 JUMP JUMPDEST PUSH1 0x1F NOT DUP5 AND PUSH2 0x1024 DUP7 PUSH2 0xE00 JUMP JUMPDEST PUSH1 0x0 JUMPDEST DUP3 DUP2 LT ISZERO PUSH2 0x104C JUMPI DUP5 DUP10 ADD MLOAD DUP3 SSTORE PUSH1 0x1 DUP3 ADD SWAP2 POP PUSH1 0x20 DUP6 ADD SWAP5 POP PUSH1 0x20 DUP2 ADD SWAP1 POP PUSH2 0x1027 JUMP JUMPDEST DUP7 DUP4 LT ISZERO PUSH2 0x1069 JUMPI DUP5 DUP10 ADD MLOAD PUSH2 0x1065 PUSH1 0x1F DUP10 AND DUP3 PUSH2 0xF72 JUMP JUMPDEST DUP4 SSTORE POP JUMPDEST PUSH1 0x1 PUSH1 0x2 DUP9 MUL ADD DUP9 SSTORE POP POP POP JUMPDEST POP POP POP POP POP POP JUMP INVALID LOG2 PUSH5 0x6970667358 0x22 SLT KECCAK256 DUP12 GAS ADD 0x24 0x23 0x1E CHAINID 0x2F PUSH24 0x63DE160494491ACB55726394F67DCEE987EF42AC5FA97064 PUSH20 0x6F6C634300081200330000000000000000000000 "},"gasEstimates":{"creation":{"codeDepositCost":"855200","executionCost":"infinite","totalCost":"infinite"},"external":{"approveRequest(uint256)":"infinite","approvers(address)":"2868","approversCount()":"2451","contribute()":"51043","createRequest(string,uint256,address)":"infinite","finalizeRequest(uint256)":"infinite","getRequestsCount()":"2482","getSummury()":"infinite","manager()":"2578","minimumContribution()":"2495","requests(uint256)":"infinite"}},"methodIdentifiers":{"approveRequest(uint256)":"d7d1bbdb","approvers(address)":"0a144391","approversCount()":"82fde093","contribute()":"d7bb99ba","createRequest(string,uint256,address)":"8a9cfd55","finalizeRequest(uint256)":"03441006","getRequestsCount()":"3410452a","getSummury()":"60719773","manager()":"481c6a75","minimumContribution()":"937e09b1","requests(uint256)":"81d12c58"}},"storageLayout":{"storage":[{"astId":56,"contract":"Campaign.sol:Campaign","label":"manager","offset":0,"slot":"0","type":"t_address"},{"astId":58,"contract":"Campaign.sol:Campaign","label":"minimumContribution","offset":0,"slot":"1","type":"t_uint256"},{"astId":62,"contract":"Campaign.sol:Campaign","label":"approvers","offset":0,"slot":"2","type":"t_mapping(t_address,t_bool)"},{"astId":64,"contract":"Campaign.sol:Campaign","label":"approversCount","offset":0,"slot":"3","type":"t_uint256"},{"astId":114,"contract":"Campaign.sol:Campaign","label":"numRequest","offset":0,"slot":"4","type":"t_uint256"},{"astId":119,"contract":"Campaign.sol:Campaign","label":"requests","offset":0,"slot":"5","type":"t_mapping(t_uint256,t_struct(Request)54_storage)"}],"types":{"t_address":{"encoding":"inplace","label":"address","numberOfBytes":"20"},"t_address_payable":{"encoding":"inplace","label":"address payable","numberOfBytes":"20"},"t_bool":{"encoding":"inplace","label":"bool","numberOfBytes":"1"},"t_mapping(t_address,t_bool)":{"encoding":"mapping","key":"t_address","label":"mapping(address => bool)","numberOfBytes":"32","value":"t_bool"},"t_mapping(t_uint256,t_struct(Request)54_storage)":{"encoding":"mapping","key":"t_uint256","label":"mapping(uint256 => struct Campaign.Request)","numberOfBytes":"32","value":"t_struct(Request)54_storage"},"t_string_storage":{"encoding":"bytes","label":"string","numberOfBytes":"32"},"t_struct(Request)54_storage":{"encoding":"inplace","label":"struct Campaign.Request","members":[{"astId":41,"contract":"Campaign.sol:Campaign","label":"description","offset":0,"slot":"0","type":"t_string_storage"},{"astId":43,"contract":"Campaign.sol:Campaign","label":"value","offset":0,"slot":"1","type":"t_uint256"},{"astId":45,"contract":"Campaign.sol:Campaign","label":"recipient","offset":0,"slot":"2","type":"t_address_payable"},{"astId":47,"contract":"Campaign.sol:Campaign","label":"complete","offset":20,"slot":"2","type":"t_bool"},{"astId":49,"contract":"Campaign.sol:Campaign","label":"approvalCount","offset":0,"slot":"3","type":"t_uint256"},{"astId":53,"contract":"Campaign.sol:Campaign","label":"approvals","offset":0,"slot":"4","type":"t_mapping(t_address,t_bool)"}],"numberOfBytes":"160"},"t_uint256":{"encoding":"inplace","label":"uint256","numberOfBytes":"32"}}},"userdoc":{"kind":"user","methods":{},"version":1}}