{"abi":[{"inputs":[{"internalType":"uint256","name":"minimum","type":"uint256"},{"internalType":"address","name":"creator","type":"address"}],"stateMutability":"nonpayable","type":"constructor"},{"inputs":[{"internalType":"uint256","name":"index","type":"uint256"}],"name":"approveRequest","outputs":[],"stateMutability":"nonpayable","type":"function"},{"inputs":[{"internalType":"address","name":"","type":"address"}],"name":"approvers","outputs":[{"internalType":"bool","name":"","type":"bool"}],"stateMutability":"view","type":"function"},{"inputs":[],"name":"contribute","outputs":[],"stateMutability":"payable","type":"function"},{"inputs":[{"internalType":"string","name":"description","type":"string"},{"internalType":"uint256","name":"value","type":"uint256"},{"internalType":"address payable","name":"recipient","type":"address"}],"name":"createRequest","outputs":[],"stateMutability":"nonpayable","type":"function"},{"inputs":[{"internalType":"uint256","name":"index","type":"uint256"}],"name":"finalizeRequest","outputs":[],"stateMutability":"nonpayable","type":"function"},{"inputs":[],"name":"manager","outputs":[{"internalType":"address","name":"","type":"address"}],"stateMutability":"view","type":"function"},{"inputs":[],"name":"minimumContribution","outputs":[{"internalType":"uint256","name":"","type":"uint256"}],"stateMutability":"view","type":"function"},{"inputs":[{"internalType":"uint256","name":"","type":"uint256"}],"name":"requests","outputs":[{"internalType":"string","name":"description","type":"string"},{"internalType":"uint256","name":"value","type":"uint256"},{"internalType":"address payable","name":"recipient","type":"address"},{"internalType":"bool","name":"complete","type":"bool"},{"internalType":"uint256","name":"approvalCount","type":"uint256"}],"stateMutability":"view","type":"function"}],"devdoc":{"kind":"dev","methods":{},"version":1},"evm":{"assembly":"    /* \"Campaign.sol\":446:2175  contract Campaign{... */\n  mstore(0x40, 0x80)\n    /* \"Campaign.sol\":923:1042  constructor(uint minimum, address creator) {... */\n  callvalue\n  dup1\n  iszero\n  tag_1\n  jumpi\n  0x00\n  dup1\n  revert\ntag_1:\n  pop\n  mload(0x40)\n  sub(codesize, bytecodeSize)\n  dup1\n  bytecodeSize\n  dup4\n  codecopy\n  dup2\n  dup2\n  add\n  0x40\n  mstore\n  dup2\n  add\n  swap1\n  tag_2\n  swap2\n  swap1\n  tag_3\n  jump\t// in\ntag_2:\n    /* \"Campaign.sol\":987:994  creator */\n  dup1\n    /* \"Campaign.sol\":977:984  manager */\n  0x00\n  dup1\n    /* \"Campaign.sol\":977:994  manager = creator */\n  0x0100\n  exp\n  dup2\n  sload\n  dup2\n  0xffffffffffffffffffffffffffffffffffffffff\n  mul\n  not\n  and\n  swap1\n  dup4\n  0xffffffffffffffffffffffffffffffffffffffff\n  and\n  mul\n  or\n  swap1\n  sstore\n  pop\n    /* \"Campaign.sol\":1027:1034  minimum */\n  dup2\n    /* \"Campaign.sol\":1005:1024  minimumContribution */\n  0x01\n    /* \"Campaign.sol\":1005:1034  minimumContribution = minimum */\n  dup2\n  swap1\n  sstore\n  pop\n    /* \"Campaign.sol\":923:1042  constructor(uint minimum, address creator) {... */\n  pop\n  pop\n    /* \"Campaign.sol\":446:2175  contract Campaign{... */\n  jump(tag_6)\n    /* \"#utility.yul\":88:205   */\ntag_8:\n    /* \"#utility.yul\":197:198   */\n  0x00\n    /* \"#utility.yul\":194:195   */\n  dup1\n    /* \"#utility.yul\":187:199   */\n  revert\n    /* \"#utility.yul\":334:411   */\ntag_10:\n    /* \"#utility.yul\":371:378   */\n  0x00\n    /* \"#utility.yul\":400:405   */\n  dup2\n    /* \"#utility.yul\":389:405   */\n  swap1\n  pop\n    /* \"#utility.yul\":334:411   */\n  swap2\n  swap1\n  pop\n  jump\t// out\n    /* \"#utility.yul\":417:539   */\ntag_11:\n    /* \"#utility.yul\":490:514   */\n  tag_23\n    /* \"#utility.yul\":508:513   */\n  dup2\n    /* \"#utility.yul\":490:514   */\n  tag_10\n  jump\t// in\ntag_23:\n    /* \"#utility.yul\":483:488   */\n  dup2\n    /* \"#utility.yul\":480:515   */\n  eq\n    /* \"#utility.yul\":470:533   */\n  tag_24\n  jumpi\n    /* \"#utility.yul\":529:530   */\n  0x00\n    /* \"#utility.yul\":526:527   */\n  dup1\n    /* \"#utility.yul\":519:531   */\n  revert\n    /* \"#utility.yul\":470:533   */\ntag_24:\n    /* \"#utility.yul\":417:539   */\n  pop\n  jump\t// out\n    /* \"#utility.yul\":545:688   */\ntag_12:\n    /* \"#utility.yul\":602:607   */\n  0x00\n    /* \"#utility.yul\":633:639   */\n  dup2\n    /* \"#utility.yul\":627:640   */\n  mload\n    /* \"#utility.yul\":618:640   */\n  swap1\n  pop\n    /* \"#utility.yul\":649:682   */\n  tag_26\n    /* \"#utility.yul\":676:681   */\n  dup2\n    /* \"#utility.yul\":649:682   */\n  tag_11\n  jump\t// in\ntag_26:\n    /* \"#utility.yul\":545:688   */\n  swap3\n  swap2\n  pop\n  pop\n  jump\t// out\n    /* \"#utility.yul\":694:820   */\ntag_13:\n    /* \"#utility.yul\":731:738   */\n  0x00\n    /* \"#utility.yul\":771:813   */\n  0xffffffffffffffffffffffffffffffffffffffff\n    /* \"#utility.yul\":764:769   */\n  dup3\n    /* \"#utility.yul\":760:814   */\n  and\n    /* \"#utility.yul\":749:814   */\n  swap1\n  pop\n    /* \"#utility.yul\":694:820   */\n  swap2\n  swap1\n  pop\n  jump\t// out\n    /* \"#utility.yul\":826:922   */\ntag_14:\n    /* \"#utility.yul\":863:870   */\n  0x00\n    /* \"#utility.yul\":892:916   */\n  tag_29\n    /* \"#utility.yul\":910:915   */\n  dup3\n    /* \"#utility.yul\":892:916   */\n  tag_13\n  jump\t// in\ntag_29:\n    /* \"#utility.yul\":881:916   */\n  swap1\n  pop\n    /* \"#utility.yul\":826:922   */\n  swap2\n  swap1\n  pop\n  jump\t// out\n    /* \"#utility.yul\":928:1050   */\ntag_15:\n    /* \"#utility.yul\":1001:1025   */\n  tag_31\n    /* \"#utility.yul\":1019:1024   */\n  dup2\n    /* \"#utility.yul\":1001:1025   */\n  tag_14\n  jump\t// in\ntag_31:\n    /* \"#utility.yul\":994:999   */\n  dup2\n    /* \"#utility.yul\":991:1026   */\n  eq\n    /* \"#utility.yul\":981:1044   */\n  tag_32\n  jumpi\n    /* \"#utility.yul\":1040:1041   */\n  0x00\n    /* \"#utility.yul\":1037:1038   */\n  dup1\n    /* \"#utility.yul\":1030:1042   */\n  revert\n    /* \"#utility.yul\":981:1044   */\ntag_32:\n    /* \"#utility.yul\":928:1050   */\n  pop\n  jump\t// out\n    /* \"#utility.yul\":1056:1199   */\ntag_16:\n    /* \"#utility.yul\":1113:1118   */\n  0x00\n    /* \"#utility.yul\":1144:1150   */\n  dup2\n    /* \"#utility.yul\":1138:1151   */\n  mload\n    /* \"#utility.yul\":1129:1151   */\n  swap1\n  pop\n    /* \"#utility.yul\":1160:1193   */\n  tag_34\n    /* \"#utility.yul\":1187:1192   */\n  dup2\n    /* \"#utility.yul\":1160:1193   */\n  tag_15\n  jump\t// in\ntag_34:\n    /* \"#utility.yul\":1056:1199   */\n  swap3\n  swap2\n  pop\n  pop\n  jump\t// out\n    /* \"#utility.yul\":1205:1712   */\ntag_3:\n    /* \"#utility.yul\":1284:1290   */\n  0x00\n    /* \"#utility.yul\":1292:1298   */\n  dup1\n    /* \"#utility.yul\":1341:1343   */\n  0x40\n    /* \"#utility.yul\":1329:1338   */\n  dup4\n    /* \"#utility.yul\":1320:1327   */\n  dup6\n    /* \"#utility.yul\":1316:1339   */\n  sub\n    /* \"#utility.yul\":1312:1344   */\n  slt\n    /* \"#utility.yul\":1309:1428   */\n  iszero\n  tag_36\n  jumpi\n    /* \"#utility.yul\":1347:1426   */\n  tag_37\n  tag_8\n  jump\t// in\ntag_37:\n    /* \"#utility.yul\":1309:1428   */\ntag_36:\n    /* \"#utility.yul\":1467:1468   */\n  0x00\n    /* \"#utility.yul\":1492:1556   */\n  tag_38\n    /* \"#utility.yul\":1548:1555   */\n  dup6\n    /* \"#utility.yul\":1539:1545   */\n  dup3\n    /* \"#utility.yul\":1528:1537   */\n  dup7\n    /* \"#utility.yul\":1524:1546   */\n  add\n    /* \"#utility.yul\":1492:1556   */\n  tag_12\n  jump\t// in\ntag_38:\n    /* \"#utility.yul\":1482:1556   */\n  swap3\n  pop\n    /* \"#utility.yul\":1438:1566   */\n  pop\n    /* \"#utility.yul\":1605:1607   */\n  0x20\n    /* \"#utility.yul\":1631:1695   */\n  tag_39\n    /* \"#utility.yul\":1687:1694   */\n  dup6\n    /* \"#utility.yul\":1678:1684   */\n  dup3\n    /* \"#utility.yul\":1667:1676   */\n  dup7\n    /* \"#utility.yul\":1663:1685   */\n  add\n    /* \"#utility.yul\":1631:1695   */\n  tag_16\n  jump\t// in\ntag_39:\n    /* \"#utility.yul\":1621:1695   */\n  swap2\n  pop\n    /* \"#utility.yul\":1576:1705   */\n  pop\n    /* \"#utility.yul\":1205:1712   */\n  swap3\n  pop\n  swap3\n  swap1\n  pop\n  jump\t// out\n    /* \"Campaign.sol\":446:2175  contract Campaign{... */\ntag_6:\n  dataSize(sub_0)\n  dup1\n  dataOffset(sub_0)\n  0x00\n  codecopy\n  0x00\n  return\nstop\n\nsub_0: assembly {\n        /* \"Campaign.sol\":446:2175  contract Campaign{... */\n      mstore(0x40, 0x80)\n      jumpi(tag_1, lt(calldatasize, 0x04))\n      shr(0xe0, calldataload(0x00))\n      dup1\n      0x8a9cfd55\n      gt\n      tag_10\n      jumpi\n      dup1\n      0x8a9cfd55\n      eq\n      tag_6\n      jumpi\n      dup1\n      0x937e09b1\n      eq\n      tag_7\n      jumpi\n      dup1\n      0xd7bb99ba\n      eq\n      tag_8\n      jumpi\n      dup1\n      0xd7d1bbdb\n      eq\n      tag_9\n      jumpi\n      jump(tag_1)\n    tag_10:\n      dup1\n      0x03441006\n      eq\n      tag_2\n      jumpi\n      dup1\n      0x0a144391\n      eq\n      tag_3\n      jumpi\n      dup1\n      0x481c6a75\n      eq\n      tag_4\n      jumpi\n      dup1\n      0x81d12c58\n      eq\n      tag_5\n      jumpi\n    tag_1:\n      0x00\n      dup1\n      revert\n        /* \"Campaign.sol\":1908:2172  function finalizeRequest(uint index) public restricted {... */\n    tag_2:\n      callvalue\n      dup1\n      iszero\n      tag_11\n      jumpi\n      0x00\n      dup1\n      revert\n    tag_11:\n      pop\n      tag_12\n      0x04\n      dup1\n      calldatasize\n      sub\n      dup2\n      add\n      swap1\n      tag_13\n      swap2\n      swap1\n      tag_14\n      jump\t// in\n    tag_13:\n      tag_15\n      jump\t// in\n    tag_12:\n      stop\n        /* \"Campaign.sol\":757:798  mapping(address => bool) public approvers */\n    tag_3:\n      callvalue\n      dup1\n      iszero\n      tag_16\n      jumpi\n      0x00\n      dup1\n      revert\n    tag_16:\n      pop\n      tag_17\n      0x04\n      dup1\n      calldatasize\n      sub\n      dup2\n      add\n      swap1\n      tag_18\n      swap2\n      swap1\n      tag_19\n      jump\t// in\n    tag_18:\n      tag_20\n      jump\t// in\n    tag_17:\n      mload(0x40)\n      tag_21\n      swap2\n      swap1\n      tag_22\n      jump\t// in\n    tag_21:\n      mload(0x40)\n      dup1\n      swap2\n      sub\n      swap1\n      return\n        /* \"Campaign.sol\":690:712  address public manager */\n    tag_4:\n      callvalue\n      dup1\n      iszero\n      tag_23\n      jumpi\n      0x00\n      dup1\n      revert\n    tag_23:\n      pop\n      tag_24\n      tag_25\n      jump\t// in\n    tag_24:\n      mload(0x40)\n      tag_26\n      swap2\n      swap1\n      tag_27\n      jump\t// in\n    tag_26:\n      mload(0x40)\n      dup1\n      swap2\n      sub\n      swap1\n      return\n        /* \"Campaign.sol\":1243:1283  mapping(uint => Request) public requests */\n    tag_5:\n      callvalue\n      dup1\n      iszero\n      tag_28\n      jumpi\n      0x00\n      dup1\n      revert\n    tag_28:\n      pop\n      tag_29\n      0x04\n      dup1\n      calldatasize\n      sub\n      dup2\n      add\n      swap1\n      tag_30\n      swap2\n      swap1\n      tag_14\n      jump\t// in\n    tag_30:\n      tag_31\n      jump\t// in\n    tag_29:\n      mload(0x40)\n      tag_32\n      swap6\n      swap5\n      swap4\n      swap3\n      swap2\n      swap1\n      tag_33\n      jump\t// in\n    tag_32:\n      mload(0x40)\n      dup1\n      swap2\n      sub\n      swap1\n      return\n        /* \"Campaign.sol\":1292:1637  function createRequest(string memory description, uint value, address payable recipient) public restricted {... */\n    tag_6:\n      callvalue\n      dup1\n      iszero\n      tag_34\n      jumpi\n      0x00\n      dup1\n      revert\n    tag_34:\n      pop\n      tag_35\n      0x04\n      dup1\n      calldatasize\n      sub\n      dup2\n      add\n      swap1\n      tag_36\n      swap2\n      swap1\n      tag_37\n      jump\t// in\n    tag_36:\n      tag_38\n      jump\t// in\n    tag_35:\n      stop\n        /* \"Campaign.sol\":719:750  uint public minimumContribution */\n    tag_7:\n      callvalue\n      dup1\n      iszero\n      tag_39\n      jumpi\n      0x00\n      dup1\n      revert\n    tag_39:\n      pop\n      tag_40\n      tag_41\n      jump\t// in\n    tag_40:\n      mload(0x40)\n      tag_42\n      swap2\n      swap1\n      tag_43\n      jump\t// in\n    tag_42:\n      mload(0x40)\n      dup1\n      swap2\n      sub\n      swap1\n      return\n        /* \"Campaign.sol\":1050:1213  function contribute() public  payable {... */\n    tag_8:\n      tag_44\n      tag_45\n      jump\t// in\n    tag_44:\n      stop\n        /* \"Campaign.sol\":1645:1900  function approveRequest(uint index) public {... */\n    tag_9:\n      callvalue\n      dup1\n      iszero\n      tag_46\n      jumpi\n      0x00\n      dup1\n      revert\n    tag_46:\n      pop\n      tag_47\n      0x04\n      dup1\n      calldatasize\n      sub\n      dup2\n      add\n      swap1\n      tag_48\n      swap2\n      swap1\n      tag_14\n      jump\t// in\n    tag_48:\n      tag_49\n      jump\t// in\n    tag_47:\n      stop\n        /* \"Campaign.sol\":1908:2172  function finalizeRequest(uint index) public restricted {... */\n    tag_15:\n        /* \"Campaign.sol\":887:894  manager */\n      0x00\n      dup1\n      sload\n      swap1\n      0x0100\n      exp\n      swap1\n      div\n      0xffffffffffffffffffffffffffffffffffffffff\n      and\n        /* \"Campaign.sol\":873:894  msg.sender == manager */\n      0xffffffffffffffffffffffffffffffffffffffff\n      and\n        /* \"Campaign.sol\":873:883  msg.sender */\n      caller\n        /* \"Campaign.sol\":873:894  msg.sender == manager */\n      0xffffffffffffffffffffffffffffffffffffffff\n      and\n      eq\n        /* \"Campaign.sol\":865:895  require(msg.sender == manager) */\n      tag_51\n      jumpi\n      0x00\n      dup1\n      revert\n    tag_51:\n        /* \"Campaign.sol\":1974:1991  Request storage r */\n      0x00\n        /* \"Campaign.sol\":1994:2002  requests */\n      0x05\n        /* \"Campaign.sol\":1994:2009  requests[index] */\n      0x00\n        /* \"Campaign.sol\":2003:2008  index */\n      dup4\n        /* \"Campaign.sol\":1994:2009  requests[index] */\n      dup2\n      mstore\n      0x20\n      add\n      swap1\n      dup2\n      mstore\n      0x20\n      add\n      0x00\n      keccak256\n        /* \"Campaign.sol\":1974:2009  Request storage r = requests[index] */\n      swap1\n      pop\n        /* \"Campaign.sol\":2062:2063  2 */\n      0x02\n        /* \"Campaign.sol\":2047:2061  approversCount */\n      sload(0x03)\n        /* \"Campaign.sol\":2047:2063  approversCount/2 */\n      tag_53\n      swap2\n      swap1\n      tag_54\n      jump\t// in\n    tag_53:\n        /* \"Campaign.sol\":2028:2029  r */\n      dup2\n        /* \"Campaign.sol\":2028:2043  r.approvalCount */\n      0x03\n      add\n      sload\n        /* \"Campaign.sol\":2028:2064  r.approvalCount > (approversCount/2) */\n      gt\n        /* \"Campaign.sol\":2020:2065  require(r.approvalCount > (approversCount/2)) */\n      tag_55\n      jumpi\n      0x00\n      dup1\n      revert\n    tag_55:\n        /* \"Campaign.sol\":2085:2086  r */\n      dup1\n        /* \"Campaign.sol\":2085:2095  r.complete */\n      0x02\n      add\n      0x14\n      swap1\n      sload\n      swap1\n      0x0100\n      exp\n      swap1\n      div\n      0xff\n      and\n        /* \"Campaign.sol\":2084:2095  !r.complete */\n      iszero\n        /* \"Campaign.sol\":2076:2096  require(!r.complete) */\n      tag_56\n      jumpi\n      0x00\n      dup1\n      revert\n    tag_56:\n        /* \"Campaign.sol\":2107:2108  r */\n      dup1\n        /* \"Campaign.sol\":2107:2118  r.recipient */\n      0x02\n      add\n      0x00\n      swap1\n      sload\n      swap1\n      0x0100\n      exp\n      swap1\n      div\n      0xffffffffffffffffffffffffffffffffffffffff\n      and\n        /* \"Campaign.sol\":2107:2127  r.recipient.transfer */\n      0xffffffffffffffffffffffffffffffffffffffff\n      and\n        /* \"Campaign.sol\":2107:2136  r.recipient.transfer(r.value) */\n      0x08fc\n        /* \"Campaign.sol\":2128:2129  r */\n      dup3\n        /* \"Campaign.sol\":2128:2135  r.value */\n      0x01\n      add\n      sload\n        /* \"Campaign.sol\":2107:2136  r.recipient.transfer(r.value) */\n      swap1\n      dup2\n      iszero\n      mul\n      swap1\n      mload(0x40)\n      0x00\n      mload(0x40)\n      dup1\n      dup4\n      sub\n      dup2\n      dup6\n      dup9\n      dup9\n      call\n      swap4\n      pop\n      pop\n      pop\n      pop\n      iszero\n      dup1\n      iszero\n      tag_58\n      jumpi\n      returndatasize\n      0x00\n      dup1\n      returndatacopy\n      revert(0x00, returndatasize)\n    tag_58:\n      pop\n        /* \"Campaign.sol\":2160:2164  true */\n      0x01\n        /* \"Campaign.sol\":2147:2148  r */\n      dup2\n        /* \"Campaign.sol\":2147:2157  r.complete */\n      0x02\n      add\n      0x14\n        /* \"Campaign.sol\":2147:2164  r.complete = true */\n      0x0100\n      exp\n      dup2\n      sload\n      dup2\n      0xff\n      mul\n      not\n      and\n      swap1\n      dup4\n      iszero\n      iszero\n      mul\n      or\n      swap1\n      sstore\n      pop\n        /* \"Campaign.sol\":1963:2172  {... */\n      pop\n        /* \"Campaign.sol\":1908:2172  function finalizeRequest(uint index) public restricted {... */\n      pop\n      jump\t// out\n        /* \"Campaign.sol\":757:798  mapping(address => bool) public approvers */\n    tag_20:\n      mstore(0x20, 0x02)\n      dup1\n      0x00\n      mstore\n      keccak256(0x00, 0x40)\n      0x00\n      swap2\n      pop\n      sload\n      swap1\n      0x0100\n      exp\n      swap1\n      div\n      0xff\n      and\n      dup2\n      jump\t// out\n        /* \"Campaign.sol\":690:712  address public manager */\n    tag_25:\n      0x00\n      dup1\n      sload\n      swap1\n      0x0100\n      exp\n      swap1\n      div\n      0xffffffffffffffffffffffffffffffffffffffff\n      and\n      dup2\n      jump\t// out\n        /* \"Campaign.sol\":1243:1283  mapping(uint => Request) public requests */\n    tag_31:\n      mstore(0x20, 0x05)\n      dup1\n      0x00\n      mstore\n      keccak256(0x00, 0x40)\n      0x00\n      swap2\n      pop\n      swap1\n      pop\n      dup1\n      0x00\n      add\n      dup1\n      sload\n      tag_59\n      swap1\n      tag_60\n      jump\t// in\n    tag_59:\n      dup1\n      0x1f\n      add\n      0x20\n      dup1\n      swap2\n      div\n      mul\n      0x20\n      add\n      mload(0x40)\n      swap1\n      dup2\n      add\n      0x40\n      mstore\n      dup1\n      swap3\n      swap2\n      swap1\n      dup2\n      dup2\n      mstore\n      0x20\n      add\n      dup3\n      dup1\n      sload\n      tag_61\n      swap1\n      tag_60\n      jump\t// in\n    tag_61:\n      dup1\n      iszero\n      tag_62\n      jumpi\n      dup1\n      0x1f\n      lt\n      tag_63\n      jumpi\n      0x0100\n      dup1\n      dup4\n      sload\n      div\n      mul\n      dup4\n      mstore\n      swap2\n      0x20\n      add\n      swap2\n      jump(tag_62)\n    tag_63:\n      dup3\n      add\n      swap2\n      swap1\n      0x00\n      mstore\n      keccak256(0x00, 0x20)\n      swap1\n    tag_64:\n      dup2\n      sload\n      dup2\n      mstore\n      swap1\n      0x01\n      add\n      swap1\n      0x20\n      add\n      dup1\n      dup4\n      gt\n      tag_64\n      jumpi\n      dup3\n      swap1\n      sub\n      0x1f\n      and\n      dup3\n      add\n      swap2\n    tag_62:\n      pop\n      pop\n      pop\n      pop\n      pop\n      swap1\n      dup1\n      0x01\n      add\n      sload\n      swap1\n      dup1\n      0x02\n      add\n      0x00\n      swap1\n      sload\n      swap1\n      0x0100\n      exp\n      swap1\n      div\n      0xffffffffffffffffffffffffffffffffffffffff\n      and\n      swap1\n      dup1\n      0x02\n      add\n      0x14\n      swap1\n      sload\n      swap1\n      0x0100\n      exp\n      swap1\n      div\n      0xff\n      and\n      swap1\n      dup1\n      0x03\n      add\n      sload\n      swap1\n      pop\n      dup6\n      jump\t// out\n        /* \"Campaign.sol\":1292:1637  function createRequest(string memory description, uint value, address payable recipient) public restricted {... */\n    tag_38:\n        /* \"Campaign.sol\":887:894  manager */\n      0x00\n      dup1\n      sload\n      swap1\n      0x0100\n      exp\n      swap1\n      div\n      0xffffffffffffffffffffffffffffffffffffffff\n      and\n        /* \"Campaign.sol\":873:894  msg.sender == manager */\n      0xffffffffffffffffffffffffffffffffffffffff\n      and\n        /* \"Campaign.sol\":873:883  msg.sender */\n      caller\n        /* \"Campaign.sol\":873:894  msg.sender == manager */\n      0xffffffffffffffffffffffffffffffffffffffff\n      and\n      eq\n        /* \"Campaign.sol\":865:895  require(msg.sender == manager) */\n      tag_66\n      jumpi\n      0x00\n      dup1\n      revert\n    tag_66:\n        /* \"Campaign.sol\":1410:1427  Request storage r */\n      0x00\n        /* \"Campaign.sol\":1430:1438  requests */\n      0x05\n        /* \"Campaign.sol\":1430:1452  requests[numRequest++] */\n      0x00\n        /* \"Campaign.sol\":1439:1449  numRequest */\n      0x04\n      0x00\n        /* \"Campaign.sol\":1439:1451  numRequest++ */\n      dup2\n      sload\n      dup1\n      swap3\n      swap2\n      swap1\n      tag_68\n      swap1\n      tag_69\n      jump\t// in\n    tag_68:\n      swap2\n      swap1\n      pop\n      sstore\n        /* \"Campaign.sol\":1430:1452  requests[numRequest++] */\n      dup2\n      mstore\n      0x20\n      add\n      swap1\n      dup2\n      mstore\n      0x20\n      add\n      0x00\n      keccak256\n        /* \"Campaign.sol\":1410:1452  Request storage r = requests[numRequest++] */\n      swap1\n      pop\n        /* \"Campaign.sol\":1483:1494  description */\n      dup4\n        /* \"Campaign.sol\":1467:1468  r */\n      dup2\n        /* \"Campaign.sol\":1467:1480  r.description */\n      0x00\n      add\n        /* \"Campaign.sol\":1467:1494  r.description = description */\n      swap1\n      dup2\n      tag_70\n      swap2\n      swap1\n      tag_71\n      jump\t// in\n    tag_70:\n      pop\n        /* \"Campaign.sol\":1519:1524  value */\n      dup3\n        /* \"Campaign.sol\":1509:1510  r */\n      dup2\n        /* \"Campaign.sol\":1509:1516  r.value */\n      0x01\n      add\n        /* \"Campaign.sol\":1509:1524  r.value = value */\n      dup2\n      swap1\n      sstore\n      pop\n        /* \"Campaign.sol\":1553:1562  recipient */\n      dup2\n        /* \"Campaign.sol\":1539:1540  r */\n      dup2\n        /* \"Campaign.sol\":1539:1550  r.recipient */\n      0x02\n      add\n      0x00\n        /* \"Campaign.sol\":1539:1562  r.recipient = recipient */\n      0x0100\n      exp\n      dup2\n      sload\n      dup2\n      0xffffffffffffffffffffffffffffffffffffffff\n      mul\n      not\n      and\n      swap1\n      dup4\n      0xffffffffffffffffffffffffffffffffffffffff\n      and\n      mul\n      or\n      swap1\n      sstore\n      pop\n        /* \"Campaign.sol\":1590:1595  false */\n      0x00\n        /* \"Campaign.sol\":1577:1578  r */\n      dup2\n        /* \"Campaign.sol\":1577:1587  r.complete */\n      0x02\n      add\n      0x14\n        /* \"Campaign.sol\":1577:1595  r.complete = false */\n      0x0100\n      exp\n      dup2\n      sload\n      dup2\n      0xff\n      mul\n      not\n      and\n      swap1\n      dup4\n      iszero\n      iszero\n      mul\n      or\n      swap1\n      sstore\n      pop\n        /* \"Campaign.sol\":1628:1629  0 */\n      0x00\n        /* \"Campaign.sol\":1610:1611  r */\n      dup2\n        /* \"Campaign.sol\":1610:1625  r.approvalCount */\n      0x03\n      add\n        /* \"Campaign.sol\":1610:1629  r.approvalCount = 0 */\n      dup2\n      swap1\n      sstore\n      pop\n        /* \"Campaign.sol\":1399:1637  {... */\n      pop\n        /* \"Campaign.sol\":1292:1637  function createRequest(string memory description, uint value, address payable recipient) public restricted {... */\n      pop\n      pop\n      pop\n      jump\t// out\n        /* \"Campaign.sol\":719:750  uint public minimumContribution */\n    tag_41:\n      sload(0x01)\n      dup2\n      jump\t// out\n        /* \"Campaign.sol\":1050:1213  function contribute() public  payable {... */\n    tag_45:\n        /* \"Campaign.sol\":1119:1138  minimumContribution */\n      sload(0x01)\n        /* \"Campaign.sol\":1107:1116  msg.value */\n      callvalue\n        /* \"Campaign.sol\":1107:1138  msg.value > minimumContribution */\n      gt\n        /* \"Campaign.sol\":1099:1139  require(msg.value > minimumContribution) */\n      tag_73\n      jumpi\n      0x00\n      dup1\n      revert\n    tag_73:\n        /* \"Campaign.sol\":1174:1178  true */\n      0x01\n        /* \"Campaign.sol\":1150:1159  approvers */\n      0x02\n        /* \"Campaign.sol\":1150:1171  approvers[msg.sender] */\n      0x00\n        /* \"Campaign.sol\":1160:1170  msg.sender */\n      caller\n        /* \"Campaign.sol\":1150:1171  approvers[msg.sender] */\n      0xffffffffffffffffffffffffffffffffffffffff\n      and\n      0xffffffffffffffffffffffffffffffffffffffff\n      and\n      dup2\n      mstore\n      0x20\n      add\n      swap1\n      dup2\n      mstore\n      0x20\n      add\n      0x00\n      keccak256\n      0x00\n        /* \"Campaign.sol\":1150:1178  approvers[msg.sender] = true */\n      0x0100\n      exp\n      dup2\n      sload\n      dup2\n      0xff\n      mul\n      not\n      and\n      swap1\n      dup4\n      iszero\n      iszero\n      mul\n      or\n      swap1\n      sstore\n      pop\n        /* \"Campaign.sol\":1189:1203  approversCount */\n      0x03\n      0x00\n        /* \"Campaign.sol\":1189:1205  approversCount++ */\n      dup2\n      sload\n      dup1\n      swap3\n      swap2\n      swap1\n      tag_74\n      swap1\n      tag_69\n      jump\t// in\n    tag_74:\n      swap2\n      swap1\n      pop\n      sstore\n      pop\n        /* \"Campaign.sol\":1050:1213  function contribute() public  payable {... */\n      jump\t// out\n        /* \"Campaign.sol\":1645:1900  function approveRequest(uint index) public {... */\n    tag_49:\n        /* \"Campaign.sol\":1699:1716  Request storage r */\n      0x00\n        /* \"Campaign.sol\":1719:1727  requests */\n      0x05\n        /* \"Campaign.sol\":1719:1734  requests[index] */\n      0x00\n        /* \"Campaign.sol\":1728:1733  index */\n      dup4\n        /* \"Campaign.sol\":1719:1734  requests[index] */\n      dup2\n      mstore\n      0x20\n      add\n      swap1\n      dup2\n      mstore\n      0x20\n      add\n      0x00\n      keccak256\n        /* \"Campaign.sol\":1699:1734  Request storage r = requests[index] */\n      swap1\n      pop\n        /* \"Campaign.sol\":1755:1764  approvers */\n      0x02\n        /* \"Campaign.sol\":1755:1776  approvers[msg.sender] */\n      0x00\n        /* \"Campaign.sol\":1765:1775  msg.sender */\n      caller\n        /* \"Campaign.sol\":1755:1776  approvers[msg.sender] */\n      0xffffffffffffffffffffffffffffffffffffffff\n      and\n      0xffffffffffffffffffffffffffffffffffffffff\n      and\n      dup2\n      mstore\n      0x20\n      add\n      swap1\n      dup2\n      mstore\n      0x20\n      add\n      0x00\n      keccak256\n      0x00\n      swap1\n      sload\n      swap1\n      0x0100\n      exp\n      swap1\n      div\n      0xff\n      and\n        /* \"Campaign.sol\":1747:1777  require(approvers[msg.sender]) */\n      tag_76\n      jumpi\n      0x00\n      dup1\n      revert\n    tag_76:\n        /* \"Campaign.sol\":1797:1798  r */\n      dup1\n        /* \"Campaign.sol\":1797:1808  r.approvals */\n      0x04\n      add\n        /* \"Campaign.sol\":1797:1820  r.approvals[msg.sender] */\n      0x00\n        /* \"Campaign.sol\":1809:1819  msg.sender */\n      caller\n        /* \"Campaign.sol\":1797:1820  r.approvals[msg.sender] */\n      0xffffffffffffffffffffffffffffffffffffffff\n      and\n      0xffffffffffffffffffffffffffffffffffffffff\n      and\n      dup2\n      mstore\n      0x20\n      add\n      swap1\n      dup2\n      mstore\n      0x20\n      add\n      0x00\n      keccak256\n      0x00\n      swap1\n      sload\n      swap1\n      0x0100\n      exp\n      swap1\n      div\n      0xff\n      and\n        /* \"Campaign.sol\":1796:1820  !r.approvals[msg.sender] */\n      iszero\n        /* \"Campaign.sol\":1788:1821  require(!r.approvals[msg.sender]) */\n      tag_77\n      jumpi\n      0x00\n      dup1\n      revert\n    tag_77:\n        /* \"Campaign.sol\":1860:1864  true */\n      0x01\n        /* \"Campaign.sol\":1834:1835  r */\n      dup2\n        /* \"Campaign.sol\":1834:1845  r.approvals */\n      0x04\n      add\n        /* \"Campaign.sol\":1834:1857  r.approvals[msg.sender] */\n      0x00\n        /* \"Campaign.sol\":1846:1856  msg.sender */\n      caller\n        /* \"Campaign.sol\":1834:1857  r.approvals[msg.sender] */\n      0xffffffffffffffffffffffffffffffffffffffff\n      and\n      0xffffffffffffffffffffffffffffffffffffffff\n      and\n      dup2\n      mstore\n      0x20\n      add\n      swap1\n      dup2\n      mstore\n      0x20\n      add\n      0x00\n      keccak256\n      0x00\n        /* \"Campaign.sol\":1834:1864  r.approvals[msg.sender] = true */\n      0x0100\n      exp\n      dup2\n      sload\n      dup2\n      0xff\n      mul\n      not\n      and\n      swap1\n      dup4\n      iszero\n      iszero\n      mul\n      or\n      swap1\n      sstore\n      pop\n        /* \"Campaign.sol\":1875:1876  r */\n      dup1\n        /* \"Campaign.sol\":1875:1890  r.approvalCount */\n      0x03\n      add\n      0x00\n        /* \"Campaign.sol\":1875:1892  r.approvalCount++ */\n      dup2\n      sload\n      dup1\n      swap3\n      swap2\n      swap1\n      tag_78\n      swap1\n      tag_69\n      jump\t// in\n    tag_78:\n      swap2\n      swap1\n      pop\n      sstore\n      pop\n        /* \"Campaign.sol\":1688:1900  {... */\n      pop\n        /* \"Campaign.sol\":1645:1900  function approveRequest(uint index) public {... */\n      pop\n      jump\t// out\n        /* \"#utility.yul\":7:82   */\n    tag_79:\n        /* \"#utility.yul\":40:46   */\n      0x00\n        /* \"#utility.yul\":73:75   */\n      0x40\n        /* \"#utility.yul\":67:76   */\n      mload\n        /* \"#utility.yul\":57:76   */\n      swap1\n      pop\n        /* \"#utility.yul\":7:82   */\n      swap1\n      jump\t// out\n        /* \"#utility.yul\":88:205   */\n    tag_80:\n        /* \"#utility.yul\":197:198   */\n      0x00\n        /* \"#utility.yul\":194:195   */\n      dup1\n        /* \"#utility.yul\":187:199   */\n      revert\n        /* \"#utility.yul\":211:328   */\n    tag_81:\n        /* \"#utility.yul\":320:321   */\n      0x00\n        /* \"#utility.yul\":317:318   */\n      dup1\n        /* \"#utility.yul\":310:322   */\n      revert\n        /* \"#utility.yul\":334:411   */\n    tag_82:\n        /* \"#utility.yul\":371:378   */\n      0x00\n        /* \"#utility.yul\":400:405   */\n      dup2\n        /* \"#utility.yul\":389:405   */\n      swap1\n      pop\n        /* \"#utility.yul\":334:411   */\n      swap2\n      swap1\n      pop\n      jump\t// out\n        /* \"#utility.yul\":417:539   */\n    tag_83:\n        /* \"#utility.yul\":490:514   */\n      tag_135\n        /* \"#utility.yul\":508:513   */\n      dup2\n        /* \"#utility.yul\":490:514   */\n      tag_82\n      jump\t// in\n    tag_135:\n        /* \"#utility.yul\":483:488   */\n      dup2\n        /* \"#utility.yul\":480:515   */\n      eq\n        /* \"#utility.yul\":470:533   */\n      tag_136\n      jumpi\n        /* \"#utility.yul\":529:530   */\n      0x00\n        /* \"#utility.yul\":526:527   */\n      dup1\n        /* \"#utility.yul\":519:531   */\n      revert\n        /* \"#utility.yul\":470:533   */\n    tag_136:\n        /* \"#utility.yul\":417:539   */\n      pop\n      jump\t// out\n        /* \"#utility.yul\":545:684   */\n    tag_84:\n        /* \"#utility.yul\":591:596   */\n      0x00\n        /* \"#utility.yul\":629:635   */\n      dup2\n        /* \"#utility.yul\":616:636   */\n      calldataload\n        /* \"#utility.yul\":607:636   */\n      swap1\n      pop\n        /* \"#utility.yul\":645:678   */\n      tag_138\n        /* \"#utility.yul\":672:677   */\n      dup2\n        /* \"#utility.yul\":645:678   */\n      tag_83\n      jump\t// in\n    tag_138:\n        /* \"#utility.yul\":545:684   */\n      swap3\n      swap2\n      pop\n      pop\n      jump\t// out\n        /* \"#utility.yul\":690:1019   */\n    tag_14:\n        /* \"#utility.yul\":749:755   */\n      0x00\n        /* \"#utility.yul\":798:800   */\n      0x20\n        /* \"#utility.yul\":786:795   */\n      dup3\n        /* \"#utility.yul\":777:784   */\n      dup5\n        /* \"#utility.yul\":773:796   */\n      sub\n        /* \"#utility.yul\":769:801   */\n      slt\n        /* \"#utility.yul\":766:885   */\n      iszero\n      tag_140\n      jumpi\n        /* \"#utility.yul\":804:883   */\n      tag_141\n      tag_80\n      jump\t// in\n    tag_141:\n        /* \"#utility.yul\":766:885   */\n    tag_140:\n        /* \"#utility.yul\":924:925   */\n      0x00\n        /* \"#utility.yul\":949:1002   */\n      tag_142\n        /* \"#utility.yul\":994:1001   */\n      dup5\n        /* \"#utility.yul\":985:991   */\n      dup3\n        /* \"#utility.yul\":974:983   */\n      dup6\n        /* \"#utility.yul\":970:992   */\n      add\n        /* \"#utility.yul\":949:1002   */\n      tag_84\n      jump\t// in\n    tag_142:\n        /* \"#utility.yul\":939:1002   */\n      swap2\n      pop\n        /* \"#utility.yul\":895:1012   */\n      pop\n        /* \"#utility.yul\":690:1019   */\n      swap3\n      swap2\n      pop\n      pop\n      jump\t// out\n        /* \"#utility.yul\":1025:1151   */\n    tag_85:\n        /* \"#utility.yul\":1062:1069   */\n      0x00\n        /* \"#utility.yul\":1102:1144   */\n      0xffffffffffffffffffffffffffffffffffffffff\n        /* \"#utility.yul\":1095:1100   */\n      dup3\n        /* \"#utility.yul\":1091:1145   */\n      and\n        /* \"#utility.yul\":1080:1145   */\n      swap1\n      pop\n        /* \"#utility.yul\":1025:1151   */\n      swap2\n      swap1\n      pop\n      jump\t// out\n        /* \"#utility.yul\":1157:1253   */\n    tag_86:\n        /* \"#utility.yul\":1194:1201   */\n      0x00\n        /* \"#utility.yul\":1223:1247   */\n      tag_145\n        /* \"#utility.yul\":1241:1246   */\n      dup3\n        /* \"#utility.yul\":1223:1247   */\n      tag_85\n      jump\t// in\n    tag_145:\n        /* \"#utility.yul\":1212:1247   */\n      swap1\n      pop\n        /* \"#utility.yul\":1157:1253   */\n      swap2\n      swap1\n      pop\n      jump\t// out\n        /* \"#utility.yul\":1259:1381   */\n    tag_87:\n        /* \"#utility.yul\":1332:1356   */\n      tag_147\n        /* \"#utility.yul\":1350:1355   */\n      dup2\n        /* \"#utility.yul\":1332:1356   */\n      tag_86\n      jump\t// in\n    tag_147:\n        /* \"#utility.yul\":1325:1330   */\n      dup2\n        /* \"#utility.yul\":1322:1357   */\n      eq\n        /* \"#utility.yul\":1312:1375   */\n      tag_148\n      jumpi\n        /* \"#utility.yul\":1371:1372   */\n      0x00\n        /* \"#utility.yul\":1368:1369   */\n      dup1\n        /* \"#utility.yul\":1361:1373   */\n      revert\n        /* \"#utility.yul\":1312:1375   */\n    tag_148:\n        /* \"#utility.yul\":1259:1381   */\n      pop\n      jump\t// out\n        /* \"#utility.yul\":1387:1526   */\n    tag_88:\n        /* \"#utility.yul\":1433:1438   */\n      0x00\n        /* \"#utility.yul\":1471:1477   */\n      dup2\n        /* \"#utility.yul\":1458:1478   */\n      calldataload\n        /* \"#utility.yul\":1449:1478   */\n      swap1\n      pop\n        /* \"#utility.yul\":1487:1520   */\n      tag_150\n        /* \"#utility.yul\":1514:1519   */\n      dup2\n        /* \"#utility.yul\":1487:1520   */\n      tag_87\n      jump\t// in\n    tag_150:\n        /* \"#utility.yul\":1387:1526   */\n      swap3\n      swap2\n      pop\n      pop\n      jump\t// out\n        /* \"#utility.yul\":1532:1861   */\n    tag_19:\n        /* \"#utility.yul\":1591:1597   */\n      0x00\n        /* \"#utility.yul\":1640:1642   */\n      0x20\n        /* \"#utility.yul\":1628:1637   */\n      dup3\n        /* \"#utility.yul\":1619:1626   */\n      dup5\n        /* \"#utility.yul\":1615:1638   */\n      sub\n        /* \"#utility.yul\":1611:1643   */\n      slt\n        /* \"#utility.yul\":1608:1727   */\n      iszero\n      tag_152\n      jumpi\n        /* \"#utility.yul\":1646:1725   */\n      tag_153\n      tag_80\n      jump\t// in\n    tag_153:\n        /* \"#utility.yul\":1608:1727   */\n    tag_152:\n        /* \"#utility.yul\":1766:1767   */\n      0x00\n        /* \"#utility.yul\":1791:1844   */\n      tag_154\n        /* \"#utility.yul\":1836:1843   */\n      dup5\n        /* \"#utility.yul\":1827:1833   */\n      dup3\n        /* \"#utility.yul\":1816:1825   */\n      dup6\n        /* \"#utility.yul\":1812:1834   */\n      add\n        /* \"#utility.yul\":1791:1844   */\n      tag_88\n      jump\t// in\n    tag_154:\n        /* \"#utility.yul\":1781:1844   */\n      swap2\n      pop\n        /* \"#utility.yul\":1737:1854   */\n      pop\n        /* \"#utility.yul\":1532:1861   */\n      swap3\n      swap2\n      pop\n      pop\n      jump\t// out\n        /* \"#utility.yul\":1867:1957   */\n    tag_89:\n        /* \"#utility.yul\":1901:1908   */\n      0x00\n        /* \"#utility.yul\":1944:1949   */\n      dup2\n        /* \"#utility.yul\":1937:1950   */\n      iszero\n        /* \"#utility.yul\":1930:1951   */\n      iszero\n        /* \"#utility.yul\":1919:1951   */\n      swap1\n      pop\n        /* \"#utility.yul\":1867:1957   */\n      swap2\n      swap1\n      pop\n      jump\t// out\n        /* \"#utility.yul\":1963:2072   */\n    tag_90:\n        /* \"#utility.yul\":2044:2065   */\n      tag_157\n        /* \"#utility.yul\":2059:2064   */\n      dup2\n        /* \"#utility.yul\":2044:2065   */\n      tag_89\n      jump\t// in\n    tag_157:\n        /* \"#utility.yul\":2039:2042   */\n      dup3\n        /* \"#utility.yul\":2032:2066   */\n      mstore\n        /* \"#utility.yul\":1963:2072   */\n      pop\n      pop\n      jump\t// out\n        /* \"#utility.yul\":2078:2288   */\n    tag_22:\n        /* \"#utility.yul\":2165:2169   */\n      0x00\n        /* \"#utility.yul\":2203:2205   */\n      0x20\n        /* \"#utility.yul\":2192:2201   */\n      dup3\n        /* \"#utility.yul\":2188:2206   */\n      add\n        /* \"#utility.yul\":2180:2206   */\n      swap1\n      pop\n        /* \"#utility.yul\":2216:2281   */\n      tag_159\n        /* \"#utility.yul\":2278:2279   */\n      0x00\n        /* \"#utility.yul\":2267:2276   */\n      dup4\n        /* \"#utility.yul\":2263:2280   */\n      add\n        /* \"#utility.yul\":2254:2260   */\n      dup5\n        /* \"#utility.yul\":2216:2281   */\n      tag_90\n      jump\t// in\n    tag_159:\n        /* \"#utility.yul\":2078:2288   */\n      swap3\n      swap2\n      pop\n      pop\n      jump\t// out\n        /* \"#utility.yul\":2294:2412   */\n    tag_91:\n        /* \"#utility.yul\":2381:2405   */\n      tag_161\n        /* \"#utility.yul\":2399:2404   */\n      dup2\n        /* \"#utility.yul\":2381:2405   */\n      tag_86\n      jump\t// in\n    tag_161:\n        /* \"#utility.yul\":2376:2379   */\n      dup3\n        /* \"#utility.yul\":2369:2406   */\n      mstore\n        /* \"#utility.yul\":2294:2412   */\n      pop\n      pop\n      jump\t// out\n        /* \"#utility.yul\":2418:2640   */\n    tag_27:\n        /* \"#utility.yul\":2511:2515   */\n      0x00\n        /* \"#utility.yul\":2549:2551   */\n      0x20\n        /* \"#utility.yul\":2538:2547   */\n      dup3\n        /* \"#utility.yul\":2534:2552   */\n      add\n        /* \"#utility.yul\":2526:2552   */\n      swap1\n      pop\n        /* \"#utility.yul\":2562:2633   */\n      tag_163\n        /* \"#utility.yul\":2630:2631   */\n      0x00\n        /* \"#utility.yul\":2619:2628   */\n      dup4\n        /* \"#utility.yul\":2615:2632   */\n      add\n        /* \"#utility.yul\":2606:2612   */\n      dup5\n        /* \"#utility.yul\":2562:2633   */\n      tag_91\n      jump\t// in\n    tag_163:\n        /* \"#utility.yul\":2418:2640   */\n      swap3\n      swap2\n      pop\n      pop\n      jump\t// out\n        /* \"#utility.yul\":2646:2745   */\n    tag_92:\n        /* \"#utility.yul\":2698:2704   */\n      0x00\n        /* \"#utility.yul\":2732:2737   */\n      dup2\n        /* \"#utility.yul\":2726:2738   */\n      mload\n        /* \"#utility.yul\":2716:2738   */\n      swap1\n      pop\n        /* \"#utility.yul\":2646:2745   */\n      swap2\n      swap1\n      pop\n      jump\t// out\n        /* \"#utility.yul\":2751:2920   */\n    tag_93:\n        /* \"#utility.yul\":2835:2846   */\n      0x00\n        /* \"#utility.yul\":2869:2875   */\n      dup3\n        /* \"#utility.yul\":2864:2867   */\n      dup3\n        /* \"#utility.yul\":2857:2876   */\n      mstore\n        /* \"#utility.yul\":2909:2913   */\n      0x20\n        /* \"#utility.yul\":2904:2907   */\n      dup3\n        /* \"#utility.yul\":2900:2914   */\n      add\n        /* \"#utility.yul\":2885:2914   */\n      swap1\n      pop\n        /* \"#utility.yul\":2751:2920   */\n      swap3\n      swap2\n      pop\n      pop\n      jump\t// out\n        /* \"#utility.yul\":2926:3172   */\n    tag_94:\n        /* \"#utility.yul\":3007:3008   */\n      0x00\n        /* \"#utility.yul\":3017:3130   */\n    tag_167:\n        /* \"#utility.yul\":3031:3037   */\n      dup4\n        /* \"#utility.yul\":3028:3029   */\n      dup2\n        /* \"#utility.yul\":3025:3038   */\n      lt\n        /* \"#utility.yul\":3017:3130   */\n      iszero\n      tag_169\n      jumpi\n        /* \"#utility.yul\":3116:3117   */\n      dup1\n        /* \"#utility.yul\":3111:3114   */\n      dup3\n        /* \"#utility.yul\":3107:3118   */\n      add\n        /* \"#utility.yul\":3101:3119   */\n      mload\n        /* \"#utility.yul\":3097:3098   */\n      dup2\n        /* \"#utility.yul\":3092:3095   */\n      dup5\n        /* \"#utility.yul\":3088:3099   */\n      add\n        /* \"#utility.yul\":3081:3120   */\n      mstore\n        /* \"#utility.yul\":3053:3055   */\n      0x20\n        /* \"#utility.yul\":3050:3051   */\n      dup2\n        /* \"#utility.yul\":3046:3056   */\n      add\n        /* \"#utility.yul\":3041:3056   */\n      swap1\n      pop\n        /* \"#utility.yul\":3017:3130   */\n      jump(tag_167)\n    tag_169:\n        /* \"#utility.yul\":3164:3165   */\n      0x00\n        /* \"#utility.yul\":3155:3161   */\n      dup5\n        /* \"#utility.yul\":3150:3153   */\n      dup5\n        /* \"#utility.yul\":3146:3162   */\n      add\n        /* \"#utility.yul\":3139:3166   */\n      mstore\n        /* \"#utility.yul\":2988:3172   */\n      pop\n        /* \"#utility.yul\":2926:3172   */\n      pop\n      pop\n      pop\n      jump\t// out\n        /* \"#utility.yul\":3178:3280   */\n    tag_95:\n        /* \"#utility.yul\":3219:3225   */\n      0x00\n        /* \"#utility.yul\":3270:3272   */\n      0x1f\n        /* \"#utility.yul\":3266:3273   */\n      not\n        /* \"#utility.yul\":3261:3263   */\n      0x1f\n        /* \"#utility.yul\":3254:3259   */\n      dup4\n        /* \"#utility.yul\":3250:3264   */\n      add\n        /* \"#utility.yul\":3246:3274   */\n      and\n        /* \"#utility.yul\":3236:3274   */\n      swap1\n      pop\n        /* \"#utility.yul\":3178:3280   */\n      swap2\n      swap1\n      pop\n      jump\t// out\n        /* \"#utility.yul\":3286:3663   */\n    tag_96:\n        /* \"#utility.yul\":3374:3377   */\n      0x00\n        /* \"#utility.yul\":3402:3441   */\n      tag_172\n        /* \"#utility.yul\":3435:3440   */\n      dup3\n        /* \"#utility.yul\":3402:3441   */\n      tag_92\n      jump\t// in\n    tag_172:\n        /* \"#utility.yul\":3457:3528   */\n      tag_173\n        /* \"#utility.yul\":3521:3527   */\n      dup2\n        /* \"#utility.yul\":3516:3519   */\n      dup6\n        /* \"#utility.yul\":3457:3528   */\n      tag_93\n      jump\t// in\n    tag_173:\n        /* \"#utility.yul\":3450:3528   */\n      swap4\n      pop\n        /* \"#utility.yul\":3537:3602   */\n      tag_174\n        /* \"#utility.yul\":3595:3601   */\n      dup2\n        /* \"#utility.yul\":3590:3593   */\n      dup6\n        /* \"#utility.yul\":3583:3587   */\n      0x20\n        /* \"#utility.yul\":3576:3581   */\n      dup7\n        /* \"#utility.yul\":3572:3588   */\n      add\n        /* \"#utility.yul\":3537:3602   */\n      tag_94\n      jump\t// in\n    tag_174:\n        /* \"#utility.yul\":3627:3656   */\n      tag_175\n        /* \"#utility.yul\":3649:3655   */\n      dup2\n        /* \"#utility.yul\":3627:3656   */\n      tag_95\n      jump\t// in\n    tag_175:\n        /* \"#utility.yul\":3622:3625   */\n      dup5\n        /* \"#utility.yul\":3618:3657   */\n      add\n        /* \"#utility.yul\":3611:3657   */\n      swap2\n      pop\n        /* \"#utility.yul\":3378:3663   */\n      pop\n        /* \"#utility.yul\":3286:3663   */\n      swap3\n      swap2\n      pop\n      pop\n      jump\t// out\n        /* \"#utility.yul\":3669:3787   */\n    tag_97:\n        /* \"#utility.yul\":3756:3780   */\n      tag_177\n        /* \"#utility.yul\":3774:3779   */\n      dup2\n        /* \"#utility.yul\":3756:3780   */\n      tag_82\n      jump\t// in\n    tag_177:\n        /* \"#utility.yul\":3751:3754   */\n      dup3\n        /* \"#utility.yul\":3744:3781   */\n      mstore\n        /* \"#utility.yul\":3669:3787   */\n      pop\n      pop\n      jump\t// out\n        /* \"#utility.yul\":3793:3897   */\n    tag_98:\n        /* \"#utility.yul\":3838:3845   */\n      0x00\n        /* \"#utility.yul\":3867:3891   */\n      tag_179\n        /* \"#utility.yul\":3885:3890   */\n      dup3\n        /* \"#utility.yul\":3867:3891   */\n      tag_85\n      jump\t// in\n    tag_179:\n        /* \"#utility.yul\":3856:3891   */\n      swap1\n      pop\n        /* \"#utility.yul\":3793:3897   */\n      swap2\n      swap1\n      pop\n      jump\t// out\n        /* \"#utility.yul\":3903:4045   */\n    tag_99:\n        /* \"#utility.yul\":4006:4038   */\n      tag_181\n        /* \"#utility.yul\":4032:4037   */\n      dup2\n        /* \"#utility.yul\":4006:4038   */\n      tag_98\n      jump\t// in\n    tag_181:\n        /* \"#utility.yul\":4001:4004   */\n      dup3\n        /* \"#utility.yul\":3994:4039   */\n      mstore\n        /* \"#utility.yul\":3903:4045   */\n      pop\n      pop\n      jump\t// out\n        /* \"#utility.yul\":4051:4826   */\n    tag_33:\n        /* \"#utility.yul\":4286:4290   */\n      0x00\n        /* \"#utility.yul\":4324:4327   */\n      0xa0\n        /* \"#utility.yul\":4313:4322   */\n      dup3\n        /* \"#utility.yul\":4309:4328   */\n      add\n        /* \"#utility.yul\":4301:4328   */\n      swap1\n      pop\n        /* \"#utility.yul\":4374:4383   */\n      dup2\n        /* \"#utility.yul\":4368:4372   */\n      dup2\n        /* \"#utility.yul\":4364:4384   */\n      sub\n        /* \"#utility.yul\":4360:4361   */\n      0x00\n        /* \"#utility.yul\":4349:4358   */\n      dup4\n        /* \"#utility.yul\":4345:4362   */\n      add\n        /* \"#utility.yul\":4338:4385   */\n      mstore\n        /* \"#utility.yul\":4402:4480   */\n      tag_183\n        /* \"#utility.yul\":4475:4479   */\n      dup2\n        /* \"#utility.yul\":4466:4472   */\n      dup9\n        /* \"#utility.yul\":4402:4480   */\n      tag_96\n      jump\t// in\n    tag_183:\n        /* \"#utility.yul\":4394:4480   */\n      swap1\n      pop\n        /* \"#utility.yul\":4490:4562   */\n      tag_184\n        /* \"#utility.yul\":4558:4560   */\n      0x20\n        /* \"#utility.yul\":4547:4556   */\n      dup4\n        /* \"#utility.yul\":4543:4561   */\n      add\n        /* \"#utility.yul\":4534:4540   */\n      dup8\n        /* \"#utility.yul\":4490:4562   */\n      tag_97\n      jump\t// in\n    tag_184:\n        /* \"#utility.yul\":4572:4660   */\n      tag_185\n        /* \"#utility.yul\":4656:4658   */\n      0x40\n        /* \"#utility.yul\":4645:4654   */\n      dup4\n        /* \"#utility.yul\":4641:4659   */\n      add\n        /* \"#utility.yul\":4632:4638   */\n      dup7\n        /* \"#utility.yul\":4572:4660   */\n      tag_99\n      jump\t// in\n    tag_185:\n        /* \"#utility.yul\":4670:4736   */\n      tag_186\n        /* \"#utility.yul\":4732:4734   */\n      0x60\n        /* \"#utility.yul\":4721:4730   */\n      dup4\n        /* \"#utility.yul\":4717:4735   */\n      add\n        /* \"#utility.yul\":4708:4714   */\n      dup6\n        /* \"#utility.yul\":4670:4736   */\n      tag_90\n      jump\t// in\n    tag_186:\n        /* \"#utility.yul\":4746:4819   */\n      tag_187\n        /* \"#utility.yul\":4814:4817   */\n      0x80\n        /* \"#utility.yul\":4803:4812   */\n      dup4\n        /* \"#utility.yul\":4799:4818   */\n      add\n        /* \"#utility.yul\":4790:4796   */\n      dup5\n        /* \"#utility.yul\":4746:4819   */\n      tag_97\n      jump\t// in\n    tag_187:\n        /* \"#utility.yul\":4051:4826   */\n      swap7\n      swap6\n      pop\n      pop\n      pop\n      pop\n      pop\n      pop\n      jump\t// out\n        /* \"#utility.yul\":4832:4949   */\n    tag_100:\n        /* \"#utility.yul\":4941:4942   */\n      0x00\n        /* \"#utility.yul\":4938:4939   */\n      dup1\n        /* \"#utility.yul\":4931:4943   */\n      revert\n        /* \"#utility.yul\":4955:5072   */\n    tag_101:\n        /* \"#utility.yul\":5064:5065   */\n      0x00\n        /* \"#utility.yul\":5061:5062   */\n      dup1\n        /* \"#utility.yul\":5054:5066   */\n      revert\n        /* \"#utility.yul\":5078:5258   */\n    tag_102:\n        /* \"#utility.yul\":5126:5203   */\n      0x4e487b7100000000000000000000000000000000000000000000000000000000\n        /* \"#utility.yul\":5123:5124   */\n      0x00\n        /* \"#utility.yul\":5116:5204   */\n      mstore\n        /* \"#utility.yul\":5223:5227   */\n      0x41\n        /* \"#utility.yul\":5220:5221   */\n      0x04\n        /* \"#utility.yul\":5213:5228   */\n      mstore\n        /* \"#utility.yul\":5247:5251   */\n      0x24\n        /* \"#utility.yul\":5244:5245   */\n      0x00\n        /* \"#utility.yul\":5237:5252   */\n      revert\n        /* \"#utility.yul\":5264:5545   */\n    tag_103:\n        /* \"#utility.yul\":5347:5374   */\n      tag_192\n        /* \"#utility.yul\":5369:5373   */\n      dup3\n        /* \"#utility.yul\":5347:5374   */\n      tag_95\n      jump\t// in\n    tag_192:\n        /* \"#utility.yul\":5339:5345   */\n      dup2\n        /* \"#utility.yul\":5335:5375   */\n      add\n        /* \"#utility.yul\":5477:5483   */\n      dup2\n        /* \"#utility.yul\":5465:5475   */\n      dup2\n        /* \"#utility.yul\":5462:5484   */\n      lt\n        /* \"#utility.yul\":5441:5459   */\n      0xffffffffffffffff\n        /* \"#utility.yul\":5429:5439   */\n      dup3\n        /* \"#utility.yul\":5426:5460   */\n      gt\n        /* \"#utility.yul\":5423:5485   */\n      or\n        /* \"#utility.yul\":5420:5508   */\n      iszero\n      tag_193\n      jumpi\n        /* \"#utility.yul\":5488:5506   */\n      tag_194\n      tag_102\n      jump\t// in\n    tag_194:\n        /* \"#utility.yul\":5420:5508   */\n    tag_193:\n        /* \"#utility.yul\":5528:5538   */\n      dup1\n        /* \"#utility.yul\":5524:5526   */\n      0x40\n        /* \"#utility.yul\":5517:5539   */\n      mstore\n        /* \"#utility.yul\":5307:5545   */\n      pop\n        /* \"#utility.yul\":5264:5545   */\n      pop\n      pop\n      jump\t// out\n        /* \"#utility.yul\":5551:5680   */\n    tag_104:\n        /* \"#utility.yul\":5585:5591   */\n      0x00\n        /* \"#utility.yul\":5612:5632   */\n      tag_196\n      tag_79\n      jump\t// in\n    tag_196:\n        /* \"#utility.yul\":5602:5632   */\n      swap1\n      pop\n        /* \"#utility.yul\":5641:5674   */\n      tag_197\n        /* \"#utility.yul\":5669:5673   */\n      dup3\n        /* \"#utility.yul\":5661:5667   */\n      dup3\n        /* \"#utility.yul\":5641:5674   */\n      tag_103\n      jump\t// in\n    tag_197:\n        /* \"#utility.yul\":5551:5680   */\n      swap2\n      swap1\n      pop\n      jump\t// out\n        /* \"#utility.yul\":5686:5994   */\n    tag_105:\n        /* \"#utility.yul\":5748:5752   */\n      0x00\n        /* \"#utility.yul\":5838:5856   */\n      0xffffffffffffffff\n        /* \"#utility.yul\":5830:5836   */\n      dup3\n        /* \"#utility.yul\":5827:5857   */\n      gt\n        /* \"#utility.yul\":5824:5880   */\n      iszero\n      tag_199\n      jumpi\n        /* \"#utility.yul\":5860:5878   */\n      tag_200\n      tag_102\n      jump\t// in\n    tag_200:\n        /* \"#utility.yul\":5824:5880   */\n    tag_199:\n        /* \"#utility.yul\":5898:5927   */\n      tag_201\n        /* \"#utility.yul\":5920:5926   */\n      dup3\n        /* \"#utility.yul\":5898:5927   */\n      tag_95\n      jump\t// in\n    tag_201:\n        /* \"#utility.yul\":5890:5927   */\n      swap1\n      pop\n        /* \"#utility.yul\":5982:5986   */\n      0x20\n        /* \"#utility.yul\":5976:5980   */\n      dup2\n        /* \"#utility.yul\":5972:5987   */\n      add\n        /* \"#utility.yul\":5964:5987   */\n      swap1\n      pop\n        /* \"#utility.yul\":5686:5994   */\n      swap2\n      swap1\n      pop\n      jump\t// out\n        /* \"#utility.yul\":6000:6146   */\n    tag_106:\n        /* \"#utility.yul\":6097:6103   */\n      dup3\n        /* \"#utility.yul\":6092:6095   */\n      dup2\n        /* \"#utility.yul\":6087:6090   */\n      dup4\n        /* \"#utility.yul\":6074:6104   */\n      calldatacopy\n        /* \"#utility.yul\":6138:6139   */\n      0x00\n        /* \"#utility.yul\":6129:6135   */\n      dup4\n        /* \"#utility.yul\":6124:6127   */\n      dup4\n        /* \"#utility.yul\":6120:6136   */\n      add\n        /* \"#utility.yul\":6113:6140   */\n      mstore\n        /* \"#utility.yul\":6000:6146   */\n      pop\n      pop\n      pop\n      jump\t// out\n        /* \"#utility.yul\":6152:6577   */\n    tag_107:\n        /* \"#utility.yul\":6230:6235   */\n      0x00\n        /* \"#utility.yul\":6255:6321   */\n      tag_204\n        /* \"#utility.yul\":6271:6320   */\n      tag_205\n        /* \"#utility.yul\":6313:6319   */\n      dup5\n        /* \"#utility.yul\":6271:6320   */\n      tag_105\n      jump\t// in\n    tag_205:\n        /* \"#utility.yul\":6255:6321   */\n      tag_104\n      jump\t// in\n    tag_204:\n        /* \"#utility.yul\":6246:6321   */\n      swap1\n      pop\n        /* \"#utility.yul\":6344:6350   */\n      dup3\n        /* \"#utility.yul\":6337:6342   */\n      dup2\n        /* \"#utility.yul\":6330:6351   */\n      mstore\n        /* \"#utility.yul\":6382:6386   */\n      0x20\n        /* \"#utility.yul\":6375:6380   */\n      dup2\n        /* \"#utility.yul\":6371:6387   */\n      add\n        /* \"#utility.yul\":6420:6423   */\n      dup5\n        /* \"#utility.yul\":6411:6417   */\n      dup5\n        /* \"#utility.yul\":6406:6409   */\n      dup5\n        /* \"#utility.yul\":6402:6418   */\n      add\n        /* \"#utility.yul\":6399:6424   */\n      gt\n        /* \"#utility.yul\":6396:6508   */\n      iszero\n      tag_206\n      jumpi\n        /* \"#utility.yul\":6427:6506   */\n      tag_207\n      tag_101\n      jump\t// in\n    tag_207:\n        /* \"#utility.yul\":6396:6508   */\n    tag_206:\n        /* \"#utility.yul\":6517:6571   */\n      tag_208\n        /* \"#utility.yul\":6564:6570   */\n      dup5\n        /* \"#utility.yul\":6559:6562   */\n      dup3\n        /* \"#utility.yul\":6554:6557   */\n      dup6\n        /* \"#utility.yul\":6517:6571   */\n      tag_106\n      jump\t// in\n    tag_208:\n        /* \"#utility.yul\":6236:6577   */\n      pop\n        /* \"#utility.yul\":6152:6577   */\n      swap4\n      swap3\n      pop\n      pop\n      pop\n      jump\t// out\n        /* \"#utility.yul\":6597:6937   */\n    tag_108:\n        /* \"#utility.yul\":6653:6658   */\n      0x00\n        /* \"#utility.yul\":6702:6705   */\n      dup3\n        /* \"#utility.yul\":6695:6699   */\n      0x1f\n        /* \"#utility.yul\":6687:6693   */\n      dup4\n        /* \"#utility.yul\":6683:6700   */\n      add\n        /* \"#utility.yul\":6679:6706   */\n      slt\n        /* \"#utility.yul\":6669:6791   */\n      tag_210\n      jumpi\n        /* \"#utility.yul\":6710:6789   */\n      tag_211\n      tag_100\n      jump\t// in\n    tag_211:\n        /* \"#utility.yul\":6669:6791   */\n    tag_210:\n        /* \"#utility.yul\":6827:6833   */\n      dup2\n        /* \"#utility.yul\":6814:6834   */\n      calldataload\n        /* \"#utility.yul\":6852:6931   */\n      tag_212\n        /* \"#utility.yul\":6927:6930   */\n      dup5\n        /* \"#utility.yul\":6919:6925   */\n      dup3\n        /* \"#utility.yul\":6912:6916   */\n      0x20\n        /* \"#utility.yul\":6904:6910   */\n      dup7\n        /* \"#utility.yul\":6900:6917   */\n      add\n        /* \"#utility.yul\":6852:6931   */\n      tag_107\n      jump\t// in\n    tag_212:\n        /* \"#utility.yul\":6843:6931   */\n      swap2\n      pop\n        /* \"#utility.yul\":6659:6937   */\n      pop\n        /* \"#utility.yul\":6597:6937   */\n      swap3\n      swap2\n      pop\n      pop\n      jump\t// out\n        /* \"#utility.yul\":6943:7081   */\n    tag_109:\n        /* \"#utility.yul\":7024:7056   */\n      tag_214\n        /* \"#utility.yul\":7050:7055   */\n      dup2\n        /* \"#utility.yul\":7024:7056   */\n      tag_98\n      jump\t// in\n    tag_214:\n        /* \"#utility.yul\":7017:7022   */\n      dup2\n        /* \"#utility.yul\":7014:7057   */\n      eq\n        /* \"#utility.yul\":7004:7075   */\n      tag_215\n      jumpi\n        /* \"#utility.yul\":7071:7072   */\n      0x00\n        /* \"#utility.yul\":7068:7069   */\n      dup1\n        /* \"#utility.yul\":7061:7073   */\n      revert\n        /* \"#utility.yul\":7004:7075   */\n    tag_215:\n        /* \"#utility.yul\":6943:7081   */\n      pop\n      jump\t// out\n        /* \"#utility.yul\":7087:7242   */\n    tag_110:\n        /* \"#utility.yul\":7141:7146   */\n      0x00\n        /* \"#utility.yul\":7179:7185   */\n      dup2\n        /* \"#utility.yul\":7166:7186   */\n      calldataload\n        /* \"#utility.yul\":7157:7186   */\n      swap1\n      pop\n        /* \"#utility.yul\":7195:7236   */\n      tag_217\n        /* \"#utility.yul\":7230:7235   */\n      dup2\n        /* \"#utility.yul\":7195:7236   */\n      tag_109\n      jump\t// in\n    tag_217:\n        /* \"#utility.yul\":7087:7242   */\n      swap3\n      swap2\n      pop\n      pop\n      jump\t// out\n        /* \"#utility.yul\":7248:8063   */\n    tag_37:\n        /* \"#utility.yul\":7343:7349   */\n      0x00\n        /* \"#utility.yul\":7351:7357   */\n      dup1\n        /* \"#utility.yul\":7359:7365   */\n      0x00\n        /* \"#utility.yul\":7408:7410   */\n      0x60\n        /* \"#utility.yul\":7396:7405   */\n      dup5\n        /* \"#utility.yul\":7387:7394   */\n      dup7\n        /* \"#utility.yul\":7383:7406   */\n      sub\n        /* \"#utility.yul\":7379:7411   */\n      slt\n        /* \"#utility.yul\":7376:7495   */\n      iszero\n      tag_219\n      jumpi\n        /* \"#utility.yul\":7414:7493   */\n      tag_220\n      tag_80\n      jump\t// in\n    tag_220:\n        /* \"#utility.yul\":7376:7495   */\n    tag_219:\n        /* \"#utility.yul\":7562:7563   */\n      0x00\n        /* \"#utility.yul\":7551:7560   */\n      dup5\n        /* \"#utility.yul\":7547:7564   */\n      add\n        /* \"#utility.yul\":7534:7565   */\n      calldataload\n        /* \"#utility.yul\":7592:7610   */\n      0xffffffffffffffff\n        /* \"#utility.yul\":7584:7590   */\n      dup2\n        /* \"#utility.yul\":7581:7611   */\n      gt\n        /* \"#utility.yul\":7578:7695   */\n      iszero\n      tag_221\n      jumpi\n        /* \"#utility.yul\":7614:7693   */\n      tag_222\n      tag_81\n      jump\t// in\n    tag_222:\n        /* \"#utility.yul\":7578:7695   */\n    tag_221:\n        /* \"#utility.yul\":7719:7782   */\n      tag_223\n        /* \"#utility.yul\":7774:7781   */\n      dup7\n        /* \"#utility.yul\":7765:7771   */\n      dup3\n        /* \"#utility.yul\":7754:7763   */\n      dup8\n        /* \"#utility.yul\":7750:7772   */\n      add\n        /* \"#utility.yul\":7719:7782   */\n      tag_108\n      jump\t// in\n    tag_223:\n        /* \"#utility.yul\":7709:7782   */\n      swap4\n      pop\n        /* \"#utility.yul\":7505:7792   */\n      pop\n        /* \"#utility.yul\":7831:7833   */\n      0x20\n        /* \"#utility.yul\":7857:7910   */\n      tag_224\n        /* \"#utility.yul\":7902:7909   */\n      dup7\n        /* \"#utility.yul\":7893:7899   */\n      dup3\n        /* \"#utility.yul\":7882:7891   */\n      dup8\n        /* \"#utility.yul\":7878:7900   */\n      add\n        /* \"#utility.yul\":7857:7910   */\n      tag_84\n      jump\t// in\n    tag_224:\n        /* \"#utility.yul\":7847:7910   */\n      swap3\n      pop\n        /* \"#utility.yul\":7802:7920   */\n      pop\n        /* \"#utility.yul\":7959:7961   */\n      0x40\n        /* \"#utility.yul\":7985:8046   */\n      tag_225\n        /* \"#utility.yul\":8038:8045   */\n      dup7\n        /* \"#utility.yul\":8029:8035   */\n      dup3\n        /* \"#utility.yul\":8018:8027   */\n      dup8\n        /* \"#utility.yul\":8014:8036   */\n      add\n        /* \"#utility.yul\":7985:8046   */\n      tag_110\n      jump\t// in\n    tag_225:\n        /* \"#utility.yul\":7975:8046   */\n      swap2\n      pop\n        /* \"#utility.yul\":7930:8056   */\n      pop\n        /* \"#utility.yul\":7248:8063   */\n      swap3\n      pop\n      swap3\n      pop\n      swap3\n      jump\t// out\n        /* \"#utility.yul\":8069:8291   */\n    tag_43:\n        /* \"#utility.yul\":8162:8166   */\n      0x00\n        /* \"#utility.yul\":8200:8202   */\n      0x20\n        /* \"#utility.yul\":8189:8198   */\n      dup3\n        /* \"#utility.yul\":8185:8203   */\n      add\n        /* \"#utility.yul\":8177:8203   */\n      swap1\n      pop\n        /* \"#utility.yul\":8213:8284   */\n      tag_227\n        /* \"#utility.yul\":8281:8282   */\n      0x00\n        /* \"#utility.yul\":8270:8279   */\n      dup4\n        /* \"#utility.yul\":8266:8283   */\n      add\n        /* \"#utility.yul\":8257:8263   */\n      dup5\n        /* \"#utility.yul\":8213:8284   */\n      tag_97\n      jump\t// in\n    tag_227:\n        /* \"#utility.yul\":8069:8291   */\n      swap3\n      swap2\n      pop\n      pop\n      jump\t// out\n        /* \"#utility.yul\":8297:8477   */\n    tag_111:\n        /* \"#utility.yul\":8345:8422   */\n      0x4e487b7100000000000000000000000000000000000000000000000000000000\n        /* \"#utility.yul\":8342:8343   */\n      0x00\n        /* \"#utility.yul\":8335:8423   */\n      mstore\n        /* \"#utility.yul\":8442:8446   */\n      0x12\n        /* \"#utility.yul\":8439:8440   */\n      0x04\n        /* \"#utility.yul\":8432:8447   */\n      mstore\n        /* \"#utility.yul\":8466:8470   */\n      0x24\n        /* \"#utility.yul\":8463:8464   */\n      0x00\n        /* \"#utility.yul\":8456:8471   */\n      revert\n        /* \"#utility.yul\":8483:8663   */\n    tag_112:\n        /* \"#utility.yul\":8531:8608   */\n      0x4e487b7100000000000000000000000000000000000000000000000000000000\n        /* \"#utility.yul\":8528:8529   */\n      0x00\n        /* \"#utility.yul\":8521:8609   */\n      mstore\n        /* \"#utility.yul\":8628:8632   */\n      0x11\n        /* \"#utility.yul\":8625:8626   */\n      0x04\n        /* \"#utility.yul\":8618:8633   */\n      mstore\n        /* \"#utility.yul\":8652:8656   */\n      0x24\n        /* \"#utility.yul\":8649:8650   */\n      0x00\n        /* \"#utility.yul\":8642:8657   */\n      revert\n        /* \"#utility.yul\":8669:8854   */\n    tag_54:\n        /* \"#utility.yul\":8709:8710   */\n      0x00\n        /* \"#utility.yul\":8726:8746   */\n      tag_231\n        /* \"#utility.yul\":8744:8745   */\n      dup3\n        /* \"#utility.yul\":8726:8746   */\n      tag_82\n      jump\t// in\n    tag_231:\n        /* \"#utility.yul\":8721:8746   */\n      swap2\n      pop\n        /* \"#utility.yul\":8760:8780   */\n      tag_232\n        /* \"#utility.yul\":8778:8779   */\n      dup4\n        /* \"#utility.yul\":8760:8780   */\n      tag_82\n      jump\t// in\n    tag_232:\n        /* \"#utility.yul\":8755:8780   */\n      swap3\n      pop\n        /* \"#utility.yul\":8799:8800   */\n      dup3\n        /* \"#utility.yul\":8789:8824   */\n      tag_233\n      jumpi\n        /* \"#utility.yul\":8804:8822   */\n      tag_234\n      tag_111\n      jump\t// in\n    tag_234:\n        /* \"#utility.yul\":8789:8824   */\n    tag_233:\n        /* \"#utility.yul\":8846:8847   */\n      dup3\n        /* \"#utility.yul\":8843:8844   */\n      dup3\n        /* \"#utility.yul\":8839:8848   */\n      div\n        /* \"#utility.yul\":8834:8848   */\n      swap1\n      pop\n        /* \"#utility.yul\":8669:8854   */\n      swap3\n      swap2\n      pop\n      pop\n      jump\t// out\n        /* \"#utility.yul\":8860:9040   */\n    tag_113:\n        /* \"#utility.yul\":8908:8985   */\n      0x4e487b7100000000000000000000000000000000000000000000000000000000\n        /* \"#utility.yul\":8905:8906   */\n      0x00\n        /* \"#utility.yul\":8898:8986   */\n      mstore\n        /* \"#utility.yul\":9005:9009   */\n      0x22\n        /* \"#utility.yul\":9002:9003   */\n      0x04\n        /* \"#utility.yul\":8995:9010   */\n      mstore\n        /* \"#utility.yul\":9029:9033   */\n      0x24\n        /* \"#utility.yul\":9026:9027   */\n      0x00\n        /* \"#utility.yul\":9019:9034   */\n      revert\n        /* \"#utility.yul\":9046:9366   */\n    tag_60:\n        /* \"#utility.yul\":9090:9096   */\n      0x00\n        /* \"#utility.yul\":9127:9128   */\n      0x02\n        /* \"#utility.yul\":9121:9125   */\n      dup3\n        /* \"#utility.yul\":9117:9129   */\n      div\n        /* \"#utility.yul\":9107:9129   */\n      swap1\n      pop\n        /* \"#utility.yul\":9174:9175   */\n      0x01\n        /* \"#utility.yul\":9168:9172   */\n      dup3\n        /* \"#utility.yul\":9164:9176   */\n      and\n        /* \"#utility.yul\":9195:9213   */\n      dup1\n        /* \"#utility.yul\":9185:9266   */\n      tag_237\n      jumpi\n        /* \"#utility.yul\":9251:9255   */\n      0x7f\n        /* \"#utility.yul\":9243:9249   */\n      dup3\n        /* \"#utility.yul\":9239:9256   */\n      and\n        /* \"#utility.yul\":9229:9256   */\n      swap2\n      pop\n        /* \"#utility.yul\":9185:9266   */\n    tag_237:\n        /* \"#utility.yul\":9313:9315   */\n      0x20\n        /* \"#utility.yul\":9305:9311   */\n      dup3\n        /* \"#utility.yul\":9302:9316   */\n      lt\n        /* \"#utility.yul\":9282:9300   */\n      dup2\n        /* \"#utility.yul\":9279:9317   */\n      sub\n        /* \"#utility.yul\":9276:9360   */\n      tag_238\n      jumpi\n        /* \"#utility.yul\":9332:9350   */\n      tag_239\n      tag_113\n      jump\t// in\n    tag_239:\n        /* \"#utility.yul\":9276:9360   */\n    tag_238:\n        /* \"#utility.yul\":9097:9366   */\n      pop\n        /* \"#utility.yul\":9046:9366   */\n      swap2\n      swap1\n      pop\n      jump\t// out\n        /* \"#utility.yul\":9372:9605   */\n    tag_69:\n        /* \"#utility.yul\":9411:9414   */\n      0x00\n        /* \"#utility.yul\":9434:9458   */\n      tag_241\n        /* \"#utility.yul\":9452:9457   */\n      dup3\n        /* \"#utility.yul\":9434:9458   */\n      tag_82\n      jump\t// in\n    tag_241:\n        /* \"#utility.yul\":9425:9458   */\n      swap2\n      pop\n        /* \"#utility.yul\":9480:9546   */\n      0xffffffffffffffffffffffffffffffffffffffffffffffffffffffffffffffff\n        /* \"#utility.yul\":9473:9478   */\n      dup3\n        /* \"#utility.yul\":9470:9547   */\n      sub\n        /* \"#utility.yul\":9467:9570   */\n      tag_242\n      jumpi\n        /* \"#utility.yul\":9550:9568   */\n      tag_243\n      tag_112\n      jump\t// in\n    tag_243:\n        /* \"#utility.yul\":9467:9570   */\n    tag_242:\n        /* \"#utility.yul\":9597:9598   */\n      0x01\n        /* \"#utility.yul\":9590:9595   */\n      dup3\n        /* \"#utility.yul\":9586:9599   */\n      add\n        /* \"#utility.yul\":9579:9599   */\n      swap1\n      pop\n        /* \"#utility.yul\":9372:9605   */\n      swap2\n      swap1\n      pop\n      jump\t// out\n        /* \"#utility.yul\":9611:9752   */\n    tag_114:\n        /* \"#utility.yul\":9660:9664   */\n      0x00\n        /* \"#utility.yul\":9683:9686   */\n      dup2\n        /* \"#utility.yul\":9675:9686   */\n      swap1\n      pop\n        /* \"#utility.yul\":9706:9709   */\n      dup2\n        /* \"#utility.yul\":9703:9704   */\n      0x00\n        /* \"#utility.yul\":9696:9710   */\n      mstore\n        /* \"#utility.yul\":9740:9744   */\n      0x20\n        /* \"#utility.yul\":9737:9738   */\n      0x00\n        /* \"#utility.yul\":9727:9745   */\n      keccak256\n        /* \"#utility.yul\":9719:9745   */\n      swap1\n      pop\n        /* \"#utility.yul\":9611:9752   */\n      swap2\n      swap1\n      pop\n      jump\t// out\n        /* \"#utility.yul\":9758:9851   */\n    tag_115:\n        /* \"#utility.yul\":9795:9801   */\n      0x00\n        /* \"#utility.yul\":9842:9844   */\n      0x20\n        /* \"#utility.yul\":9837:9839   */\n      0x1f\n        /* \"#utility.yul\":9830:9835   */\n      dup4\n        /* \"#utility.yul\":9826:9840   */\n      add\n        /* \"#utility.yul\":9822:9845   */\n      div\n        /* \"#utility.yul\":9812:9845   */\n      swap1\n      pop\n        /* \"#utility.yul\":9758:9851   */\n      swap2\n      swap1\n      pop\n      jump\t// out\n        /* \"#utility.yul\":9857:9964   */\n    tag_116:\n        /* \"#utility.yul\":9901:9909   */\n      0x00\n        /* \"#utility.yul\":9951:9956   */\n      dup3\n        /* \"#utility.yul\":9945:9949   */\n      dup3\n        /* \"#utility.yul\":9941:9957   */\n      shl\n        /* \"#utility.yul\":9920:9957   */\n      swap1\n      pop\n        /* \"#utility.yul\":9857:9964   */\n      swap3\n      swap2\n      pop\n      pop\n      jump\t// out\n        /* \"#utility.yul\":9970:10363   */\n    tag_117:\n        /* \"#utility.yul\":10039:10045   */\n      0x00\n        /* \"#utility.yul\":10089:10090   */\n      0x08\n        /* \"#utility.yul\":10077:10087   */\n      dup4\n        /* \"#utility.yul\":10073:10091   */\n      mul\n        /* \"#utility.yul\":10112:10209   */\n      tag_248\n        /* \"#utility.yul\":10142:10208   */\n      0xffffffffffffffffffffffffffffffffffffffffffffffffffffffffffffffff\n        /* \"#utility.yul\":10131:10140   */\n      dup3\n        /* \"#utility.yul\":10112:10209   */\n      tag_116\n      jump\t// in\n    tag_248:\n        /* \"#utility.yul\":10230:10269   */\n      tag_249\n        /* \"#utility.yul\":10260:10268   */\n      dup7\n        /* \"#utility.yul\":10249:10258   */\n      dup4\n        /* \"#utility.yul\":10230:10269   */\n      tag_116\n      jump\t// in\n    tag_249:\n        /* \"#utility.yul\":10218:10269   */\n      swap6\n      pop\n        /* \"#utility.yul\":10302:10306   */\n      dup1\n        /* \"#utility.yul\":10298:10307   */\n      not\n        /* \"#utility.yul\":10291:10296   */\n      dup5\n        /* \"#utility.yul\":10287:10308   */\n      and\n        /* \"#utility.yul\":10278:10308   */\n      swap4\n      pop\n        /* \"#utility.yul\":10351:10355   */\n      dup1\n        /* \"#utility.yul\":10341:10349   */\n      dup7\n        /* \"#utility.yul\":10337:10356   */\n      and\n        /* \"#utility.yul\":10330:10335   */\n      dup5\n        /* \"#utility.yul\":10327:10357   */\n      or\n        /* \"#utility.yul\":10317:10357   */\n      swap3\n      pop\n        /* \"#utility.yul\":10046:10363   */\n      pop\n      pop\n        /* \"#utility.yul\":9970:10363   */\n      swap4\n      swap3\n      pop\n      pop\n      pop\n      jump\t// out\n        /* \"#utility.yul\":10369:10429   */\n    tag_118:\n        /* \"#utility.yul\":10397:10400   */\n      0x00\n        /* \"#utility.yul\":10418:10423   */\n      dup2\n        /* \"#utility.yul\":10411:10423   */\n      swap1\n      pop\n        /* \"#utility.yul\":10369:10429   */\n      swap2\n      swap1\n      pop\n      jump\t// out\n        /* \"#utility.yul\":10435:10577   */\n    tag_119:\n        /* \"#utility.yul\":10485:10494   */\n      0x00\n        /* \"#utility.yul\":10518:10571   */\n      tag_252\n        /* \"#utility.yul\":10536:10570   */\n      tag_253\n        /* \"#utility.yul\":10545:10569   */\n      tag_254\n        /* \"#utility.yul\":10563:10568   */\n      dup5\n        /* \"#utility.yul\":10545:10569   */\n      tag_82\n      jump\t// in\n    tag_254:\n        /* \"#utility.yul\":10536:10570   */\n      tag_118\n      jump\t// in\n    tag_253:\n        /* \"#utility.yul\":10518:10571   */\n      tag_82\n      jump\t// in\n    tag_252:\n        /* \"#utility.yul\":10505:10571   */\n      swap1\n      pop\n        /* \"#utility.yul\":10435:10577   */\n      swap2\n      swap1\n      pop\n      jump\t// out\n        /* \"#utility.yul\":10583:10658   */\n    tag_120:\n        /* \"#utility.yul\":10626:10629   */\n      0x00\n        /* \"#utility.yul\":10647:10652   */\n      dup2\n        /* \"#utility.yul\":10640:10652   */\n      swap1\n      pop\n        /* \"#utility.yul\":10583:10658   */\n      swap2\n      swap1\n      pop\n      jump\t// out\n        /* \"#utility.yul\":10664:10933   */\n    tag_121:\n        /* \"#utility.yul\":10774:10813   */\n      tag_257\n        /* \"#utility.yul\":10805:10812   */\n      dup4\n        /* \"#utility.yul\":10774:10813   */\n      tag_119\n      jump\t// in\n    tag_257:\n        /* \"#utility.yul\":10835:10926   */\n      tag_258\n        /* \"#utility.yul\":10884:10925   */\n      tag_259\n        /* \"#utility.yul\":10908:10924   */\n      dup3\n        /* \"#utility.yul\":10884:10925   */\n      tag_120\n      jump\t// in\n    tag_259:\n        /* \"#utility.yul\":10876:10882   */\n      dup5\n        /* \"#utility.yul\":10869:10873   */\n      dup5\n        /* \"#utility.yul\":10863:10874   */\n      sload\n        /* \"#utility.yul\":10835:10926   */\n      tag_117\n      jump\t// in\n    tag_258:\n        /* \"#utility.yul\":10829:10833   */\n      dup3\n        /* \"#utility.yul\":10822:10927   */\n      sstore\n        /* \"#utility.yul\":10740:10933   */\n      pop\n        /* \"#utility.yul\":10664:10933   */\n      pop\n      pop\n      pop\n      jump\t// out\n        /* \"#utility.yul\":10939:11012   */\n    tag_122:\n        /* \"#utility.yul\":10984:10987   */\n      0x00\n        /* \"#utility.yul\":10939:11012   */\n      swap1\n      jump\t// out\n        /* \"#utility.yul\":11018:11207   */\n    tag_123:\n        /* \"#utility.yul\":11095:11127   */\n      tag_262\n      tag_122\n      jump\t// in\n    tag_262:\n        /* \"#utility.yul\":11136:11201   */\n      tag_263\n        /* \"#utility.yul\":11194:11200   */\n      dup2\n        /* \"#utility.yul\":11186:11192   */\n      dup5\n        /* \"#utility.yul\":11180:11184   */\n      dup5\n        /* \"#utility.yul\":11136:11201   */\n      tag_121\n      jump\t// in\n    tag_263:\n        /* \"#utility.yul\":11071:11207   */\n      pop\n        /* \"#utility.yul\":11018:11207   */\n      pop\n      pop\n      jump\t// out\n        /* \"#utility.yul\":11213:11399   */\n    tag_124:\n        /* \"#utility.yul\":11273:11393   */\n    tag_265:\n        /* \"#utility.yul\":11290:11293   */\n      dup2\n        /* \"#utility.yul\":11283:11288   */\n      dup2\n        /* \"#utility.yul\":11280:11294   */\n      lt\n        /* \"#utility.yul\":11273:11393   */\n      iszero\n      tag_267\n      jumpi\n        /* \"#utility.yul\":11344:11383   */\n      tag_268\n        /* \"#utility.yul\":11381:11382   */\n      0x00\n        /* \"#utility.yul\":11374:11379   */\n      dup3\n        /* \"#utility.yul\":11344:11383   */\n      tag_123\n      jump\t// in\n    tag_268:\n        /* \"#utility.yul\":11317:11318   */\n      0x01\n        /* \"#utility.yul\":11310:11315   */\n      dup2\n        /* \"#utility.yul\":11306:11319   */\n      add\n        /* \"#utility.yul\":11297:11319   */\n      swap1\n      pop\n        /* \"#utility.yul\":11273:11393   */\n      jump(tag_265)\n    tag_267:\n        /* \"#utility.yul\":11213:11399   */\n      pop\n      pop\n      jump\t// out\n        /* \"#utility.yul\":11405:11948   */\n    tag_125:\n        /* \"#utility.yul\":11506:11508   */\n      0x1f\n        /* \"#utility.yul\":11501:11504   */\n      dup3\n        /* \"#utility.yul\":11498:11509   */\n      gt\n        /* \"#utility.yul\":11495:11941   */\n      iszero\n      tag_270\n      jumpi\n        /* \"#utility.yul\":11540:11578   */\n      tag_271\n        /* \"#utility.yul\":11572:11577   */\n      dup2\n        /* \"#utility.yul\":11540:11578   */\n      tag_114\n      jump\t// in\n    tag_271:\n        /* \"#utility.yul\":11624:11653   */\n      tag_272\n        /* \"#utility.yul\":11642:11652   */\n      dup5\n        /* \"#utility.yul\":11624:11653   */\n      tag_115\n      jump\t// in\n    tag_272:\n        /* \"#utility.yul\":11614:11622   */\n      dup2\n        /* \"#utility.yul\":11610:11654   */\n      add\n        /* \"#utility.yul\":11807:11809   */\n      0x20\n        /* \"#utility.yul\":11795:11805   */\n      dup6\n        /* \"#utility.yul\":11792:11810   */\n      lt\n        /* \"#utility.yul\":11789:11838   */\n      iszero\n      tag_273\n      jumpi\n        /* \"#utility.yul\":11828:11836   */\n      dup2\n        /* \"#utility.yul\":11813:11836   */\n      swap1\n      pop\n        /* \"#utility.yul\":11789:11838   */\n    tag_273:\n        /* \"#utility.yul\":11851:11931   */\n      tag_274\n        /* \"#utility.yul\":11907:11929   */\n      tag_275\n        /* \"#utility.yul\":11925:11928   */\n      dup6\n        /* \"#utility.yul\":11907:11929   */\n      tag_115\n      jump\t// in\n    tag_275:\n        /* \"#utility.yul\":11897:11905   */\n      dup4\n        /* \"#utility.yul\":11893:11930   */\n      add\n        /* \"#utility.yul\":11880:11891   */\n      dup3\n        /* \"#utility.yul\":11851:11931   */\n      tag_124\n      jump\t// in\n    tag_274:\n        /* \"#utility.yul\":11510:11941   */\n      pop\n      pop\n        /* \"#utility.yul\":11495:11941   */\n    tag_270:\n        /* \"#utility.yul\":11405:11948   */\n      pop\n      pop\n      pop\n      jump\t// out\n        /* \"#utility.yul\":11954:12071   */\n    tag_126:\n        /* \"#utility.yul\":12008:12016   */\n      0x00\n        /* \"#utility.yul\":12058:12063   */\n      dup3\n        /* \"#utility.yul\":12052:12056   */\n      dup3\n        /* \"#utility.yul\":12048:12064   */\n      shr\n        /* \"#utility.yul\":12027:12064   */\n      swap1\n      pop\n        /* \"#utility.yul\":11954:12071   */\n      swap3\n      swap2\n      pop\n      pop\n      jump\t// out\n        /* \"#utility.yul\":12077:12246   */\n    tag_127:\n        /* \"#utility.yul\":12121:12127   */\n      0x00\n        /* \"#utility.yul\":12154:12205   */\n      tag_278\n        /* \"#utility.yul\":12202:12203   */\n      0x00\n        /* \"#utility.yul\":12198:12204   */\n      not\n        /* \"#utility.yul\":12190:12195   */\n      dup5\n        /* \"#utility.yul\":12187:12188   */\n      0x08\n        /* \"#utility.yul\":12183:12196   */\n      mul\n        /* \"#utility.yul\":12154:12205   */\n      tag_126\n      jump\t// in\n    tag_278:\n        /* \"#utility.yul\":12150:12206   */\n      not\n        /* \"#utility.yul\":12235:12239   */\n      dup1\n        /* \"#utility.yul\":12229:12233   */\n      dup4\n        /* \"#utility.yul\":12225:12240   */\n      and\n        /* \"#utility.yul\":12215:12240   */\n      swap2\n      pop\n        /* \"#utility.yul\":12128:12246   */\n      pop\n        /* \"#utility.yul\":12077:12246   */\n      swap3\n      swap2\n      pop\n      pop\n      jump\t// out\n        /* \"#utility.yul\":12251:12546   */\n    tag_128:\n        /* \"#utility.yul\":12327:12331   */\n      0x00\n        /* \"#utility.yul\":12473:12502   */\n      tag_280\n        /* \"#utility.yul\":12498:12501   */\n      dup4\n        /* \"#utility.yul\":12492:12496   */\n      dup4\n        /* \"#utility.yul\":12473:12502   */\n      tag_127\n      jump\t// in\n    tag_280:\n        /* \"#utility.yul\":12465:12502   */\n      swap2\n      pop\n        /* \"#utility.yul\":12535:12538   */\n      dup3\n        /* \"#utility.yul\":12532:12533   */\n      0x02\n        /* \"#utility.yul\":12528:12539   */\n      mul\n        /* \"#utility.yul\":12522:12526   */\n      dup3\n        /* \"#utility.yul\":12519:12540   */\n      or\n        /* \"#utility.yul\":12511:12540   */\n      swap1\n      pop\n        /* \"#utility.yul\":12251:12546   */\n      swap3\n      swap2\n      pop\n      pop\n      jump\t// out\n        /* \"#utility.yul\":12551:13946   */\n    tag_71:\n        /* \"#utility.yul\":12668:12705   */\n      tag_282\n        /* \"#utility.yul\":12701:12704   */\n      dup3\n        /* \"#utility.yul\":12668:12705   */\n      tag_92\n      jump\t// in\n    tag_282:\n        /* \"#utility.yul\":12770:12788   */\n      0xffffffffffffffff\n        /* \"#utility.yul\":12762:12768   */\n      dup2\n        /* \"#utility.yul\":12759:12789   */\n      gt\n        /* \"#utility.yul\":12756:12812   */\n      iszero\n      tag_283\n      jumpi\n        /* \"#utility.yul\":12792:12810   */\n      tag_284\n      tag_102\n      jump\t// in\n    tag_284:\n        /* \"#utility.yul\":12756:12812   */\n    tag_283:\n        /* \"#utility.yul\":12836:12874   */\n      tag_285\n        /* \"#utility.yul\":12868:12872   */\n      dup3\n        /* \"#utility.yul\":12862:12873   */\n      sload\n        /* \"#utility.yul\":12836:12874   */\n      tag_60\n      jump\t// in\n    tag_285:\n        /* \"#utility.yul\":12921:12988   */\n      tag_286\n        /* \"#utility.yul\":12981:12987   */\n      dup3\n        /* \"#utility.yul\":12973:12979   */\n      dup3\n        /* \"#utility.yul\":12967:12971   */\n      dup6\n        /* \"#utility.yul\":12921:12988   */\n      tag_125\n      jump\t// in\n    tag_286:\n        /* \"#utility.yul\":13015:13016   */\n      0x00\n        /* \"#utility.yul\":13039:13043   */\n      0x20\n        /* \"#utility.yul\":13026:13043   */\n      swap1\n      pop\n        /* \"#utility.yul\":13071:13073   */\n      0x1f\n        /* \"#utility.yul\":13063:13069   */\n      dup4\n        /* \"#utility.yul\":13060:13074   */\n      gt\n        /* \"#utility.yul\":13088:13089   */\n      0x01\n        /* \"#utility.yul\":13083:13701   */\n      dup2\n      eq\n      tag_288\n      jumpi\n        /* \"#utility.yul\":13745:13746   */\n      0x00\n        /* \"#utility.yul\":13762:13768   */\n      dup5\n        /* \"#utility.yul\":13759:13836   */\n      iszero\n      tag_289\n      jumpi\n        /* \"#utility.yul\":13811:13820   */\n      dup3\n        /* \"#utility.yul\":13806:13809   */\n      dup8\n        /* \"#utility.yul\":13802:13821   */\n      add\n        /* \"#utility.yul\":13796:13822   */\n      mload\n        /* \"#utility.yul\":13787:13822   */\n      swap1\n      pop\n        /* \"#utility.yul\":13759:13836   */\n    tag_289:\n        /* \"#utility.yul\":13862:13929   */\n      tag_290\n        /* \"#utility.yul\":13922:13928   */\n      dup6\n        /* \"#utility.yul\":13915:13920   */\n      dup3\n        /* \"#utility.yul\":13862:13929   */\n      tag_128\n      jump\t// in\n    tag_290:\n        /* \"#utility.yul\":13856:13860   */\n      dup7\n        /* \"#utility.yul\":13849:13930   */\n      sstore\n        /* \"#utility.yul\":13718:13940   */\n      pop\n        /* \"#utility.yul\":13053:13940   */\n      jump(tag_287)\n        /* \"#utility.yul\":13083:13701   */\n    tag_288:\n        /* \"#utility.yul\":13135:13139   */\n      0x1f\n        /* \"#utility.yul\":13131:13140   */\n      not\n        /* \"#utility.yul\":13123:13129   */\n      dup5\n        /* \"#utility.yul\":13119:13141   */\n      and\n        /* \"#utility.yul\":13169:13206   */\n      tag_291\n        /* \"#utility.yul\":13201:13205   */\n      dup7\n        /* \"#utility.yul\":13169:13206   */\n      tag_114\n      jump\t// in\n    tag_291:\n        /* \"#utility.yul\":13228:13229   */\n      0x00\n        /* \"#utility.yul\":13242:13450   */\n    tag_292:\n        /* \"#utility.yul\":13256:13263   */\n      dup3\n        /* \"#utility.yul\":13253:13254   */\n      dup2\n        /* \"#utility.yul\":13250:13264   */\n      lt\n        /* \"#utility.yul\":13242:13450   */\n      iszero\n      tag_294\n      jumpi\n        /* \"#utility.yul\":13335:13344   */\n      dup5\n        /* \"#utility.yul\":13330:13333   */\n      dup10\n        /* \"#utility.yul\":13326:13345   */\n      add\n        /* \"#utility.yul\":13320:13346   */\n      mload\n        /* \"#utility.yul\":13312:13318   */\n      dup3\n        /* \"#utility.yul\":13305:13347   */\n      sstore\n        /* \"#utility.yul\":13386:13387   */\n      0x01\n        /* \"#utility.yul\":13378:13384   */\n      dup3\n        /* \"#utility.yul\":13374:13388   */\n      add\n        /* \"#utility.yul\":13364:13388   */\n      swap2\n      pop\n        /* \"#utility.yul\":13433:13435   */\n      0x20\n        /* \"#utility.yul\":13422:13431   */\n      dup6\n        /* \"#utility.yul\":13418:13436   */\n      add\n        /* \"#utility.yul\":13405:13436   */\n      swap5\n      pop\n        /* \"#utility.yul\":13279:13283   */\n      0x20\n        /* \"#utility.yul\":13276:13277   */\n      dup2\n        /* \"#utility.yul\":13272:13284   */\n      add\n        /* \"#utility.yul\":13267:13284   */\n      swap1\n      pop\n        /* \"#utility.yul\":13242:13450   */\n      jump(tag_292)\n    tag_294:\n        /* \"#utility.yul\":13478:13484   */\n      dup7\n        /* \"#utility.yul\":13469:13476   */\n      dup4\n        /* \"#utility.yul\":13466:13485   */\n      lt\n        /* \"#utility.yul\":13463:13642   */\n      iszero\n      tag_295\n      jumpi\n        /* \"#utility.yul\":13536:13545   */\n      dup5\n        /* \"#utility.yul\":13531:13534   */\n      dup10\n        /* \"#utility.yul\":13527:13546   */\n      add\n        /* \"#utility.yul\":13521:13547   */\n      mload\n        /* \"#utility.yul\":13579:13627   */\n      tag_296\n        /* \"#utility.yul\":13621:13625   */\n      0x1f\n        /* \"#utility.yul\":13613:13619   */\n      dup10\n        /* \"#utility.yul\":13609:13626   */\n      and\n        /* \"#utility.yul\":13598:13607   */\n      dup3\n        /* \"#utility.yul\":13579:13627   */\n      tag_127\n      jump\t// in\n    tag_296:\n        /* \"#utility.yul\":13571:13577   */\n      dup4\n        /* \"#utility.yul\":13564:13628   */\n      sstore\n        /* \"#utility.yul\":13486:13642   */\n      pop\n        /* \"#utility.yul\":13463:13642   */\n    tag_295:\n        /* \"#utility.yul\":13688:13689   */\n      0x01\n        /* \"#utility.yul\":13684:13685   */\n      0x02\n        /* \"#utility.yul\":13676:13682   */\n      dup9\n        /* \"#utility.yul\":13672:13686   */\n      mul\n        /* \"#utility.yul\":13668:13690   */\n      add\n        /* \"#utility.yul\":13662:13666   */\n      dup9\n        /* \"#utility.yul\":13655:13691   */\n      sstore\n        /* \"#utility.yul\":13090:13701   */\n      pop\n      pop\n      pop\n        /* \"#utility.yul\":13053:13940   */\n    tag_287:\n      pop\n        /* \"#utility.yul\":12643:13946   */\n      pop\n      pop\n      pop\n        /* \"#utility.yul\":12551:13946   */\n      pop\n      pop\n      jump\t// out\n\n    auxdata: 0xa264697066735822122000c0e33163c388bdb5a2664a66d1c3887a3155e3f6107c81fac30b51574f04ee64736f6c63430008120033\n}\n","bytecode":{"linkReferences":{},"object":"60806040523480156200001157600080fd5b50604051620010e9380380620010e983398181016040528101906200003791906200012b565b806000806101000a81548173ffffffffffffffffffffffffffffffffffffffff021916908373ffffffffffffffffffffffffffffffffffffffff16021790555081600181905550505062000172565b600080fd5b6000819050919050565b620000a0816200008b565b8114620000ac57600080fd5b50565b600081519050620000c08162000095565b92915050565b600073ffffffffffffffffffffffffffffffffffffffff82169050919050565b6000620000f382620000c6565b9050919050565b6200010581620000e6565b81146200011157600080fd5b50565b6000815190506200012581620000fa565b92915050565b6000806040838503121562000145576200014462000086565b5b60006200015585828601620000af565b9250506020620001688582860162000114565b9150509250929050565b610f6780620001826000396000f3fe60806040526004361061007b5760003560e01c80638a9cfd551161004e5780638a9cfd5514610152578063937e09b11461017b578063d7bb99ba146101a6578063d7d1bbdb146101b05761007b565b806303441006146100805780630a144391146100a9578063481c6a75146100e657806381d12c5814610111575b600080fd5b34801561008c57600080fd5b506100a760048036038101906100a2919061075f565b6101d9565b005b3480156100b557600080fd5b506100d060048036038101906100cb91906107ea565b610312565b6040516100dd9190610832565b60405180910390f35b3480156100f257600080fd5b506100fb610332565b604051610108919061085c565b60405180910390f35b34801561011d57600080fd5b506101386004803603810190610133919061075f565b610356565b604051610149959493929190610937565b60405180910390f35b34801561015e57600080fd5b5061017960048036038101906101749190610af2565b610441565b005b34801561018757600080fd5b50610190610551565b60405161019d9190610b61565b60405180910390f35b6101ae610557565b005b3480156101bc57600080fd5b506101d760048036038101906101d2919061075f565b6105d7565b005b60008054906101000a900473ffffffffffffffffffffffffffffffffffffffff1673ffffffffffffffffffffffffffffffffffffffff163373ffffffffffffffffffffffffffffffffffffffff161461023157600080fd5b600060056000838152602001908152602001600020905060026003546102579190610bda565b81600301541161026657600080fd5b8060020160149054906101000a900460ff161561028257600080fd5b8060020160009054906101000a900473ffffffffffffffffffffffffffffffffffffffff1673ffffffffffffffffffffffffffffffffffffffff166108fc82600101549081150290604051600060405180830381858888f193505050501580156102f0573d6000803e3d6000fd5b5060018160020160146101000a81548160ff0219169083151502179055505050565b60026020528060005260406000206000915054906101000a900460ff1681565b60008054906101000a900473ffffffffffffffffffffffffffffffffffffffff1681565b600560205280600052604060002060009150905080600001805461037990610c3a565b80601f01602080910402602001604051908101604052809291908181526020018280546103a590610c3a565b80156103f25780601f106103c7576101008083540402835291602001916103f2565b820191906000526020600020905b8154815290600101906020018083116103d557829003601f168201915b5050505050908060010154908060020160009054906101000a900473ffffffffffffffffffffffffffffffffffffffff16908060020160149054906101000a900460ff16908060030154905085565b60008054906101000a900473ffffffffffffffffffffffffffffffffffffffff1673ffffffffffffffffffffffffffffffffffffffff163373ffffffffffffffffffffffffffffffffffffffff161461049957600080fd5b600060056000600460008154809291906104b290610c6b565b9190505581526020019081526020016000209050838160000190816104d79190610e5f565b50828160010181905550818160020160006101000a81548173ffffffffffffffffffffffffffffffffffffffff021916908373ffffffffffffffffffffffffffffffffffffffff16021790555060008160020160146101000a81548160ff0219169083151502179055506000816003018190555050505050565b60015481565b600154341161056557600080fd5b6001600260003373ffffffffffffffffffffffffffffffffffffffff1673ffffffffffffffffffffffffffffffffffffffff16815260200190815260200160002060006101000a81548160ff021916908315150217905550600360008154809291906105d090610c6b565b9190505550565b6000600560008381526020019081526020016000209050600260003373ffffffffffffffffffffffffffffffffffffffff1673ffffffffffffffffffffffffffffffffffffffff16815260200190815260200160002060009054906101000a900460ff1661064457600080fd5b8060040160003373ffffffffffffffffffffffffffffffffffffffff1673ffffffffffffffffffffffffffffffffffffffff16815260200190815260200160002060009054906101000a900460ff161561069d57600080fd5b60018160040160003373ffffffffffffffffffffffffffffffffffffffff1673ffffffffffffffffffffffffffffffffffffffff16815260200190815260200160002060006101000a81548160ff02191690831515021790555080600301600081548092919061070c90610c6b565b91905055505050565b6000604051905090565b600080fd5b600080fd5b6000819050919050565b61073c81610729565b811461074757600080fd5b50565b60008135905061075981610733565b92915050565b6000602082840312156107755761077461071f565b5b60006107838482850161074a565b91505092915050565b600073ffffffffffffffffffffffffffffffffffffffff82169050919050565b60006107b78261078c565b9050919050565b6107c7816107ac565b81146107d257600080fd5b50565b6000813590506107e4816107be565b92915050565b600060208284031215610800576107ff61071f565b5b600061080e848285016107d5565b91505092915050565b60008115159050919050565b61082c81610817565b82525050565b60006020820190506108476000830184610823565b92915050565b610856816107ac565b82525050565b6000602082019050610871600083018461084d565b92915050565b600081519050919050565b600082825260208201905092915050565b60005b838110156108b1578082015181840152602081019050610896565b60008484015250505050565b6000601f19601f8301169050919050565b60006108d982610877565b6108e38185610882565b93506108f3818560208601610893565b6108fc816108bd565b840191505092915050565b61091081610729565b82525050565b60006109218261078c565b9050919050565b61093181610916565b82525050565b600060a082019050818103600083015261095181886108ce565b90506109606020830187610907565b61096d6040830186610928565b61097a6060830185610823565b6109876080830184610907565b9695505050505050565b600080fd5b600080fd5b7f4e487b7100000000000000000000000000000000000000000000000000000000600052604160045260246000fd5b6109d3826108bd565b810181811067ffffffffffffffff821117156109f2576109f161099b565b5b80604052505050565b6000610a05610715565b9050610a1182826109ca565b919050565b600067ffffffffffffffff821115610a3157610a3061099b565b5b610a3a826108bd565b9050602081019050919050565b82818337600083830152505050565b6000610a69610a6484610a16565b6109fb565b905082815260208101848484011115610a8557610a84610996565b5b610a90848285610a47565b509392505050565b600082601f830112610aad57610aac610991565b5b8135610abd848260208601610a56565b91505092915050565b610acf81610916565b8114610ada57600080fd5b50565b600081359050610aec81610ac6565b92915050565b600080600060608486031215610b0b57610b0a61071f565b5b600084013567ffffffffffffffff811115610b2957610b28610724565b5b610b3586828701610a98565b9350506020610b468682870161074a565b9250506040610b5786828701610add565b9150509250925092565b6000602082019050610b766000830184610907565b92915050565b7f4e487b7100000000000000000000000000000000000000000000000000000000600052601260045260246000fd5b7f4e487b7100000000000000000000000000000000000000000000000000000000600052601160045260246000fd5b6000610be582610729565b9150610bf083610729565b925082610c0057610bff610b7c565b5b828204905092915050565b7f4e487b7100000000000000000000000000000000000000000000000000000000600052602260045260246000fd5b60006002820490506001821680610c5257607f821691505b602082108103610c6557610c64610c0b565b5b50919050565b6000610c7682610729565b91507fffffffffffffffffffffffffffffffffffffffffffffffffffffffffffffffff8203610ca857610ca7610bab565b5b600182019050919050565b60008190508160005260206000209050919050565b60006020601f8301049050919050565b600082821b905092915050565b600060088302610d157fffffffffffffffffffffffffffffffffffffffffffffffffffffffffffffffff82610cd8565b610d1f8683610cd8565b95508019841693508086168417925050509392505050565b6000819050919050565b6000610d5c610d57610d5284610729565b610d37565b610729565b9050919050565b6000819050919050565b610d7683610d41565b610d8a610d8282610d63565b848454610ce5565b825550505050565b600090565b610d9f610d92565b610daa818484610d6d565b505050565b5b81811015610dce57610dc3600082610d97565b600181019050610db0565b5050565b601f821115610e1357610de481610cb3565b610ded84610cc8565b81016020851015610dfc578190505b610e10610e0885610cc8565b830182610daf565b50505b505050565b600082821c905092915050565b6000610e3660001984600802610e18565b1980831691505092915050565b6000610e4f8383610e25565b9150826002028217905092915050565b610e6882610877565b67ffffffffffffffff811115610e8157610e8061099b565b5b610e8b8254610c3a565b610e96828285610dd2565b600060209050601f831160018114610ec95760008415610eb7578287015190505b610ec18582610e43565b865550610f29565b601f198416610ed786610cb3565b60005b82811015610eff57848901518255600182019150602085019450602081019050610eda565b86831015610f1c5784890151610f18601f891682610e25565b8355505b6001600288020188555050505b50505050505056fea264697066735822122000c0e33163c388bdb5a2664a66d1c3887a3155e3f6107c81fac30b51574f04ee64736f6c63430008120033","opcodes":"PUSH1 0x80 PUSH1 0x40 MSTORE CALLVALUE DUP1 ISZERO PUSH3 0x11 JUMPI PUSH1 0x0 DUP1 REVERT JUMPDEST POP PUSH1 0x40 MLOAD PUSH3 0x10E9 CODESIZE SUB DUP1 PUSH3 0x10E9 DUP4 CODECOPY DUP2 DUP2 ADD PUSH1 0x40 MSTORE DUP2 ADD SWAP1 PUSH3 0x37 SWAP2 SWAP1 PUSH3 0x12B JUMP JUMPDEST DUP1 PUSH1 0x0 DUP1 PUSH2 0x100 EXP DUP2 SLOAD DUP2 PUSH20 0xFFFFFFFFFFFFFFFFFFFFFFFFFFFFFFFFFFFFFFFF MUL NOT AND SWAP1 DUP4 PUSH20 0xFFFFFFFFFFFFFFFFFFFFFFFFFFFFFFFFFFFFFFFF AND MUL OR SWAP1 SSTORE POP DUP2 PUSH1 0x1 DUP2 SWAP1 SSTORE POP POP POP PUSH3 0x172 JUMP JUMPDEST PUSH1 0x0 DUP1 REVERT JUMPDEST PUSH1 0x0 DUP2 SWAP1 POP SWAP2 SWAP1 POP JUMP JUMPDEST PUSH3 0xA0 DUP2 PUSH3 0x8B JUMP JUMPDEST DUP2 EQ PUSH3 0xAC JUMPI PUSH1 0x0 DUP1 REVERT JUMPDEST POP JUMP JUMPDEST PUSH1 0x0 DUP2 MLOAD SWAP1 POP PUSH3 0xC0 DUP2 PUSH3 0x95 JUMP JUMPDEST SWAP3 SWAP2 POP POP JUMP JUMPDEST PUSH1 0x0 PUSH20 0xFFFFFFFFFFFFFFFFFFFFFFFFFFFFFFFFFFFFFFFF DUP3 AND SWAP1 POP SWAP2 SWAP1 POP JUMP JUMPDEST PUSH1 0x0 PUSH3 0xF3 DUP3 PUSH3 0xC6 JUMP JUMPDEST SWAP1 POP SWAP2 SWAP1 POP JUMP JUMPDEST PUSH3 0x105 DUP2 PUSH3 0xE6 JUMP JUMPDEST DUP2 EQ PUSH3 0x111 JUMPI PUSH1 0x0 DUP1 REVERT JUMPDEST POP JUMP JUMPDEST PUSH1 0x0 DUP2 MLOAD SWAP1 POP PUSH3 0x125 DUP2 PUSH3 0xFA JUMP JUMPDEST SWAP3 SWAP2 POP POP JUMP JUMPDEST PUSH1 0x0 DUP1 PUSH1 0x40 DUP4 DUP6 SUB SLT ISZERO PUSH3 0x145 JUMPI PUSH3 0x144 PUSH3 0x86 JUMP JUMPDEST JUMPDEST PUSH1 0x0 PUSH3 0x155 DUP6 DUP3 DUP7 ADD PUSH3 0xAF JUMP JUMPDEST SWAP3 POP POP PUSH1 0x20 PUSH3 0x168 DUP6 DUP3 DUP7 ADD PUSH3 0x114 JUMP JUMPDEST SWAP2 POP POP SWAP3 POP SWAP3 SWAP1 POP JUMP JUMPDEST PUSH2 0xF67 DUP1 PUSH3 0x182 PUSH1 0x0 CODECOPY PUSH1 0x0 RETURN INVALID PUSH1 0x80 PUSH1 0x40 MSTORE PUSH1 0x4 CALLDATASIZE LT PUSH2 0x7B JUMPI PUSH1 0x0 CALLDATALOAD PUSH1 0xE0 SHR DUP1 PUSH4 0x8A9CFD55 GT PUSH2 0x4E JUMPI DUP1 PUSH4 0x8A9CFD55 EQ PUSH2 0x152 JUMPI DUP1 PUSH4 0x937E09B1 EQ PUSH2 0x17B JUMPI DUP1 PUSH4 0xD7BB99BA EQ PUSH2 0x1A6 JUMPI DUP1 PUSH4 0xD7D1BBDB EQ PUSH2 0x1B0 JUMPI PUSH2 0x7B JUMP JUMPDEST DUP1 PUSH4 0x3441006 EQ PUSH2 0x80 JUMPI DUP1 PUSH4 0xA144391 EQ PUSH2 0xA9 JUMPI DUP1 PUSH4 0x481C6A75 EQ PUSH2 0xE6 JUMPI DUP1 PUSH4 0x81D12C58 EQ PUSH2 0x111 JUMPI JUMPDEST PUSH1 0x0 DUP1 REVERT JUMPDEST CALLVALUE DUP1 ISZERO PUSH2 0x8C JUMPI PUSH1 0x0 DUP1 REVERT JUMPDEST POP PUSH2 0xA7 PUSH1 0x4 DUP1 CALLDATASIZE SUB DUP2 ADD SWAP1 PUSH2 0xA2 SWAP2 SWAP1 PUSH2 0x75F JUMP JUMPDEST PUSH2 0x1D9 JUMP JUMPDEST STOP JUMPDEST CALLVALUE DUP1 ISZERO PUSH2 0xB5 JUMPI PUSH1 0x0 DUP1 REVERT JUMPDEST POP PUSH2 0xD0 PUSH1 0x4 DUP1 CALLDATASIZE SUB DUP2 ADD SWAP1 PUSH2 0xCB SWAP2 SWAP1 PUSH2 0x7EA JUMP JUMPDEST PUSH2 0x312 JUMP JUMPDEST PUSH1 0x40 MLOAD PUSH2 0xDD SWAP2 SWAP1 PUSH2 0x832 JUMP JUMPDEST PUSH1 0x40 MLOAD DUP1 SWAP2 SUB SWAP1 RETURN JUMPDEST CALLVALUE DUP1 ISZERO PUSH2 0xF2 JUMPI PUSH1 0x0 DUP1 REVERT JUMPDEST POP PUSH2 0xFB PUSH2 0x332 JUMP JUMPDEST PUSH1 0x40 MLOAD PUSH2 0x108 SWAP2 SWAP1 PUSH2 0x85C JUMP JUMPDEST PUSH1 0x40 MLOAD DUP1 SWAP2 SUB SWAP1 RETURN JUMPDEST CALLVALUE DUP1 ISZERO PUSH2 0x11D JUMPI PUSH1 0x0 DUP1 REVERT JUMPDEST POP PUSH2 0x138 PUSH1 0x4 DUP1 CALLDATASIZE SUB DUP2 ADD SWAP1 PUSH2 0x133 SWAP2 SWAP1 PUSH2 0x75F JUMP JUMPDEST PUSH2 0x356 JUMP JUMPDEST PUSH1 0x40 MLOAD PUSH2 0x149 SWAP6 SWAP5 SWAP4 SWAP3 SWAP2 SWAP1 PUSH2 0x937 JUMP JUMPDEST PUSH1 0x40 MLOAD DUP1 SWAP2 SUB SWAP1 RETURN JUMPDEST CALLVALUE DUP1 ISZERO PUSH2 0x15E JUMPI PUSH1 0x0 DUP1 REVERT JUMPDEST POP PUSH2 0x179 PUSH1 0x4 DUP1 CALLDATASIZE SUB DUP2 ADD SWAP1 PUSH2 0x174 SWAP2 SWAP1 PUSH2 0xAF2 JUMP JUMPDEST PUSH2 0x441 JUMP JUMPDEST STOP JUMPDEST CALLVALUE DUP1 ISZERO PUSH2 0x187 JUMPI PUSH1 0x0 DUP1 REVERT JUMPDEST POP PUSH2 0x190 PUSH2 0x551 JUMP JUMPDEST PUSH1 0x40 MLOAD PUSH2 0x19D SWAP2 SWAP1 PUSH2 0xB61 JUMP JUMPDEST PUSH1 0x40 MLOAD DUP1 SWAP2 SUB SWAP1 RETURN JUMPDEST PUSH2 0x1AE PUSH2 0x557 JUMP JUMPDEST STOP JUMPDEST CALLVALUE DUP1 ISZERO PUSH2 0x1BC JUMPI PUSH1 0x0 DUP1 REVERT JUMPDEST POP PUSH2 0x1D7 PUSH1 0x4 DUP1 CALLDATASIZE SUB DUP2 ADD SWAP1 PUSH2 0x1D2 SWAP2 SWAP1 PUSH2 0x75F JUMP JUMPDEST PUSH2 0x5D7 JUMP JUMPDEST STOP JUMPDEST PUSH1 0x0 DUP1 SLOAD SWAP1 PUSH2 0x100 EXP SWAP1 DIV PUSH20 0xFFFFFFFFFFFFFFFFFFFFFFFFFFFFFFFFFFFFFFFF AND PUSH20 0xFFFFFFFFFFFFFFFFFFFFFFFFFFFFFFFFFFFFFFFF AND CALLER PUSH20 0xFFFFFFFFFFFFFFFFFFFFFFFFFFFFFFFFFFFFFFFF AND EQ PUSH2 0x231 JUMPI PUSH1 0x0 DUP1 REVERT JUMPDEST PUSH1 0x0 PUSH1 0x5 PUSH1 0x0 DUP4 DUP2 MSTORE PUSH1 0x20 ADD SWAP1 DUP2 MSTORE PUSH1 0x20 ADD PUSH1 0x0 KECCAK256 SWAP1 POP PUSH1 0x2 PUSH1 0x3 SLOAD PUSH2 0x257 SWAP2 SWAP1 PUSH2 0xBDA JUMP JUMPDEST DUP2 PUSH1 0x3 ADD SLOAD GT PUSH2 0x266 JUMPI PUSH1 0x0 DUP1 REVERT JUMPDEST DUP1 PUSH1 0x2 ADD PUSH1 0x14 SWAP1 SLOAD SWAP1 PUSH2 0x100 EXP SWAP1 DIV PUSH1 0xFF AND ISZERO PUSH2 0x282 JUMPI PUSH1 0x0 DUP1 REVERT JUMPDEST DUP1 PUSH1 0x2 ADD PUSH1 0x0 SWAP1 SLOAD SWAP1 PUSH2 0x100 EXP SWAP1 DIV PUSH20 0xFFFFFFFFFFFFFFFFFFFFFFFFFFFFFFFFFFFFFFFF AND PUSH20 0xFFFFFFFFFFFFFFFFFFFFFFFFFFFFFFFFFFFFFFFF AND PUSH2 0x8FC DUP3 PUSH1 0x1 ADD SLOAD SWAP1 DUP2 ISZERO MUL SWAP1 PUSH1 0x40 MLOAD PUSH1 0x0 PUSH1 0x40 MLOAD DUP1 DUP4 SUB DUP2 DUP6 DUP9 DUP9 CALL SWAP4 POP POP POP POP ISZERO DUP1 ISZERO PUSH2 0x2F0 JUMPI RETURNDATASIZE PUSH1 0x0 DUP1 RETURNDATACOPY RETURNDATASIZE PUSH1 0x0 REVERT JUMPDEST POP PUSH1 0x1 DUP2 PUSH1 0x2 ADD PUSH1 0x14 PUSH2 0x100 EXP DUP2 SLOAD DUP2 PUSH1 0xFF MUL NOT AND SWAP1 DUP4 ISZERO ISZERO MUL OR SWAP1 SSTORE POP POP POP JUMP JUMPDEST PUSH1 0x2 PUSH1 0x20 MSTORE DUP1 PUSH1 0x0 MSTORE PUSH1 0x40 PUSH1 0x0 KECCAK256 PUSH1 0x0 SWAP2 POP SLOAD SWAP1 PUSH2 0x100 EXP SWAP1 DIV PUSH1 0xFF AND DUP2 JUMP JUMPDEST PUSH1 0x0 DUP1 SLOAD SWAP1 PUSH2 0x100 EXP SWAP1 DIV PUSH20 0xFFFFFFFFFFFFFFFFFFFFFFFFFFFFFFFFFFFFFFFF AND DUP2 JUMP JUMPDEST PUSH1 0x5 PUSH1 0x20 MSTORE DUP1 PUSH1 0x0 MSTORE PUSH1 0x40 PUSH1 0x0 KECCAK256 PUSH1 0x0 SWAP2 POP SWAP1 POP DUP1 PUSH1 0x0 ADD DUP1 SLOAD PUSH2 0x379 SWAP1 PUSH2 0xC3A JUMP JUMPDEST DUP1 PUSH1 0x1F ADD PUSH1 0x20 DUP1 SWAP2 DIV MUL PUSH1 0x20 ADD PUSH1 0x40 MLOAD SWAP1 DUP2 ADD PUSH1 0x40 MSTORE DUP1 SWAP3 SWAP2 SWAP1 DUP2 DUP2 MSTORE PUSH1 0x20 ADD DUP3 DUP1 SLOAD PUSH2 0x3A5 SWAP1 PUSH2 0xC3A JUMP JUMPDEST DUP1 ISZERO PUSH2 0x3F2 JUMPI DUP1 PUSH1 0x1F LT PUSH2 0x3C7 JUMPI PUSH2 0x100 DUP1 DUP4 SLOAD DIV MUL DUP4 MSTORE SWAP2 PUSH1 0x20 ADD SWAP2 PUSH2 0x3F2 JUMP JUMPDEST DUP3 ADD SWAP2 SWAP1 PUSH1 0x0 MSTORE PUSH1 0x20 PUSH1 0x0 KECCAK256 SWAP1 JUMPDEST DUP2 SLOAD DUP2 MSTORE SWAP1 PUSH1 0x1 ADD SWAP1 PUSH1 0x20 ADD DUP1 DUP4 GT PUSH2 0x3D5 JUMPI DUP3 SWAP1 SUB PUSH1 0x1F AND DUP3 ADD SWAP2 JUMPDEST POP POP POP POP POP SWAP1 DUP1 PUSH1 0x1 ADD SLOAD SWAP1 DUP1 PUSH1 0x2 ADD PUSH1 0x0 SWAP1 SLOAD SWAP1 PUSH2 0x100 EXP SWAP1 DIV PUSH20 0xFFFFFFFFFFFFFFFFFFFFFFFFFFFFFFFFFFFFFFFF AND SWAP1 DUP1 PUSH1 0x2 ADD PUSH1 0x14 SWAP1 SLOAD SWAP1 PUSH2 0x100 EXP SWAP1 DIV PUSH1 0xFF AND SWAP1 DUP1 PUSH1 0x3 ADD SLOAD SWAP1 POP DUP6 JUMP JUMPDEST PUSH1 0x0 DUP1 SLOAD SWAP1 PUSH2 0x100 EXP SWAP1 DIV PUSH20 0xFFFFFFFFFFFFFFFFFFFFFFFFFFFFFFFFFFFFFFFF AND PUSH20 0xFFFFFFFFFFFFFFFFFFFFFFFFFFFFFFFFFFFFFFFF AND CALLER PUSH20 0xFFFFFFFFFFFFFFFFFFFFFFFFFFFFFFFFFFFFFFFF AND EQ PUSH2 0x499 JUMPI PUSH1 0x0 DUP1 REVERT JUMPDEST PUSH1 0x0 PUSH1 0x5 PUSH1 0x0 PUSH1 0x4 PUSH1 0x0 DUP2 SLOAD DUP1 SWAP3 SWAP2 SWAP1 PUSH2 0x4B2 SWAP1 PUSH2 0xC6B JUMP JUMPDEST SWAP2 SWAP1 POP SSTORE DUP2 MSTORE PUSH1 0x20 ADD SWAP1 DUP2 MSTORE PUSH1 0x20 ADD PUSH1 0x0 KECCAK256 SWAP1 POP DUP4 DUP2 PUSH1 0x0 ADD SWAP1 DUP2 PUSH2 0x4D7 SWAP2 SWAP1 PUSH2 0xE5F JUMP JUMPDEST POP DUP3 DUP2 PUSH1 0x1 ADD DUP2 SWAP1 SSTORE POP DUP2 DUP2 PUSH1 0x2 ADD PUSH1 0x0 PUSH2 0x100 EXP DUP2 SLOAD DUP2 PUSH20 0xFFFFFFFFFFFFFFFFFFFFFFFFFFFFFFFFFFFFFFFF MUL NOT AND SWAP1 DUP4 PUSH20 0xFFFFFFFFFFFFFFFFFFFFFFFFFFFFFFFFFFFFFFFF AND MUL OR SWAP1 SSTORE POP PUSH1 0x0 DUP2 PUSH1 0x2 ADD PUSH1 0x14 PUSH2 0x100 EXP DUP2 SLOAD DUP2 PUSH1 0xFF MUL NOT AND SWAP1 DUP4 ISZERO ISZERO MUL OR SWAP1 SSTORE POP PUSH1 0x0 DUP2 PUSH1 0x3 ADD DUP2 SWAP1 SSTORE POP POP POP POP POP JUMP JUMPDEST PUSH1 0x1 SLOAD DUP2 JUMP JUMPDEST PUSH1 0x1 SLOAD CALLVALUE GT PUSH2 0x565 JUMPI PUSH1 0x0 DUP1 REVERT JUMPDEST PUSH1 0x1 PUSH1 0x2 PUSH1 0x0 CALLER PUSH20 0xFFFFFFFFFFFFFFFFFFFFFFFFFFFFFFFFFFFFFFFF AND PUSH20 0xFFFFFFFFFFFFFFFFFFFFFFFFFFFFFFFFFFFFFFFF AND DUP2 MSTORE PUSH1 0x20 ADD SWAP1 DUP2 MSTORE PUSH1 0x20 ADD PUSH1 0x0 KECCAK256 PUSH1 0x0 PUSH2 0x100 EXP DUP2 SLOAD DUP2 PUSH1 0xFF MUL NOT AND SWAP1 DUP4 ISZERO ISZERO MUL OR SWAP1 SSTORE POP PUSH1 0x3 PUSH1 0x0 DUP2 SLOAD DUP1 SWAP3 SWAP2 SWAP1 PUSH2 0x5D0 SWAP1 PUSH2 0xC6B JUMP JUMPDEST SWAP2 SWAP1 POP SSTORE POP JUMP JUMPDEST PUSH1 0x0 PUSH1 0x5 PUSH1 0x0 DUP4 DUP2 MSTORE PUSH1 0x20 ADD SWAP1 DUP2 MSTORE PUSH1 0x20 ADD PUSH1 0x0 KECCAK256 SWAP1 POP PUSH1 0x2 PUSH1 0x0 CALLER PUSH20 0xFFFFFFFFFFFFFFFFFFFFFFFFFFFFFFFFFFFFFFFF AND PUSH20 0xFFFFFFFFFFFFFFFFFFFFFFFFFFFFFFFFFFFFFFFF AND DUP2 MSTORE PUSH1 0x20 ADD SWAP1 DUP2 MSTORE PUSH1 0x20 ADD PUSH1 0x0 KECCAK256 PUSH1 0x0 SWAP1 SLOAD SWAP1 PUSH2 0x100 EXP SWAP1 DIV PUSH1 0xFF AND PUSH2 0x644 JUMPI PUSH1 0x0 DUP1 REVERT JUMPDEST DUP1 PUSH1 0x4 ADD PUSH1 0x0 CALLER PUSH20 0xFFFFFFFFFFFFFFFFFFFFFFFFFFFFFFFFFFFFFFFF AND PUSH20 0xFFFFFFFFFFFFFFFFFFFFFFFFFFFFFFFFFFFFFFFF AND DUP2 MSTORE PUSH1 0x20 ADD SWAP1 DUP2 MSTORE PUSH1 0x20 ADD PUSH1 0x0 KECCAK256 PUSH1 0x0 SWAP1 SLOAD SWAP1 PUSH2 0x100 EXP SWAP1 DIV PUSH1 0xFF AND ISZERO PUSH2 0x69D JUMPI PUSH1 0x0 DUP1 REVERT JUMPDEST PUSH1 0x1 DUP2 PUSH1 0x4 ADD PUSH1 0x0 CALLER PUSH20 0xFFFFFFFFFFFFFFFFFFFFFFFFFFFFFFFFFFFFFFFF AND PUSH20 0xFFFFFFFFFFFFFFFFFFFFFFFFFFFFFFFFFFFFFFFF AND DUP2 MSTORE PUSH1 0x20 ADD SWAP1 DUP2 MSTORE PUSH1 0x20 ADD PUSH1 0x0 KECCAK256 PUSH1 0x0 PUSH2 0x100 EXP DUP2 SLOAD DUP2 PUSH1 0xFF MUL NOT AND SWAP1 DUP4 ISZERO ISZERO MUL OR SWAP1 SSTORE POP DUP1 PUSH1 0x3 ADD PUSH1 0x0 DUP2 SLOAD DUP1 SWAP3 SWAP2 SWAP1 PUSH2 0x70C SWAP1 PUSH2 0xC6B JUMP JUMPDEST SWAP2 SWAP1 POP SSTORE POP POP POP JUMP JUMPDEST PUSH1 0x0 PUSH1 0x40 MLOAD SWAP1 POP SWAP1 JUMP JUMPDEST PUSH1 0x0 DUP1 REVERT JUMPDEST PUSH1 0x0 DUP1 REVERT JUMPDEST PUSH1 0x0 DUP2 SWAP1 POP SWAP2 SWAP1 POP JUMP JUMPDEST PUSH2 0x73C DUP2 PUSH2 0x729 JUMP JUMPDEST DUP2 EQ PUSH2 0x747 JUMPI PUSH1 0x0 DUP1 REVERT JUMPDEST POP JUMP JUMPDEST PUSH1 0x0 DUP2 CALLDATALOAD SWAP1 POP PUSH2 0x759 DUP2 PUSH2 0x733 JUMP JUMPDEST SWAP3 SWAP2 POP POP JUMP JUMPDEST PUSH1 0x0 PUSH1 0x20 DUP3 DUP5 SUB SLT ISZERO PUSH2 0x775 JUMPI PUSH2 0x774 PUSH2 0x71F JUMP JUMPDEST JUMPDEST PUSH1 0x0 PUSH2 0x783 DUP5 DUP3 DUP6 ADD PUSH2 0x74A JUMP JUMPDEST SWAP2 POP POP SWAP3 SWAP2 POP POP JUMP JUMPDEST PUSH1 0x0 PUSH20 0xFFFFFFFFFFFFFFFFFFFFFFFFFFFFFFFFFFFFFFFF DUP3 AND SWAP1 POP SWAP2 SWAP1 POP JUMP JUMPDEST PUSH1 0x0 PUSH2 0x7B7 DUP3 PUSH2 0x78C JUMP JUMPDEST SWAP1 POP SWAP2 SWAP1 POP JUMP JUMPDEST PUSH2 0x7C7 DUP2 PUSH2 0x7AC JUMP JUMPDEST DUP2 EQ PUSH2 0x7D2 JUMPI PUSH1 0x0 DUP1 REVERT JUMPDEST POP JUMP JUMPDEST PUSH1 0x0 DUP2 CALLDATALOAD SWAP1 POP PUSH2 0x7E4 DUP2 PUSH2 0x7BE JUMP JUMPDEST SWAP3 SWAP2 POP POP JUMP JUMPDEST PUSH1 0x0 PUSH1 0x20 DUP3 DUP5 SUB SLT ISZERO PUSH2 0x800 JUMPI PUSH2 0x7FF PUSH2 0x71F JUMP JUMPDEST JUMPDEST PUSH1 0x0 PUSH2 0x80E DUP5 DUP3 DUP6 ADD PUSH2 0x7D5 JUMP JUMPDEST SWAP2 POP POP SWAP3 SWAP2 POP POP JUMP JUMPDEST PUSH1 0x0 DUP2 ISZERO ISZERO SWAP1 POP SWAP2 SWAP1 POP JUMP JUMPDEST PUSH2 0x82C DUP2 PUSH2 0x817 JUMP JUMPDEST DUP3 MSTORE POP POP JUMP JUMPDEST PUSH1 0x0 PUSH1 0x20 DUP3 ADD SWAP1 POP PUSH2 0x847 PUSH1 0x0 DUP4 ADD DUP5 PUSH2 0x823 JUMP JUMPDEST SWAP3 SWAP2 POP POP JUMP JUMPDEST PUSH2 0x856 DUP2 PUSH2 0x7AC JUMP JUMPDEST DUP3 MSTORE POP POP JUMP JUMPDEST PUSH1 0x0 PUSH1 0x20 DUP3 ADD SWAP1 POP PUSH2 0x871 PUSH1 0x0 DUP4 ADD DUP5 PUSH2 0x84D JUMP JUMPDEST SWAP3 SWAP2 POP POP JUMP JUMPDEST PUSH1 0x0 DUP2 MLOAD SWAP1 POP SWAP2 SWAP1 POP JUMP JUMPDEST PUSH1 0x0 DUP3 DUP3 MSTORE PUSH1 0x20 DUP3 ADD SWAP1 POP SWAP3 SWAP2 POP POP JUMP JUMPDEST PUSH1 0x0 JUMPDEST DUP4 DUP2 LT ISZERO PUSH2 0x8B1 JUMPI DUP1 DUP3 ADD MLOAD DUP2 DUP5 ADD MSTORE PUSH1 0x20 DUP2 ADD SWAP1 POP PUSH2 0x896 JUMP JUMPDEST PUSH1 0x0 DUP5 DUP5 ADD MSTORE POP POP POP POP JUMP JUMPDEST PUSH1 0x0 PUSH1 0x1F NOT PUSH1 0x1F DUP4 ADD AND SWAP1 POP SWAP2 SWAP1 POP JUMP JUMPDEST PUSH1 0x0 PUSH2 0x8D9 DUP3 PUSH2 0x877 JUMP JUMPDEST PUSH2 0x8E3 DUP2 DUP6 PUSH2 0x882 JUMP JUMPDEST SWAP4 POP PUSH2 0x8F3 DUP2 DUP6 PUSH1 0x20 DUP7 ADD PUSH2 0x893 JUMP JUMPDEST PUSH2 0x8FC DUP2 PUSH2 0x8BD JUMP JUMPDEST DUP5 ADD SWAP2 POP POP SWAP3 SWAP2 POP POP JUMP JUMPDEST PUSH2 0x910 DUP2 PUSH2 0x729 JUMP JUMPDEST DUP3 MSTORE POP POP JUMP JUMPDEST PUSH1 0x0 PUSH2 0x921 DUP3 PUSH2 0x78C JUMP JUMPDEST SWAP1 POP SWAP2 SWAP1 POP JUMP JUMPDEST PUSH2 0x931 DUP2 PUSH2 0x916 JUMP JUMPDEST DUP3 MSTORE POP POP JUMP JUMPDEST PUSH1 0x0 PUSH1 0xA0 DUP3 ADD SWAP1 POP DUP2 DUP2 SUB PUSH1 0x0 DUP4 ADD MSTORE PUSH2 0x951 DUP2 DUP9 PUSH2 0x8CE JUMP JUMPDEST SWAP1 POP PUSH2 0x960 PUSH1 0x20 DUP4 ADD DUP8 PUSH2 0x907 JUMP JUMPDEST PUSH2 0x96D PUSH1 0x40 DUP4 ADD DUP7 PUSH2 0x928 JUMP JUMPDEST PUSH2 0x97A PUSH1 0x60 DUP4 ADD DUP6 PUSH2 0x823 JUMP JUMPDEST PUSH2 0x987 PUSH1 0x80 DUP4 ADD DUP5 PUSH2 0x907 JUMP JUMPDEST SWAP7 SWAP6 POP POP POP POP POP POP JUMP JUMPDEST PUSH1 0x0 DUP1 REVERT JUMPDEST PUSH1 0x0 DUP1 REVERT JUMPDEST PUSH32 0x4E487B7100000000000000000000000000000000000000000000000000000000 PUSH1 0x0 MSTORE PUSH1 0x41 PUSH1 0x4 MSTORE PUSH1 0x24 PUSH1 0x0 REVERT JUMPDEST PUSH2 0x9D3 DUP3 PUSH2 0x8BD JUMP JUMPDEST DUP2 ADD DUP2 DUP2 LT PUSH8 0xFFFFFFFFFFFFFFFF DUP3 GT OR ISZERO PUSH2 0x9F2 JUMPI PUSH2 0x9F1 PUSH2 0x99B JUMP JUMPDEST JUMPDEST DUP1 PUSH1 0x40 MSTORE POP POP POP JUMP JUMPDEST PUSH1 0x0 PUSH2 0xA05 PUSH2 0x715 JUMP JUMPDEST SWAP1 POP PUSH2 0xA11 DUP3 DUP3 PUSH2 0x9CA JUMP JUMPDEST SWAP2 SWAP1 POP JUMP JUMPDEST PUSH1 0x0 PUSH8 0xFFFFFFFFFFFFFFFF DUP3 GT ISZERO PUSH2 0xA31 JUMPI PUSH2 0xA30 PUSH2 0x99B JUMP JUMPDEST JUMPDEST PUSH2 0xA3A DUP3 PUSH2 0x8BD JUMP JUMPDEST SWAP1 POP PUSH1 0x20 DUP2 ADD SWAP1 POP SWAP2 SWAP1 POP JUMP JUMPDEST DUP3 DUP2 DUP4 CALLDATACOPY PUSH1 0x0 DUP4 DUP4 ADD MSTORE POP POP POP JUMP JUMPDEST PUSH1 0x0 PUSH2 0xA69 PUSH2 0xA64 DUP5 PUSH2 0xA16 JUMP JUMPDEST PUSH2 0x9FB JUMP JUMPDEST SWAP1 POP DUP3 DUP2 MSTORE PUSH1 0x20 DUP2 ADD DUP5 DUP5 DUP5 ADD GT ISZERO PUSH2 0xA85 JUMPI PUSH2 0xA84 PUSH2 0x996 JUMP JUMPDEST JUMPDEST PUSH2 0xA90 DUP5 DUP3 DUP6 PUSH2 0xA47 JUMP JUMPDEST POP SWAP4 SWAP3 POP POP POP JUMP JUMPDEST PUSH1 0x0 DUP3 PUSH1 0x1F DUP4 ADD SLT PUSH2 0xAAD JUMPI PUSH2 0xAAC PUSH2 0x991 JUMP JUMPDEST JUMPDEST DUP2 CALLDATALOAD PUSH2 0xABD DUP5 DUP3 PUSH1 0x20 DUP7 ADD PUSH2 0xA56 JUMP JUMPDEST SWAP2 POP POP SWAP3 SWAP2 POP POP JUMP JUMPDEST PUSH2 0xACF DUP2 PUSH2 0x916 JUMP JUMPDEST DUP2 EQ PUSH2 0xADA JUMPI PUSH1 0x0 DUP1 REVERT JUMPDEST POP JUMP JUMPDEST PUSH1 0x0 DUP2 CALLDATALOAD SWAP1 POP PUSH2 0xAEC DUP2 PUSH2 0xAC6 JUMP JUMPDEST SWAP3 SWAP2 POP POP JUMP JUMPDEST PUSH1 0x0 DUP1 PUSH1 0x0 PUSH1 0x60 DUP5 DUP7 SUB SLT ISZERO PUSH2 0xB0B JUMPI PUSH2 0xB0A PUSH2 0x71F JUMP JUMPDEST JUMPDEST PUSH1 0x0 DUP5 ADD CALLDATALOAD PUSH8 0xFFFFFFFFFFFFFFFF DUP2 GT ISZERO PUSH2 0xB29 JUMPI PUSH2 0xB28 PUSH2 0x724 JUMP JUMPDEST JUMPDEST PUSH2 0xB35 DUP7 DUP3 DUP8 ADD PUSH2 0xA98 JUMP JUMPDEST SWAP4 POP POP PUSH1 0x20 PUSH2 0xB46 DUP7 DUP3 DUP8 ADD PUSH2 0x74A JUMP JUMPDEST SWAP3 POP POP PUSH1 0x40 PUSH2 0xB57 DUP7 DUP3 DUP8 ADD PUSH2 0xADD JUMP JUMPDEST SWAP2 POP POP SWAP3 POP SWAP3 POP SWAP3 JUMP JUMPDEST PUSH1 0x0 PUSH1 0x20 DUP3 ADD SWAP1 POP PUSH2 0xB76 PUSH1 0x0 DUP4 ADD DUP5 PUSH2 0x907 JUMP JUMPDEST SWAP3 SWAP2 POP POP JUMP JUMPDEST PUSH32 0x4E487B7100000000000000000000000000000000000000000000000000000000 PUSH1 0x0 MSTORE PUSH1 0x12 PUSH1 0x4 MSTORE PUSH1 0x24 PUSH1 0x0 REVERT JUMPDEST PUSH32 0x4E487B7100000000000000000000000000000000000000000000000000000000 PUSH1 0x0 MSTORE PUSH1 0x11 PUSH1 0x4 MSTORE PUSH1 0x24 PUSH1 0x0 REVERT JUMPDEST PUSH1 0x0 PUSH2 0xBE5 DUP3 PUSH2 0x729 JUMP JUMPDEST SWAP2 POP PUSH2 0xBF0 DUP4 PUSH2 0x729 JUMP JUMPDEST SWAP3 POP DUP3 PUSH2 0xC00 JUMPI PUSH2 0xBFF PUSH2 0xB7C JUMP JUMPDEST JUMPDEST DUP3 DUP3 DIV SWAP1 POP SWAP3 SWAP2 POP POP JUMP JUMPDEST PUSH32 0x4E487B7100000000000000000000000000000000000000000000000000000000 PUSH1 0x0 MSTORE PUSH1 0x22 PUSH1 0x4 MSTORE PUSH1 0x24 PUSH1 0x0 REVERT JUMPDEST PUSH1 0x0 PUSH1 0x2 DUP3 DIV SWAP1 POP PUSH1 0x1 DUP3 AND DUP1 PUSH2 0xC52 JUMPI PUSH1 0x7F DUP3 AND SWAP2 POP JUMPDEST PUSH1 0x20 DUP3 LT DUP2 SUB PUSH2 0xC65 JUMPI PUSH2 0xC64 PUSH2 0xC0B JUMP JUMPDEST JUMPDEST POP SWAP2 SWAP1 POP JUMP JUMPDEST PUSH1 0x0 PUSH2 0xC76 DUP3 PUSH2 0x729 JUMP JUMPDEST SWAP2 POP PUSH32 0xFFFFFFFFFFFFFFFFFFFFFFFFFFFFFFFFFFFFFFFFFFFFFFFFFFFFFFFFFFFFFFFF DUP3 SUB PUSH2 0xCA8 JUMPI PUSH2 0xCA7 PUSH2 0xBAB JUMP JUMPDEST JUMPDEST PUSH1 0x1 DUP3 ADD SWAP1 POP SWAP2 SWAP1 POP JUMP JUMPDEST PUSH1 0x0 DUP2 SWAP1 POP DUP2 PUSH1 0x0 MSTORE PUSH1 0x20 PUSH1 0x0 KECCAK256 SWAP1 POP SWAP2 SWAP1 POP JUMP JUMPDEST PUSH1 0x0 PUSH1 0x20 PUSH1 0x1F DUP4 ADD DIV SWAP1 POP SWAP2 SWAP1 POP JUMP JUMPDEST PUSH1 0x0 DUP3 DUP3 SHL SWAP1 POP SWAP3 SWAP2 POP POP JUMP JUMPDEST PUSH1 0x0 PUSH1 0x8 DUP4 MUL PUSH2 0xD15 PUSH32 0xFFFFFFFFFFFFFFFFFFFFFFFFFFFFFFFFFFFFFFFFFFFFFFFFFFFFFFFFFFFFFFFF DUP3 PUSH2 0xCD8 JUMP JUMPDEST PUSH2 0xD1F DUP7 DUP4 PUSH2 0xCD8 JUMP JUMPDEST SWAP6 POP DUP1 NOT DUP5 AND SWAP4 POP DUP1 DUP7 AND DUP5 OR SWAP3 POP POP POP SWAP4 SWAP3 POP POP POP JUMP JUMPDEST PUSH1 0x0 DUP2 SWAP1 POP SWAP2 SWAP1 POP JUMP JUMPDEST PUSH1 0x0 PUSH2 0xD5C PUSH2 0xD57 PUSH2 0xD52 DUP5 PUSH2 0x729 JUMP JUMPDEST PUSH2 0xD37 JUMP JUMPDEST PUSH2 0x729 JUMP JUMPDEST SWAP1 POP SWAP2 SWAP1 POP JUMP JUMPDEST PUSH1 0x0 DUP2 SWAP1 POP SWAP2 SWAP1 POP JUMP JUMPDEST PUSH2 0xD76 DUP4 PUSH2 0xD41 JUMP JUMPDEST PUSH2 0xD8A PUSH2 0xD82 DUP3 PUSH2 0xD63 JUMP JUMPDEST DUP5 DUP5 SLOAD PUSH2 0xCE5 JUMP JUMPDEST DUP3 SSTORE POP POP POP POP JUMP JUMPDEST PUSH1 0x0 SWAP1 JUMP JUMPDEST PUSH2 0xD9F PUSH2 0xD92 JUMP JUMPDEST PUSH2 0xDAA DUP2 DUP5 DUP5 PUSH2 0xD6D JUMP JUMPDEST POP POP POP JUMP JUMPDEST JUMPDEST DUP2 DUP2 LT ISZERO PUSH2 0xDCE JUMPI PUSH2 0xDC3 PUSH1 0x0 DUP3 PUSH2 0xD97 JUMP JUMPDEST PUSH1 0x1 DUP2 ADD SWAP1 POP PUSH2 0xDB0 JUMP JUMPDEST POP POP JUMP JUMPDEST PUSH1 0x1F DUP3 GT ISZERO PUSH2 0xE13 JUMPI PUSH2 0xDE4 DUP2 PUSH2 0xCB3 JUMP JUMPDEST PUSH2 0xDED DUP5 PUSH2 0xCC8 JUMP JUMPDEST DUP2 ADD PUSH1 0x20 DUP6 LT ISZERO PUSH2 0xDFC JUMPI DUP2 SWAP1 POP JUMPDEST PUSH2 0xE10 PUSH2 0xE08 DUP6 PUSH2 0xCC8 JUMP JUMPDEST DUP4 ADD DUP3 PUSH2 0xDAF JUMP JUMPDEST POP POP JUMPDEST POP POP POP JUMP JUMPDEST PUSH1 0x0 DUP3 DUP3 SHR SWAP1 POP SWAP3 SWAP2 POP POP JUMP JUMPDEST PUSH1 0x0 PUSH2 0xE36 PUSH1 0x0 NOT DUP5 PUSH1 0x8 MUL PUSH2 0xE18 JUMP JUMPDEST NOT DUP1 DUP4 AND SWAP2 POP POP SWAP3 SWAP2 POP POP JUMP JUMPDEST PUSH1 0x0 PUSH2 0xE4F DUP4 DUP4 PUSH2 0xE25 JUMP JUMPDEST SWAP2 POP DUP3 PUSH1 0x2 MUL DUP3 OR SWAP1 POP SWAP3 SWAP2 POP POP JUMP JUMPDEST PUSH2 0xE68 DUP3 PUSH2 0x877 JUMP JUMPDEST PUSH8 0xFFFFFFFFFFFFFFFF DUP2 GT ISZERO PUSH2 0xE81 JUMPI PUSH2 0xE80 PUSH2 0x99B JUMP JUMPDEST JUMPDEST PUSH2 0xE8B DUP3 SLOAD PUSH2 0xC3A JUMP JUMPDEST PUSH2 0xE96 DUP3 DUP3 DUP6 PUSH2 0xDD2 JUMP JUMPDEST PUSH1 0x0 PUSH1 0x20 SWAP1 POP PUSH1 0x1F DUP4 GT PUSH1 0x1 DUP2 EQ PUSH2 0xEC9 JUMPI PUSH1 0x0 DUP5 ISZERO PUSH2 0xEB7 JUMPI DUP3 DUP8 ADD MLOAD SWAP1 POP JUMPDEST PUSH2 0xEC1 DUP6 DUP3 PUSH2 0xE43 JUMP JUMPDEST DUP7 SSTORE POP PUSH2 0xF29 JUMP JUMPDEST PUSH1 0x1F NOT DUP5 AND PUSH2 0xED7 DUP7 PUSH2 0xCB3 JUMP JUMPDEST PUSH1 0x0 JUMPDEST DUP3 DUP2 LT ISZERO PUSH2 0xEFF JUMPI DUP5 DUP10 ADD MLOAD DUP3 SSTORE PUSH1 0x1 DUP3 ADD SWAP2 POP PUSH1 0x20 DUP6 ADD SWAP5 POP PUSH1 0x20 DUP2 ADD SWAP1 POP PUSH2 0xEDA JUMP JUMPDEST DUP7 DUP4 LT ISZERO PUSH2 0xF1C JUMPI DUP5 DUP10 ADD MLOAD PUSH2 0xF18 PUSH1 0x1F DUP10 AND DUP3 PUSH2 0xE25 JUMP JUMPDEST DUP4 SSTORE POP JUMPDEST PUSH1 0x1 PUSH1 0x2 DUP9 MUL ADD DUP9 SSTORE POP POP POP JUMPDEST POP POP POP POP POP POP JUMP INVALID LOG2 PUSH5 0x6970667358 0x22 SLT KECCAK256 STOP 0xC0 0xE3 BALANCE PUSH4 0xC388BDB5 LOG2 PUSH7 0x4A66D1C3887A31 SSTORE 0xE3 0xF6 LT PUSH29 0x81FAC30B51574F04EE64736F6C63430008120033000000000000000000 "},"gasEstimates":{"creation":{"codeDepositCost":"788600","executionCost":"infinite","totalCost":"infinite"},"external":{"approveRequest(uint256)":"infinite","approvers(address)":"2868","contribute()":"50999","createRequest(string,uint256,address)":"infinite","finalizeRequest(uint256)":"infinite","manager()":"2556","minimumContribution()":"2451","requests(uint256)":"infinite"}},"methodIdentifiers":{"approveRequest(uint256)":"d7d1bbdb","approvers(address)":"0a144391","contribute()":"d7bb99ba","createRequest(string,uint256,address)":"8a9cfd55","finalizeRequest(uint256)":"03441006","manager()":"481c6a75","minimumContribution()":"937e09b1","requests(uint256)":"81d12c58"}},"storageLayout":{"storage":[{"astId":56,"contract":"Campaign.sol:Campaign","label":"manager","offset":0,"slot":"0","type":"t_address"},{"astId":58,"contract":"Campaign.sol:Campaign","label":"minimumContribution","offset":0,"slot":"1","type":"t_uint256"},{"astId":62,"contract":"Campaign.sol:Campaign","label":"approvers","offset":0,"slot":"2","type":"t_mapping(t_address,t_bool)"},{"astId":64,"contract":"Campaign.sol:Campaign","label":"approversCount","offset":0,"slot":"3","type":"t_uint256"},{"astId":114,"contract":"Campaign.sol:Campaign","label":"numRequest","offset":0,"slot":"4","type":"t_uint256"},{"astId":119,"contract":"Campaign.sol:Campaign","label":"requests","offset":0,"slot":"5","type":"t_mapping(t_uint256,t_struct(Request)54_storage)"}],"types":{"t_address":{"encoding":"inplace","label":"address","numberOfBytes":"20"},"t_address_payable":{"encoding":"inplace","label":"address payable","numberOfBytes":"20"},"t_bool":{"encoding":"inplace","label":"bool","numberOfBytes":"1"},"t_mapping(t_address,t_bool)":{"encoding":"mapping","key":"t_address","label":"mapping(address => bool)","numberOfBytes":"32","value":"t_bool"},"t_mapping(t_uint256,t_struct(Request)54_storage)":{"encoding":"mapping","key":"t_uint256","label":"mapping(uint256 => struct Campaign.Request)","numberOfBytes":"32","value":"t_struct(Request)54_storage"},"t_string_storage":{"encoding":"bytes","label":"string","numberOfBytes":"32"},"t_struct(Request)54_storage":{"encoding":"inplace","label":"struct Campaign.Request","members":[{"astId":41,"contract":"Campaign.sol:Campaign","label":"description","offset":0,"slot":"0","type":"t_string_storage"},{"astId":43,"contract":"Campaign.sol:Campaign","label":"value","offset":0,"slot":"1","type":"t_uint256"},{"astId":45,"contract":"Campaign.sol:Campaign","label":"recipient","offset":0,"slot":"2","type":"t_address_payable"},{"astId":47,"contract":"Campaign.sol:Campaign","label":"complete","offset":20,"slot":"2","type":"t_bool"},{"astId":49,"contract":"Campaign.sol:Campaign","label":"approvalCount","offset":0,"slot":"3","type":"t_uint256"},{"astId":53,"contract":"Campaign.sol:Campaign","label":"approvals","offset":0,"slot":"4","type":"t_mapping(t_address,t_bool)"}],"numberOfBytes":"160"},"t_uint256":{"encoding":"inplace","label":"uint256","numberOfBytes":"32"}}},"userdoc":{"kind":"user","methods":{},"version":1}}