{"abi":[{"inputs":[{"internalType":"uint256","name":"minimum","type":"uint256"},{"internalType":"address","name":"creator","type":"address"}],"stateMutability":"nonpayable","type":"constructor"},{"inputs":[{"internalType":"uint256","name":"index","type":"uint256"}],"name":"approveRequest","outputs":[],"stateMutability":"nonpayable","type":"function"},{"inputs":[],"name":"contribute","outputs":[],"stateMutability":"payable","type":"function"},{"inputs":[{"internalType":"string","name":"description","type":"string"},{"internalType":"uint256","name":"value","type":"uint256"},{"internalType":"address payable","name":"recipient","type":"address"}],"name":"createRequest","outputs":[],"stateMutability":"nonpayable","type":"function"},{"inputs":[{"internalType":"uint256","name":"index","type":"uint256"}],"name":"finalizeRequest","outputs":[],"stateMutability":"nonpayable","type":"function"},{"inputs":[],"name":"manager","outputs":[{"internalType":"address","name":"","type":"address"}],"stateMutability":"view","type":"function"},{"inputs":[],"name":"minimumContribution","outputs":[{"internalType":"uint256","name":"","type":"uint256"}],"stateMutability":"view","type":"function"}],"devdoc":{"kind":"dev","methods":{},"version":1},"evm":{"assembly":"    /* \"Campaign.sol\":446:2161  contract Campaign{... */\n  mstore(0x40, 0x80)\n    /* \"Campaign.sol\":916:1035  constructor(uint minimum, address creator) {... */\n  callvalue\n  dup1\n  iszero\n  tag_1\n  jumpi\n  0x00\n  dup1\n  revert\ntag_1:\n  pop\n  mload(0x40)\n  sub(codesize, bytecodeSize)\n  dup1\n  bytecodeSize\n  dup4\n  codecopy\n  dup2\n  dup2\n  add\n  0x40\n  mstore\n  dup2\n  add\n  swap1\n  tag_2\n  swap2\n  swap1\n  tag_3\n  jump\t// in\ntag_2:\n    /* \"Campaign.sol\":980:987  creator */\n  dup1\n    /* \"Campaign.sol\":970:977  manager */\n  0x00\n  dup1\n    /* \"Campaign.sol\":970:987  manager = creator */\n  0x0100\n  exp\n  dup2\n  sload\n  dup2\n  0xffffffffffffffffffffffffffffffffffffffff\n  mul\n  not\n  and\n  swap1\n  dup4\n  0xffffffffffffffffffffffffffffffffffffffff\n  and\n  mul\n  or\n  swap1\n  sstore\n  pop\n    /* \"Campaign.sol\":1020:1027  minimum */\n  dup2\n    /* \"Campaign.sol\":998:1017  minimumContribution */\n  0x01\n    /* \"Campaign.sol\":998:1027  minimumContribution = minimum */\n  dup2\n  swap1\n  sstore\n  pop\n    /* \"Campaign.sol\":916:1035  constructor(uint minimum, address creator) {... */\n  pop\n  pop\n    /* \"Campaign.sol\":446:2161  contract Campaign{... */\n  jump(tag_6)\n    /* \"#utility.yul\":88:205   */\ntag_8:\n    /* \"#utility.yul\":197:198   */\n  0x00\n    /* \"#utility.yul\":194:195   */\n  dup1\n    /* \"#utility.yul\":187:199   */\n  revert\n    /* \"#utility.yul\":334:411   */\ntag_10:\n    /* \"#utility.yul\":371:378   */\n  0x00\n    /* \"#utility.yul\":400:405   */\n  dup2\n    /* \"#utility.yul\":389:405   */\n  swap1\n  pop\n    /* \"#utility.yul\":334:411   */\n  swap2\n  swap1\n  pop\n  jump\t// out\n    /* \"#utility.yul\":417:539   */\ntag_11:\n    /* \"#utility.yul\":490:514   */\n  tag_23\n    /* \"#utility.yul\":508:513   */\n  dup2\n    /* \"#utility.yul\":490:514   */\n  tag_10\n  jump\t// in\ntag_23:\n    /* \"#utility.yul\":483:488   */\n  dup2\n    /* \"#utility.yul\":480:515   */\n  eq\n    /* \"#utility.yul\":470:533   */\n  tag_24\n  jumpi\n    /* \"#utility.yul\":529:530   */\n  0x00\n    /* \"#utility.yul\":526:527   */\n  dup1\n    /* \"#utility.yul\":519:531   */\n  revert\n    /* \"#utility.yul\":470:533   */\ntag_24:\n    /* \"#utility.yul\":417:539   */\n  pop\n  jump\t// out\n    /* \"#utility.yul\":545:688   */\ntag_12:\n    /* \"#utility.yul\":602:607   */\n  0x00\n    /* \"#utility.yul\":633:639   */\n  dup2\n    /* \"#utility.yul\":627:640   */\n  mload\n    /* \"#utility.yul\":618:640   */\n  swap1\n  pop\n    /* \"#utility.yul\":649:682   */\n  tag_26\n    /* \"#utility.yul\":676:681   */\n  dup2\n    /* \"#utility.yul\":649:682   */\n  tag_11\n  jump\t// in\ntag_26:\n    /* \"#utility.yul\":545:688   */\n  swap3\n  swap2\n  pop\n  pop\n  jump\t// out\n    /* \"#utility.yul\":694:820   */\ntag_13:\n    /* \"#utility.yul\":731:738   */\n  0x00\n    /* \"#utility.yul\":771:813   */\n  0xffffffffffffffffffffffffffffffffffffffff\n    /* \"#utility.yul\":764:769   */\n  dup3\n    /* \"#utility.yul\":760:814   */\n  and\n    /* \"#utility.yul\":749:814   */\n  swap1\n  pop\n    /* \"#utility.yul\":694:820   */\n  swap2\n  swap1\n  pop\n  jump\t// out\n    /* \"#utility.yul\":826:922   */\ntag_14:\n    /* \"#utility.yul\":863:870   */\n  0x00\n    /* \"#utility.yul\":892:916   */\n  tag_29\n    /* \"#utility.yul\":910:915   */\n  dup3\n    /* \"#utility.yul\":892:916   */\n  tag_13\n  jump\t// in\ntag_29:\n    /* \"#utility.yul\":881:916   */\n  swap1\n  pop\n    /* \"#utility.yul\":826:922   */\n  swap2\n  swap1\n  pop\n  jump\t// out\n    /* \"#utility.yul\":928:1050   */\ntag_15:\n    /* \"#utility.yul\":1001:1025   */\n  tag_31\n    /* \"#utility.yul\":1019:1024   */\n  dup2\n    /* \"#utility.yul\":1001:1025   */\n  tag_14\n  jump\t// in\ntag_31:\n    /* \"#utility.yul\":994:999   */\n  dup2\n    /* \"#utility.yul\":991:1026   */\n  eq\n    /* \"#utility.yul\":981:1044   */\n  tag_32\n  jumpi\n    /* \"#utility.yul\":1040:1041   */\n  0x00\n    /* \"#utility.yul\":1037:1038   */\n  dup1\n    /* \"#utility.yul\":1030:1042   */\n  revert\n    /* \"#utility.yul\":981:1044   */\ntag_32:\n    /* \"#utility.yul\":928:1050   */\n  pop\n  jump\t// out\n    /* \"#utility.yul\":1056:1199   */\ntag_16:\n    /* \"#utility.yul\":1113:1118   */\n  0x00\n    /* \"#utility.yul\":1144:1150   */\n  dup2\n    /* \"#utility.yul\":1138:1151   */\n  mload\n    /* \"#utility.yul\":1129:1151   */\n  swap1\n  pop\n    /* \"#utility.yul\":1160:1193   */\n  tag_34\n    /* \"#utility.yul\":1187:1192   */\n  dup2\n    /* \"#utility.yul\":1160:1193   */\n  tag_15\n  jump\t// in\ntag_34:\n    /* \"#utility.yul\":1056:1199   */\n  swap3\n  swap2\n  pop\n  pop\n  jump\t// out\n    /* \"#utility.yul\":1205:1712   */\ntag_3:\n    /* \"#utility.yul\":1284:1290   */\n  0x00\n    /* \"#utility.yul\":1292:1298   */\n  dup1\n    /* \"#utility.yul\":1341:1343   */\n  0x40\n    /* \"#utility.yul\":1329:1338   */\n  dup4\n    /* \"#utility.yul\":1320:1327   */\n  dup6\n    /* \"#utility.yul\":1316:1339   */\n  sub\n    /* \"#utility.yul\":1312:1344   */\n  slt\n    /* \"#utility.yul\":1309:1428   */\n  iszero\n  tag_36\n  jumpi\n    /* \"#utility.yul\":1347:1426   */\n  tag_37\n  tag_8\n  jump\t// in\ntag_37:\n    /* \"#utility.yul\":1309:1428   */\ntag_36:\n    /* \"#utility.yul\":1467:1468   */\n  0x00\n    /* \"#utility.yul\":1492:1556   */\n  tag_38\n    /* \"#utility.yul\":1548:1555   */\n  dup6\n    /* \"#utility.yul\":1539:1545   */\n  dup3\n    /* \"#utility.yul\":1528:1537   */\n  dup7\n    /* \"#utility.yul\":1524:1546   */\n  add\n    /* \"#utility.yul\":1492:1556   */\n  tag_12\n  jump\t// in\ntag_38:\n    /* \"#utility.yul\":1482:1556   */\n  swap3\n  pop\n    /* \"#utility.yul\":1438:1566   */\n  pop\n    /* \"#utility.yul\":1605:1607   */\n  0x20\n    /* \"#utility.yul\":1631:1695   */\n  tag_39\n    /* \"#utility.yul\":1687:1694   */\n  dup6\n    /* \"#utility.yul\":1678:1684   */\n  dup3\n    /* \"#utility.yul\":1667:1676   */\n  dup7\n    /* \"#utility.yul\":1663:1685   */\n  add\n    /* \"#utility.yul\":1631:1695   */\n  tag_16\n  jump\t// in\ntag_39:\n    /* \"#utility.yul\":1621:1695   */\n  swap2\n  pop\n    /* \"#utility.yul\":1576:1705   */\n  pop\n    /* \"#utility.yul\":1205:1712   */\n  swap3\n  pop\n  swap3\n  swap1\n  pop\n  jump\t// out\n    /* \"Campaign.sol\":446:2161  contract Campaign{... */\ntag_6:\n  dataSize(sub_0)\n  dup1\n  dataOffset(sub_0)\n  0x00\n  codecopy\n  0x00\n  return\nstop\n\nsub_0: assembly {\n        /* \"Campaign.sol\":446:2161  contract Campaign{... */\n      mstore(0x40, 0x80)\n      jumpi(tag_1, lt(calldatasize, 0x04))\n      shr(0xe0, calldataload(0x00))\n      dup1\n      0x03441006\n      eq\n      tag_2\n      jumpi\n      dup1\n      0x481c6a75\n      eq\n      tag_3\n      jumpi\n      dup1\n      0x8a9cfd55\n      eq\n      tag_4\n      jumpi\n      dup1\n      0x937e09b1\n      eq\n      tag_5\n      jumpi\n      dup1\n      0xd7bb99ba\n      eq\n      tag_6\n      jumpi\n      dup1\n      0xd7d1bbdb\n      eq\n      tag_7\n      jumpi\n    tag_1:\n      0x00\n      dup1\n      revert\n        /* \"Campaign.sol\":1894:2158  function finalizeRequest(uint index) public restricted {... */\n    tag_2:\n      callvalue\n      dup1\n      iszero\n      tag_8\n      jumpi\n      0x00\n      dup1\n      revert\n    tag_8:\n      pop\n      tag_9\n      0x04\n      dup1\n      calldatasize\n      sub\n      dup2\n      add\n      swap1\n      tag_10\n      swap2\n      swap1\n      tag_11\n      jump\t// in\n    tag_10:\n      tag_12\n      jump\t// in\n    tag_9:\n      stop\n        /* \"Campaign.sol\":690:712  address public manager */\n    tag_3:\n      callvalue\n      dup1\n      iszero\n      tag_13\n      jumpi\n      0x00\n      dup1\n      revert\n    tag_13:\n      pop\n      tag_14\n      tag_15\n      jump\t// in\n    tag_14:\n      mload(0x40)\n      tag_16\n      swap2\n      swap1\n      tag_17\n      jump\t// in\n    tag_16:\n      mload(0x40)\n      dup1\n      swap2\n      sub\n      swap1\n      return\n        /* \"Campaign.sol\":1278:1623  function createRequest(string memory description, uint value, address payable recipient) public restricted {... */\n    tag_4:\n      callvalue\n      dup1\n      iszero\n      tag_18\n      jumpi\n      0x00\n      dup1\n      revert\n    tag_18:\n      pop\n      tag_19\n      0x04\n      dup1\n      calldatasize\n      sub\n      dup2\n      add\n      swap1\n      tag_20\n      swap2\n      swap1\n      tag_21\n      jump\t// in\n    tag_20:\n      tag_22\n      jump\t// in\n    tag_19:\n      stop\n        /* \"Campaign.sol\":719:750  uint public minimumContribution */\n    tag_5:\n      callvalue\n      dup1\n      iszero\n      tag_23\n      jumpi\n      0x00\n      dup1\n      revert\n    tag_23:\n      pop\n      tag_24\n      tag_25\n      jump\t// in\n    tag_24:\n      mload(0x40)\n      tag_26\n      swap2\n      swap1\n      tag_27\n      jump\t// in\n    tag_26:\n      mload(0x40)\n      dup1\n      swap2\n      sub\n      swap1\n      return\n        /* \"Campaign.sol\":1043:1206  function contribute() public  payable {... */\n    tag_6:\n      tag_28\n      tag_29\n      jump\t// in\n    tag_28:\n      stop\n        /* \"Campaign.sol\":1631:1886  function approveRequest(uint index) public {... */\n    tag_7:\n      callvalue\n      dup1\n      iszero\n      tag_30\n      jumpi\n      0x00\n      dup1\n      revert\n    tag_30:\n      pop\n      tag_31\n      0x04\n      dup1\n      calldatasize\n      sub\n      dup2\n      add\n      swap1\n      tag_32\n      swap2\n      swap1\n      tag_11\n      jump\t// in\n    tag_32:\n      tag_33\n      jump\t// in\n    tag_31:\n      stop\n        /* \"Campaign.sol\":1894:2158  function finalizeRequest(uint index) public restricted {... */\n    tag_12:\n        /* \"Campaign.sol\":880:887  manager */\n      0x00\n      dup1\n      sload\n      swap1\n      0x0100\n      exp\n      swap1\n      div\n      0xffffffffffffffffffffffffffffffffffffffff\n      and\n        /* \"Campaign.sol\":866:887  msg.sender == manager */\n      0xffffffffffffffffffffffffffffffffffffffff\n      and\n        /* \"Campaign.sol\":866:876  msg.sender */\n      caller\n        /* \"Campaign.sol\":866:887  msg.sender == manager */\n      0xffffffffffffffffffffffffffffffffffffffff\n      and\n      eq\n        /* \"Campaign.sol\":858:888  require(msg.sender == manager) */\n      tag_35\n      jumpi\n      0x00\n      dup1\n      revert\n    tag_35:\n        /* \"Campaign.sol\":1960:1977  Request storage r */\n      0x00\n        /* \"Campaign.sol\":1980:1988  requests */\n      0x05\n        /* \"Campaign.sol\":1980:1995  requests[index] */\n      0x00\n        /* \"Campaign.sol\":1989:1994  index */\n      dup4\n        /* \"Campaign.sol\":1980:1995  requests[index] */\n      dup2\n      mstore\n      0x20\n      add\n      swap1\n      dup2\n      mstore\n      0x20\n      add\n      0x00\n      keccak256\n        /* \"Campaign.sol\":1960:1995  Request storage r = requests[index] */\n      swap1\n      pop\n        /* \"Campaign.sol\":2048:2049  2 */\n      0x02\n        /* \"Campaign.sol\":2033:2047  approversCount */\n      sload(0x03)\n        /* \"Campaign.sol\":2033:2049  approversCount/2 */\n      tag_37\n      swap2\n      swap1\n      tag_38\n      jump\t// in\n    tag_37:\n        /* \"Campaign.sol\":2014:2015  r */\n      dup2\n        /* \"Campaign.sol\":2014:2029  r.approvalCount */\n      0x03\n      add\n      sload\n        /* \"Campaign.sol\":2014:2050  r.approvalCount > (approversCount/2) */\n      gt\n        /* \"Campaign.sol\":2006:2051  require(r.approvalCount > (approversCount/2)) */\n      tag_39\n      jumpi\n      0x00\n      dup1\n      revert\n    tag_39:\n        /* \"Campaign.sol\":2071:2072  r */\n      dup1\n        /* \"Campaign.sol\":2071:2081  r.complete */\n      0x02\n      add\n      0x14\n      swap1\n      sload\n      swap1\n      0x0100\n      exp\n      swap1\n      div\n      0xff\n      and\n        /* \"Campaign.sol\":2070:2081  !r.complete */\n      iszero\n        /* \"Campaign.sol\":2062:2082  require(!r.complete) */\n      tag_40\n      jumpi\n      0x00\n      dup1\n      revert\n    tag_40:\n        /* \"Campaign.sol\":2093:2094  r */\n      dup1\n        /* \"Campaign.sol\":2093:2104  r.recipient */\n      0x02\n      add\n      0x00\n      swap1\n      sload\n      swap1\n      0x0100\n      exp\n      swap1\n      div\n      0xffffffffffffffffffffffffffffffffffffffff\n      and\n        /* \"Campaign.sol\":2093:2113  r.recipient.transfer */\n      0xffffffffffffffffffffffffffffffffffffffff\n      and\n        /* \"Campaign.sol\":2093:2122  r.recipient.transfer(r.value) */\n      0x08fc\n        /* \"Campaign.sol\":2114:2115  r */\n      dup3\n        /* \"Campaign.sol\":2114:2121  r.value */\n      0x01\n      add\n      sload\n        /* \"Campaign.sol\":2093:2122  r.recipient.transfer(r.value) */\n      swap1\n      dup2\n      iszero\n      mul\n      swap1\n      mload(0x40)\n      0x00\n      mload(0x40)\n      dup1\n      dup4\n      sub\n      dup2\n      dup6\n      dup9\n      dup9\n      call\n      swap4\n      pop\n      pop\n      pop\n      pop\n      iszero\n      dup1\n      iszero\n      tag_42\n      jumpi\n      returndatasize\n      0x00\n      dup1\n      returndatacopy\n      revert(0x00, returndatasize)\n    tag_42:\n      pop\n        /* \"Campaign.sol\":2146:2150  true */\n      0x01\n        /* \"Campaign.sol\":2133:2134  r */\n      dup2\n        /* \"Campaign.sol\":2133:2143  r.complete */\n      0x02\n      add\n      0x14\n        /* \"Campaign.sol\":2133:2150  r.complete = true */\n      0x0100\n      exp\n      dup2\n      sload\n      dup2\n      0xff\n      mul\n      not\n      and\n      swap1\n      dup4\n      iszero\n      iszero\n      mul\n      or\n      swap1\n      sstore\n      pop\n        /* \"Campaign.sol\":1949:2158  {... */\n      pop\n        /* \"Campaign.sol\":1894:2158  function finalizeRequest(uint index) public restricted {... */\n      pop\n      jump\t// out\n        /* \"Campaign.sol\":690:712  address public manager */\n    tag_15:\n      0x00\n      dup1\n      sload\n      swap1\n      0x0100\n      exp\n      swap1\n      div\n      0xffffffffffffffffffffffffffffffffffffffff\n      and\n      dup2\n      jump\t// out\n        /* \"Campaign.sol\":1278:1623  function createRequest(string memory description, uint value, address payable recipient) public restricted {... */\n    tag_22:\n        /* \"Campaign.sol\":880:887  manager */\n      0x00\n      dup1\n      sload\n      swap1\n      0x0100\n      exp\n      swap1\n      div\n      0xffffffffffffffffffffffffffffffffffffffff\n      and\n        /* \"Campaign.sol\":866:887  msg.sender == manager */\n      0xffffffffffffffffffffffffffffffffffffffff\n      and\n        /* \"Campaign.sol\":866:876  msg.sender */\n      caller\n        /* \"Campaign.sol\":866:887  msg.sender == manager */\n      0xffffffffffffffffffffffffffffffffffffffff\n      and\n      eq\n        /* \"Campaign.sol\":858:888  require(msg.sender == manager) */\n      tag_44\n      jumpi\n      0x00\n      dup1\n      revert\n    tag_44:\n        /* \"Campaign.sol\":1396:1413  Request storage r */\n      0x00\n        /* \"Campaign.sol\":1416:1424  requests */\n      0x05\n        /* \"Campaign.sol\":1416:1438  requests[numRequest++] */\n      0x00\n        /* \"Campaign.sol\":1425:1435  numRequest */\n      0x04\n      0x00\n        /* \"Campaign.sol\":1425:1437  numRequest++ */\n      dup2\n      sload\n      dup1\n      swap3\n      swap2\n      swap1\n      tag_46\n      swap1\n      tag_47\n      jump\t// in\n    tag_46:\n      swap2\n      swap1\n      pop\n      sstore\n        /* \"Campaign.sol\":1416:1438  requests[numRequest++] */\n      dup2\n      mstore\n      0x20\n      add\n      swap1\n      dup2\n      mstore\n      0x20\n      add\n      0x00\n      keccak256\n        /* \"Campaign.sol\":1396:1438  Request storage r = requests[numRequest++] */\n      swap1\n      pop\n        /* \"Campaign.sol\":1469:1480  description */\n      dup4\n        /* \"Campaign.sol\":1453:1454  r */\n      dup2\n        /* \"Campaign.sol\":1453:1466  r.description */\n      0x00\n      add\n        /* \"Campaign.sol\":1453:1480  r.description = description */\n      swap1\n      dup2\n      tag_48\n      swap2\n      swap1\n      tag_49\n      jump\t// in\n    tag_48:\n      pop\n        /* \"Campaign.sol\":1505:1510  value */\n      dup3\n        /* \"Campaign.sol\":1495:1496  r */\n      dup2\n        /* \"Campaign.sol\":1495:1502  r.value */\n      0x01\n      add\n        /* \"Campaign.sol\":1495:1510  r.value = value */\n      dup2\n      swap1\n      sstore\n      pop\n        /* \"Campaign.sol\":1539:1548  recipient */\n      dup2\n        /* \"Campaign.sol\":1525:1526  r */\n      dup2\n        /* \"Campaign.sol\":1525:1536  r.recipient */\n      0x02\n      add\n      0x00\n        /* \"Campaign.sol\":1525:1548  r.recipient = recipient */\n      0x0100\n      exp\n      dup2\n      sload\n      dup2\n      0xffffffffffffffffffffffffffffffffffffffff\n      mul\n      not\n      and\n      swap1\n      dup4\n      0xffffffffffffffffffffffffffffffffffffffff\n      and\n      mul\n      or\n      swap1\n      sstore\n      pop\n        /* \"Campaign.sol\":1576:1581  false */\n      0x00\n        /* \"Campaign.sol\":1563:1564  r */\n      dup2\n        /* \"Campaign.sol\":1563:1573  r.complete */\n      0x02\n      add\n      0x14\n        /* \"Campaign.sol\":1563:1581  r.complete = false */\n      0x0100\n      exp\n      dup2\n      sload\n      dup2\n      0xff\n      mul\n      not\n      and\n      swap1\n      dup4\n      iszero\n      iszero\n      mul\n      or\n      swap1\n      sstore\n      pop\n        /* \"Campaign.sol\":1614:1615  0 */\n      0x00\n        /* \"Campaign.sol\":1596:1597  r */\n      dup2\n        /* \"Campaign.sol\":1596:1611  r.approvalCount */\n      0x03\n      add\n        /* \"Campaign.sol\":1596:1615  r.approvalCount = 0 */\n      dup2\n      swap1\n      sstore\n      pop\n        /* \"Campaign.sol\":1385:1623  {... */\n      pop\n        /* \"Campaign.sol\":1278:1623  function createRequest(string memory description, uint value, address payable recipient) public restricted {... */\n      pop\n      pop\n      pop\n      jump\t// out\n        /* \"Campaign.sol\":719:750  uint public minimumContribution */\n    tag_25:\n      sload(0x01)\n      dup2\n      jump\t// out\n        /* \"Campaign.sol\":1043:1206  function contribute() public  payable {... */\n    tag_29:\n        /* \"Campaign.sol\":1112:1131  minimumContribution */\n      sload(0x01)\n        /* \"Campaign.sol\":1100:1109  msg.value */\n      callvalue\n        /* \"Campaign.sol\":1100:1131  msg.value > minimumContribution */\n      gt\n        /* \"Campaign.sol\":1092:1132  require(msg.value > minimumContribution) */\n      tag_51\n      jumpi\n      0x00\n      dup1\n      revert\n    tag_51:\n        /* \"Campaign.sol\":1167:1171  true */\n      0x01\n        /* \"Campaign.sol\":1143:1152  approvers */\n      0x02\n        /* \"Campaign.sol\":1143:1164  approvers[msg.sender] */\n      0x00\n        /* \"Campaign.sol\":1153:1163  msg.sender */\n      caller\n        /* \"Campaign.sol\":1143:1164  approvers[msg.sender] */\n      0xffffffffffffffffffffffffffffffffffffffff\n      and\n      0xffffffffffffffffffffffffffffffffffffffff\n      and\n      dup2\n      mstore\n      0x20\n      add\n      swap1\n      dup2\n      mstore\n      0x20\n      add\n      0x00\n      keccak256\n      0x00\n        /* \"Campaign.sol\":1143:1171  approvers[msg.sender] = true */\n      0x0100\n      exp\n      dup2\n      sload\n      dup2\n      0xff\n      mul\n      not\n      and\n      swap1\n      dup4\n      iszero\n      iszero\n      mul\n      or\n      swap1\n      sstore\n      pop\n        /* \"Campaign.sol\":1182:1196  approversCount */\n      0x03\n      0x00\n        /* \"Campaign.sol\":1182:1198  approversCount++ */\n      dup2\n      sload\n      dup1\n      swap3\n      swap2\n      swap1\n      tag_52\n      swap1\n      tag_47\n      jump\t// in\n    tag_52:\n      swap2\n      swap1\n      pop\n      sstore\n      pop\n        /* \"Campaign.sol\":1043:1206  function contribute() public  payable {... */\n      jump\t// out\n        /* \"Campaign.sol\":1631:1886  function approveRequest(uint index) public {... */\n    tag_33:\n        /* \"Campaign.sol\":1685:1702  Request storage r */\n      0x00\n        /* \"Campaign.sol\":1705:1713  requests */\n      0x05\n        /* \"Campaign.sol\":1705:1720  requests[index] */\n      0x00\n        /* \"Campaign.sol\":1714:1719  index */\n      dup4\n        /* \"Campaign.sol\":1705:1720  requests[index] */\n      dup2\n      mstore\n      0x20\n      add\n      swap1\n      dup2\n      mstore\n      0x20\n      add\n      0x00\n      keccak256\n        /* \"Campaign.sol\":1685:1720  Request storage r = requests[index] */\n      swap1\n      pop\n        /* \"Campaign.sol\":1741:1750  approvers */\n      0x02\n        /* \"Campaign.sol\":1741:1762  approvers[msg.sender] */\n      0x00\n        /* \"Campaign.sol\":1751:1761  msg.sender */\n      caller\n        /* \"Campaign.sol\":1741:1762  approvers[msg.sender] */\n      0xffffffffffffffffffffffffffffffffffffffff\n      and\n      0xffffffffffffffffffffffffffffffffffffffff\n      and\n      dup2\n      mstore\n      0x20\n      add\n      swap1\n      dup2\n      mstore\n      0x20\n      add\n      0x00\n      keccak256\n      0x00\n      swap1\n      sload\n      swap1\n      0x0100\n      exp\n      swap1\n      div\n      0xff\n      and\n        /* \"Campaign.sol\":1733:1763  require(approvers[msg.sender]) */\n      tag_54\n      jumpi\n      0x00\n      dup1\n      revert\n    tag_54:\n        /* \"Campaign.sol\":1783:1784  r */\n      dup1\n        /* \"Campaign.sol\":1783:1794  r.approvals */\n      0x04\n      add\n        /* \"Campaign.sol\":1783:1806  r.approvals[msg.sender] */\n      0x00\n        /* \"Campaign.sol\":1795:1805  msg.sender */\n      caller\n        /* \"Campaign.sol\":1783:1806  r.approvals[msg.sender] */\n      0xffffffffffffffffffffffffffffffffffffffff\n      and\n      0xffffffffffffffffffffffffffffffffffffffff\n      and\n      dup2\n      mstore\n      0x20\n      add\n      swap1\n      dup2\n      mstore\n      0x20\n      add\n      0x00\n      keccak256\n      0x00\n      swap1\n      sload\n      swap1\n      0x0100\n      exp\n      swap1\n      div\n      0xff\n      and\n        /* \"Campaign.sol\":1782:1806  !r.approvals[msg.sender] */\n      iszero\n        /* \"Campaign.sol\":1774:1807  require(!r.approvals[msg.sender]) */\n      tag_55\n      jumpi\n      0x00\n      dup1\n      revert\n    tag_55:\n        /* \"Campaign.sol\":1846:1850  true */\n      0x01\n        /* \"Campaign.sol\":1820:1821  r */\n      dup2\n        /* \"Campaign.sol\":1820:1831  r.approvals */\n      0x04\n      add\n        /* \"Campaign.sol\":1820:1843  r.approvals[msg.sender] */\n      0x00\n        /* \"Campaign.sol\":1832:1842  msg.sender */\n      caller\n        /* \"Campaign.sol\":1820:1843  r.approvals[msg.sender] */\n      0xffffffffffffffffffffffffffffffffffffffff\n      and\n      0xffffffffffffffffffffffffffffffffffffffff\n      and\n      dup2\n      mstore\n      0x20\n      add\n      swap1\n      dup2\n      mstore\n      0x20\n      add\n      0x00\n      keccak256\n      0x00\n        /* \"Campaign.sol\":1820:1850  r.approvals[msg.sender] = true */\n      0x0100\n      exp\n      dup2\n      sload\n      dup2\n      0xff\n      mul\n      not\n      and\n      swap1\n      dup4\n      iszero\n      iszero\n      mul\n      or\n      swap1\n      sstore\n      pop\n        /* \"Campaign.sol\":1861:1862  r */\n      dup1\n        /* \"Campaign.sol\":1861:1876  r.approvalCount */\n      0x03\n      add\n      0x00\n        /* \"Campaign.sol\":1861:1878  r.approvalCount++ */\n      dup2\n      sload\n      dup1\n      swap3\n      swap2\n      swap1\n      tag_56\n      swap1\n      tag_47\n      jump\t// in\n    tag_56:\n      swap2\n      swap1\n      pop\n      sstore\n      pop\n        /* \"Campaign.sol\":1674:1886  {... */\n      pop\n        /* \"Campaign.sol\":1631:1886  function approveRequest(uint index) public {... */\n      pop\n      jump\t// out\n        /* \"#utility.yul\":7:82   */\n    tag_57:\n        /* \"#utility.yul\":40:46   */\n      0x00\n        /* \"#utility.yul\":73:75   */\n      0x40\n        /* \"#utility.yul\":67:76   */\n      mload\n        /* \"#utility.yul\":57:76   */\n      swap1\n      pop\n        /* \"#utility.yul\":7:82   */\n      swap1\n      jump\t// out\n        /* \"#utility.yul\":88:205   */\n    tag_58:\n        /* \"#utility.yul\":197:198   */\n      0x00\n        /* \"#utility.yul\":194:195   */\n      dup1\n        /* \"#utility.yul\":187:199   */\n      revert\n        /* \"#utility.yul\":211:328   */\n    tag_59:\n        /* \"#utility.yul\":320:321   */\n      0x00\n        /* \"#utility.yul\":317:318   */\n      dup1\n        /* \"#utility.yul\":310:322   */\n      revert\n        /* \"#utility.yul\":334:411   */\n    tag_60:\n        /* \"#utility.yul\":371:378   */\n      0x00\n        /* \"#utility.yul\":400:405   */\n      dup2\n        /* \"#utility.yul\":389:405   */\n      swap1\n      pop\n        /* \"#utility.yul\":334:411   */\n      swap2\n      swap1\n      pop\n      jump\t// out\n        /* \"#utility.yul\":417:539   */\n    tag_61:\n        /* \"#utility.yul\":490:514   */\n      tag_106\n        /* \"#utility.yul\":508:513   */\n      dup2\n        /* \"#utility.yul\":490:514   */\n      tag_60\n      jump\t// in\n    tag_106:\n        /* \"#utility.yul\":483:488   */\n      dup2\n        /* \"#utility.yul\":480:515   */\n      eq\n        /* \"#utility.yul\":470:533   */\n      tag_107\n      jumpi\n        /* \"#utility.yul\":529:530   */\n      0x00\n        /* \"#utility.yul\":526:527   */\n      dup1\n        /* \"#utility.yul\":519:531   */\n      revert\n        /* \"#utility.yul\":470:533   */\n    tag_107:\n        /* \"#utility.yul\":417:539   */\n      pop\n      jump\t// out\n        /* \"#utility.yul\":545:684   */\n    tag_62:\n        /* \"#utility.yul\":591:596   */\n      0x00\n        /* \"#utility.yul\":629:635   */\n      dup2\n        /* \"#utility.yul\":616:636   */\n      calldataload\n        /* \"#utility.yul\":607:636   */\n      swap1\n      pop\n        /* \"#utility.yul\":645:678   */\n      tag_109\n        /* \"#utility.yul\":672:677   */\n      dup2\n        /* \"#utility.yul\":645:678   */\n      tag_61\n      jump\t// in\n    tag_109:\n        /* \"#utility.yul\":545:684   */\n      swap3\n      swap2\n      pop\n      pop\n      jump\t// out\n        /* \"#utility.yul\":690:1019   */\n    tag_11:\n        /* \"#utility.yul\":749:755   */\n      0x00\n        /* \"#utility.yul\":798:800   */\n      0x20\n        /* \"#utility.yul\":786:795   */\n      dup3\n        /* \"#utility.yul\":777:784   */\n      dup5\n        /* \"#utility.yul\":773:796   */\n      sub\n        /* \"#utility.yul\":769:801   */\n      slt\n        /* \"#utility.yul\":766:885   */\n      iszero\n      tag_111\n      jumpi\n        /* \"#utility.yul\":804:883   */\n      tag_112\n      tag_58\n      jump\t// in\n    tag_112:\n        /* \"#utility.yul\":766:885   */\n    tag_111:\n        /* \"#utility.yul\":924:925   */\n      0x00\n        /* \"#utility.yul\":949:1002   */\n      tag_113\n        /* \"#utility.yul\":994:1001   */\n      dup5\n        /* \"#utility.yul\":985:991   */\n      dup3\n        /* \"#utility.yul\":974:983   */\n      dup6\n        /* \"#utility.yul\":970:992   */\n      add\n        /* \"#utility.yul\":949:1002   */\n      tag_62\n      jump\t// in\n    tag_113:\n        /* \"#utility.yul\":939:1002   */\n      swap2\n      pop\n        /* \"#utility.yul\":895:1012   */\n      pop\n        /* \"#utility.yul\":690:1019   */\n      swap3\n      swap2\n      pop\n      pop\n      jump\t// out\n        /* \"#utility.yul\":1025:1151   */\n    tag_63:\n        /* \"#utility.yul\":1062:1069   */\n      0x00\n        /* \"#utility.yul\":1102:1144   */\n      0xffffffffffffffffffffffffffffffffffffffff\n        /* \"#utility.yul\":1095:1100   */\n      dup3\n        /* \"#utility.yul\":1091:1145   */\n      and\n        /* \"#utility.yul\":1080:1145   */\n      swap1\n      pop\n        /* \"#utility.yul\":1025:1151   */\n      swap2\n      swap1\n      pop\n      jump\t// out\n        /* \"#utility.yul\":1157:1253   */\n    tag_64:\n        /* \"#utility.yul\":1194:1201   */\n      0x00\n        /* \"#utility.yul\":1223:1247   */\n      tag_116\n        /* \"#utility.yul\":1241:1246   */\n      dup3\n        /* \"#utility.yul\":1223:1247   */\n      tag_63\n      jump\t// in\n    tag_116:\n        /* \"#utility.yul\":1212:1247   */\n      swap1\n      pop\n        /* \"#utility.yul\":1157:1253   */\n      swap2\n      swap1\n      pop\n      jump\t// out\n        /* \"#utility.yul\":1259:1377   */\n    tag_65:\n        /* \"#utility.yul\":1346:1370   */\n      tag_118\n        /* \"#utility.yul\":1364:1369   */\n      dup2\n        /* \"#utility.yul\":1346:1370   */\n      tag_64\n      jump\t// in\n    tag_118:\n        /* \"#utility.yul\":1341:1344   */\n      dup3\n        /* \"#utility.yul\":1334:1371   */\n      mstore\n        /* \"#utility.yul\":1259:1377   */\n      pop\n      pop\n      jump\t// out\n        /* \"#utility.yul\":1383:1605   */\n    tag_17:\n        /* \"#utility.yul\":1476:1480   */\n      0x00\n        /* \"#utility.yul\":1514:1516   */\n      0x20\n        /* \"#utility.yul\":1503:1512   */\n      dup3\n        /* \"#utility.yul\":1499:1517   */\n      add\n        /* \"#utility.yul\":1491:1517   */\n      swap1\n      pop\n        /* \"#utility.yul\":1527:1598   */\n      tag_120\n        /* \"#utility.yul\":1595:1596   */\n      0x00\n        /* \"#utility.yul\":1584:1593   */\n      dup4\n        /* \"#utility.yul\":1580:1597   */\n      add\n        /* \"#utility.yul\":1571:1577   */\n      dup5\n        /* \"#utility.yul\":1527:1598   */\n      tag_65\n      jump\t// in\n    tag_120:\n        /* \"#utility.yul\":1383:1605   */\n      swap3\n      swap2\n      pop\n      pop\n      jump\t// out\n        /* \"#utility.yul\":1611:1728   */\n    tag_66:\n        /* \"#utility.yul\":1720:1721   */\n      0x00\n        /* \"#utility.yul\":1717:1718   */\n      dup1\n        /* \"#utility.yul\":1710:1722   */\n      revert\n        /* \"#utility.yul\":1734:1851   */\n    tag_67:\n        /* \"#utility.yul\":1843:1844   */\n      0x00\n        /* \"#utility.yul\":1840:1841   */\n      dup1\n        /* \"#utility.yul\":1833:1845   */\n      revert\n        /* \"#utility.yul\":1857:1959   */\n    tag_68:\n        /* \"#utility.yul\":1898:1904   */\n      0x00\n        /* \"#utility.yul\":1949:1951   */\n      0x1f\n        /* \"#utility.yul\":1945:1952   */\n      not\n        /* \"#utility.yul\":1940:1942   */\n      0x1f\n        /* \"#utility.yul\":1933:1938   */\n      dup4\n        /* \"#utility.yul\":1929:1943   */\n      add\n        /* \"#utility.yul\":1925:1953   */\n      and\n        /* \"#utility.yul\":1915:1953   */\n      swap1\n      pop\n        /* \"#utility.yul\":1857:1959   */\n      swap2\n      swap1\n      pop\n      jump\t// out\n        /* \"#utility.yul\":1965:2145   */\n    tag_69:\n        /* \"#utility.yul\":2013:2090   */\n      0x4e487b7100000000000000000000000000000000000000000000000000000000\n        /* \"#utility.yul\":2010:2011   */\n      0x00\n        /* \"#utility.yul\":2003:2091   */\n      mstore\n        /* \"#utility.yul\":2110:2114   */\n      0x41\n        /* \"#utility.yul\":2107:2108   */\n      0x04\n        /* \"#utility.yul\":2100:2115   */\n      mstore\n        /* \"#utility.yul\":2134:2138   */\n      0x24\n        /* \"#utility.yul\":2131:2132   */\n      0x00\n        /* \"#utility.yul\":2124:2139   */\n      revert\n        /* \"#utility.yul\":2151:2432   */\n    tag_70:\n        /* \"#utility.yul\":2234:2261   */\n      tag_126\n        /* \"#utility.yul\":2256:2260   */\n      dup3\n        /* \"#utility.yul\":2234:2261   */\n      tag_68\n      jump\t// in\n    tag_126:\n        /* \"#utility.yul\":2226:2232   */\n      dup2\n        /* \"#utility.yul\":2222:2262   */\n      add\n        /* \"#utility.yul\":2364:2370   */\n      dup2\n        /* \"#utility.yul\":2352:2362   */\n      dup2\n        /* \"#utility.yul\":2349:2371   */\n      lt\n        /* \"#utility.yul\":2328:2346   */\n      0xffffffffffffffff\n        /* \"#utility.yul\":2316:2326   */\n      dup3\n        /* \"#utility.yul\":2313:2347   */\n      gt\n        /* \"#utility.yul\":2310:2372   */\n      or\n        /* \"#utility.yul\":2307:2395   */\n      iszero\n      tag_127\n      jumpi\n        /* \"#utility.yul\":2375:2393   */\n      tag_128\n      tag_69\n      jump\t// in\n    tag_128:\n        /* \"#utility.yul\":2307:2395   */\n    tag_127:\n        /* \"#utility.yul\":2415:2425   */\n      dup1\n        /* \"#utility.yul\":2411:2413   */\n      0x40\n        /* \"#utility.yul\":2404:2426   */\n      mstore\n        /* \"#utility.yul\":2194:2432   */\n      pop\n        /* \"#utility.yul\":2151:2432   */\n      pop\n      pop\n      jump\t// out\n        /* \"#utility.yul\":2438:2567   */\n    tag_71:\n        /* \"#utility.yul\":2472:2478   */\n      0x00\n        /* \"#utility.yul\":2499:2519   */\n      tag_130\n      tag_57\n      jump\t// in\n    tag_130:\n        /* \"#utility.yul\":2489:2519   */\n      swap1\n      pop\n        /* \"#utility.yul\":2528:2561   */\n      tag_131\n        /* \"#utility.yul\":2556:2560   */\n      dup3\n        /* \"#utility.yul\":2548:2554   */\n      dup3\n        /* \"#utility.yul\":2528:2561   */\n      tag_70\n      jump\t// in\n    tag_131:\n        /* \"#utility.yul\":2438:2567   */\n      swap2\n      swap1\n      pop\n      jump\t// out\n        /* \"#utility.yul\":2573:2881   */\n    tag_72:\n        /* \"#utility.yul\":2635:2639   */\n      0x00\n        /* \"#utility.yul\":2725:2743   */\n      0xffffffffffffffff\n        /* \"#utility.yul\":2717:2723   */\n      dup3\n        /* \"#utility.yul\":2714:2744   */\n      gt\n        /* \"#utility.yul\":2711:2767   */\n      iszero\n      tag_133\n      jumpi\n        /* \"#utility.yul\":2747:2765   */\n      tag_134\n      tag_69\n      jump\t// in\n    tag_134:\n        /* \"#utility.yul\":2711:2767   */\n    tag_133:\n        /* \"#utility.yul\":2785:2814   */\n      tag_135\n        /* \"#utility.yul\":2807:2813   */\n      dup3\n        /* \"#utility.yul\":2785:2814   */\n      tag_68\n      jump\t// in\n    tag_135:\n        /* \"#utility.yul\":2777:2814   */\n      swap1\n      pop\n        /* \"#utility.yul\":2869:2873   */\n      0x20\n        /* \"#utility.yul\":2863:2867   */\n      dup2\n        /* \"#utility.yul\":2859:2874   */\n      add\n        /* \"#utility.yul\":2851:2874   */\n      swap1\n      pop\n        /* \"#utility.yul\":2573:2881   */\n      swap2\n      swap1\n      pop\n      jump\t// out\n        /* \"#utility.yul\":2887:3033   */\n    tag_73:\n        /* \"#utility.yul\":2984:2990   */\n      dup3\n        /* \"#utility.yul\":2979:2982   */\n      dup2\n        /* \"#utility.yul\":2974:2977   */\n      dup4\n        /* \"#utility.yul\":2961:2991   */\n      calldatacopy\n        /* \"#utility.yul\":3025:3026   */\n      0x00\n        /* \"#utility.yul\":3016:3022   */\n      dup4\n        /* \"#utility.yul\":3011:3014   */\n      dup4\n        /* \"#utility.yul\":3007:3023   */\n      add\n        /* \"#utility.yul\":3000:3027   */\n      mstore\n        /* \"#utility.yul\":2887:3033   */\n      pop\n      pop\n      pop\n      jump\t// out\n        /* \"#utility.yul\":3039:3464   */\n    tag_74:\n        /* \"#utility.yul\":3117:3122   */\n      0x00\n        /* \"#utility.yul\":3142:3208   */\n      tag_138\n        /* \"#utility.yul\":3158:3207   */\n      tag_139\n        /* \"#utility.yul\":3200:3206   */\n      dup5\n        /* \"#utility.yul\":3158:3207   */\n      tag_72\n      jump\t// in\n    tag_139:\n        /* \"#utility.yul\":3142:3208   */\n      tag_71\n      jump\t// in\n    tag_138:\n        /* \"#utility.yul\":3133:3208   */\n      swap1\n      pop\n        /* \"#utility.yul\":3231:3237   */\n      dup3\n        /* \"#utility.yul\":3224:3229   */\n      dup2\n        /* \"#utility.yul\":3217:3238   */\n      mstore\n        /* \"#utility.yul\":3269:3273   */\n      0x20\n        /* \"#utility.yul\":3262:3267   */\n      dup2\n        /* \"#utility.yul\":3258:3274   */\n      add\n        /* \"#utility.yul\":3307:3310   */\n      dup5\n        /* \"#utility.yul\":3298:3304   */\n      dup5\n        /* \"#utility.yul\":3293:3296   */\n      dup5\n        /* \"#utility.yul\":3289:3305   */\n      add\n        /* \"#utility.yul\":3286:3311   */\n      gt\n        /* \"#utility.yul\":3283:3395   */\n      iszero\n      tag_140\n      jumpi\n        /* \"#utility.yul\":3314:3393   */\n      tag_141\n      tag_67\n      jump\t// in\n    tag_141:\n        /* \"#utility.yul\":3283:3395   */\n    tag_140:\n        /* \"#utility.yul\":3404:3458   */\n      tag_142\n        /* \"#utility.yul\":3451:3457   */\n      dup5\n        /* \"#utility.yul\":3446:3449   */\n      dup3\n        /* \"#utility.yul\":3441:3444   */\n      dup6\n        /* \"#utility.yul\":3404:3458   */\n      tag_73\n      jump\t// in\n    tag_142:\n        /* \"#utility.yul\":3123:3464   */\n      pop\n        /* \"#utility.yul\":3039:3464   */\n      swap4\n      swap3\n      pop\n      pop\n      pop\n      jump\t// out\n        /* \"#utility.yul\":3484:3824   */\n    tag_75:\n        /* \"#utility.yul\":3540:3545   */\n      0x00\n        /* \"#utility.yul\":3589:3592   */\n      dup3\n        /* \"#utility.yul\":3582:3586   */\n      0x1f\n        /* \"#utility.yul\":3574:3580   */\n      dup4\n        /* \"#utility.yul\":3570:3587   */\n      add\n        /* \"#utility.yul\":3566:3593   */\n      slt\n        /* \"#utility.yul\":3556:3678   */\n      tag_144\n      jumpi\n        /* \"#utility.yul\":3597:3676   */\n      tag_145\n      tag_66\n      jump\t// in\n    tag_145:\n        /* \"#utility.yul\":3556:3678   */\n    tag_144:\n        /* \"#utility.yul\":3714:3720   */\n      dup2\n        /* \"#utility.yul\":3701:3721   */\n      calldataload\n        /* \"#utility.yul\":3739:3818   */\n      tag_146\n        /* \"#utility.yul\":3814:3817   */\n      dup5\n        /* \"#utility.yul\":3806:3812   */\n      dup3\n        /* \"#utility.yul\":3799:3803   */\n      0x20\n        /* \"#utility.yul\":3791:3797   */\n      dup7\n        /* \"#utility.yul\":3787:3804   */\n      add\n        /* \"#utility.yul\":3739:3818   */\n      tag_74\n      jump\t// in\n    tag_146:\n        /* \"#utility.yul\":3730:3818   */\n      swap2\n      pop\n        /* \"#utility.yul\":3546:3824   */\n      pop\n        /* \"#utility.yul\":3484:3824   */\n      swap3\n      swap2\n      pop\n      pop\n      jump\t// out\n        /* \"#utility.yul\":3830:3934   */\n    tag_76:\n        /* \"#utility.yul\":3875:3882   */\n      0x00\n        /* \"#utility.yul\":3904:3928   */\n      tag_148\n        /* \"#utility.yul\":3922:3927   */\n      dup3\n        /* \"#utility.yul\":3904:3928   */\n      tag_63\n      jump\t// in\n    tag_148:\n        /* \"#utility.yul\":3893:3928   */\n      swap1\n      pop\n        /* \"#utility.yul\":3830:3934   */\n      swap2\n      swap1\n      pop\n      jump\t// out\n        /* \"#utility.yul\":3940:4078   */\n    tag_77:\n        /* \"#utility.yul\":4021:4053   */\n      tag_150\n        /* \"#utility.yul\":4047:4052   */\n      dup2\n        /* \"#utility.yul\":4021:4053   */\n      tag_76\n      jump\t// in\n    tag_150:\n        /* \"#utility.yul\":4014:4019   */\n      dup2\n        /* \"#utility.yul\":4011:4054   */\n      eq\n        /* \"#utility.yul\":4001:4072   */\n      tag_151\n      jumpi\n        /* \"#utility.yul\":4068:4069   */\n      0x00\n        /* \"#utility.yul\":4065:4066   */\n      dup1\n        /* \"#utility.yul\":4058:4070   */\n      revert\n        /* \"#utility.yul\":4001:4072   */\n    tag_151:\n        /* \"#utility.yul\":3940:4078   */\n      pop\n      jump\t// out\n        /* \"#utility.yul\":4084:4239   */\n    tag_78:\n        /* \"#utility.yul\":4138:4143   */\n      0x00\n        /* \"#utility.yul\":4176:4182   */\n      dup2\n        /* \"#utility.yul\":4163:4183   */\n      calldataload\n        /* \"#utility.yul\":4154:4183   */\n      swap1\n      pop\n        /* \"#utility.yul\":4192:4233   */\n      tag_153\n        /* \"#utility.yul\":4227:4232   */\n      dup2\n        /* \"#utility.yul\":4192:4233   */\n      tag_77\n      jump\t// in\n    tag_153:\n        /* \"#utility.yul\":4084:4239   */\n      swap3\n      swap2\n      pop\n      pop\n      jump\t// out\n        /* \"#utility.yul\":4245:5060   */\n    tag_21:\n        /* \"#utility.yul\":4340:4346   */\n      0x00\n        /* \"#utility.yul\":4348:4354   */\n      dup1\n        /* \"#utility.yul\":4356:4362   */\n      0x00\n        /* \"#utility.yul\":4405:4407   */\n      0x60\n        /* \"#utility.yul\":4393:4402   */\n      dup5\n        /* \"#utility.yul\":4384:4391   */\n      dup7\n        /* \"#utility.yul\":4380:4403   */\n      sub\n        /* \"#utility.yul\":4376:4408   */\n      slt\n        /* \"#utility.yul\":4373:4492   */\n      iszero\n      tag_155\n      jumpi\n        /* \"#utility.yul\":4411:4490   */\n      tag_156\n      tag_58\n      jump\t// in\n    tag_156:\n        /* \"#utility.yul\":4373:4492   */\n    tag_155:\n        /* \"#utility.yul\":4559:4560   */\n      0x00\n        /* \"#utility.yul\":4548:4557   */\n      dup5\n        /* \"#utility.yul\":4544:4561   */\n      add\n        /* \"#utility.yul\":4531:4562   */\n      calldataload\n        /* \"#utility.yul\":4589:4607   */\n      0xffffffffffffffff\n        /* \"#utility.yul\":4581:4587   */\n      dup2\n        /* \"#utility.yul\":4578:4608   */\n      gt\n        /* \"#utility.yul\":4575:4692   */\n      iszero\n      tag_157\n      jumpi\n        /* \"#utility.yul\":4611:4690   */\n      tag_158\n      tag_59\n      jump\t// in\n    tag_158:\n        /* \"#utility.yul\":4575:4692   */\n    tag_157:\n        /* \"#utility.yul\":4716:4779   */\n      tag_159\n        /* \"#utility.yul\":4771:4778   */\n      dup7\n        /* \"#utility.yul\":4762:4768   */\n      dup3\n        /* \"#utility.yul\":4751:4760   */\n      dup8\n        /* \"#utility.yul\":4747:4769   */\n      add\n        /* \"#utility.yul\":4716:4779   */\n      tag_75\n      jump\t// in\n    tag_159:\n        /* \"#utility.yul\":4706:4779   */\n      swap4\n      pop\n        /* \"#utility.yul\":4502:4789   */\n      pop\n        /* \"#utility.yul\":4828:4830   */\n      0x20\n        /* \"#utility.yul\":4854:4907   */\n      tag_160\n        /* \"#utility.yul\":4899:4906   */\n      dup7\n        /* \"#utility.yul\":4890:4896   */\n      dup3\n        /* \"#utility.yul\":4879:4888   */\n      dup8\n        /* \"#utility.yul\":4875:4897   */\n      add\n        /* \"#utility.yul\":4854:4907   */\n      tag_62\n      jump\t// in\n    tag_160:\n        /* \"#utility.yul\":4844:4907   */\n      swap3\n      pop\n        /* \"#utility.yul\":4799:4917   */\n      pop\n        /* \"#utility.yul\":4956:4958   */\n      0x40\n        /* \"#utility.yul\":4982:5043   */\n      tag_161\n        /* \"#utility.yul\":5035:5042   */\n      dup7\n        /* \"#utility.yul\":5026:5032   */\n      dup3\n        /* \"#utility.yul\":5015:5024   */\n      dup8\n        /* \"#utility.yul\":5011:5033   */\n      add\n        /* \"#utility.yul\":4982:5043   */\n      tag_78\n      jump\t// in\n    tag_161:\n        /* \"#utility.yul\":4972:5043   */\n      swap2\n      pop\n        /* \"#utility.yul\":4927:5053   */\n      pop\n        /* \"#utility.yul\":4245:5060   */\n      swap3\n      pop\n      swap3\n      pop\n      swap3\n      jump\t// out\n        /* \"#utility.yul\":5066:5184   */\n    tag_79:\n        /* \"#utility.yul\":5153:5177   */\n      tag_163\n        /* \"#utility.yul\":5171:5176   */\n      dup2\n        /* \"#utility.yul\":5153:5177   */\n      tag_60\n      jump\t// in\n    tag_163:\n        /* \"#utility.yul\":5148:5151   */\n      dup3\n        /* \"#utility.yul\":5141:5178   */\n      mstore\n        /* \"#utility.yul\":5066:5184   */\n      pop\n      pop\n      jump\t// out\n        /* \"#utility.yul\":5190:5412   */\n    tag_27:\n        /* \"#utility.yul\":5283:5287   */\n      0x00\n        /* \"#utility.yul\":5321:5323   */\n      0x20\n        /* \"#utility.yul\":5310:5319   */\n      dup3\n        /* \"#utility.yul\":5306:5324   */\n      add\n        /* \"#utility.yul\":5298:5324   */\n      swap1\n      pop\n        /* \"#utility.yul\":5334:5405   */\n      tag_165\n        /* \"#utility.yul\":5402:5403   */\n      0x00\n        /* \"#utility.yul\":5391:5400   */\n      dup4\n        /* \"#utility.yul\":5387:5404   */\n      add\n        /* \"#utility.yul\":5378:5384   */\n      dup5\n        /* \"#utility.yul\":5334:5405   */\n      tag_79\n      jump\t// in\n    tag_165:\n        /* \"#utility.yul\":5190:5412   */\n      swap3\n      swap2\n      pop\n      pop\n      jump\t// out\n        /* \"#utility.yul\":5418:5598   */\n    tag_80:\n        /* \"#utility.yul\":5466:5543   */\n      0x4e487b7100000000000000000000000000000000000000000000000000000000\n        /* \"#utility.yul\":5463:5464   */\n      0x00\n        /* \"#utility.yul\":5456:5544   */\n      mstore\n        /* \"#utility.yul\":5563:5567   */\n      0x12\n        /* \"#utility.yul\":5560:5561   */\n      0x04\n        /* \"#utility.yul\":5553:5568   */\n      mstore\n        /* \"#utility.yul\":5587:5591   */\n      0x24\n        /* \"#utility.yul\":5584:5585   */\n      0x00\n        /* \"#utility.yul\":5577:5592   */\n      revert\n        /* \"#utility.yul\":5604:5784   */\n    tag_81:\n        /* \"#utility.yul\":5652:5729   */\n      0x4e487b7100000000000000000000000000000000000000000000000000000000\n        /* \"#utility.yul\":5649:5650   */\n      0x00\n        /* \"#utility.yul\":5642:5730   */\n      mstore\n        /* \"#utility.yul\":5749:5753   */\n      0x11\n        /* \"#utility.yul\":5746:5747   */\n      0x04\n        /* \"#utility.yul\":5739:5754   */\n      mstore\n        /* \"#utility.yul\":5773:5777   */\n      0x24\n        /* \"#utility.yul\":5770:5771   */\n      0x00\n        /* \"#utility.yul\":5763:5778   */\n      revert\n        /* \"#utility.yul\":5790:5975   */\n    tag_38:\n        /* \"#utility.yul\":5830:5831   */\n      0x00\n        /* \"#utility.yul\":5847:5867   */\n      tag_169\n        /* \"#utility.yul\":5865:5866   */\n      dup3\n        /* \"#utility.yul\":5847:5867   */\n      tag_60\n      jump\t// in\n    tag_169:\n        /* \"#utility.yul\":5842:5867   */\n      swap2\n      pop\n        /* \"#utility.yul\":5881:5901   */\n      tag_170\n        /* \"#utility.yul\":5899:5900   */\n      dup4\n        /* \"#utility.yul\":5881:5901   */\n      tag_60\n      jump\t// in\n    tag_170:\n        /* \"#utility.yul\":5876:5901   */\n      swap3\n      pop\n        /* \"#utility.yul\":5920:5921   */\n      dup3\n        /* \"#utility.yul\":5910:5945   */\n      tag_171\n      jumpi\n        /* \"#utility.yul\":5925:5943   */\n      tag_172\n      tag_80\n      jump\t// in\n    tag_172:\n        /* \"#utility.yul\":5910:5945   */\n    tag_171:\n        /* \"#utility.yul\":5967:5968   */\n      dup3\n        /* \"#utility.yul\":5964:5965   */\n      dup3\n        /* \"#utility.yul\":5960:5969   */\n      div\n        /* \"#utility.yul\":5955:5969   */\n      swap1\n      pop\n        /* \"#utility.yul\":5790:5975   */\n      swap3\n      swap2\n      pop\n      pop\n      jump\t// out\n        /* \"#utility.yul\":5981:6214   */\n    tag_47:\n        /* \"#utility.yul\":6020:6023   */\n      0x00\n        /* \"#utility.yul\":6043:6067   */\n      tag_174\n        /* \"#utility.yul\":6061:6066   */\n      dup3\n        /* \"#utility.yul\":6043:6067   */\n      tag_60\n      jump\t// in\n    tag_174:\n        /* \"#utility.yul\":6034:6067   */\n      swap2\n      pop\n        /* \"#utility.yul\":6089:6155   */\n      0xffffffffffffffffffffffffffffffffffffffffffffffffffffffffffffffff\n        /* \"#utility.yul\":6082:6087   */\n      dup3\n        /* \"#utility.yul\":6079:6156   */\n      sub\n        /* \"#utility.yul\":6076:6179   */\n      tag_175\n      jumpi\n        /* \"#utility.yul\":6159:6177   */\n      tag_176\n      tag_81\n      jump\t// in\n    tag_176:\n        /* \"#utility.yul\":6076:6179   */\n    tag_175:\n        /* \"#utility.yul\":6206:6207   */\n      0x01\n        /* \"#utility.yul\":6199:6204   */\n      dup3\n        /* \"#utility.yul\":6195:6208   */\n      add\n        /* \"#utility.yul\":6188:6208   */\n      swap1\n      pop\n        /* \"#utility.yul\":5981:6214   */\n      swap2\n      swap1\n      pop\n      jump\t// out\n        /* \"#utility.yul\":6220:6319   */\n    tag_82:\n        /* \"#utility.yul\":6272:6278   */\n      0x00\n        /* \"#utility.yul\":6306:6311   */\n      dup2\n        /* \"#utility.yul\":6300:6312   */\n      mload\n        /* \"#utility.yul\":6290:6312   */\n      swap1\n      pop\n        /* \"#utility.yul\":6220:6319   */\n      swap2\n      swap1\n      pop\n      jump\t// out\n        /* \"#utility.yul\":6325:6505   */\n    tag_83:\n        /* \"#utility.yul\":6373:6450   */\n      0x4e487b7100000000000000000000000000000000000000000000000000000000\n        /* \"#utility.yul\":6370:6371   */\n      0x00\n        /* \"#utility.yul\":6363:6451   */\n      mstore\n        /* \"#utility.yul\":6470:6474   */\n      0x22\n        /* \"#utility.yul\":6467:6468   */\n      0x04\n        /* \"#utility.yul\":6460:6475   */\n      mstore\n        /* \"#utility.yul\":6494:6498   */\n      0x24\n        /* \"#utility.yul\":6491:6492   */\n      0x00\n        /* \"#utility.yul\":6484:6499   */\n      revert\n        /* \"#utility.yul\":6511:6831   */\n    tag_84:\n        /* \"#utility.yul\":6555:6561   */\n      0x00\n        /* \"#utility.yul\":6592:6593   */\n      0x02\n        /* \"#utility.yul\":6586:6590   */\n      dup3\n        /* \"#utility.yul\":6582:6594   */\n      div\n        /* \"#utility.yul\":6572:6594   */\n      swap1\n      pop\n        /* \"#utility.yul\":6639:6640   */\n      0x01\n        /* \"#utility.yul\":6633:6637   */\n      dup3\n        /* \"#utility.yul\":6629:6641   */\n      and\n        /* \"#utility.yul\":6660:6678   */\n      dup1\n        /* \"#utility.yul\":6650:6731   */\n      tag_180\n      jumpi\n        /* \"#utility.yul\":6716:6720   */\n      0x7f\n        /* \"#utility.yul\":6708:6714   */\n      dup3\n        /* \"#utility.yul\":6704:6721   */\n      and\n        /* \"#utility.yul\":6694:6721   */\n      swap2\n      pop\n        /* \"#utility.yul\":6650:6731   */\n    tag_180:\n        /* \"#utility.yul\":6778:6780   */\n      0x20\n        /* \"#utility.yul\":6770:6776   */\n      dup3\n        /* \"#utility.yul\":6767:6781   */\n      lt\n        /* \"#utility.yul\":6747:6765   */\n      dup2\n        /* \"#utility.yul\":6744:6782   */\n      sub\n        /* \"#utility.yul\":6741:6825   */\n      tag_181\n      jumpi\n        /* \"#utility.yul\":6797:6815   */\n      tag_182\n      tag_83\n      jump\t// in\n    tag_182:\n        /* \"#utility.yul\":6741:6825   */\n    tag_181:\n        /* \"#utility.yul\":6562:6831   */\n      pop\n        /* \"#utility.yul\":6511:6831   */\n      swap2\n      swap1\n      pop\n      jump\t// out\n        /* \"#utility.yul\":6837:6978   */\n    tag_85:\n        /* \"#utility.yul\":6886:6890   */\n      0x00\n        /* \"#utility.yul\":6909:6912   */\n      dup2\n        /* \"#utility.yul\":6901:6912   */\n      swap1\n      pop\n        /* \"#utility.yul\":6932:6935   */\n      dup2\n        /* \"#utility.yul\":6929:6930   */\n      0x00\n        /* \"#utility.yul\":6922:6936   */\n      mstore\n        /* \"#utility.yul\":6966:6970   */\n      0x20\n        /* \"#utility.yul\":6963:6964   */\n      0x00\n        /* \"#utility.yul\":6953:6971   */\n      keccak256\n        /* \"#utility.yul\":6945:6971   */\n      swap1\n      pop\n        /* \"#utility.yul\":6837:6978   */\n      swap2\n      swap1\n      pop\n      jump\t// out\n        /* \"#utility.yul\":6984:7077   */\n    tag_86:\n        /* \"#utility.yul\":7021:7027   */\n      0x00\n        /* \"#utility.yul\":7068:7070   */\n      0x20\n        /* \"#utility.yul\":7063:7065   */\n      0x1f\n        /* \"#utility.yul\":7056:7061   */\n      dup4\n        /* \"#utility.yul\":7052:7066   */\n      add\n        /* \"#utility.yul\":7048:7071   */\n      div\n        /* \"#utility.yul\":7038:7071   */\n      swap1\n      pop\n        /* \"#utility.yul\":6984:7077   */\n      swap2\n      swap1\n      pop\n      jump\t// out\n        /* \"#utility.yul\":7083:7190   */\n    tag_87:\n        /* \"#utility.yul\":7127:7135   */\n      0x00\n        /* \"#utility.yul\":7177:7182   */\n      dup3\n        /* \"#utility.yul\":7171:7175   */\n      dup3\n        /* \"#utility.yul\":7167:7183   */\n      shl\n        /* \"#utility.yul\":7146:7183   */\n      swap1\n      pop\n        /* \"#utility.yul\":7083:7190   */\n      swap3\n      swap2\n      pop\n      pop\n      jump\t// out\n        /* \"#utility.yul\":7196:7589   */\n    tag_88:\n        /* \"#utility.yul\":7265:7271   */\n      0x00\n        /* \"#utility.yul\":7315:7316   */\n      0x08\n        /* \"#utility.yul\":7303:7313   */\n      dup4\n        /* \"#utility.yul\":7299:7317   */\n      mul\n        /* \"#utility.yul\":7338:7435   */\n      tag_187\n        /* \"#utility.yul\":7368:7434   */\n      0xffffffffffffffffffffffffffffffffffffffffffffffffffffffffffffffff\n        /* \"#utility.yul\":7357:7366   */\n      dup3\n        /* \"#utility.yul\":7338:7435   */\n      tag_87\n      jump\t// in\n    tag_187:\n        /* \"#utility.yul\":7456:7495   */\n      tag_188\n        /* \"#utility.yul\":7486:7494   */\n      dup7\n        /* \"#utility.yul\":7475:7484   */\n      dup4\n        /* \"#utility.yul\":7456:7495   */\n      tag_87\n      jump\t// in\n    tag_188:\n        /* \"#utility.yul\":7444:7495   */\n      swap6\n      pop\n        /* \"#utility.yul\":7528:7532   */\n      dup1\n        /* \"#utility.yul\":7524:7533   */\n      not\n        /* \"#utility.yul\":7517:7522   */\n      dup5\n        /* \"#utility.yul\":7513:7534   */\n      and\n        /* \"#utility.yul\":7504:7534   */\n      swap4\n      pop\n        /* \"#utility.yul\":7577:7581   */\n      dup1\n        /* \"#utility.yul\":7567:7575   */\n      dup7\n        /* \"#utility.yul\":7563:7582   */\n      and\n        /* \"#utility.yul\":7556:7561   */\n      dup5\n        /* \"#utility.yul\":7553:7583   */\n      or\n        /* \"#utility.yul\":7543:7583   */\n      swap3\n      pop\n        /* \"#utility.yul\":7272:7589   */\n      pop\n      pop\n        /* \"#utility.yul\":7196:7589   */\n      swap4\n      swap3\n      pop\n      pop\n      pop\n      jump\t// out\n        /* \"#utility.yul\":7595:7655   */\n    tag_89:\n        /* \"#utility.yul\":7623:7626   */\n      0x00\n        /* \"#utility.yul\":7644:7649   */\n      dup2\n        /* \"#utility.yul\":7637:7649   */\n      swap1\n      pop\n        /* \"#utility.yul\":7595:7655   */\n      swap2\n      swap1\n      pop\n      jump\t// out\n        /* \"#utility.yul\":7661:7803   */\n    tag_90:\n        /* \"#utility.yul\":7711:7720   */\n      0x00\n        /* \"#utility.yul\":7744:7797   */\n      tag_191\n        /* \"#utility.yul\":7762:7796   */\n      tag_192\n        /* \"#utility.yul\":7771:7795   */\n      tag_193\n        /* \"#utility.yul\":7789:7794   */\n      dup5\n        /* \"#utility.yul\":7771:7795   */\n      tag_60\n      jump\t// in\n    tag_193:\n        /* \"#utility.yul\":7762:7796   */\n      tag_89\n      jump\t// in\n    tag_192:\n        /* \"#utility.yul\":7744:7797   */\n      tag_60\n      jump\t// in\n    tag_191:\n        /* \"#utility.yul\":7731:7797   */\n      swap1\n      pop\n        /* \"#utility.yul\":7661:7803   */\n      swap2\n      swap1\n      pop\n      jump\t// out\n        /* \"#utility.yul\":7809:7884   */\n    tag_91:\n        /* \"#utility.yul\":7852:7855   */\n      0x00\n        /* \"#utility.yul\":7873:7878   */\n      dup2\n        /* \"#utility.yul\":7866:7878   */\n      swap1\n      pop\n        /* \"#utility.yul\":7809:7884   */\n      swap2\n      swap1\n      pop\n      jump\t// out\n        /* \"#utility.yul\":7890:8159   */\n    tag_92:\n        /* \"#utility.yul\":8000:8039   */\n      tag_196\n        /* \"#utility.yul\":8031:8038   */\n      dup4\n        /* \"#utility.yul\":8000:8039   */\n      tag_90\n      jump\t// in\n    tag_196:\n        /* \"#utility.yul\":8061:8152   */\n      tag_197\n        /* \"#utility.yul\":8110:8151   */\n      tag_198\n        /* \"#utility.yul\":8134:8150   */\n      dup3\n        /* \"#utility.yul\":8110:8151   */\n      tag_91\n      jump\t// in\n    tag_198:\n        /* \"#utility.yul\":8102:8108   */\n      dup5\n        /* \"#utility.yul\":8095:8099   */\n      dup5\n        /* \"#utility.yul\":8089:8100   */\n      sload\n        /* \"#utility.yul\":8061:8152   */\n      tag_88\n      jump\t// in\n    tag_197:\n        /* \"#utility.yul\":8055:8059   */\n      dup3\n        /* \"#utility.yul\":8048:8153   */\n      sstore\n        /* \"#utility.yul\":7966:8159   */\n      pop\n        /* \"#utility.yul\":7890:8159   */\n      pop\n      pop\n      pop\n      jump\t// out\n        /* \"#utility.yul\":8165:8238   */\n    tag_93:\n        /* \"#utility.yul\":8210:8213   */\n      0x00\n        /* \"#utility.yul\":8165:8238   */\n      swap1\n      jump\t// out\n        /* \"#utility.yul\":8244:8433   */\n    tag_94:\n        /* \"#utility.yul\":8321:8353   */\n      tag_201\n      tag_93\n      jump\t// in\n    tag_201:\n        /* \"#utility.yul\":8362:8427   */\n      tag_202\n        /* \"#utility.yul\":8420:8426   */\n      dup2\n        /* \"#utility.yul\":8412:8418   */\n      dup5\n        /* \"#utility.yul\":8406:8410   */\n      dup5\n        /* \"#utility.yul\":8362:8427   */\n      tag_92\n      jump\t// in\n    tag_202:\n        /* \"#utility.yul\":8297:8433   */\n      pop\n        /* \"#utility.yul\":8244:8433   */\n      pop\n      pop\n      jump\t// out\n        /* \"#utility.yul\":8439:8625   */\n    tag_95:\n        /* \"#utility.yul\":8499:8619   */\n    tag_204:\n        /* \"#utility.yul\":8516:8519   */\n      dup2\n        /* \"#utility.yul\":8509:8514   */\n      dup2\n        /* \"#utility.yul\":8506:8520   */\n      lt\n        /* \"#utility.yul\":8499:8619   */\n      iszero\n      tag_206\n      jumpi\n        /* \"#utility.yul\":8570:8609   */\n      tag_207\n        /* \"#utility.yul\":8607:8608   */\n      0x00\n        /* \"#utility.yul\":8600:8605   */\n      dup3\n        /* \"#utility.yul\":8570:8609   */\n      tag_94\n      jump\t// in\n    tag_207:\n        /* \"#utility.yul\":8543:8544   */\n      0x01\n        /* \"#utility.yul\":8536:8541   */\n      dup2\n        /* \"#utility.yul\":8532:8545   */\n      add\n        /* \"#utility.yul\":8523:8545   */\n      swap1\n      pop\n        /* \"#utility.yul\":8499:8619   */\n      jump(tag_204)\n    tag_206:\n        /* \"#utility.yul\":8439:8625   */\n      pop\n      pop\n      jump\t// out\n        /* \"#utility.yul\":8631:9174   */\n    tag_96:\n        /* \"#utility.yul\":8732:8734   */\n      0x1f\n        /* \"#utility.yul\":8727:8730   */\n      dup3\n        /* \"#utility.yul\":8724:8735   */\n      gt\n        /* \"#utility.yul\":8721:9167   */\n      iszero\n      tag_209\n      jumpi\n        /* \"#utility.yul\":8766:8804   */\n      tag_210\n        /* \"#utility.yul\":8798:8803   */\n      dup2\n        /* \"#utility.yul\":8766:8804   */\n      tag_85\n      jump\t// in\n    tag_210:\n        /* \"#utility.yul\":8850:8879   */\n      tag_211\n        /* \"#utility.yul\":8868:8878   */\n      dup5\n        /* \"#utility.yul\":8850:8879   */\n      tag_86\n      jump\t// in\n    tag_211:\n        /* \"#utility.yul\":8840:8848   */\n      dup2\n        /* \"#utility.yul\":8836:8880   */\n      add\n        /* \"#utility.yul\":9033:9035   */\n      0x20\n        /* \"#utility.yul\":9021:9031   */\n      dup6\n        /* \"#utility.yul\":9018:9036   */\n      lt\n        /* \"#utility.yul\":9015:9064   */\n      iszero\n      tag_212\n      jumpi\n        /* \"#utility.yul\":9054:9062   */\n      dup2\n        /* \"#utility.yul\":9039:9062   */\n      swap1\n      pop\n        /* \"#utility.yul\":9015:9064   */\n    tag_212:\n        /* \"#utility.yul\":9077:9157   */\n      tag_213\n        /* \"#utility.yul\":9133:9155   */\n      tag_214\n        /* \"#utility.yul\":9151:9154   */\n      dup6\n        /* \"#utility.yul\":9133:9155   */\n      tag_86\n      jump\t// in\n    tag_214:\n        /* \"#utility.yul\":9123:9131   */\n      dup4\n        /* \"#utility.yul\":9119:9156   */\n      add\n        /* \"#utility.yul\":9106:9117   */\n      dup3\n        /* \"#utility.yul\":9077:9157   */\n      tag_95\n      jump\t// in\n    tag_213:\n        /* \"#utility.yul\":8736:9167   */\n      pop\n      pop\n        /* \"#utility.yul\":8721:9167   */\n    tag_209:\n        /* \"#utility.yul\":8631:9174   */\n      pop\n      pop\n      pop\n      jump\t// out\n        /* \"#utility.yul\":9180:9297   */\n    tag_97:\n        /* \"#utility.yul\":9234:9242   */\n      0x00\n        /* \"#utility.yul\":9284:9289   */\n      dup3\n        /* \"#utility.yul\":9278:9282   */\n      dup3\n        /* \"#utility.yul\":9274:9290   */\n      shr\n        /* \"#utility.yul\":9253:9290   */\n      swap1\n      pop\n        /* \"#utility.yul\":9180:9297   */\n      swap3\n      swap2\n      pop\n      pop\n      jump\t// out\n        /* \"#utility.yul\":9303:9472   */\n    tag_98:\n        /* \"#utility.yul\":9347:9353   */\n      0x00\n        /* \"#utility.yul\":9380:9431   */\n      tag_217\n        /* \"#utility.yul\":9428:9429   */\n      0x00\n        /* \"#utility.yul\":9424:9430   */\n      not\n        /* \"#utility.yul\":9416:9421   */\n      dup5\n        /* \"#utility.yul\":9413:9414   */\n      0x08\n        /* \"#utility.yul\":9409:9422   */\n      mul\n        /* \"#utility.yul\":9380:9431   */\n      tag_97\n      jump\t// in\n    tag_217:\n        /* \"#utility.yul\":9376:9432   */\n      not\n        /* \"#utility.yul\":9461:9465   */\n      dup1\n        /* \"#utility.yul\":9455:9459   */\n      dup4\n        /* \"#utility.yul\":9451:9466   */\n      and\n        /* \"#utility.yul\":9441:9466   */\n      swap2\n      pop\n        /* \"#utility.yul\":9354:9472   */\n      pop\n        /* \"#utility.yul\":9303:9472   */\n      swap3\n      swap2\n      pop\n      pop\n      jump\t// out\n        /* \"#utility.yul\":9477:9772   */\n    tag_99:\n        /* \"#utility.yul\":9553:9557   */\n      0x00\n        /* \"#utility.yul\":9699:9728   */\n      tag_219\n        /* \"#utility.yul\":9724:9727   */\n      dup4\n        /* \"#utility.yul\":9718:9722   */\n      dup4\n        /* \"#utility.yul\":9699:9728   */\n      tag_98\n      jump\t// in\n    tag_219:\n        /* \"#utility.yul\":9691:9728   */\n      swap2\n      pop\n        /* \"#utility.yul\":9761:9764   */\n      dup3\n        /* \"#utility.yul\":9758:9759   */\n      0x02\n        /* \"#utility.yul\":9754:9765   */\n      mul\n        /* \"#utility.yul\":9748:9752   */\n      dup3\n        /* \"#utility.yul\":9745:9766   */\n      or\n        /* \"#utility.yul\":9737:9766   */\n      swap1\n      pop\n        /* \"#utility.yul\":9477:9772   */\n      swap3\n      swap2\n      pop\n      pop\n      jump\t// out\n        /* \"#utility.yul\":9777:11172   */\n    tag_49:\n        /* \"#utility.yul\":9894:9931   */\n      tag_221\n        /* \"#utility.yul\":9927:9930   */\n      dup3\n        /* \"#utility.yul\":9894:9931   */\n      tag_82\n      jump\t// in\n    tag_221:\n        /* \"#utility.yul\":9996:10014   */\n      0xffffffffffffffff\n        /* \"#utility.yul\":9988:9994   */\n      dup2\n        /* \"#utility.yul\":9985:10015   */\n      gt\n        /* \"#utility.yul\":9982:10038   */\n      iszero\n      tag_222\n      jumpi\n        /* \"#utility.yul\":10018:10036   */\n      tag_223\n      tag_69\n      jump\t// in\n    tag_223:\n        /* \"#utility.yul\":9982:10038   */\n    tag_222:\n        /* \"#utility.yul\":10062:10100   */\n      tag_224\n        /* \"#utility.yul\":10094:10098   */\n      dup3\n        /* \"#utility.yul\":10088:10099   */\n      sload\n        /* \"#utility.yul\":10062:10100   */\n      tag_84\n      jump\t// in\n    tag_224:\n        /* \"#utility.yul\":10147:10214   */\n      tag_225\n        /* \"#utility.yul\":10207:10213   */\n      dup3\n        /* \"#utility.yul\":10199:10205   */\n      dup3\n        /* \"#utility.yul\":10193:10197   */\n      dup6\n        /* \"#utility.yul\":10147:10214   */\n      tag_96\n      jump\t// in\n    tag_225:\n        /* \"#utility.yul\":10241:10242   */\n      0x00\n        /* \"#utility.yul\":10265:10269   */\n      0x20\n        /* \"#utility.yul\":10252:10269   */\n      swap1\n      pop\n        /* \"#utility.yul\":10297:10299   */\n      0x1f\n        /* \"#utility.yul\":10289:10295   */\n      dup4\n        /* \"#utility.yul\":10286:10300   */\n      gt\n        /* \"#utility.yul\":10314:10315   */\n      0x01\n        /* \"#utility.yul\":10309:10927   */\n      dup2\n      eq\n      tag_227\n      jumpi\n        /* \"#utility.yul\":10971:10972   */\n      0x00\n        /* \"#utility.yul\":10988:10994   */\n      dup5\n        /* \"#utility.yul\":10985:11062   */\n      iszero\n      tag_228\n      jumpi\n        /* \"#utility.yul\":11037:11046   */\n      dup3\n        /* \"#utility.yul\":11032:11035   */\n      dup8\n        /* \"#utility.yul\":11028:11047   */\n      add\n        /* \"#utility.yul\":11022:11048   */\n      mload\n        /* \"#utility.yul\":11013:11048   */\n      swap1\n      pop\n        /* \"#utility.yul\":10985:11062   */\n    tag_228:\n        /* \"#utility.yul\":11088:11155   */\n      tag_229\n        /* \"#utility.yul\":11148:11154   */\n      dup6\n        /* \"#utility.yul\":11141:11146   */\n      dup3\n        /* \"#utility.yul\":11088:11155   */\n      tag_99\n      jump\t// in\n    tag_229:\n        /* \"#utility.yul\":11082:11086   */\n      dup7\n        /* \"#utility.yul\":11075:11156   */\n      sstore\n        /* \"#utility.yul\":10944:11166   */\n      pop\n        /* \"#utility.yul\":10279:11166   */\n      jump(tag_226)\n        /* \"#utility.yul\":10309:10927   */\n    tag_227:\n        /* \"#utility.yul\":10361:10365   */\n      0x1f\n        /* \"#utility.yul\":10357:10366   */\n      not\n        /* \"#utility.yul\":10349:10355   */\n      dup5\n        /* \"#utility.yul\":10345:10367   */\n      and\n        /* \"#utility.yul\":10395:10432   */\n      tag_230\n        /* \"#utility.yul\":10427:10431   */\n      dup7\n        /* \"#utility.yul\":10395:10432   */\n      tag_85\n      jump\t// in\n    tag_230:\n        /* \"#utility.yul\":10454:10455   */\n      0x00\n        /* \"#utility.yul\":10468:10676   */\n    tag_231:\n        /* \"#utility.yul\":10482:10489   */\n      dup3\n        /* \"#utility.yul\":10479:10480   */\n      dup2\n        /* \"#utility.yul\":10476:10490   */\n      lt\n        /* \"#utility.yul\":10468:10676   */\n      iszero\n      tag_233\n      jumpi\n        /* \"#utility.yul\":10561:10570   */\n      dup5\n        /* \"#utility.yul\":10556:10559   */\n      dup10\n        /* \"#utility.yul\":10552:10571   */\n      add\n        /* \"#utility.yul\":10546:10572   */\n      mload\n        /* \"#utility.yul\":10538:10544   */\n      dup3\n        /* \"#utility.yul\":10531:10573   */\n      sstore\n        /* \"#utility.yul\":10612:10613   */\n      0x01\n        /* \"#utility.yul\":10604:10610   */\n      dup3\n        /* \"#utility.yul\":10600:10614   */\n      add\n        /* \"#utility.yul\":10590:10614   */\n      swap2\n      pop\n        /* \"#utility.yul\":10659:10661   */\n      0x20\n        /* \"#utility.yul\":10648:10657   */\n      dup6\n        /* \"#utility.yul\":10644:10662   */\n      add\n        /* \"#utility.yul\":10631:10662   */\n      swap5\n      pop\n        /* \"#utility.yul\":10505:10509   */\n      0x20\n        /* \"#utility.yul\":10502:10503   */\n      dup2\n        /* \"#utility.yul\":10498:10510   */\n      add\n        /* \"#utility.yul\":10493:10510   */\n      swap1\n      pop\n        /* \"#utility.yul\":10468:10676   */\n      jump(tag_231)\n    tag_233:\n        /* \"#utility.yul\":10704:10710   */\n      dup7\n        /* \"#utility.yul\":10695:10702   */\n      dup4\n        /* \"#utility.yul\":10692:10711   */\n      lt\n        /* \"#utility.yul\":10689:10868   */\n      iszero\n      tag_234\n      jumpi\n        /* \"#utility.yul\":10762:10771   */\n      dup5\n        /* \"#utility.yul\":10757:10760   */\n      dup10\n        /* \"#utility.yul\":10753:10772   */\n      add\n        /* \"#utility.yul\":10747:10773   */\n      mload\n        /* \"#utility.yul\":10805:10853   */\n      tag_235\n        /* \"#utility.yul\":10847:10851   */\n      0x1f\n        /* \"#utility.yul\":10839:10845   */\n      dup10\n        /* \"#utility.yul\":10835:10852   */\n      and\n        /* \"#utility.yul\":10824:10833   */\n      dup3\n        /* \"#utility.yul\":10805:10853   */\n      tag_98\n      jump\t// in\n    tag_235:\n        /* \"#utility.yul\":10797:10803   */\n      dup4\n        /* \"#utility.yul\":10790:10854   */\n      sstore\n        /* \"#utility.yul\":10712:10868   */\n      pop\n        /* \"#utility.yul\":10689:10868   */\n    tag_234:\n        /* \"#utility.yul\":10914:10915   */\n      0x01\n        /* \"#utility.yul\":10910:10911   */\n      0x02\n        /* \"#utility.yul\":10902:10908   */\n      dup9\n        /* \"#utility.yul\":10898:10912   */\n      mul\n        /* \"#utility.yul\":10894:10916   */\n      add\n        /* \"#utility.yul\":10888:10892   */\n      dup9\n        /* \"#utility.yul\":10881:10917   */\n      sstore\n        /* \"#utility.yul\":10316:10927   */\n      pop\n      pop\n      pop\n        /* \"#utility.yul\":10279:11166   */\n    tag_226:\n      pop\n        /* \"#utility.yul\":9869:11172   */\n      pop\n      pop\n      pop\n        /* \"#utility.yul\":9777:11172   */\n      pop\n      pop\n      jump\t// out\n\n    auxdata: 0xa264697066735822122006707e8ecea010ce619e724bea552add88bd6b64cbb78597f243425ec7baf46364736f6c63430008120033\n}\n","bytecode":{"linkReferences":{},"object":"60806040523480156200001157600080fd5b5060405162000dce38038062000dce83398181016040528101906200003791906200012b565b806000806101000a81548173ffffffffffffffffffffffffffffffffffffffff021916908373ffffffffffffffffffffffffffffffffffffffff16021790555081600181905550505062000172565b600080fd5b6000819050919050565b620000a0816200008b565b8114620000ac57600080fd5b50565b600081519050620000c08162000095565b92915050565b600073ffffffffffffffffffffffffffffffffffffffff82169050919050565b6000620000f382620000c6565b9050919050565b6200010581620000e6565b81146200011157600080fd5b50565b6000815190506200012581620000fa565b92915050565b6000806040838503121562000145576200014462000086565b5b60006200015585828601620000af565b9250506020620001688582860162000114565b9150509250929050565b610c4c80620001826000396000f3fe6080604052600436106100555760003560e01c8063034410061461005a578063481c6a75146100835780638a9cfd55146100ae578063937e09b1146100d7578063d7bb99ba14610102578063d7d1bbdb1461010c575b600080fd5b34801561006657600080fd5b50610081600480360381019061007c91906105b0565b610135565b005b34801561008f57600080fd5b5061009861026e565b6040516100a5919061061e565b60405180910390f35b3480156100ba57600080fd5b506100d560048036038101906100d091906107bd565b610292565b005b3480156100e357600080fd5b506100ec6103a2565b6040516100f9919061083b565b60405180910390f35b61010a6103a8565b005b34801561011857600080fd5b50610133600480360381019061012e91906105b0565b610428565b005b60008054906101000a900473ffffffffffffffffffffffffffffffffffffffff1673ffffffffffffffffffffffffffffffffffffffff163373ffffffffffffffffffffffffffffffffffffffff161461018d57600080fd5b600060056000838152602001908152602001600020905060026003546101b391906108b4565b8160030154116101c257600080fd5b8060020160149054906101000a900460ff16156101de57600080fd5b8060020160009054906101000a900473ffffffffffffffffffffffffffffffffffffffff1673ffffffffffffffffffffffffffffffffffffffff166108fc82600101549081150290604051600060405180830381858888f1935050505015801561024c573d6000803e3d6000fd5b5060018160020160146101000a81548160ff0219169083151502179055505050565b60008054906101000a900473ffffffffffffffffffffffffffffffffffffffff1681565b60008054906101000a900473ffffffffffffffffffffffffffffffffffffffff1673ffffffffffffffffffffffffffffffffffffffff163373ffffffffffffffffffffffffffffffffffffffff16146102ea57600080fd5b60006005600060046000815480929190610303906108e5565b9190505581526020019081526020016000209050838160000190816103289190610b44565b50828160010181905550818160020160006101000a81548173ffffffffffffffffffffffffffffffffffffffff021916908373ffffffffffffffffffffffffffffffffffffffff16021790555060008160020160146101000a81548160ff0219169083151502179055506000816003018190555050505050565b60015481565b60015434116103b657600080fd5b6001600260003373ffffffffffffffffffffffffffffffffffffffff1673ffffffffffffffffffffffffffffffffffffffff16815260200190815260200160002060006101000a81548160ff02191690831515021790555060036000815480929190610421906108e5565b9190505550565b6000600560008381526020019081526020016000209050600260003373ffffffffffffffffffffffffffffffffffffffff1673ffffffffffffffffffffffffffffffffffffffff16815260200190815260200160002060009054906101000a900460ff1661049557600080fd5b8060040160003373ffffffffffffffffffffffffffffffffffffffff1673ffffffffffffffffffffffffffffffffffffffff16815260200190815260200160002060009054906101000a900460ff16156104ee57600080fd5b60018160040160003373ffffffffffffffffffffffffffffffffffffffff1673ffffffffffffffffffffffffffffffffffffffff16815260200190815260200160002060006101000a81548160ff02191690831515021790555080600301600081548092919061055d906108e5565b91905055505050565b6000604051905090565b600080fd5b600080fd5b6000819050919050565b61058d8161057a565b811461059857600080fd5b50565b6000813590506105aa81610584565b92915050565b6000602082840312156105c6576105c5610570565b5b60006105d48482850161059b565b91505092915050565b600073ffffffffffffffffffffffffffffffffffffffff82169050919050565b6000610608826105dd565b9050919050565b610618816105fd565b82525050565b6000602082019050610633600083018461060f565b92915050565b600080fd5b600080fd5b6000601f19601f8301169050919050565b7f4e487b7100000000000000000000000000000000000000000000000000000000600052604160045260246000fd5b61068c82610643565b810181811067ffffffffffffffff821117156106ab576106aa610654565b5b80604052505050565b60006106be610566565b90506106ca8282610683565b919050565b600067ffffffffffffffff8211156106ea576106e9610654565b5b6106f382610643565b9050602081019050919050565b82818337600083830152505050565b600061072261071d846106cf565b6106b4565b90508281526020810184848401111561073e5761073d61063e565b5b610749848285610700565b509392505050565b600082601f83011261076657610765610639565b5b813561077684826020860161070f565b91505092915050565b600061078a826105dd565b9050919050565b61079a8161077f565b81146107a557600080fd5b50565b6000813590506107b781610791565b92915050565b6000806000606084860312156107d6576107d5610570565b5b600084013567ffffffffffffffff8111156107f4576107f3610575565b5b61080086828701610751565b93505060206108118682870161059b565b9250506040610822868287016107a8565b9150509250925092565b6108358161057a565b82525050565b6000602082019050610850600083018461082c565b92915050565b7f4e487b7100000000000000000000000000000000000000000000000000000000600052601260045260246000fd5b7f4e487b7100000000000000000000000000000000000000000000000000000000600052601160045260246000fd5b60006108bf8261057a565b91506108ca8361057a565b9250826108da576108d9610856565b5b828204905092915050565b60006108f08261057a565b91507fffffffffffffffffffffffffffffffffffffffffffffffffffffffffffffffff820361092257610921610885565b5b600182019050919050565b600081519050919050565b7f4e487b7100000000000000000000000000000000000000000000000000000000600052602260045260246000fd5b6000600282049050600182168061097f57607f821691505b60208210810361099257610991610938565b5b50919050565b60008190508160005260206000209050919050565b60006020601f8301049050919050565b600082821b905092915050565b6000600883026109fa7fffffffffffffffffffffffffffffffffffffffffffffffffffffffffffffffff826109bd565b610a0486836109bd565b95508019841693508086168417925050509392505050565b6000819050919050565b6000610a41610a3c610a378461057a565b610a1c565b61057a565b9050919050565b6000819050919050565b610a5b83610a26565b610a6f610a6782610a48565b8484546109ca565b825550505050565b600090565b610a84610a77565b610a8f818484610a52565b505050565b5b81811015610ab357610aa8600082610a7c565b600181019050610a95565b5050565b601f821115610af857610ac981610998565b610ad2846109ad565b81016020851015610ae1578190505b610af5610aed856109ad565b830182610a94565b50505b505050565b600082821c905092915050565b6000610b1b60001984600802610afd565b1980831691505092915050565b6000610b348383610b0a565b9150826002028217905092915050565b610b4d8261092d565b67ffffffffffffffff811115610b6657610b65610654565b5b610b708254610967565b610b7b828285610ab7565b600060209050601f831160018114610bae5760008415610b9c578287015190505b610ba68582610b28565b865550610c0e565b601f198416610bbc86610998565b60005b82811015610be457848901518255600182019150602085019450602081019050610bbf565b86831015610c015784890151610bfd601f891682610b0a565b8355505b6001600288020188555050505b50505050505056fea264697066735822122006707e8ecea010ce619e724bea552add88bd6b64cbb78597f243425ec7baf46364736f6c63430008120033","opcodes":"PUSH1 0x80 PUSH1 0x40 MSTORE CALLVALUE DUP1 ISZERO PUSH3 0x11 JUMPI PUSH1 0x0 DUP1 REVERT JUMPDEST POP PUSH1 0x40 MLOAD PUSH3 0xDCE CODESIZE SUB DUP1 PUSH3 0xDCE DUP4 CODECOPY DUP2 DUP2 ADD PUSH1 0x40 MSTORE DUP2 ADD SWAP1 PUSH3 0x37 SWAP2 SWAP1 PUSH3 0x12B JUMP JUMPDEST DUP1 PUSH1 0x0 DUP1 PUSH2 0x100 EXP DUP2 SLOAD DUP2 PUSH20 0xFFFFFFFFFFFFFFFFFFFFFFFFFFFFFFFFFFFFFFFF MUL NOT AND SWAP1 DUP4 PUSH20 0xFFFFFFFFFFFFFFFFFFFFFFFFFFFFFFFFFFFFFFFF AND MUL OR SWAP1 SSTORE POP DUP2 PUSH1 0x1 DUP2 SWAP1 SSTORE POP POP POP PUSH3 0x172 JUMP JUMPDEST PUSH1 0x0 DUP1 REVERT JUMPDEST PUSH1 0x0 DUP2 SWAP1 POP SWAP2 SWAP1 POP JUMP JUMPDEST PUSH3 0xA0 DUP2 PUSH3 0x8B JUMP JUMPDEST DUP2 EQ PUSH3 0xAC JUMPI PUSH1 0x0 DUP1 REVERT JUMPDEST POP JUMP JUMPDEST PUSH1 0x0 DUP2 MLOAD SWAP1 POP PUSH3 0xC0 DUP2 PUSH3 0x95 JUMP JUMPDEST SWAP3 SWAP2 POP POP JUMP JUMPDEST PUSH1 0x0 PUSH20 0xFFFFFFFFFFFFFFFFFFFFFFFFFFFFFFFFFFFFFFFF DUP3 AND SWAP1 POP SWAP2 SWAP1 POP JUMP JUMPDEST PUSH1 0x0 PUSH3 0xF3 DUP3 PUSH3 0xC6 JUMP JUMPDEST SWAP1 POP SWAP2 SWAP1 POP JUMP JUMPDEST PUSH3 0x105 DUP2 PUSH3 0xE6 JUMP JUMPDEST DUP2 EQ PUSH3 0x111 JUMPI PUSH1 0x0 DUP1 REVERT JUMPDEST POP JUMP JUMPDEST PUSH1 0x0 DUP2 MLOAD SWAP1 POP PUSH3 0x125 DUP2 PUSH3 0xFA JUMP JUMPDEST SWAP3 SWAP2 POP POP JUMP JUMPDEST PUSH1 0x0 DUP1 PUSH1 0x40 DUP4 DUP6 SUB SLT ISZERO PUSH3 0x145 JUMPI PUSH3 0x144 PUSH3 0x86 JUMP JUMPDEST JUMPDEST PUSH1 0x0 PUSH3 0x155 DUP6 DUP3 DUP7 ADD PUSH3 0xAF JUMP JUMPDEST SWAP3 POP POP PUSH1 0x20 PUSH3 0x168 DUP6 DUP3 DUP7 ADD PUSH3 0x114 JUMP JUMPDEST SWAP2 POP POP SWAP3 POP SWAP3 SWAP1 POP JUMP JUMPDEST PUSH2 0xC4C DUP1 PUSH3 0x182 PUSH1 0x0 CODECOPY PUSH1 0x0 RETURN INVALID PUSH1 0x80 PUSH1 0x40 MSTORE PUSH1 0x4 CALLDATASIZE LT PUSH2 0x55 JUMPI PUSH1 0x0 CALLDATALOAD PUSH1 0xE0 SHR DUP1 PUSH4 0x3441006 EQ PUSH2 0x5A JUMPI DUP1 PUSH4 0x481C6A75 EQ PUSH2 0x83 JUMPI DUP1 PUSH4 0x8A9CFD55 EQ PUSH2 0xAE JUMPI DUP1 PUSH4 0x937E09B1 EQ PUSH2 0xD7 JUMPI DUP1 PUSH4 0xD7BB99BA EQ PUSH2 0x102 JUMPI DUP1 PUSH4 0xD7D1BBDB EQ PUSH2 0x10C JUMPI JUMPDEST PUSH1 0x0 DUP1 REVERT JUMPDEST CALLVALUE DUP1 ISZERO PUSH2 0x66 JUMPI PUSH1 0x0 DUP1 REVERT JUMPDEST POP PUSH2 0x81 PUSH1 0x4 DUP1 CALLDATASIZE SUB DUP2 ADD SWAP1 PUSH2 0x7C SWAP2 SWAP1 PUSH2 0x5B0 JUMP JUMPDEST PUSH2 0x135 JUMP JUMPDEST STOP JUMPDEST CALLVALUE DUP1 ISZERO PUSH2 0x8F JUMPI PUSH1 0x0 DUP1 REVERT JUMPDEST POP PUSH2 0x98 PUSH2 0x26E JUMP JUMPDEST PUSH1 0x40 MLOAD PUSH2 0xA5 SWAP2 SWAP1 PUSH2 0x61E JUMP JUMPDEST PUSH1 0x40 MLOAD DUP1 SWAP2 SUB SWAP1 RETURN JUMPDEST CALLVALUE DUP1 ISZERO PUSH2 0xBA JUMPI PUSH1 0x0 DUP1 REVERT JUMPDEST POP PUSH2 0xD5 PUSH1 0x4 DUP1 CALLDATASIZE SUB DUP2 ADD SWAP1 PUSH2 0xD0 SWAP2 SWAP1 PUSH2 0x7BD JUMP JUMPDEST PUSH2 0x292 JUMP JUMPDEST STOP JUMPDEST CALLVALUE DUP1 ISZERO PUSH2 0xE3 JUMPI PUSH1 0x0 DUP1 REVERT JUMPDEST POP PUSH2 0xEC PUSH2 0x3A2 JUMP JUMPDEST PUSH1 0x40 MLOAD PUSH2 0xF9 SWAP2 SWAP1 PUSH2 0x83B JUMP JUMPDEST PUSH1 0x40 MLOAD DUP1 SWAP2 SUB SWAP1 RETURN JUMPDEST PUSH2 0x10A PUSH2 0x3A8 JUMP JUMPDEST STOP JUMPDEST CALLVALUE DUP1 ISZERO PUSH2 0x118 JUMPI PUSH1 0x0 DUP1 REVERT JUMPDEST POP PUSH2 0x133 PUSH1 0x4 DUP1 CALLDATASIZE SUB DUP2 ADD SWAP1 PUSH2 0x12E SWAP2 SWAP1 PUSH2 0x5B0 JUMP JUMPDEST PUSH2 0x428 JUMP JUMPDEST STOP JUMPDEST PUSH1 0x0 DUP1 SLOAD SWAP1 PUSH2 0x100 EXP SWAP1 DIV PUSH20 0xFFFFFFFFFFFFFFFFFFFFFFFFFFFFFFFFFFFFFFFF AND PUSH20 0xFFFFFFFFFFFFFFFFFFFFFFFFFFFFFFFFFFFFFFFF AND CALLER PUSH20 0xFFFFFFFFFFFFFFFFFFFFFFFFFFFFFFFFFFFFFFFF AND EQ PUSH2 0x18D JUMPI PUSH1 0x0 DUP1 REVERT JUMPDEST PUSH1 0x0 PUSH1 0x5 PUSH1 0x0 DUP4 DUP2 MSTORE PUSH1 0x20 ADD SWAP1 DUP2 MSTORE PUSH1 0x20 ADD PUSH1 0x0 KECCAK256 SWAP1 POP PUSH1 0x2 PUSH1 0x3 SLOAD PUSH2 0x1B3 SWAP2 SWAP1 PUSH2 0x8B4 JUMP JUMPDEST DUP2 PUSH1 0x3 ADD SLOAD GT PUSH2 0x1C2 JUMPI PUSH1 0x0 DUP1 REVERT JUMPDEST DUP1 PUSH1 0x2 ADD PUSH1 0x14 SWAP1 SLOAD SWAP1 PUSH2 0x100 EXP SWAP1 DIV PUSH1 0xFF AND ISZERO PUSH2 0x1DE JUMPI PUSH1 0x0 DUP1 REVERT JUMPDEST DUP1 PUSH1 0x2 ADD PUSH1 0x0 SWAP1 SLOAD SWAP1 PUSH2 0x100 EXP SWAP1 DIV PUSH20 0xFFFFFFFFFFFFFFFFFFFFFFFFFFFFFFFFFFFFFFFF AND PUSH20 0xFFFFFFFFFFFFFFFFFFFFFFFFFFFFFFFFFFFFFFFF AND PUSH2 0x8FC DUP3 PUSH1 0x1 ADD SLOAD SWAP1 DUP2 ISZERO MUL SWAP1 PUSH1 0x40 MLOAD PUSH1 0x0 PUSH1 0x40 MLOAD DUP1 DUP4 SUB DUP2 DUP6 DUP9 DUP9 CALL SWAP4 POP POP POP POP ISZERO DUP1 ISZERO PUSH2 0x24C JUMPI RETURNDATASIZE PUSH1 0x0 DUP1 RETURNDATACOPY RETURNDATASIZE PUSH1 0x0 REVERT JUMPDEST POP PUSH1 0x1 DUP2 PUSH1 0x2 ADD PUSH1 0x14 PUSH2 0x100 EXP DUP2 SLOAD DUP2 PUSH1 0xFF MUL NOT AND SWAP1 DUP4 ISZERO ISZERO MUL OR SWAP1 SSTORE POP POP POP JUMP JUMPDEST PUSH1 0x0 DUP1 SLOAD SWAP1 PUSH2 0x100 EXP SWAP1 DIV PUSH20 0xFFFFFFFFFFFFFFFFFFFFFFFFFFFFFFFFFFFFFFFF AND DUP2 JUMP JUMPDEST PUSH1 0x0 DUP1 SLOAD SWAP1 PUSH2 0x100 EXP SWAP1 DIV PUSH20 0xFFFFFFFFFFFFFFFFFFFFFFFFFFFFFFFFFFFFFFFF AND PUSH20 0xFFFFFFFFFFFFFFFFFFFFFFFFFFFFFFFFFFFFFFFF AND CALLER PUSH20 0xFFFFFFFFFFFFFFFFFFFFFFFFFFFFFFFFFFFFFFFF AND EQ PUSH2 0x2EA JUMPI PUSH1 0x0 DUP1 REVERT JUMPDEST PUSH1 0x0 PUSH1 0x5 PUSH1 0x0 PUSH1 0x4 PUSH1 0x0 DUP2 SLOAD DUP1 SWAP3 SWAP2 SWAP1 PUSH2 0x303 SWAP1 PUSH2 0x8E5 JUMP JUMPDEST SWAP2 SWAP1 POP SSTORE DUP2 MSTORE PUSH1 0x20 ADD SWAP1 DUP2 MSTORE PUSH1 0x20 ADD PUSH1 0x0 KECCAK256 SWAP1 POP DUP4 DUP2 PUSH1 0x0 ADD SWAP1 DUP2 PUSH2 0x328 SWAP2 SWAP1 PUSH2 0xB44 JUMP JUMPDEST POP DUP3 DUP2 PUSH1 0x1 ADD DUP2 SWAP1 SSTORE POP DUP2 DUP2 PUSH1 0x2 ADD PUSH1 0x0 PUSH2 0x100 EXP DUP2 SLOAD DUP2 PUSH20 0xFFFFFFFFFFFFFFFFFFFFFFFFFFFFFFFFFFFFFFFF MUL NOT AND SWAP1 DUP4 PUSH20 0xFFFFFFFFFFFFFFFFFFFFFFFFFFFFFFFFFFFFFFFF AND MUL OR SWAP1 SSTORE POP PUSH1 0x0 DUP2 PUSH1 0x2 ADD PUSH1 0x14 PUSH2 0x100 EXP DUP2 SLOAD DUP2 PUSH1 0xFF MUL NOT AND SWAP1 DUP4 ISZERO ISZERO MUL OR SWAP1 SSTORE POP PUSH1 0x0 DUP2 PUSH1 0x3 ADD DUP2 SWAP1 SSTORE POP POP POP POP POP JUMP JUMPDEST PUSH1 0x1 SLOAD DUP2 JUMP JUMPDEST PUSH1 0x1 SLOAD CALLVALUE GT PUSH2 0x3B6 JUMPI PUSH1 0x0 DUP1 REVERT JUMPDEST PUSH1 0x1 PUSH1 0x2 PUSH1 0x0 CALLER PUSH20 0xFFFFFFFFFFFFFFFFFFFFFFFFFFFFFFFFFFFFFFFF AND PUSH20 0xFFFFFFFFFFFFFFFFFFFFFFFFFFFFFFFFFFFFFFFF AND DUP2 MSTORE PUSH1 0x20 ADD SWAP1 DUP2 MSTORE PUSH1 0x20 ADD PUSH1 0x0 KECCAK256 PUSH1 0x0 PUSH2 0x100 EXP DUP2 SLOAD DUP2 PUSH1 0xFF MUL NOT AND SWAP1 DUP4 ISZERO ISZERO MUL OR SWAP1 SSTORE POP PUSH1 0x3 PUSH1 0x0 DUP2 SLOAD DUP1 SWAP3 SWAP2 SWAP1 PUSH2 0x421 SWAP1 PUSH2 0x8E5 JUMP JUMPDEST SWAP2 SWAP1 POP SSTORE POP JUMP JUMPDEST PUSH1 0x0 PUSH1 0x5 PUSH1 0x0 DUP4 DUP2 MSTORE PUSH1 0x20 ADD SWAP1 DUP2 MSTORE PUSH1 0x20 ADD PUSH1 0x0 KECCAK256 SWAP1 POP PUSH1 0x2 PUSH1 0x0 CALLER PUSH20 0xFFFFFFFFFFFFFFFFFFFFFFFFFFFFFFFFFFFFFFFF AND PUSH20 0xFFFFFFFFFFFFFFFFFFFFFFFFFFFFFFFFFFFFFFFF AND DUP2 MSTORE PUSH1 0x20 ADD SWAP1 DUP2 MSTORE PUSH1 0x20 ADD PUSH1 0x0 KECCAK256 PUSH1 0x0 SWAP1 SLOAD SWAP1 PUSH2 0x100 EXP SWAP1 DIV PUSH1 0xFF AND PUSH2 0x495 JUMPI PUSH1 0x0 DUP1 REVERT JUMPDEST DUP1 PUSH1 0x4 ADD PUSH1 0x0 CALLER PUSH20 0xFFFFFFFFFFFFFFFFFFFFFFFFFFFFFFFFFFFFFFFF AND PUSH20 0xFFFFFFFFFFFFFFFFFFFFFFFFFFFFFFFFFFFFFFFF AND DUP2 MSTORE PUSH1 0x20 ADD SWAP1 DUP2 MSTORE PUSH1 0x20 ADD PUSH1 0x0 KECCAK256 PUSH1 0x0 SWAP1 SLOAD SWAP1 PUSH2 0x100 EXP SWAP1 DIV PUSH1 0xFF AND ISZERO PUSH2 0x4EE JUMPI PUSH1 0x0 DUP1 REVERT JUMPDEST PUSH1 0x1 DUP2 PUSH1 0x4 ADD PUSH1 0x0 CALLER PUSH20 0xFFFFFFFFFFFFFFFFFFFFFFFFFFFFFFFFFFFFFFFF AND PUSH20 0xFFFFFFFFFFFFFFFFFFFFFFFFFFFFFFFFFFFFFFFF AND DUP2 MSTORE PUSH1 0x20 ADD SWAP1 DUP2 MSTORE PUSH1 0x20 ADD PUSH1 0x0 KECCAK256 PUSH1 0x0 PUSH2 0x100 EXP DUP2 SLOAD DUP2 PUSH1 0xFF MUL NOT AND SWAP1 DUP4 ISZERO ISZERO MUL OR SWAP1 SSTORE POP DUP1 PUSH1 0x3 ADD PUSH1 0x0 DUP2 SLOAD DUP1 SWAP3 SWAP2 SWAP1 PUSH2 0x55D SWAP1 PUSH2 0x8E5 JUMP JUMPDEST SWAP2 SWAP1 POP SSTORE POP POP POP JUMP JUMPDEST PUSH1 0x0 PUSH1 0x40 MLOAD SWAP1 POP SWAP1 JUMP JUMPDEST PUSH1 0x0 DUP1 REVERT JUMPDEST PUSH1 0x0 DUP1 REVERT JUMPDEST PUSH1 0x0 DUP2 SWAP1 POP SWAP2 SWAP1 POP JUMP JUMPDEST PUSH2 0x58D DUP2 PUSH2 0x57A JUMP JUMPDEST DUP2 EQ PUSH2 0x598 JUMPI PUSH1 0x0 DUP1 REVERT JUMPDEST POP JUMP JUMPDEST PUSH1 0x0 DUP2 CALLDATALOAD SWAP1 POP PUSH2 0x5AA DUP2 PUSH2 0x584 JUMP JUMPDEST SWAP3 SWAP2 POP POP JUMP JUMPDEST PUSH1 0x0 PUSH1 0x20 DUP3 DUP5 SUB SLT ISZERO PUSH2 0x5C6 JUMPI PUSH2 0x5C5 PUSH2 0x570 JUMP JUMPDEST JUMPDEST PUSH1 0x0 PUSH2 0x5D4 DUP5 DUP3 DUP6 ADD PUSH2 0x59B JUMP JUMPDEST SWAP2 POP POP SWAP3 SWAP2 POP POP JUMP JUMPDEST PUSH1 0x0 PUSH20 0xFFFFFFFFFFFFFFFFFFFFFFFFFFFFFFFFFFFFFFFF DUP3 AND SWAP1 POP SWAP2 SWAP1 POP JUMP JUMPDEST PUSH1 0x0 PUSH2 0x608 DUP3 PUSH2 0x5DD JUMP JUMPDEST SWAP1 POP SWAP2 SWAP1 POP JUMP JUMPDEST PUSH2 0x618 DUP2 PUSH2 0x5FD JUMP JUMPDEST DUP3 MSTORE POP POP JUMP JUMPDEST PUSH1 0x0 PUSH1 0x20 DUP3 ADD SWAP1 POP PUSH2 0x633 PUSH1 0x0 DUP4 ADD DUP5 PUSH2 0x60F JUMP JUMPDEST SWAP3 SWAP2 POP POP JUMP JUMPDEST PUSH1 0x0 DUP1 REVERT JUMPDEST PUSH1 0x0 DUP1 REVERT JUMPDEST PUSH1 0x0 PUSH1 0x1F NOT PUSH1 0x1F DUP4 ADD AND SWAP1 POP SWAP2 SWAP1 POP JUMP JUMPDEST PUSH32 0x4E487B7100000000000000000000000000000000000000000000000000000000 PUSH1 0x0 MSTORE PUSH1 0x41 PUSH1 0x4 MSTORE PUSH1 0x24 PUSH1 0x0 REVERT JUMPDEST PUSH2 0x68C DUP3 PUSH2 0x643 JUMP JUMPDEST DUP2 ADD DUP2 DUP2 LT PUSH8 0xFFFFFFFFFFFFFFFF DUP3 GT OR ISZERO PUSH2 0x6AB JUMPI PUSH2 0x6AA PUSH2 0x654 JUMP JUMPDEST JUMPDEST DUP1 PUSH1 0x40 MSTORE POP POP POP JUMP JUMPDEST PUSH1 0x0 PUSH2 0x6BE PUSH2 0x566 JUMP JUMPDEST SWAP1 POP PUSH2 0x6CA DUP3 DUP3 PUSH2 0x683 JUMP JUMPDEST SWAP2 SWAP1 POP JUMP JUMPDEST PUSH1 0x0 PUSH8 0xFFFFFFFFFFFFFFFF DUP3 GT ISZERO PUSH2 0x6EA JUMPI PUSH2 0x6E9 PUSH2 0x654 JUMP JUMPDEST JUMPDEST PUSH2 0x6F3 DUP3 PUSH2 0x643 JUMP JUMPDEST SWAP1 POP PUSH1 0x20 DUP2 ADD SWAP1 POP SWAP2 SWAP1 POP JUMP JUMPDEST DUP3 DUP2 DUP4 CALLDATACOPY PUSH1 0x0 DUP4 DUP4 ADD MSTORE POP POP POP JUMP JUMPDEST PUSH1 0x0 PUSH2 0x722 PUSH2 0x71D DUP5 PUSH2 0x6CF JUMP JUMPDEST PUSH2 0x6B4 JUMP JUMPDEST SWAP1 POP DUP3 DUP2 MSTORE PUSH1 0x20 DUP2 ADD DUP5 DUP5 DUP5 ADD GT ISZERO PUSH2 0x73E JUMPI PUSH2 0x73D PUSH2 0x63E JUMP JUMPDEST JUMPDEST PUSH2 0x749 DUP5 DUP3 DUP6 PUSH2 0x700 JUMP JUMPDEST POP SWAP4 SWAP3 POP POP POP JUMP JUMPDEST PUSH1 0x0 DUP3 PUSH1 0x1F DUP4 ADD SLT PUSH2 0x766 JUMPI PUSH2 0x765 PUSH2 0x639 JUMP JUMPDEST JUMPDEST DUP2 CALLDATALOAD PUSH2 0x776 DUP5 DUP3 PUSH1 0x20 DUP7 ADD PUSH2 0x70F JUMP JUMPDEST SWAP2 POP POP SWAP3 SWAP2 POP POP JUMP JUMPDEST PUSH1 0x0 PUSH2 0x78A DUP3 PUSH2 0x5DD JUMP JUMPDEST SWAP1 POP SWAP2 SWAP1 POP JUMP JUMPDEST PUSH2 0x79A DUP2 PUSH2 0x77F JUMP JUMPDEST DUP2 EQ PUSH2 0x7A5 JUMPI PUSH1 0x0 DUP1 REVERT JUMPDEST POP JUMP JUMPDEST PUSH1 0x0 DUP2 CALLDATALOAD SWAP1 POP PUSH2 0x7B7 DUP2 PUSH2 0x791 JUMP JUMPDEST SWAP3 SWAP2 POP POP JUMP JUMPDEST PUSH1 0x0 DUP1 PUSH1 0x0 PUSH1 0x60 DUP5 DUP7 SUB SLT ISZERO PUSH2 0x7D6 JUMPI PUSH2 0x7D5 PUSH2 0x570 JUMP JUMPDEST JUMPDEST PUSH1 0x0 DUP5 ADD CALLDATALOAD PUSH8 0xFFFFFFFFFFFFFFFF DUP2 GT ISZERO PUSH2 0x7F4 JUMPI PUSH2 0x7F3 PUSH2 0x575 JUMP JUMPDEST JUMPDEST PUSH2 0x800 DUP7 DUP3 DUP8 ADD PUSH2 0x751 JUMP JUMPDEST SWAP4 POP POP PUSH1 0x20 PUSH2 0x811 DUP7 DUP3 DUP8 ADD PUSH2 0x59B JUMP JUMPDEST SWAP3 POP POP PUSH1 0x40 PUSH2 0x822 DUP7 DUP3 DUP8 ADD PUSH2 0x7A8 JUMP JUMPDEST SWAP2 POP POP SWAP3 POP SWAP3 POP SWAP3 JUMP JUMPDEST PUSH2 0x835 DUP2 PUSH2 0x57A JUMP JUMPDEST DUP3 MSTORE POP POP JUMP JUMPDEST PUSH1 0x0 PUSH1 0x20 DUP3 ADD SWAP1 POP PUSH2 0x850 PUSH1 0x0 DUP4 ADD DUP5 PUSH2 0x82C JUMP JUMPDEST SWAP3 SWAP2 POP POP JUMP JUMPDEST PUSH32 0x4E487B7100000000000000000000000000000000000000000000000000000000 PUSH1 0x0 MSTORE PUSH1 0x12 PUSH1 0x4 MSTORE PUSH1 0x24 PUSH1 0x0 REVERT JUMPDEST PUSH32 0x4E487B7100000000000000000000000000000000000000000000000000000000 PUSH1 0x0 MSTORE PUSH1 0x11 PUSH1 0x4 MSTORE PUSH1 0x24 PUSH1 0x0 REVERT JUMPDEST PUSH1 0x0 PUSH2 0x8BF DUP3 PUSH2 0x57A JUMP JUMPDEST SWAP2 POP PUSH2 0x8CA DUP4 PUSH2 0x57A JUMP JUMPDEST SWAP3 POP DUP3 PUSH2 0x8DA JUMPI PUSH2 0x8D9 PUSH2 0x856 JUMP JUMPDEST JUMPDEST DUP3 DUP3 DIV SWAP1 POP SWAP3 SWAP2 POP POP JUMP JUMPDEST PUSH1 0x0 PUSH2 0x8F0 DUP3 PUSH2 0x57A JUMP JUMPDEST SWAP2 POP PUSH32 0xFFFFFFFFFFFFFFFFFFFFFFFFFFFFFFFFFFFFFFFFFFFFFFFFFFFFFFFFFFFFFFFF DUP3 SUB PUSH2 0x922 JUMPI PUSH2 0x921 PUSH2 0x885 JUMP JUMPDEST JUMPDEST PUSH1 0x1 DUP3 ADD SWAP1 POP SWAP2 SWAP1 POP JUMP JUMPDEST PUSH1 0x0 DUP2 MLOAD SWAP1 POP SWAP2 SWAP1 POP JUMP JUMPDEST PUSH32 0x4E487B7100000000000000000000000000000000000000000000000000000000 PUSH1 0x0 MSTORE PUSH1 0x22 PUSH1 0x4 MSTORE PUSH1 0x24 PUSH1 0x0 REVERT JUMPDEST PUSH1 0x0 PUSH1 0x2 DUP3 DIV SWAP1 POP PUSH1 0x1 DUP3 AND DUP1 PUSH2 0x97F JUMPI PUSH1 0x7F DUP3 AND SWAP2 POP JUMPDEST PUSH1 0x20 DUP3 LT DUP2 SUB PUSH2 0x992 JUMPI PUSH2 0x991 PUSH2 0x938 JUMP JUMPDEST JUMPDEST POP SWAP2 SWAP1 POP JUMP JUMPDEST PUSH1 0x0 DUP2 SWAP1 POP DUP2 PUSH1 0x0 MSTORE PUSH1 0x20 PUSH1 0x0 KECCAK256 SWAP1 POP SWAP2 SWAP1 POP JUMP JUMPDEST PUSH1 0x0 PUSH1 0x20 PUSH1 0x1F DUP4 ADD DIV SWAP1 POP SWAP2 SWAP1 POP JUMP JUMPDEST PUSH1 0x0 DUP3 DUP3 SHL SWAP1 POP SWAP3 SWAP2 POP POP JUMP JUMPDEST PUSH1 0x0 PUSH1 0x8 DUP4 MUL PUSH2 0x9FA PUSH32 0xFFFFFFFFFFFFFFFFFFFFFFFFFFFFFFFFFFFFFFFFFFFFFFFFFFFFFFFFFFFFFFFF DUP3 PUSH2 0x9BD JUMP JUMPDEST PUSH2 0xA04 DUP7 DUP4 PUSH2 0x9BD JUMP JUMPDEST SWAP6 POP DUP1 NOT DUP5 AND SWAP4 POP DUP1 DUP7 AND DUP5 OR SWAP3 POP POP POP SWAP4 SWAP3 POP POP POP JUMP JUMPDEST PUSH1 0x0 DUP2 SWAP1 POP SWAP2 SWAP1 POP JUMP JUMPDEST PUSH1 0x0 PUSH2 0xA41 PUSH2 0xA3C PUSH2 0xA37 DUP5 PUSH2 0x57A JUMP JUMPDEST PUSH2 0xA1C JUMP JUMPDEST PUSH2 0x57A JUMP JUMPDEST SWAP1 POP SWAP2 SWAP1 POP JUMP JUMPDEST PUSH1 0x0 DUP2 SWAP1 POP SWAP2 SWAP1 POP JUMP JUMPDEST PUSH2 0xA5B DUP4 PUSH2 0xA26 JUMP JUMPDEST PUSH2 0xA6F PUSH2 0xA67 DUP3 PUSH2 0xA48 JUMP JUMPDEST DUP5 DUP5 SLOAD PUSH2 0x9CA JUMP JUMPDEST DUP3 SSTORE POP POP POP POP JUMP JUMPDEST PUSH1 0x0 SWAP1 JUMP JUMPDEST PUSH2 0xA84 PUSH2 0xA77 JUMP JUMPDEST PUSH2 0xA8F DUP2 DUP5 DUP5 PUSH2 0xA52 JUMP JUMPDEST POP POP POP JUMP JUMPDEST JUMPDEST DUP2 DUP2 LT ISZERO PUSH2 0xAB3 JUMPI PUSH2 0xAA8 PUSH1 0x0 DUP3 PUSH2 0xA7C JUMP JUMPDEST PUSH1 0x1 DUP2 ADD SWAP1 POP PUSH2 0xA95 JUMP JUMPDEST POP POP JUMP JUMPDEST PUSH1 0x1F DUP3 GT ISZERO PUSH2 0xAF8 JUMPI PUSH2 0xAC9 DUP2 PUSH2 0x998 JUMP JUMPDEST PUSH2 0xAD2 DUP5 PUSH2 0x9AD JUMP JUMPDEST DUP2 ADD PUSH1 0x20 DUP6 LT ISZERO PUSH2 0xAE1 JUMPI DUP2 SWAP1 POP JUMPDEST PUSH2 0xAF5 PUSH2 0xAED DUP6 PUSH2 0x9AD JUMP JUMPDEST DUP4 ADD DUP3 PUSH2 0xA94 JUMP JUMPDEST POP POP JUMPDEST POP POP POP JUMP JUMPDEST PUSH1 0x0 DUP3 DUP3 SHR SWAP1 POP SWAP3 SWAP2 POP POP JUMP JUMPDEST PUSH1 0x0 PUSH2 0xB1B PUSH1 0x0 NOT DUP5 PUSH1 0x8 MUL PUSH2 0xAFD JUMP JUMPDEST NOT DUP1 DUP4 AND SWAP2 POP POP SWAP3 SWAP2 POP POP JUMP JUMPDEST PUSH1 0x0 PUSH2 0xB34 DUP4 DUP4 PUSH2 0xB0A JUMP JUMPDEST SWAP2 POP DUP3 PUSH1 0x2 MUL DUP3 OR SWAP1 POP SWAP3 SWAP2 POP POP JUMP JUMPDEST PUSH2 0xB4D DUP3 PUSH2 0x92D JUMP JUMPDEST PUSH8 0xFFFFFFFFFFFFFFFF DUP2 GT ISZERO PUSH2 0xB66 JUMPI PUSH2 0xB65 PUSH2 0x654 JUMP JUMPDEST JUMPDEST PUSH2 0xB70 DUP3 SLOAD PUSH2 0x967 JUMP JUMPDEST PUSH2 0xB7B DUP3 DUP3 DUP6 PUSH2 0xAB7 JUMP JUMPDEST PUSH1 0x0 PUSH1 0x20 SWAP1 POP PUSH1 0x1F DUP4 GT PUSH1 0x1 DUP2 EQ PUSH2 0xBAE JUMPI PUSH1 0x0 DUP5 ISZERO PUSH2 0xB9C JUMPI DUP3 DUP8 ADD MLOAD SWAP1 POP JUMPDEST PUSH2 0xBA6 DUP6 DUP3 PUSH2 0xB28 JUMP JUMPDEST DUP7 SSTORE POP PUSH2 0xC0E JUMP JUMPDEST PUSH1 0x1F NOT DUP5 AND PUSH2 0xBBC DUP7 PUSH2 0x998 JUMP JUMPDEST PUSH1 0x0 JUMPDEST DUP3 DUP2 LT ISZERO PUSH2 0xBE4 JUMPI DUP5 DUP10 ADD MLOAD DUP3 SSTORE PUSH1 0x1 DUP3 ADD SWAP2 POP PUSH1 0x20 DUP6 ADD SWAP5 POP PUSH1 0x20 DUP2 ADD SWAP1 POP PUSH2 0xBBF JUMP JUMPDEST DUP7 DUP4 LT ISZERO PUSH2 0xC01 JUMPI DUP5 DUP10 ADD MLOAD PUSH2 0xBFD PUSH1 0x1F DUP10 AND DUP3 PUSH2 0xB0A JUMP JUMPDEST DUP4 SSTORE POP JUMPDEST PUSH1 0x1 PUSH1 0x2 DUP9 MUL ADD DUP9 SSTORE POP POP POP JUMPDEST POP POP POP POP POP POP JUMP INVALID LOG2 PUSH5 0x6970667358 0x22 SLT KECCAK256 MOD PUSH17 0x7E8ECEA010CE619E724BEA552ADD88BD6B PUSH5 0xCBB78597F2 NUMBER TIMESTAMP 0x5E 0xC7 0xBA DELEGATECALL PUSH4 0x64736F6C PUSH4 0x43000812 STOP CALLER "},"gasEstimates":{"creation":{"codeDepositCost":"629600","executionCost":"infinite","totalCost":"infinite"},"external":{"approveRequest(uint256)":"infinite","contribute()":"51021","createRequest(string,uint256,address)":"infinite","finalizeRequest(uint256)":"infinite","manager()":"2511","minimumContribution()":"2473"}},"methodIdentifiers":{"approveRequest(uint256)":"d7d1bbdb","contribute()":"d7bb99ba","createRequest(string,uint256,address)":"8a9cfd55","finalizeRequest(uint256)":"03441006","manager()":"481c6a75","minimumContribution()":"937e09b1"}},"storageLayout":{"storage":[{"astId":56,"contract":"Campaign.sol:Campaign","label":"manager","offset":0,"slot":"0","type":"t_address"},{"astId":58,"contract":"Campaign.sol:Campaign","label":"minimumContribution","offset":0,"slot":"1","type":"t_uint256"},{"astId":62,"contract":"Campaign.sol:Campaign","label":"approvers","offset":0,"slot":"2","type":"t_mapping(t_address,t_bool)"},{"astId":64,"contract":"Campaign.sol:Campaign","label":"approversCount","offset":0,"slot":"3","type":"t_uint256"},{"astId":114,"contract":"Campaign.sol:Campaign","label":"numRequest","offset":0,"slot":"4","type":"t_uint256"},{"astId":119,"contract":"Campaign.sol:Campaign","label":"requests","offset":0,"slot":"5","type":"t_mapping(t_uint256,t_struct(Request)54_storage)"}],"types":{"t_address":{"encoding":"inplace","label":"address","numberOfBytes":"20"},"t_address_payable":{"encoding":"inplace","label":"address payable","numberOfBytes":"20"},"t_bool":{"encoding":"inplace","label":"bool","numberOfBytes":"1"},"t_mapping(t_address,t_bool)":{"encoding":"mapping","key":"t_address","label":"mapping(address => bool)","numberOfBytes":"32","value":"t_bool"},"t_mapping(t_uint256,t_struct(Request)54_storage)":{"encoding":"mapping","key":"t_uint256","label":"mapping(uint256 => struct Campaign.Request)","numberOfBytes":"32","value":"t_struct(Request)54_storage"},"t_string_storage":{"encoding":"bytes","label":"string","numberOfBytes":"32"},"t_struct(Request)54_storage":{"encoding":"inplace","label":"struct Campaign.Request","members":[{"astId":41,"contract":"Campaign.sol:Campaign","label":"description","offset":0,"slot":"0","type":"t_string_storage"},{"astId":43,"contract":"Campaign.sol:Campaign","label":"value","offset":0,"slot":"1","type":"t_uint256"},{"astId":45,"contract":"Campaign.sol:Campaign","label":"recipient","offset":0,"slot":"2","type":"t_address_payable"},{"astId":47,"contract":"Campaign.sol:Campaign","label":"complete","offset":20,"slot":"2","type":"t_bool"},{"astId":49,"contract":"Campaign.sol:Campaign","label":"approvalCount","offset":0,"slot":"3","type":"t_uint256"},{"astId":53,"contract":"Campaign.sol:Campaign","label":"approvals","offset":0,"slot":"4","type":"t_mapping(t_address,t_bool)"}],"numberOfBytes":"160"},"t_uint256":{"encoding":"inplace","label":"uint256","numberOfBytes":"32"}}},"userdoc":{"kind":"user","methods":{},"version":1}}